{
	"contract/firstWork.sol": {
		"Pausable": {
			"abi": [
				{
					"inputs": [],
					"name": "Pause",
					"outputs": [],
					"stateMutability": "nonpayable",
					"type": "function"
				},
				{
					"inputs": [
						{
							"internalType": "address",
							"name": "newOwner",
							"type": "address"
						}
					],
					"name": "transferOwnership",
					"outputs": [],
					"stateMutability": "nonpayable",
					"type": "function"
				},
				{
					"inputs": [],
					"name": "unPause",
					"outputs": [],
					"stateMutability": "nonpayable",
					"type": "function"
				}
			],
			"devdoc": {
				"kind": "dev",
				"methods": {},
				"version": 1
			},
			"evm": {
				"assembly": "    /* \"contract/firstWork.sol\":490:847  contract Pausable is Ownable{\r... */\n  mstore(0x40, 0x80)\n  callvalue\n  dup1\n  iszero\n  tag_1\n  jumpi\n  0x00\n  dup1\n  revert\ntag_1:\n  pop\n    /* \"contract/firstWork.sol\":146:156  msg.sender */\n  caller\n    /* \"contract/firstWork.sol\":138:143  owner */\n  0x00\n  dup1\n    /* \"contract/firstWork.sol\":138:156  owner = msg.sender */\n  0x0100\n  exp\n  dup2\n  sload\n  dup2\n  0xffffffffffffffffffffffffffffffffffffffff\n  mul\n  not\n  and\n  swap1\n  dup4\n  0xffffffffffffffffffffffffffffffffffffffff\n  and\n  mul\n  or\n  swap1\n  sstore\n  pop\n    /* \"contract/firstWork.sol\":490:847  contract Pausable is Ownable{\r... */\n  dataSize(sub_0)\n  dup1\n  dataOffset(sub_0)\n  0x00\n  codecopy\n  0x00\n  return\nstop\n\nsub_0: assembly {\n        /* \"contract/firstWork.sol\":490:847  contract Pausable is Ownable{\r... */\n      mstore(0x40, 0x80)\n      callvalue\n      dup1\n      iszero\n      tag_1\n      jumpi\n      0x00\n      dup1\n      revert\n    tag_1:\n      pop\n      jumpi(tag_2, lt(calldatasize, 0x04))\n      shr(0xe0, calldataload(0x00))\n      dup1\n      0x6985a022\n      eq\n      tag_3\n      jumpi\n      dup1\n      0xf2fde38b\n      eq\n      tag_4\n      jumpi\n      dup1\n      0xf7b188a5\n      eq\n      tag_5\n      jumpi\n    tag_2:\n      0x00\n      dup1\n      revert\n        /* \"contract/firstWork.sol\":668:742  function Pause () external ownerOnly{\r... */\n    tag_3:\n      tag_6\n      tag_7\n      jump\t// in\n    tag_6:\n      stop\n        /* \"contract/firstWork.sol\":302:483  function transferOwnership (address newOwner) external ownerOnly{\r... */\n    tag_4:\n      tag_8\n      0x04\n      dup1\n      calldatasize\n      sub\n      dup2\n      add\n      swap1\n      tag_9\n      swap2\n      swap1\n      tag_10\n      jump\t// in\n    tag_9:\n      tag_11\n      jump\t// in\n    tag_8:\n      stop\n        /* \"contract/firstWork.sol\":750:836  function unPause () external ownerOnly{\r... */\n    tag_5:\n      tag_12\n      tag_13\n      jump\t// in\n    tag_12:\n      stop\n        /* \"contract/firstWork.sol\":668:742  function Pause () external ownerOnly{\r... */\n    tag_7:\n        /* \"contract/firstWork.sol\":229:234  owner */\n      0x00\n      dup1\n      sload\n      swap1\n      0x0100\n      exp\n      swap1\n      div\n      0xffffffffffffffffffffffffffffffffffffffff\n      and\n        /* \"contract/firstWork.sol\":215:234  msg.sender == owner */\n      0xffffffffffffffffffffffffffffffffffffffff\n      and\n        /* \"contract/firstWork.sol\":215:225  msg.sender */\n      caller\n        /* \"contract/firstWork.sol\":215:234  msg.sender == owner */\n      0xffffffffffffffffffffffffffffffffffffffff\n      and\n      eq\n        /* \"contract/firstWork.sol\":206:272  require (msg.sender == owner, \"only owner can call this contract\") */\n      tag_15\n      jumpi\n      mload(0x40)\n      0x08c379a000000000000000000000000000000000000000000000000000000000\n      dup2\n      mstore\n      0x04\n      add\n      tag_16\n      swap1\n      tag_17\n      jump\t// in\n    tag_16:\n      mload(0x40)\n      dup1\n      swap2\n      sub\n      swap1\n      revert\n    tag_15:\n        /* \"contract/firstWork.sol\":730:734  true */\n      0x01\n        /* \"contract/firstWork.sol\":717:727  isItPaused */\n      0x00\n      0x14\n        /* \"contract/firstWork.sol\":717:734  isItPaused = true */\n      0x0100\n      exp\n      dup2\n      sload\n      dup2\n      0xff\n      mul\n      not\n      and\n      swap1\n      dup4\n      iszero\n      iszero\n      mul\n      or\n      swap1\n      sstore\n      pop\n        /* \"contract/firstWork.sol\":668:742  function Pause () external ownerOnly{\r... */\n      jump\t// out\n        /* \"contract/firstWork.sol\":302:483  function transferOwnership (address newOwner) external ownerOnly{\r... */\n    tag_11:\n        /* \"contract/firstWork.sol\":229:234  owner */\n      0x00\n      dup1\n      sload\n      swap1\n      0x0100\n      exp\n      swap1\n      div\n      0xffffffffffffffffffffffffffffffffffffffff\n      and\n        /* \"contract/firstWork.sol\":215:234  msg.sender == owner */\n      0xffffffffffffffffffffffffffffffffffffffff\n      and\n        /* \"contract/firstWork.sol\":215:225  msg.sender */\n      caller\n        /* \"contract/firstWork.sol\":215:234  msg.sender == owner */\n      0xffffffffffffffffffffffffffffffffffffffff\n      and\n      eq\n        /* \"contract/firstWork.sol\":206:272  require (msg.sender == owner, \"only owner can call this contract\") */\n      tag_20\n      jumpi\n      mload(0x40)\n      0x08c379a000000000000000000000000000000000000000000000000000000000\n      dup2\n      mstore\n      0x04\n      add\n      tag_21\n      swap1\n      tag_17\n      jump\t// in\n    tag_21:\n      mload(0x40)\n      dup1\n      swap2\n      sub\n      swap1\n      revert\n    tag_20:\n        /* \"contract/firstWork.sol\":408:409  0 */\n      0x00\n        /* \"contract/firstWork.sol\":388:410  newOwner == address(0) */\n      0xffffffffffffffffffffffffffffffffffffffff\n      and\n        /* \"contract/firstWork.sol\":388:396  newOwner */\n      dup2\n        /* \"contract/firstWork.sol\":388:410  newOwner == address(0) */\n      0xffffffffffffffffffffffffffffffffffffffff\n      and\n      eq\n        /* \"contract/firstWork.sol\":379:446  require (newOwner == address(0), \"address can't be a zero address\") */\n      tag_23\n      jumpi\n      mload(0x40)\n      0x08c379a000000000000000000000000000000000000000000000000000000000\n      dup2\n      mstore\n      0x04\n      add\n      tag_24\n      swap1\n      tag_25\n      jump\t// in\n    tag_24:\n      mload(0x40)\n      dup1\n      swap2\n      sub\n      swap1\n      revert\n    tag_23:\n        /* \"contract/firstWork.sol\":467:475  newOwner */\n      dup1\n        /* \"contract/firstWork.sol\":459:464  owner */\n      0x00\n      dup1\n        /* \"contract/firstWork.sol\":459:475  owner = newOwner */\n      0x0100\n      exp\n      dup2\n      sload\n      dup2\n      0xffffffffffffffffffffffffffffffffffffffff\n      mul\n      not\n      and\n      swap1\n      dup4\n      0xffffffffffffffffffffffffffffffffffffffff\n      and\n      mul\n      or\n      swap1\n      sstore\n      pop\n        /* \"contract/firstWork.sol\":302:483  function transferOwnership (address newOwner) external ownerOnly{\r... */\n      pop\n      jump\t// out\n        /* \"contract/firstWork.sol\":750:836  function unPause () external ownerOnly{\r... */\n    tag_13:\n        /* \"contract/firstWork.sol\":229:234  owner */\n      0x00\n      dup1\n      sload\n      swap1\n      0x0100\n      exp\n      swap1\n      div\n      0xffffffffffffffffffffffffffffffffffffffff\n      and\n        /* \"contract/firstWork.sol\":215:234  msg.sender == owner */\n      0xffffffffffffffffffffffffffffffffffffffff\n      and\n        /* \"contract/firstWork.sol\":215:225  msg.sender */\n      caller\n        /* \"contract/firstWork.sol\":215:234  msg.sender == owner */\n      0xffffffffffffffffffffffffffffffffffffffff\n      and\n      eq\n        /* \"contract/firstWork.sol\":206:272  require (msg.sender == owner, \"only owner can call this contract\") */\n      tag_27\n      jumpi\n      mload(0x40)\n      0x08c379a000000000000000000000000000000000000000000000000000000000\n      dup2\n      mstore\n      0x04\n      add\n      tag_28\n      swap1\n      tag_17\n      jump\t// in\n    tag_28:\n      mload(0x40)\n      dup1\n      swap2\n      sub\n      swap1\n      revert\n    tag_27:\n        /* \"contract/firstWork.sol\":823:828  false */\n      0x00\n        /* \"contract/firstWork.sol\":809:819  isItPaused */\n      dup1\n      0x14\n        /* \"contract/firstWork.sol\":809:828  isItPaused  = false */\n      0x0100\n      exp\n      dup2\n      sload\n      dup2\n      0xff\n      mul\n      not\n      and\n      swap1\n      dup4\n      iszero\n      iszero\n      mul\n      or\n      swap1\n      sstore\n      pop\n        /* \"contract/firstWork.sol\":750:836  function unPause () external ownerOnly{\r... */\n      jump\t// out\n        /* \"#utility.yul\":7:146   */\n    tag_31:\n      0x00\n        /* \"#utility.yul\":91:97   */\n      dup2\n        /* \"#utility.yul\":78:98   */\n      calldataload\n        /* \"#utility.yul\":69:98   */\n      swap1\n      pop\n        /* \"#utility.yul\":107:140   */\n      tag_33\n        /* \"#utility.yul\":134:139   */\n      dup2\n        /* \"#utility.yul\":107:140   */\n      tag_34\n      jump\t// in\n    tag_33:\n        /* \"#utility.yul\":59:146   */\n      swap3\n      swap2\n      pop\n      pop\n      jump\t// out\n        /* \"#utility.yul\":152:414   */\n    tag_10:\n      0x00\n        /* \"#utility.yul\":260:262   */\n      0x20\n        /* \"#utility.yul\":248:257   */\n      dup3\n        /* \"#utility.yul\":239:246   */\n      dup5\n        /* \"#utility.yul\":235:258   */\n      sub\n        /* \"#utility.yul\":231:263   */\n      slt\n        /* \"#utility.yul\":228:230   */\n      iszero\n      tag_36\n      jumpi\n        /* \"#utility.yul\":276:277   */\n      0x00\n        /* \"#utility.yul\":273:274   */\n      dup1\n        /* \"#utility.yul\":266:278   */\n      revert\n        /* \"#utility.yul\":228:230   */\n    tag_36:\n        /* \"#utility.yul\":319:320   */\n      0x00\n        /* \"#utility.yul\":344:397   */\n      tag_37\n        /* \"#utility.yul\":389:396   */\n      dup5\n        /* \"#utility.yul\":380:386   */\n      dup3\n        /* \"#utility.yul\":369:378   */\n      dup6\n        /* \"#utility.yul\":365:387   */\n      add\n        /* \"#utility.yul\":344:397   */\n      tag_31\n      jump\t// in\n    tag_37:\n        /* \"#utility.yul\":334:397   */\n      swap2\n      pop\n        /* \"#utility.yul\":290:407   */\n      pop\n        /* \"#utility.yul\":218:414   */\n      swap3\n      swap2\n      pop\n      pop\n      jump\t// out\n        /* \"#utility.yul\":420:786   */\n    tag_38:\n      0x00\n        /* \"#utility.yul\":583:650   */\n      tag_40\n        /* \"#utility.yul\":647:649   */\n      0x1f\n        /* \"#utility.yul\":642:645   */\n      dup4\n        /* \"#utility.yul\":583:650   */\n      tag_41\n      jump\t// in\n    tag_40:\n        /* \"#utility.yul\":576:650   */\n      swap2\n      pop\n        /* \"#utility.yul\":659:752   */\n      tag_42\n        /* \"#utility.yul\":748:751   */\n      dup3\n        /* \"#utility.yul\":659:752   */\n      tag_43\n      jump\t// in\n    tag_42:\n        /* \"#utility.yul\":777:779   */\n      0x20\n        /* \"#utility.yul\":772:775   */\n      dup3\n        /* \"#utility.yul\":768:780   */\n      add\n        /* \"#utility.yul\":761:780   */\n      swap1\n      pop\n        /* \"#utility.yul\":566:786   */\n      swap2\n      swap1\n      pop\n      jump\t// out\n        /* \"#utility.yul\":792:1158   */\n    tag_44:\n      0x00\n        /* \"#utility.yul\":955:1022   */\n      tag_46\n        /* \"#utility.yul\":1019:1021   */\n      0x21\n        /* \"#utility.yul\":1014:1017   */\n      dup4\n        /* \"#utility.yul\":955:1022   */\n      tag_41\n      jump\t// in\n    tag_46:\n        /* \"#utility.yul\":948:1022   */\n      swap2\n      pop\n        /* \"#utility.yul\":1031:1124   */\n      tag_47\n        /* \"#utility.yul\":1120:1123   */\n      dup3\n        /* \"#utility.yul\":1031:1124   */\n      tag_48\n      jump\t// in\n    tag_47:\n        /* \"#utility.yul\":1149:1151   */\n      0x40\n        /* \"#utility.yul\":1144:1147   */\n      dup3\n        /* \"#utility.yul\":1140:1152   */\n      add\n        /* \"#utility.yul\":1133:1152   */\n      swap1\n      pop\n        /* \"#utility.yul\":938:1158   */\n      swap2\n      swap1\n      pop\n      jump\t// out\n        /* \"#utility.yul\":1164:1583   */\n    tag_25:\n      0x00\n        /* \"#utility.yul\":1368:1370   */\n      0x20\n        /* \"#utility.yul\":1357:1366   */\n      dup3\n        /* \"#utility.yul\":1353:1371   */\n      add\n        /* \"#utility.yul\":1345:1371   */\n      swap1\n      pop\n        /* \"#utility.yul\":1417:1426   */\n      dup2\n        /* \"#utility.yul\":1411:1415   */\n      dup2\n        /* \"#utility.yul\":1407:1427   */\n      sub\n        /* \"#utility.yul\":1403:1404   */\n      0x00\n        /* \"#utility.yul\":1392:1401   */\n      dup4\n        /* \"#utility.yul\":1388:1405   */\n      add\n        /* \"#utility.yul\":1381:1428   */\n      mstore\n        /* \"#utility.yul\":1445:1576   */\n      tag_50\n        /* \"#utility.yul\":1571:1575   */\n      dup2\n        /* \"#utility.yul\":1445:1576   */\n      tag_38\n      jump\t// in\n    tag_50:\n        /* \"#utility.yul\":1437:1576   */\n      swap1\n      pop\n        /* \"#utility.yul\":1335:1583   */\n      swap2\n      swap1\n      pop\n      jump\t// out\n        /* \"#utility.yul\":1589:2008   */\n    tag_17:\n      0x00\n        /* \"#utility.yul\":1793:1795   */\n      0x20\n        /* \"#utility.yul\":1782:1791   */\n      dup3\n        /* \"#utility.yul\":1778:1796   */\n      add\n        /* \"#utility.yul\":1770:1796   */\n      swap1\n      pop\n        /* \"#utility.yul\":1842:1851   */\n      dup2\n        /* \"#utility.yul\":1836:1840   */\n      dup2\n        /* \"#utility.yul\":1832:1852   */\n      sub\n        /* \"#utility.yul\":1828:1829   */\n      0x00\n        /* \"#utility.yul\":1817:1826   */\n      dup4\n        /* \"#utility.yul\":1813:1830   */\n      add\n        /* \"#utility.yul\":1806:1853   */\n      mstore\n        /* \"#utility.yul\":1870:2001   */\n      tag_52\n        /* \"#utility.yul\":1996:2000   */\n      dup2\n        /* \"#utility.yul\":1870:2001   */\n      tag_44\n      jump\t// in\n    tag_52:\n        /* \"#utility.yul\":1862:2001   */\n      swap1\n      pop\n        /* \"#utility.yul\":1760:2008   */\n      swap2\n      swap1\n      pop\n      jump\t// out\n        /* \"#utility.yul\":2014:2183   */\n    tag_41:\n      0x00\n        /* \"#utility.yul\":2132:2138   */\n      dup3\n        /* \"#utility.yul\":2127:2130   */\n      dup3\n        /* \"#utility.yul\":2120:2139   */\n      mstore\n        /* \"#utility.yul\":2172:2176   */\n      0x20\n        /* \"#utility.yul\":2167:2170   */\n      dup3\n        /* \"#utility.yul\":2163:2177   */\n      add\n        /* \"#utility.yul\":2148:2177   */\n      swap1\n      pop\n        /* \"#utility.yul\":2110:2183   */\n      swap3\n      swap2\n      pop\n      pop\n      jump\t// out\n        /* \"#utility.yul\":2189:2285   */\n    tag_54:\n      0x00\n        /* \"#utility.yul\":2255:2279   */\n      tag_56\n        /* \"#utility.yul\":2273:2278   */\n      dup3\n        /* \"#utility.yul\":2255:2279   */\n      tag_57\n      jump\t// in\n    tag_56:\n        /* \"#utility.yul\":2244:2279   */\n      swap1\n      pop\n        /* \"#utility.yul\":2234:2285   */\n      swap2\n      swap1\n      pop\n      jump\t// out\n        /* \"#utility.yul\":2291:2417   */\n    tag_57:\n      0x00\n        /* \"#utility.yul\":2368:2410   */\n      0xffffffffffffffffffffffffffffffffffffffff\n        /* \"#utility.yul\":2361:2366   */\n      dup3\n        /* \"#utility.yul\":2357:2411   */\n      and\n        /* \"#utility.yul\":2346:2411   */\n      swap1\n      pop\n        /* \"#utility.yul\":2336:2417   */\n      swap2\n      swap1\n      pop\n      jump\t// out\n        /* \"#utility.yul\":2423:2604   */\n    tag_43:\n        /* \"#utility.yul\":2563:2596   */\n      0x616464726573732063616e27742062652061207a65726f206164647265737300\n        /* \"#utility.yul\":2559:2560   */\n      0x00\n        /* \"#utility.yul\":2551:2557   */\n      dup3\n        /* \"#utility.yul\":2547:2561   */\n      add\n        /* \"#utility.yul\":2540:2597   */\n      mstore\n        /* \"#utility.yul\":2529:2604   */\n      pop\n      jump\t// out\n        /* \"#utility.yul\":2610:2830   */\n    tag_48:\n        /* \"#utility.yul\":2750:2784   */\n      0x6f6e6c79206f776e65722063616e2063616c6c207468697320636f6e74726163\n        /* \"#utility.yul\":2746:2747   */\n      0x00\n        /* \"#utility.yul\":2738:2744   */\n      dup3\n        /* \"#utility.yul\":2734:2748   */\n      add\n        /* \"#utility.yul\":2727:2785   */\n      mstore\n        /* \"#utility.yul\":2819:2822   */\n      0x7400000000000000000000000000000000000000000000000000000000000000\n        /* \"#utility.yul\":2814:2816   */\n      0x20\n        /* \"#utility.yul\":2806:2812   */\n      dup3\n        /* \"#utility.yul\":2802:2817   */\n      add\n        /* \"#utility.yul\":2795:2823   */\n      mstore\n        /* \"#utility.yul\":2716:2830   */\n      pop\n      jump\t// out\n        /* \"#utility.yul\":2836:2958   */\n    tag_34:\n        /* \"#utility.yul\":2909:2933   */\n      tag_62\n        /* \"#utility.yul\":2927:2932   */\n      dup2\n        /* \"#utility.yul\":2909:2933   */\n      tag_54\n      jump\t// in\n    tag_62:\n        /* \"#utility.yul\":2902:2907   */\n      dup2\n        /* \"#utility.yul\":2899:2934   */\n      eq\n        /* \"#utility.yul\":2889:2891   */\n      tag_63\n      jumpi\n        /* \"#utility.yul\":2948:2949   */\n      0x00\n        /* \"#utility.yul\":2945:2946   */\n      dup1\n        /* \"#utility.yul\":2938:2950   */\n      revert\n        /* \"#utility.yul\":2889:2891   */\n    tag_63:\n        /* \"#utility.yul\":2879:2958   */\n      pop\n      jump\t// out\n\n    auxdata: 0xa2646970667358221220338477852912629112ff2e9242fb6fa73631c7693bb33befdab117b41b9b188964736f6c63430008030033\n}\n",
				"bytecode": {
					"linkReferences": {},
					"object": "608060405234801561001057600080fd5b50336000806101000a81548173ffffffffffffffffffffffffffffffffffffffff021916908373ffffffffffffffffffffffffffffffffffffffff1602179055506104d7806100606000396000f3fe608060405234801561001057600080fd5b50600436106100415760003560e01c80636985a02214610046578063f2fde38b14610050578063f7b188a51461006c575b600080fd5b61004e610076565b005b61006a60048036038101906100659190610320565b610121565b005b610074610261565b005b60008054906101000a900473ffffffffffffffffffffffffffffffffffffffff1673ffffffffffffffffffffffffffffffffffffffff163373ffffffffffffffffffffffffffffffffffffffff1614610104576040517f08c379a00000000000000000000000000000000000000000000000000000000081526004016100fb906103af565b60405180910390fd5b6001600060146101000a81548160ff021916908315150217905550565b60008054906101000a900473ffffffffffffffffffffffffffffffffffffffff1673ffffffffffffffffffffffffffffffffffffffff163373ffffffffffffffffffffffffffffffffffffffff16146101af576040517f08c379a00000000000000000000000000000000000000000000000000000000081526004016101a6906103af565b60405180910390fd5b600073ffffffffffffffffffffffffffffffffffffffff168173ffffffffffffffffffffffffffffffffffffffff161461021e576040517f08c379a00000000000000000000000000000000000000000000000000000000081526004016102159061038f565b60405180910390fd5b806000806101000a81548173ffffffffffffffffffffffffffffffffffffffff021916908373ffffffffffffffffffffffffffffffffffffffff16021790555050565b60008054906101000a900473ffffffffffffffffffffffffffffffffffffffff1673ffffffffffffffffffffffffffffffffffffffff163373ffffffffffffffffffffffffffffffffffffffff16146102ef576040517f08c379a00000000000000000000000000000000000000000000000000000000081526004016102e6906103af565b60405180910390fd5b60008060146101000a81548160ff021916908315150217905550565b60008135905061031a8161048a565b92915050565b60006020828403121561033257600080fd5b60006103408482850161030b565b91505092915050565b6000610356601f836103cf565b915061036182610412565b602082019050919050565b60006103796021836103cf565b91506103848261043b565b604082019050919050565b600060208201905081810360008301526103a881610349565b9050919050565b600060208201905081810360008301526103c88161036c565b9050919050565b600082825260208201905092915050565b60006103eb826103f2565b9050919050565b600073ffffffffffffffffffffffffffffffffffffffff82169050919050565b7f616464726573732063616e27742062652061207a65726f206164647265737300600082015250565b7f6f6e6c79206f776e65722063616e2063616c6c207468697320636f6e7472616360008201527f7400000000000000000000000000000000000000000000000000000000000000602082015250565b610493816103e0565b811461049e57600080fd5b5056fea2646970667358221220338477852912629112ff2e9242fb6fa73631c7693bb33befdab117b41b9b188964736f6c63430008030033",
					"opcodes": "PUSH1 0x80 PUSH1 0x40 MSTORE CALLVALUE DUP1 ISZERO PUSH2 0x10 JUMPI PUSH1 0x0 DUP1 REVERT JUMPDEST POP CALLER PUSH1 0x0 DUP1 PUSH2 0x100 EXP DUP2 SLOAD DUP2 PUSH20 0xFFFFFFFFFFFFFFFFFFFFFFFFFFFFFFFFFFFFFFFF MUL NOT AND SWAP1 DUP4 PUSH20 0xFFFFFFFFFFFFFFFFFFFFFFFFFFFFFFFFFFFFFFFF AND MUL OR SWAP1 SSTORE POP PUSH2 0x4D7 DUP1 PUSH2 0x60 PUSH1 0x0 CODECOPY PUSH1 0x0 RETURN INVALID PUSH1 0x80 PUSH1 0x40 MSTORE CALLVALUE DUP1 ISZERO PUSH2 0x10 JUMPI PUSH1 0x0 DUP1 REVERT JUMPDEST POP PUSH1 0x4 CALLDATASIZE LT PUSH2 0x41 JUMPI PUSH1 0x0 CALLDATALOAD PUSH1 0xE0 SHR DUP1 PUSH4 0x6985A022 EQ PUSH2 0x46 JUMPI DUP1 PUSH4 0xF2FDE38B EQ PUSH2 0x50 JUMPI DUP1 PUSH4 0xF7B188A5 EQ PUSH2 0x6C JUMPI JUMPDEST PUSH1 0x0 DUP1 REVERT JUMPDEST PUSH2 0x4E PUSH2 0x76 JUMP JUMPDEST STOP JUMPDEST PUSH2 0x6A PUSH1 0x4 DUP1 CALLDATASIZE SUB DUP2 ADD SWAP1 PUSH2 0x65 SWAP2 SWAP1 PUSH2 0x320 JUMP JUMPDEST PUSH2 0x121 JUMP JUMPDEST STOP JUMPDEST PUSH2 0x74 PUSH2 0x261 JUMP JUMPDEST STOP JUMPDEST PUSH1 0x0 DUP1 SLOAD SWAP1 PUSH2 0x100 EXP SWAP1 DIV PUSH20 0xFFFFFFFFFFFFFFFFFFFFFFFFFFFFFFFFFFFFFFFF AND PUSH20 0xFFFFFFFFFFFFFFFFFFFFFFFFFFFFFFFFFFFFFFFF AND CALLER PUSH20 0xFFFFFFFFFFFFFFFFFFFFFFFFFFFFFFFFFFFFFFFF AND EQ PUSH2 0x104 JUMPI PUSH1 0x40 MLOAD PUSH32 0x8C379A000000000000000000000000000000000000000000000000000000000 DUP2 MSTORE PUSH1 0x4 ADD PUSH2 0xFB SWAP1 PUSH2 0x3AF JUMP JUMPDEST PUSH1 0x40 MLOAD DUP1 SWAP2 SUB SWAP1 REVERT JUMPDEST PUSH1 0x1 PUSH1 0x0 PUSH1 0x14 PUSH2 0x100 EXP DUP2 SLOAD DUP2 PUSH1 0xFF MUL NOT AND SWAP1 DUP4 ISZERO ISZERO MUL OR SWAP1 SSTORE POP JUMP JUMPDEST PUSH1 0x0 DUP1 SLOAD SWAP1 PUSH2 0x100 EXP SWAP1 DIV PUSH20 0xFFFFFFFFFFFFFFFFFFFFFFFFFFFFFFFFFFFFFFFF AND PUSH20 0xFFFFFFFFFFFFFFFFFFFFFFFFFFFFFFFFFFFFFFFF AND CALLER PUSH20 0xFFFFFFFFFFFFFFFFFFFFFFFFFFFFFFFFFFFFFFFF AND EQ PUSH2 0x1AF JUMPI PUSH1 0x40 MLOAD PUSH32 0x8C379A000000000000000000000000000000000000000000000000000000000 DUP2 MSTORE PUSH1 0x4 ADD PUSH2 0x1A6 SWAP1 PUSH2 0x3AF JUMP JUMPDEST PUSH1 0x40 MLOAD DUP1 SWAP2 SUB SWAP1 REVERT JUMPDEST PUSH1 0x0 PUSH20 0xFFFFFFFFFFFFFFFFFFFFFFFFFFFFFFFFFFFFFFFF AND DUP2 PUSH20 0xFFFFFFFFFFFFFFFFFFFFFFFFFFFFFFFFFFFFFFFF AND EQ PUSH2 0x21E JUMPI PUSH1 0x40 MLOAD PUSH32 0x8C379A000000000000000000000000000000000000000000000000000000000 DUP2 MSTORE PUSH1 0x4 ADD PUSH2 0x215 SWAP1 PUSH2 0x38F JUMP JUMPDEST PUSH1 0x40 MLOAD DUP1 SWAP2 SUB SWAP1 REVERT JUMPDEST DUP1 PUSH1 0x0 DUP1 PUSH2 0x100 EXP DUP2 SLOAD DUP2 PUSH20 0xFFFFFFFFFFFFFFFFFFFFFFFFFFFFFFFFFFFFFFFF MUL NOT AND SWAP1 DUP4 PUSH20 0xFFFFFFFFFFFFFFFFFFFFFFFFFFFFFFFFFFFFFFFF AND MUL OR SWAP1 SSTORE POP POP JUMP JUMPDEST PUSH1 0x0 DUP1 SLOAD SWAP1 PUSH2 0x100 EXP SWAP1 DIV PUSH20 0xFFFFFFFFFFFFFFFFFFFFFFFFFFFFFFFFFFFFFFFF AND PUSH20 0xFFFFFFFFFFFFFFFFFFFFFFFFFFFFFFFFFFFFFFFF AND CALLER PUSH20 0xFFFFFFFFFFFFFFFFFFFFFFFFFFFFFFFFFFFFFFFF AND EQ PUSH2 0x2EF JUMPI PUSH1 0x40 MLOAD PUSH32 0x8C379A000000000000000000000000000000000000000000000000000000000 DUP2 MSTORE PUSH1 0x4 ADD PUSH2 0x2E6 SWAP1 PUSH2 0x3AF JUMP JUMPDEST PUSH1 0x40 MLOAD DUP1 SWAP2 SUB SWAP1 REVERT JUMPDEST PUSH1 0x0 DUP1 PUSH1 0x14 PUSH2 0x100 EXP DUP2 SLOAD DUP2 PUSH1 0xFF MUL NOT AND SWAP1 DUP4 ISZERO ISZERO MUL OR SWAP1 SSTORE POP JUMP JUMPDEST PUSH1 0x0 DUP2 CALLDATALOAD SWAP1 POP PUSH2 0x31A DUP2 PUSH2 0x48A JUMP JUMPDEST SWAP3 SWAP2 POP POP JUMP JUMPDEST PUSH1 0x0 PUSH1 0x20 DUP3 DUP5 SUB SLT ISZERO PUSH2 0x332 JUMPI PUSH1 0x0 DUP1 REVERT JUMPDEST PUSH1 0x0 PUSH2 0x340 DUP5 DUP3 DUP6 ADD PUSH2 0x30B JUMP JUMPDEST SWAP2 POP POP SWAP3 SWAP2 POP POP JUMP JUMPDEST PUSH1 0x0 PUSH2 0x356 PUSH1 0x1F DUP4 PUSH2 0x3CF JUMP JUMPDEST SWAP2 POP PUSH2 0x361 DUP3 PUSH2 0x412 JUMP JUMPDEST PUSH1 0x20 DUP3 ADD SWAP1 POP SWAP2 SWAP1 POP JUMP JUMPDEST PUSH1 0x0 PUSH2 0x379 PUSH1 0x21 DUP4 PUSH2 0x3CF JUMP JUMPDEST SWAP2 POP PUSH2 0x384 DUP3 PUSH2 0x43B JUMP JUMPDEST PUSH1 0x40 DUP3 ADD SWAP1 POP SWAP2 SWAP1 POP JUMP JUMPDEST PUSH1 0x0 PUSH1 0x20 DUP3 ADD SWAP1 POP DUP2 DUP2 SUB PUSH1 0x0 DUP4 ADD MSTORE PUSH2 0x3A8 DUP2 PUSH2 0x349 JUMP JUMPDEST SWAP1 POP SWAP2 SWAP1 POP JUMP JUMPDEST PUSH1 0x0 PUSH1 0x20 DUP3 ADD SWAP1 POP DUP2 DUP2 SUB PUSH1 0x0 DUP4 ADD MSTORE PUSH2 0x3C8 DUP2 PUSH2 0x36C JUMP JUMPDEST SWAP1 POP SWAP2 SWAP1 POP JUMP JUMPDEST PUSH1 0x0 DUP3 DUP3 MSTORE PUSH1 0x20 DUP3 ADD SWAP1 POP SWAP3 SWAP2 POP POP JUMP JUMPDEST PUSH1 0x0 PUSH2 0x3EB DUP3 PUSH2 0x3F2 JUMP JUMPDEST SWAP1 POP SWAP2 SWAP1 POP JUMP JUMPDEST PUSH1 0x0 PUSH20 0xFFFFFFFFFFFFFFFFFFFFFFFFFFFFFFFFFFFFFFFF DUP3 AND SWAP1 POP SWAP2 SWAP1 POP JUMP JUMPDEST PUSH32 0x616464726573732063616E27742062652061207A65726F206164647265737300 PUSH1 0x0 DUP3 ADD MSTORE POP JUMP JUMPDEST PUSH32 0x6F6E6C79206F776E65722063616E2063616C6C207468697320636F6E74726163 PUSH1 0x0 DUP3 ADD MSTORE PUSH32 0x7400000000000000000000000000000000000000000000000000000000000000 PUSH1 0x20 DUP3 ADD MSTORE POP JUMP JUMPDEST PUSH2 0x493 DUP2 PUSH2 0x3E0 JUMP JUMPDEST DUP2 EQ PUSH2 0x49E JUMPI PUSH1 0x0 DUP1 REVERT JUMPDEST POP JUMP INVALID LOG2 PUSH5 0x6970667358 0x22 SLT KECCAK256 CALLER DUP5 PUSH24 0x852912629112FF2E9242FB6FA73631C7693BB33BEFDAB117 0xB4 SHL SWAP12 XOR DUP10 PUSH5 0x736F6C6343 STOP ADDMOD SUB STOP CALLER "
				},
				"gasEstimates": {
					"creation": {
						"codeDepositCost": "247800",
						"executionCost": "21153",
						"totalCost": "268953"
					},
					"external": {
						"Pause()": "21906",
						"transferOwnership(address)": "22224",
						"unPause()": "21950"
					}
				},
				"methodIdentifiers": {
					"Pause()": "6985a022",
					"transferOwnership(address)": "f2fde38b",
					"unPause()": "f7b188a5"
				}
			},
			"storageLayout": {
				"storage": [
					{
						"astId": 3,
						"contract": "contract/firstWork.sol:Pausable",
						"label": "owner",
						"offset": 0,
						"slot": "0",
						"type": "t_address"
					},
					{
						"astId": 51,
						"contract": "contract/firstWork.sol:Pausable",
						"label": "isItPaused",
						"offset": 20,
						"slot": "0",
						"type": "t_bool"
					}
				],
				"types": {
					"t_address": {
						"encoding": "inplace",
						"label": "address",
						"numberOfBytes": "20"
					},
					"t_bool": {
						"encoding": "inplace",
						"label": "bool",
						"numberOfBytes": "1"
					}
				}
			},
			"userdoc": {
				"kind": "user",
				"methods": {},
				"version": 1
			}
		}
	}
}