{
	"contract/firstWork.sol": {
		"Ownable": {
			"abi": [
				{
					"inputs": [],
					"stateMutability": "nonpayable",
					"type": "constructor"
				},
				{
					"inputs": [
						{
							"internalType": "address",
							"name": "newOwner",
							"type": "address"
						}
					],
					"name": "transferOwnership",
					"outputs": [],
					"stateMutability": "nonpayable",
					"type": "function"
				}
			],
			"devdoc": {
				"kind": "dev",
				"methods": {},
				"version": 1
			},
			"evm": {
				"assembly": "    /* \"contract/firstWork.sol\":65:486  contract Ownable{\r... */\n  mstore(0x40, 0x80)\n    /* \"contract/firstWork.sol\":112:164  constructor () {\r... */\n  callvalue\n  dup1\n  iszero\n  tag_1\n  jumpi\n  0x00\n  dup1\n  revert\ntag_1:\n  pop\n    /* \"contract/firstWork.sol\":146:156  msg.sender */\n  caller\n    /* \"contract/firstWork.sol\":138:143  owner */\n  0x00\n  dup1\n    /* \"contract/firstWork.sol\":138:156  owner = msg.sender */\n  0x0100\n  exp\n  dup2\n  sload\n  dup2\n  0xffffffffffffffffffffffffffffffffffffffff\n  mul\n  not\n  and\n  swap1\n  dup4\n  0xffffffffffffffffffffffffffffffffffffffff\n  and\n  mul\n  or\n  swap1\n  sstore\n  pop\n    /* \"contract/firstWork.sol\":65:486  contract Ownable{\r... */\n  dataSize(sub_0)\n  dup1\n  dataOffset(sub_0)\n  0x00\n  codecopy\n  0x00\n  return\nstop\n\nsub_0: assembly {\n        /* \"contract/firstWork.sol\":65:486  contract Ownable{\r... */\n      mstore(0x40, 0x80)\n      callvalue\n      dup1\n      iszero\n      tag_1\n      jumpi\n      0x00\n      dup1\n      revert\n    tag_1:\n      pop\n      jumpi(tag_2, lt(calldatasize, 0x04))\n      shr(0xe0, calldataload(0x00))\n      dup1\n      0xf2fde38b\n      eq\n      tag_3\n      jumpi\n    tag_2:\n      0x00\n      dup1\n      revert\n        /* \"contract/firstWork.sol\":302:483  function transferOwnership (address newOwner) external ownerOnly{\r... */\n    tag_3:\n      tag_4\n      0x04\n      dup1\n      calldatasize\n      sub\n      dup2\n      add\n      swap1\n      tag_5\n      swap2\n      swap1\n      tag_6\n      jump\t// in\n    tag_5:\n      tag_7\n      jump\t// in\n    tag_4:\n      stop\n    tag_7:\n        /* \"contract/firstWork.sol\":229:234  owner */\n      0x00\n      dup1\n      sload\n      swap1\n      0x0100\n      exp\n      swap1\n      div\n      0xffffffffffffffffffffffffffffffffffffffff\n      and\n        /* \"contract/firstWork.sol\":215:234  msg.sender == owner */\n      0xffffffffffffffffffffffffffffffffffffffff\n      and\n        /* \"contract/firstWork.sol\":215:225  msg.sender */\n      caller\n        /* \"contract/firstWork.sol\":215:234  msg.sender == owner */\n      0xffffffffffffffffffffffffffffffffffffffff\n      and\n      eq\n        /* \"contract/firstWork.sol\":206:272  require (msg.sender == owner, \"only owner can call this contract\") */\n      tag_9\n      jumpi\n      mload(0x40)\n      0x08c379a000000000000000000000000000000000000000000000000000000000\n      dup2\n      mstore\n      0x04\n      add\n      tag_10\n      swap1\n      tag_11\n      jump\t// in\n    tag_10:\n      mload(0x40)\n      dup1\n      swap2\n      sub\n      swap1\n      revert\n    tag_9:\n        /* \"contract/firstWork.sol\":408:409  0 */\n      0x00\n        /* \"contract/firstWork.sol\":388:410  newOwner == address(0) */\n      0xffffffffffffffffffffffffffffffffffffffff\n      and\n        /* \"contract/firstWork.sol\":388:396  newOwner */\n      dup2\n        /* \"contract/firstWork.sol\":388:410  newOwner == address(0) */\n      0xffffffffffffffffffffffffffffffffffffffff\n      and\n      eq\n        /* \"contract/firstWork.sol\":379:446  require (newOwner == address(0), \"address can't be a zero address\") */\n      tag_13\n      jumpi\n      mload(0x40)\n      0x08c379a000000000000000000000000000000000000000000000000000000000\n      dup2\n      mstore\n      0x04\n      add\n      tag_14\n      swap1\n      tag_15\n      jump\t// in\n    tag_14:\n      mload(0x40)\n      dup1\n      swap2\n      sub\n      swap1\n      revert\n    tag_13:\n        /* \"contract/firstWork.sol\":467:475  newOwner */\n      dup1\n        /* \"contract/firstWork.sol\":459:464  owner */\n      0x00\n      dup1\n        /* \"contract/firstWork.sol\":459:475  owner = newOwner */\n      0x0100\n      exp\n      dup2\n      sload\n      dup2\n      0xffffffffffffffffffffffffffffffffffffffff\n      mul\n      not\n      and\n      swap1\n      dup4\n      0xffffffffffffffffffffffffffffffffffffffff\n      and\n      mul\n      or\n      swap1\n      sstore\n      pop\n        /* \"contract/firstWork.sol\":302:483  function transferOwnership (address newOwner) external ownerOnly{\r... */\n      pop\n      jump\t// out\n        /* \"#utility.yul\":7:146   */\n    tag_17:\n      0x00\n        /* \"#utility.yul\":91:97   */\n      dup2\n        /* \"#utility.yul\":78:98   */\n      calldataload\n        /* \"#utility.yul\":69:98   */\n      swap1\n      pop\n        /* \"#utility.yul\":107:140   */\n      tag_19\n        /* \"#utility.yul\":134:139   */\n      dup2\n        /* \"#utility.yul\":107:140   */\n      tag_20\n      jump\t// in\n    tag_19:\n        /* \"#utility.yul\":59:146   */\n      swap3\n      swap2\n      pop\n      pop\n      jump\t// out\n        /* \"#utility.yul\":152:414   */\n    tag_6:\n      0x00\n        /* \"#utility.yul\":260:262   */\n      0x20\n        /* \"#utility.yul\":248:257   */\n      dup3\n        /* \"#utility.yul\":239:246   */\n      dup5\n        /* \"#utility.yul\":235:258   */\n      sub\n        /* \"#utility.yul\":231:263   */\n      slt\n        /* \"#utility.yul\":228:230   */\n      iszero\n      tag_22\n      jumpi\n        /* \"#utility.yul\":276:277   */\n      0x00\n        /* \"#utility.yul\":273:274   */\n      dup1\n        /* \"#utility.yul\":266:278   */\n      revert\n        /* \"#utility.yul\":228:230   */\n    tag_22:\n        /* \"#utility.yul\":319:320   */\n      0x00\n        /* \"#utility.yul\":344:397   */\n      tag_23\n        /* \"#utility.yul\":389:396   */\n      dup5\n        /* \"#utility.yul\":380:386   */\n      dup3\n        /* \"#utility.yul\":369:378   */\n      dup6\n        /* \"#utility.yul\":365:387   */\n      add\n        /* \"#utility.yul\":344:397   */\n      tag_17\n      jump\t// in\n    tag_23:\n        /* \"#utility.yul\":334:397   */\n      swap2\n      pop\n        /* \"#utility.yul\":290:407   */\n      pop\n        /* \"#utility.yul\":218:414   */\n      swap3\n      swap2\n      pop\n      pop\n      jump\t// out\n        /* \"#utility.yul\":420:786   */\n    tag_24:\n      0x00\n        /* \"#utility.yul\":583:650   */\n      tag_26\n        /* \"#utility.yul\":647:649   */\n      0x1f\n        /* \"#utility.yul\":642:645   */\n      dup4\n        /* \"#utility.yul\":583:650   */\n      tag_27\n      jump\t// in\n    tag_26:\n        /* \"#utility.yul\":576:650   */\n      swap2\n      pop\n        /* \"#utility.yul\":659:752   */\n      tag_28\n        /* \"#utility.yul\":748:751   */\n      dup3\n        /* \"#utility.yul\":659:752   */\n      tag_29\n      jump\t// in\n    tag_28:\n        /* \"#utility.yul\":777:779   */\n      0x20\n        /* \"#utility.yul\":772:775   */\n      dup3\n        /* \"#utility.yul\":768:780   */\n      add\n        /* \"#utility.yul\":761:780   */\n      swap1\n      pop\n        /* \"#utility.yul\":566:786   */\n      swap2\n      swap1\n      pop\n      jump\t// out\n        /* \"#utility.yul\":792:1158   */\n    tag_30:\n      0x00\n        /* \"#utility.yul\":955:1022   */\n      tag_32\n        /* \"#utility.yul\":1019:1021   */\n      0x21\n        /* \"#utility.yul\":1014:1017   */\n      dup4\n        /* \"#utility.yul\":955:1022   */\n      tag_27\n      jump\t// in\n    tag_32:\n        /* \"#utility.yul\":948:1022   */\n      swap2\n      pop\n        /* \"#utility.yul\":1031:1124   */\n      tag_33\n        /* \"#utility.yul\":1120:1123   */\n      dup3\n        /* \"#utility.yul\":1031:1124   */\n      tag_34\n      jump\t// in\n    tag_33:\n        /* \"#utility.yul\":1149:1151   */\n      0x40\n        /* \"#utility.yul\":1144:1147   */\n      dup3\n        /* \"#utility.yul\":1140:1152   */\n      add\n        /* \"#utility.yul\":1133:1152   */\n      swap1\n      pop\n        /* \"#utility.yul\":938:1158   */\n      swap2\n      swap1\n      pop\n      jump\t// out\n        /* \"#utility.yul\":1164:1583   */\n    tag_15:\n      0x00\n        /* \"#utility.yul\":1368:1370   */\n      0x20\n        /* \"#utility.yul\":1357:1366   */\n      dup3\n        /* \"#utility.yul\":1353:1371   */\n      add\n        /* \"#utility.yul\":1345:1371   */\n      swap1\n      pop\n        /* \"#utility.yul\":1417:1426   */\n      dup2\n        /* \"#utility.yul\":1411:1415   */\n      dup2\n        /* \"#utility.yul\":1407:1427   */\n      sub\n        /* \"#utility.yul\":1403:1404   */\n      0x00\n        /* \"#utility.yul\":1392:1401   */\n      dup4\n        /* \"#utility.yul\":1388:1405   */\n      add\n        /* \"#utility.yul\":1381:1428   */\n      mstore\n        /* \"#utility.yul\":1445:1576   */\n      tag_36\n        /* \"#utility.yul\":1571:1575   */\n      dup2\n        /* \"#utility.yul\":1445:1576   */\n      tag_24\n      jump\t// in\n    tag_36:\n        /* \"#utility.yul\":1437:1576   */\n      swap1\n      pop\n        /* \"#utility.yul\":1335:1583   */\n      swap2\n      swap1\n      pop\n      jump\t// out\n        /* \"#utility.yul\":1589:2008   */\n    tag_11:\n      0x00\n        /* \"#utility.yul\":1793:1795   */\n      0x20\n        /* \"#utility.yul\":1782:1791   */\n      dup3\n        /* \"#utility.yul\":1778:1796   */\n      add\n        /* \"#utility.yul\":1770:1796   */\n      swap1\n      pop\n        /* \"#utility.yul\":1842:1851   */\n      dup2\n        /* \"#utility.yul\":1836:1840   */\n      dup2\n        /* \"#utility.yul\":1832:1852   */\n      sub\n        /* \"#utility.yul\":1828:1829   */\n      0x00\n        /* \"#utility.yul\":1817:1826   */\n      dup4\n        /* \"#utility.yul\":1813:1830   */\n      add\n        /* \"#utility.yul\":1806:1853   */\n      mstore\n        /* \"#utility.yul\":1870:2001   */\n      tag_38\n        /* \"#utility.yul\":1996:2000   */\n      dup2\n        /* \"#utility.yul\":1870:2001   */\n      tag_30\n      jump\t// in\n    tag_38:\n        /* \"#utility.yul\":1862:2001   */\n      swap1\n      pop\n        /* \"#utility.yul\":1760:2008   */\n      swap2\n      swap1\n      pop\n      jump\t// out\n        /* \"#utility.yul\":2014:2183   */\n    tag_27:\n      0x00\n        /* \"#utility.yul\":2132:2138   */\n      dup3\n        /* \"#utility.yul\":2127:2130   */\n      dup3\n        /* \"#utility.yul\":2120:2139   */\n      mstore\n        /* \"#utility.yul\":2172:2176   */\n      0x20\n        /* \"#utility.yul\":2167:2170   */\n      dup3\n        /* \"#utility.yul\":2163:2177   */\n      add\n        /* \"#utility.yul\":2148:2177   */\n      swap1\n      pop\n        /* \"#utility.yul\":2110:2183   */\n      swap3\n      swap2\n      pop\n      pop\n      jump\t// out\n        /* \"#utility.yul\":2189:2285   */\n    tag_40:\n      0x00\n        /* \"#utility.yul\":2255:2279   */\n      tag_42\n        /* \"#utility.yul\":2273:2278   */\n      dup3\n        /* \"#utility.yul\":2255:2279   */\n      tag_43\n      jump\t// in\n    tag_42:\n        /* \"#utility.yul\":2244:2279   */\n      swap1\n      pop\n        /* \"#utility.yul\":2234:2285   */\n      swap2\n      swap1\n      pop\n      jump\t// out\n        /* \"#utility.yul\":2291:2417   */\n    tag_43:\n      0x00\n        /* \"#utility.yul\":2368:2410   */\n      0xffffffffffffffffffffffffffffffffffffffff\n        /* \"#utility.yul\":2361:2366   */\n      dup3\n        /* \"#utility.yul\":2357:2411   */\n      and\n        /* \"#utility.yul\":2346:2411   */\n      swap1\n      pop\n        /* \"#utility.yul\":2336:2417   */\n      swap2\n      swap1\n      pop\n      jump\t// out\n        /* \"#utility.yul\":2423:2604   */\n    tag_29:\n        /* \"#utility.yul\":2563:2596   */\n      0x616464726573732063616e27742062652061207a65726f206164647265737300\n        /* \"#utility.yul\":2559:2560   */\n      0x00\n        /* \"#utility.yul\":2551:2557   */\n      dup3\n        /* \"#utility.yul\":2547:2561   */\n      add\n        /* \"#utility.yul\":2540:2597   */\n      mstore\n        /* \"#utility.yul\":2529:2604   */\n      pop\n      jump\t// out\n        /* \"#utility.yul\":2610:2830   */\n    tag_34:\n        /* \"#utility.yul\":2750:2784   */\n      0x6f6e6c79206f776e65722063616e2063616c6c207468697320636f6e74726163\n        /* \"#utility.yul\":2746:2747   */\n      0x00\n        /* \"#utility.yul\":2738:2744   */\n      dup3\n        /* \"#utility.yul\":2734:2748   */\n      add\n        /* \"#utility.yul\":2727:2785   */\n      mstore\n        /* \"#utility.yul\":2819:2822   */\n      0x7400000000000000000000000000000000000000000000000000000000000000\n        /* \"#utility.yul\":2814:2816   */\n      0x20\n        /* \"#utility.yul\":2806:2812   */\n      dup3\n        /* \"#utility.yul\":2802:2817   */\n      add\n        /* \"#utility.yul\":2795:2823   */\n      mstore\n        /* \"#utility.yul\":2716:2830   */\n      pop\n      jump\t// out\n        /* \"#utility.yul\":2836:2958   */\n    tag_20:\n        /* \"#utility.yul\":2909:2933   */\n      tag_48\n        /* \"#utility.yul\":2927:2932   */\n      dup2\n        /* \"#utility.yul\":2909:2933   */\n      tag_40\n      jump\t// in\n    tag_48:\n        /* \"#utility.yul\":2902:2907   */\n      dup2\n        /* \"#utility.yul\":2899:2934   */\n      eq\n        /* \"#utility.yul\":2889:2891   */\n      tag_49\n      jumpi\n        /* \"#utility.yul\":2948:2949   */\n      0x00\n        /* \"#utility.yul\":2945:2946   */\n      dup1\n        /* \"#utility.yul\":2938:2950   */\n      revert\n        /* \"#utility.yul\":2889:2891   */\n    tag_49:\n        /* \"#utility.yul\":2879:2958   */\n      pop\n      jump\t// out\n\n    auxdata: 0xa2646970667358221220c8c55cda20cfc4a73634fa9f0c3cb893ca44d4978e2a0e48487f87d9d8a754ac64736f6c63430008030033\n}\n",
				"bytecode": {
					"linkReferences": {},
					"object": "608060405234801561001057600080fd5b50336000806101000a81548173ffffffffffffffffffffffffffffffffffffffff021916908373ffffffffffffffffffffffffffffffffffffffff160217905550610358806100606000396000f3fe608060405234801561001057600080fd5b506004361061002b5760003560e01c8063f2fde38b14610030575b600080fd5b61004a600480360381019061004591906101a1565b61004c565b005b60008054906101000a900473ffffffffffffffffffffffffffffffffffffffff1673ffffffffffffffffffffffffffffffffffffffff163373ffffffffffffffffffffffffffffffffffffffff16146100da576040517f08c379a00000000000000000000000000000000000000000000000000000000081526004016100d190610230565b60405180910390fd5b600073ffffffffffffffffffffffffffffffffffffffff168173ffffffffffffffffffffffffffffffffffffffff1614610149576040517f08c379a000000000000000000000000000000000000000000000000000000000815260040161014090610210565b60405180910390fd5b806000806101000a81548173ffffffffffffffffffffffffffffffffffffffff021916908373ffffffffffffffffffffffffffffffffffffffff16021790555050565b60008135905061019b8161030b565b92915050565b6000602082840312156101b357600080fd5b60006101c18482850161018c565b91505092915050565b60006101d7601f83610250565b91506101e282610293565b602082019050919050565b60006101fa602183610250565b9150610205826102bc565b604082019050919050565b60006020820190508181036000830152610229816101ca565b9050919050565b60006020820190508181036000830152610249816101ed565b9050919050565b600082825260208201905092915050565b600061026c82610273565b9050919050565b600073ffffffffffffffffffffffffffffffffffffffff82169050919050565b7f616464726573732063616e27742062652061207a65726f206164647265737300600082015250565b7f6f6e6c79206f776e65722063616e2063616c6c207468697320636f6e7472616360008201527f7400000000000000000000000000000000000000000000000000000000000000602082015250565b61031481610261565b811461031f57600080fd5b5056fea2646970667358221220c8c55cda20cfc4a73634fa9f0c3cb893ca44d4978e2a0e48487f87d9d8a754ac64736f6c63430008030033",
					"opcodes": "PUSH1 0x80 PUSH1 0x40 MSTORE CALLVALUE DUP1 ISZERO PUSH2 0x10 JUMPI PUSH1 0x0 DUP1 REVERT JUMPDEST POP CALLER PUSH1 0x0 DUP1 PUSH2 0x100 EXP DUP2 SLOAD DUP2 PUSH20 0xFFFFFFFFFFFFFFFFFFFFFFFFFFFFFFFFFFFFFFFF MUL NOT AND SWAP1 DUP4 PUSH20 0xFFFFFFFFFFFFFFFFFFFFFFFFFFFFFFFFFFFFFFFF AND MUL OR SWAP1 SSTORE POP PUSH2 0x358 DUP1 PUSH2 0x60 PUSH1 0x0 CODECOPY PUSH1 0x0 RETURN INVALID PUSH1 0x80 PUSH1 0x40 MSTORE CALLVALUE DUP1 ISZERO PUSH2 0x10 JUMPI PUSH1 0x0 DUP1 REVERT JUMPDEST POP PUSH1 0x4 CALLDATASIZE LT PUSH2 0x2B JUMPI PUSH1 0x0 CALLDATALOAD PUSH1 0xE0 SHR DUP1 PUSH4 0xF2FDE38B EQ PUSH2 0x30 JUMPI JUMPDEST PUSH1 0x0 DUP1 REVERT JUMPDEST PUSH2 0x4A PUSH1 0x4 DUP1 CALLDATASIZE SUB DUP2 ADD SWAP1 PUSH2 0x45 SWAP2 SWAP1 PUSH2 0x1A1 JUMP JUMPDEST PUSH2 0x4C JUMP JUMPDEST STOP JUMPDEST PUSH1 0x0 DUP1 SLOAD SWAP1 PUSH2 0x100 EXP SWAP1 DIV PUSH20 0xFFFFFFFFFFFFFFFFFFFFFFFFFFFFFFFFFFFFFFFF AND PUSH20 0xFFFFFFFFFFFFFFFFFFFFFFFFFFFFFFFFFFFFFFFF AND CALLER PUSH20 0xFFFFFFFFFFFFFFFFFFFFFFFFFFFFFFFFFFFFFFFF AND EQ PUSH2 0xDA JUMPI PUSH1 0x40 MLOAD PUSH32 0x8C379A000000000000000000000000000000000000000000000000000000000 DUP2 MSTORE PUSH1 0x4 ADD PUSH2 0xD1 SWAP1 PUSH2 0x230 JUMP JUMPDEST PUSH1 0x40 MLOAD DUP1 SWAP2 SUB SWAP1 REVERT JUMPDEST PUSH1 0x0 PUSH20 0xFFFFFFFFFFFFFFFFFFFFFFFFFFFFFFFFFFFFFFFF AND DUP2 PUSH20 0xFFFFFFFFFFFFFFFFFFFFFFFFFFFFFFFFFFFFFFFF AND EQ PUSH2 0x149 JUMPI PUSH1 0x40 MLOAD PUSH32 0x8C379A000000000000000000000000000000000000000000000000000000000 DUP2 MSTORE PUSH1 0x4 ADD PUSH2 0x140 SWAP1 PUSH2 0x210 JUMP JUMPDEST PUSH1 0x40 MLOAD DUP1 SWAP2 SUB SWAP1 REVERT JUMPDEST DUP1 PUSH1 0x0 DUP1 PUSH2 0x100 EXP DUP2 SLOAD DUP2 PUSH20 0xFFFFFFFFFFFFFFFFFFFFFFFFFFFFFFFFFFFFFFFF MUL NOT AND SWAP1 DUP4 PUSH20 0xFFFFFFFFFFFFFFFFFFFFFFFFFFFFFFFFFFFFFFFF AND MUL OR SWAP1 SSTORE POP POP JUMP JUMPDEST PUSH1 0x0 DUP2 CALLDATALOAD SWAP1 POP PUSH2 0x19B DUP2 PUSH2 0x30B JUMP JUMPDEST SWAP3 SWAP2 POP POP JUMP JUMPDEST PUSH1 0x0 PUSH1 0x20 DUP3 DUP5 SUB SLT ISZERO PUSH2 0x1B3 JUMPI PUSH1 0x0 DUP1 REVERT JUMPDEST PUSH1 0x0 PUSH2 0x1C1 DUP5 DUP3 DUP6 ADD PUSH2 0x18C JUMP JUMPDEST SWAP2 POP POP SWAP3 SWAP2 POP POP JUMP JUMPDEST PUSH1 0x0 PUSH2 0x1D7 PUSH1 0x1F DUP4 PUSH2 0x250 JUMP JUMPDEST SWAP2 POP PUSH2 0x1E2 DUP3 PUSH2 0x293 JUMP JUMPDEST PUSH1 0x20 DUP3 ADD SWAP1 POP SWAP2 SWAP1 POP JUMP JUMPDEST PUSH1 0x0 PUSH2 0x1FA PUSH1 0x21 DUP4 PUSH2 0x250 JUMP JUMPDEST SWAP2 POP PUSH2 0x205 DUP3 PUSH2 0x2BC JUMP JUMPDEST PUSH1 0x40 DUP3 ADD SWAP1 POP SWAP2 SWAP1 POP JUMP JUMPDEST PUSH1 0x0 PUSH1 0x20 DUP3 ADD SWAP1 POP DUP2 DUP2 SUB PUSH1 0x0 DUP4 ADD MSTORE PUSH2 0x229 DUP2 PUSH2 0x1CA JUMP JUMPDEST SWAP1 POP SWAP2 SWAP1 POP JUMP JUMPDEST PUSH1 0x0 PUSH1 0x20 DUP3 ADD SWAP1 POP DUP2 DUP2 SUB PUSH1 0x0 DUP4 ADD MSTORE PUSH2 0x249 DUP2 PUSH2 0x1ED JUMP JUMPDEST SWAP1 POP SWAP2 SWAP1 POP JUMP JUMPDEST PUSH1 0x0 DUP3 DUP3 MSTORE PUSH1 0x20 DUP3 ADD SWAP1 POP SWAP3 SWAP2 POP POP JUMP JUMPDEST PUSH1 0x0 PUSH2 0x26C DUP3 PUSH2 0x273 JUMP JUMPDEST SWAP1 POP SWAP2 SWAP1 POP JUMP JUMPDEST PUSH1 0x0 PUSH20 0xFFFFFFFFFFFFFFFFFFFFFFFFFFFFFFFFFFFFFFFF DUP3 AND SWAP1 POP SWAP2 SWAP1 POP JUMP JUMPDEST PUSH32 0x616464726573732063616E27742062652061207A65726F206164647265737300 PUSH1 0x0 DUP3 ADD MSTORE POP JUMP JUMPDEST PUSH32 0x6F6E6C79206F776E65722063616E2063616C6C207468697320636F6E74726163 PUSH1 0x0 DUP3 ADD MSTORE PUSH32 0x7400000000000000000000000000000000000000000000000000000000000000 PUSH1 0x20 DUP3 ADD MSTORE POP JUMP JUMPDEST PUSH2 0x314 DUP2 PUSH2 0x261 JUMP JUMPDEST DUP2 EQ PUSH2 0x31F JUMPI PUSH1 0x0 DUP1 REVERT JUMPDEST POP JUMP INVALID LOG2 PUSH5 0x6970667358 0x22 SLT KECCAK256 0xC8 0xC5 0x5C 0xDA KECCAK256 0xCF 0xC4 0xA7 CALLDATASIZE CALLVALUE STATICCALL SWAP16 0xC EXTCODECOPY 0xB8 SWAP4 0xCA DIFFICULTY 0xD4 SWAP8 DUP15 0x2A 0xE 0x48 0x48 PUSH32 0x87D9D8A754AC64736F6C63430008030033000000000000000000000000000000 "
				},
				"gasEstimates": {
					"creation": {
						"codeDepositCost": "171200",
						"executionCost": "21080",
						"totalCost": "192280"
					},
					"external": {
						"transferOwnership(address)": "22202"
					}
				},
				"methodIdentifiers": {
					"transferOwnership(address)": "f2fde38b"
				}
			},
			"storageLayout": {
				"storage": [
					{
						"astId": 3,
						"contract": "contract/firstWork.sol:Ownable",
						"label": "owner",
						"offset": 0,
						"slot": "0",
						"type": "t_address"
					}
				],
				"types": {
					"t_address": {
						"encoding": "inplace",
						"label": "address",
						"numberOfBytes": "20"
					}
				}
			},
			"userdoc": {
				"kind": "user",
				"methods": {},
				"version": 1
			}
		}
	}
}