{
	"contract/firstWork.sol": {
		"escrow": {
			"abi": [
				{
					"anonymous": false,
					"inputs": [
						{
							"indexed": true,
							"internalType": "uint256",
							"name": "escrowId",
							"type": "uint256"
						},
						{
							"indexed": false,
							"internalType": "bool",
							"name": "releasedtoFreelancer",
							"type": "bool"
						}
					],
					"name": "disputeResolved",
					"type": "event"
				},
				{
					"anonymous": false,
					"inputs": [
						{
							"indexed": true,
							"internalType": "address",
							"name": "freelancer",
							"type": "address"
						},
						{
							"indexed": false,
							"internalType": "uint256",
							"name": "amount",
							"type": "uint256"
						}
					],
					"name": "earningsWithdrawn",
					"type": "event"
				},
				{
					"anonymous": false,
					"inputs": [
						{
							"indexed": true,
							"internalType": "uint256",
							"name": "escrowId",
							"type": "uint256"
						},
						{
							"indexed": true,
							"internalType": "address",
							"name": "freelancer",
							"type": "address"
						}
					],
					"name": "escrowAccepted",
					"type": "event"
				},
				{
					"anonymous": false,
					"inputs": [
						{
							"indexed": true,
							"internalType": "uint256",
							"name": "escrowId",
							"type": "uint256"
						},
						{
							"indexed": true,
							"internalType": "address",
							"name": "client",
							"type": "address"
						}
					],
					"name": "escrowCancelled",
					"type": "event"
				},
				{
					"anonymous": false,
					"inputs": [
						{
							"indexed": true,
							"internalType": "uint256",
							"name": "escrowId",
							"type": "uint256"
						},
						{
							"indexed": true,
							"internalType": "address",
							"name": "client",
							"type": "address"
						},
						{
							"indexed": true,
							"internalType": "address",
							"name": "freelancer",
							"type": "address"
						},
						{
							"indexed": false,
							"internalType": "string",
							"name": "jobDescription",
							"type": "string"
						},
						{
							"indexed": false,
							"internalType": "uint256",
							"name": "amount",
							"type": "uint256"
						}
					],
					"name": "escrowCreated",
					"type": "event"
				},
				{
					"anonymous": false,
					"inputs": [
						{
							"indexed": true,
							"internalType": "uint256",
							"name": "escrowId",
							"type": "uint256"
						},
						{
							"indexed": true,
							"internalType": "address",
							"name": "by",
							"type": "address"
						}
					],
					"name": "escrowDisputed",
					"type": "event"
				},
				{
					"anonymous": false,
					"inputs": [
						{
							"indexed": false,
							"internalType": "uint256",
							"name": "oldFee",
							"type": "uint256"
						},
						{
							"indexed": false,
							"internalType": "uint256",
							"name": "newFee",
							"type": "uint256"
						}
					],
					"name": "feesChanged",
					"type": "event"
				},
				{
					"anonymous": false,
					"inputs": [
						{
							"indexed": true,
							"internalType": "uint256",
							"name": "escrowId",
							"type": "uint256"
						},
						{
							"indexed": true,
							"internalType": "address",
							"name": "client",
							"type": "address"
						},
						{
							"indexed": false,
							"internalType": "uint256",
							"name": "freelancerEarnings",
							"type": "uint256"
						},
						{
							"indexed": false,
							"internalType": "uint256",
							"name": "platformEarnings",
							"type": "uint256"
						}
					],
					"name": "paymentReleased",
					"type": "event"
				},
				{
					"anonymous": false,
					"inputs": [
						{
							"indexed": false,
							"internalType": "uint256",
							"name": "amount",
							"type": "uint256"
						}
					],
					"name": "platformFeeWithdrawn",
					"type": "event"
				},
				{
					"anonymous": false,
					"inputs": [
						{
							"indexed": true,
							"internalType": "uint256",
							"name": "escrowId",
							"type": "uint256"
						},
						{
							"indexed": true,
							"internalType": "address",
							"name": "freelancer",
							"type": "address"
						}
					],
					"name": "workSubmitted",
					"type": "event"
				},
				{
					"inputs": [],
					"name": "Pause",
					"outputs": [],
					"stateMutability": "nonpayable",
					"type": "function"
				},
				{
					"inputs": [
						{
							"internalType": "uint256",
							"name": "_escrowId",
							"type": "uint256"
						}
					],
					"name": "acceptEscrow",
					"outputs": [],
					"stateMutability": "nonpayable",
					"type": "function"
				},
				{
					"inputs": [
						{
							"internalType": "uint256",
							"name": "_escrowId",
							"type": "uint256"
						}
					],
					"name": "approveAndRelease",
					"outputs": [],
					"stateMutability": "nonpayable",
					"type": "function"
				},
				{
					"inputs": [
						{
							"internalType": "uint256",
							"name": "_escrowId",
							"type": "uint256"
						}
					],
					"name": "cancelEscrow",
					"outputs": [],
					"stateMutability": "nonpayable",
					"type": "function"
				},
				{
					"inputs": [
						{
							"internalType": "uint256",
							"name": "_newFee",
							"type": "uint256"
						}
					],
					"name": "changeFee",
					"outputs": [],
					"stateMutability": "nonpayable",
					"type": "function"
				},
				{
					"inputs": [
						{
							"internalType": "string",
							"name": "description",
							"type": "string"
						},
						{
							"internalType": "address",
							"name": "_freelancer",
							"type": "address"
						}
					],
					"name": "createEscrow",
					"outputs": [
						{
							"internalType": "uint256",
							"name": "",
							"type": "uint256"
						}
					],
					"stateMutability": "payable",
					"type": "function"
				},
				{
					"inputs": [
						{
							"internalType": "uint256",
							"name": "_escrowId",
							"type": "uint256"
						}
					],
					"name": "dispute",
					"outputs": [],
					"stateMutability": "nonpayable",
					"type": "function"
				},
				{
					"inputs": [
						{
							"internalType": "uint256",
							"name": "_escrowId",
							"type": "uint256"
						}
					],
					"name": "getEscrow",
					"outputs": [
						{
							"components": [
								{
									"internalType": "uint256",
									"name": "escrowId",
									"type": "uint256"
								},
								{
									"internalType": "address",
									"name": "employer",
									"type": "address"
								},
								{
									"internalType": "address",
									"name": "employee",
									"type": "address"
								},
								{
									"internalType": "string",
									"name": "jobDesc",
									"type": "string"
								},
								{
									"internalType": "uint256",
									"name": "amount",
									"type": "uint256"
								},
								{
									"internalType": "enum escrow.Status",
									"name": "status",
									"type": "uint8"
								},
								{
									"internalType": "uint256",
									"name": "timestamp",
									"type": "uint256"
								}
							],
							"internalType": "struct escrow.data",
							"name": "",
							"type": "tuple"
						}
					],
					"stateMutability": "view",
					"type": "function"
				},
				{
					"inputs": [],
					"name": "getMyClientEscrows",
					"outputs": [
						{
							"internalType": "uint256[]",
							"name": "",
							"type": "uint256[]"
						}
					],
					"stateMutability": "view",
					"type": "function"
				},
				{
					"inputs": [],
					"name": "getMyEarnings",
					"outputs": [
						{
							"internalType": "uint256",
							"name": "",
							"type": "uint256"
						}
					],
					"stateMutability": "view",
					"type": "function"
				},
				{
					"inputs": [],
					"name": "getMyFreelancerEscrows",
					"outputs": [
						{
							"internalType": "uint256[]",
							"name": "",
							"type": "uint256[]"
						}
					],
					"stateMutability": "view",
					"type": "function"
				},
				{
					"inputs": [
						{
							"internalType": "uint256",
							"name": "_escrowId",
							"type": "uint256"
						},
						{
							"internalType": "bool",
							"name": "releaseToFreelancer",
							"type": "bool"
						}
					],
					"name": "resolveDispute",
					"outputs": [],
					"stateMutability": "nonpayable",
					"type": "function"
				},
				{
					"inputs": [
						{
							"internalType": "uint256",
							"name": "_escrowId",
							"type": "uint256"
						}
					],
					"name": "submitWork",
					"outputs": [],
					"stateMutability": "nonpayable",
					"type": "function"
				},
				{
					"inputs": [
						{
							"internalType": "address",
							"name": "newOwner",
							"type": "address"
						}
					],
					"name": "transferOwnership",
					"outputs": [],
					"stateMutability": "nonpayable",
					"type": "function"
				},
				{
					"inputs": [],
					"name": "unPause",
					"outputs": [],
					"stateMutability": "nonpayable",
					"type": "function"
				},
				{
					"inputs": [],
					"name": "withdrawEarnings",
					"outputs": [],
					"stateMutability": "nonpayable",
					"type": "function"
				},
				{
					"inputs": [],
					"name": "withdrawPlatformFee",
					"outputs": [],
					"stateMutability": "nonpayable",
					"type": "function"
				}
			],
			"devdoc": {
				"kind": "dev",
				"methods": {},
				"version": 1
			},
			"evm": {
				"assembly": "    /* \"contract/firstWork.sol\":851:9046  contract escrow is Ownable, Pausable {\r... */\n  mstore(0x40, 0x80)\n    /* \"contract/firstWork.sol\":916:917  5 */\n  0x05\n    /* \"contract/firstWork.sol\":897:917  uint platformFee = 5 */\n  0x01\n  sstore\n    /* \"contract/firstWork.sol\":851:9046  contract escrow is Ownable, Pausable {\r... */\n  callvalue\n  dup1\n  iszero\n  tag_1\n  jumpi\n  0x00\n  dup1\n  revert\ntag_1:\n  pop\n    /* \"contract/firstWork.sol\":146:156  msg.sender */\n  caller\n    /* \"contract/firstWork.sol\":138:143  owner */\n  0x00\n  dup1\n    /* \"contract/firstWork.sol\":138:156  owner = msg.sender */\n  0x0100\n  exp\n  dup2\n  sload\n  dup2\n  0xffffffffffffffffffffffffffffffffffffffff\n  mul\n  not\n  and\n  swap1\n  dup4\n  0xffffffffffffffffffffffffffffffffffffffff\n  and\n  mul\n  or\n  swap1\n  sstore\n  pop\n    /* \"contract/firstWork.sol\":851:9046  contract escrow is Ownable, Pausable {\r... */\n  dataSize(sub_0)\n  dup1\n  dataOffset(sub_0)\n  0x00\n  codecopy\n  0x00\n  return\nstop\n\nsub_0: assembly {\n        /* \"contract/firstWork.sol\":851:9046  contract escrow is Ownable, Pausable {\r... */\n      mstore(0x40, 0x80)\n      jumpi(tag_1, lt(calldatasize, 0x04))\n      shr(0xe0, calldataload(0x00))\n      dup1\n      0x86d6282c\n      gt\n      tag_19\n      jumpi\n      dup1\n      0xe0182436\n      gt\n      tag_20\n      jumpi\n      dup1\n      0xe0182436\n      eq\n      tag_14\n      jumpi\n      dup1\n      0xe39c3367\n      eq\n      tag_15\n      jumpi\n      dup1\n      0xee28ea62\n      eq\n      tag_16\n      jumpi\n      dup1\n      0xf2fde38b\n      eq\n      tag_17\n      jumpi\n      dup1\n      0xf7b188a5\n      eq\n      tag_18\n      jumpi\n      jump(tag_1)\n    tag_20:\n      dup1\n      0x86d6282c\n      eq\n      tag_10\n      jumpi\n      dup1\n      0xb73c6ce9\n      eq\n      tag_11\n      jumpi\n      dup1\n      0xc4c11523\n      eq\n      tag_12\n      jumpi\n      dup1\n      0xdcb05611\n      eq\n      tag_13\n      jumpi\n      jump(tag_1)\n    tag_19:\n      dup1\n      0x5c77298d\n      gt\n      tag_21\n      jumpi\n      dup1\n      0x5c77298d\n      eq\n      tag_6\n      jumpi\n      dup1\n      0x6985a022\n      eq\n      tag_7\n      jumpi\n      dup1\n      0x6a1db1bf\n      eq\n      tag_8\n      jumpi\n      dup1\n      0x7d19e596\n      eq\n      tag_9\n      jumpi\n      jump(tag_1)\n    tag_21:\n      dup1\n      0x0f3dcdf2\n      eq\n      tag_2\n      jumpi\n      dup1\n      0x202cefd5\n      eq\n      tag_3\n      jumpi\n      dup1\n      0x22754d8b\n      eq\n      tag_4\n      jumpi\n      dup1\n      0x34b25ee2\n      eq\n      tag_5\n      jumpi\n    tag_1:\n      0x00\n      dup1\n      revert\n        /* \"contract/firstWork.sol\":8372:8496  function getMyClientEscrows () external view isPaused returns (uint [] memory){\r... */\n    tag_2:\n      callvalue\n      dup1\n      iszero\n      tag_22\n      jumpi\n      0x00\n      dup1\n      revert\n    tag_22:\n      pop\n      tag_23\n      tag_24\n      jump\t// in\n    tag_23:\n      mload(0x40)\n      tag_25\n      swap2\n      swap1\n      tag_26\n      jump\t// in\n    tag_25:\n      mload(0x40)\n      dup1\n      swap2\n      sub\n      swap1\n      return\n        /* \"contract/firstWork.sol\":7907:8208  function withdrawPlatformFee () external isPaused ownerOnly{\r... */\n    tag_3:\n      callvalue\n      dup1\n      iszero\n      tag_27\n      jumpi\n      0x00\n      dup1\n      revert\n    tag_27:\n      pop\n      tag_28\n      tag_29\n      jump\t// in\n    tag_28:\n      stop\n        /* \"contract/firstWork.sol\":8643:8753  function getMyEarnings () external view isPaused returns(uint){\r... */\n    tag_4:\n      callvalue\n      dup1\n      iszero\n      tag_30\n      jumpi\n      0x00\n      dup1\n      revert\n    tag_30:\n      pop\n      tag_31\n      tag_32\n      jump\t// in\n    tag_31:\n      mload(0x40)\n      tag_33\n      swap2\n      swap1\n      tag_34\n      jump\t// in\n    tag_33:\n      mload(0x40)\n      dup1\n      swap2\n      sub\n      swap1\n      return\n        /* \"contract/firstWork.sol\":5633:7119  function resolveDispute (uint _escrowId, bool releaseToFreelancer) \r... */\n    tag_5:\n      callvalue\n      dup1\n      iszero\n      tag_35\n      jumpi\n      0x00\n      dup1\n      revert\n    tag_35:\n      pop\n      tag_36\n      0x04\n      dup1\n      calldatasize\n      sub\n      dup2\n      add\n      swap1\n      tag_37\n      swap2\n      swap1\n      tag_38\n      jump\t// in\n    tag_37:\n      tag_39\n      jump\t// in\n    tag_36:\n      stop\n        /* \"contract/firstWork.sol\":2856:3877  function createEscrow (string memory description, address _freelancer) external payable isPaused returns(uint){\r... */\n    tag_6:\n      tag_40\n      0x04\n      dup1\n      calldatasize\n      sub\n      dup2\n      add\n      swap1\n      tag_41\n      swap2\n      swap1\n      tag_42\n      jump\t// in\n    tag_41:\n      tag_43\n      jump\t// in\n    tag_40:\n      mload(0x40)\n      tag_44\n      swap2\n      swap1\n      tag_34\n      jump\t// in\n    tag_44:\n      mload(0x40)\n      dup1\n      swap2\n      sub\n      swap1\n      return\n        /* \"contract/firstWork.sol\":668:742  function Pause () external ownerOnly{\r... */\n    tag_7:\n      callvalue\n      dup1\n      iszero\n      tag_45\n      jumpi\n      0x00\n      dup1\n      revert\n    tag_45:\n      pop\n      tag_46\n      tag_47\n      jump\t// in\n    tag_46:\n      stop\n        /* \"contract/firstWork.sol\":8763:9043  function changeFee (uint _newFee) external isPaused ownerOnly{\r... */\n    tag_8:\n      callvalue\n      dup1\n      iszero\n      tag_48\n      jumpi\n      0x00\n      dup1\n      revert\n    tag_48:\n      pop\n      tag_49\n      0x04\n      dup1\n      calldatasize\n      sub\n      dup2\n      add\n      swap1\n      tag_50\n      swap2\n      swap1\n      tag_51\n      jump\t// in\n    tag_50:\n      tag_52\n      jump\t// in\n    tag_49:\n      stop\n        /* \"contract/firstWork.sol\":8216:8364  function getEscrow (uint _escrowId) external view isPaused escrowExist(_escrowId) returns (data memory){\r... */\n    tag_9:\n      callvalue\n      dup1\n      iszero\n      tag_53\n      jumpi\n      0x00\n      dup1\n      revert\n    tag_53:\n      pop\n      tag_54\n      0x04\n      dup1\n      calldatasize\n      sub\n      dup2\n      add\n      swap1\n      tag_55\n      swap2\n      swap1\n      tag_51\n      jump\t// in\n    tag_55:\n      tag_56\n      jump\t// in\n    tag_54:\n      mload(0x40)\n      tag_57\n      swap2\n      swap1\n      tag_58\n      jump\t// in\n    tag_57:\n      mload(0x40)\n      dup1\n      swap2\n      sub\n      swap1\n      return\n        /* \"contract/firstWork.sol\":5138:5623  function dispute (uint _escrowId) external isPaused escrowExist(_escrowId){\r... */\n    tag_10:\n      callvalue\n      dup1\n      iszero\n      tag_59\n      jumpi\n      0x00\n      dup1\n      revert\n    tag_59:\n      pop\n      tag_60\n      0x04\n      dup1\n      calldatasize\n      sub\n      dup2\n      add\n      swap1\n      tag_61\n      swap2\n      swap1\n      tag_51\n      jump\t// in\n    tag_61:\n      tag_62\n      jump\t// in\n    tag_60:\n      stop\n        /* \"contract/firstWork.sol\":7572:7896  function withdrawEarnings () external isPaused {\r... */\n    tag_11:\n      callvalue\n      dup1\n      iszero\n      tag_63\n      jumpi\n      0x00\n      dup1\n      revert\n    tag_63:\n      pop\n      tag_64\n      tag_65\n      jump\t// in\n    tag_64:\n      stop\n        /* \"contract/firstWork.sol\":4208:4528  function submitWork (uint _escrowId) external isPaused freelancerOnly(_escrowId) escrowExist(_escrowId){\r... */\n    tag_12:\n      callvalue\n      dup1\n      iszero\n      tag_66\n      jumpi\n      0x00\n      dup1\n      revert\n    tag_66:\n      pop\n      tag_67\n      0x04\n      dup1\n      calldatasize\n      sub\n      dup2\n      add\n      swap1\n      tag_68\n      swap2\n      swap1\n      tag_51\n      jump\t// in\n    tag_68:\n      tag_69\n      jump\t// in\n    tag_67:\n      stop\n        /* \"contract/firstWork.sol\":4538:5128  function approveAndRelease (uint _escrowId) external isPaused clientOnly(_escrowId) escrowExist(_escrowId){\r... */\n    tag_13:\n      callvalue\n      dup1\n      iszero\n      tag_70\n      jumpi\n      0x00\n      dup1\n      revert\n    tag_70:\n      pop\n      tag_71\n      0x04\n      dup1\n      calldatasize\n      sub\n      dup2\n      add\n      swap1\n      tag_72\n      swap2\n      swap1\n      tag_51\n      jump\t// in\n    tag_72:\n      tag_73\n      jump\t// in\n    tag_71:\n      stop\n        /* \"contract/firstWork.sol\":7129:7562  function cancelEscrow (uint _escrowId) external isPaused clientOnly(_escrowId) escrowExist(_escrowId){\r... */\n    tag_14:\n      callvalue\n      dup1\n      iszero\n      tag_74\n      jumpi\n      0x00\n      dup1\n      revert\n    tag_74:\n      pop\n      tag_75\n      0x04\n      dup1\n      calldatasize\n      sub\n      dup2\n      add\n      swap1\n      tag_76\n      swap2\n      swap1\n      tag_51\n      jump\t// in\n    tag_76:\n      tag_77\n      jump\t// in\n    tag_75:\n      stop\n        /* \"contract/firstWork.sol\":8504:8635  function getMyFreelancerEscrows () external view isPaused returns(uint [] memory){\r... */\n    tag_15:\n      callvalue\n      dup1\n      iszero\n      tag_78\n      jumpi\n      0x00\n      dup1\n      revert\n    tag_78:\n      pop\n      tag_79\n      tag_80\n      jump\t// in\n    tag_79:\n      mload(0x40)\n      tag_81\n      swap2\n      swap1\n      tag_26\n      jump\t// in\n    tag_81:\n      mload(0x40)\n      dup1\n      swap2\n      sub\n      swap1\n      return\n        /* \"contract/firstWork.sol\":3887:4198  function acceptEscrow (uint _escrowId) external isPaused freelancerOnly(_escrowId) escrowExist(_escrowId){\r... */\n    tag_16:\n      callvalue\n      dup1\n      iszero\n      tag_82\n      jumpi\n      0x00\n      dup1\n      revert\n    tag_82:\n      pop\n      tag_83\n      0x04\n      dup1\n      calldatasize\n      sub\n      dup2\n      add\n      swap1\n      tag_84\n      swap2\n      swap1\n      tag_51\n      jump\t// in\n    tag_84:\n      tag_85\n      jump\t// in\n    tag_83:\n      stop\n        /* \"contract/firstWork.sol\":302:483  function transferOwnership (address newOwner) external ownerOnly{\r... */\n    tag_17:\n      callvalue\n      dup1\n      iszero\n      tag_86\n      jumpi\n      0x00\n      dup1\n      revert\n    tag_86:\n      pop\n      tag_87\n      0x04\n      dup1\n      calldatasize\n      sub\n      dup2\n      add\n      swap1\n      tag_88\n      swap2\n      swap1\n      tag_89\n      jump\t// in\n    tag_88:\n      tag_90\n      jump\t// in\n    tag_87:\n      stop\n        /* \"contract/firstWork.sol\":750:836  function unPause () external ownerOnly{\r... */\n    tag_18:\n      callvalue\n      dup1\n      iszero\n      tag_91\n      jumpi\n      0x00\n      dup1\n      revert\n    tag_91:\n      pop\n      tag_92\n      tag_93\n      jump\t// in\n    tag_92:\n      stop\n        /* \"contract/firstWork.sol\":8372:8496  function getMyClientEscrows () external view isPaused returns (uint [] memory){\r... */\n    tag_24:\n        /* \"contract/firstWork.sol\":8435:8449  uint [] memory */\n      0x60\n        /* \"contract/firstWork.sol\":608:613  false */\n      0x00\n        /* \"contract/firstWork.sol\":594:613  isItPaused == false */\n      iszero\n      iszero\n        /* \"contract/firstWork.sol\":594:604  isItPaused */\n      0x00\n      0x14\n      swap1\n      sload\n      swap1\n      0x0100\n      exp\n      swap1\n      div\n      0xff\n      and\n        /* \"contract/firstWork.sol\":594:613  isItPaused == false */\n      iszero\n      iszero\n      eq\n        /* \"contract/firstWork.sol\":585:640  require (isItPaused == false, \"the contract is paused\") */\n      tag_95\n      jumpi\n      mload(0x40)\n      0x08c379a000000000000000000000000000000000000000000000000000000000\n      dup2\n      mstore\n      0x04\n      add\n      tag_96\n      swap1\n      tag_97\n      jump\t// in\n    tag_96:\n      mload(0x40)\n      dup1\n      swap2\n      sub\n      swap1\n      revert\n    tag_95:\n        /* \"contract/firstWork.sol\":8470:8476  client */\n      0x05\n        /* \"contract/firstWork.sol\":8470:8488  client[msg.sender] */\n      0x00\n        /* \"contract/firstWork.sol\":8477:8487  msg.sender */\n      caller\n        /* \"contract/firstWork.sol\":8470:8488  client[msg.sender] */\n      0xffffffffffffffffffffffffffffffffffffffff\n      and\n      0xffffffffffffffffffffffffffffffffffffffff\n      and\n      dup2\n      mstore\n      0x20\n      add\n      swap1\n      dup2\n      mstore\n      0x20\n      add\n      0x00\n      keccak256\n        /* \"contract/firstWork.sol\":8463:8488  return client[msg.sender] */\n      dup1\n      sload\n      dup1\n      0x20\n      mul\n      0x20\n      add\n      mload(0x40)\n      swap1\n      dup2\n      add\n      0x40\n      mstore\n      dup1\n      swap3\n      swap2\n      swap1\n      dup2\n      dup2\n      mstore\n      0x20\n      add\n      dup3\n      dup1\n      sload\n      dup1\n      iszero\n      tag_99\n      jumpi\n      0x20\n      mul\n      dup3\n      add\n      swap2\n      swap1\n      0x00\n      mstore\n      keccak256(0x00, 0x20)\n      swap1\n    tag_100:\n      dup2\n      sload\n      dup2\n      mstore\n      0x20\n      add\n      swap1\n      0x01\n      add\n      swap1\n      dup1\n      dup4\n      gt\n      tag_100\n      jumpi\n    tag_99:\n      pop\n      pop\n      pop\n      pop\n      pop\n      swap1\n      pop\n        /* \"contract/firstWork.sol\":8372:8496  function getMyClientEscrows () external view isPaused returns (uint [] memory){\r... */\n      swap1\n      jump\t// out\n        /* \"contract/firstWork.sol\":7907:8208  function withdrawPlatformFee () external isPaused ownerOnly{\r... */\n    tag_29:\n        /* \"contract/firstWork.sol\":608:613  false */\n      0x00\n        /* \"contract/firstWork.sol\":594:613  isItPaused == false */\n      iszero\n      iszero\n        /* \"contract/firstWork.sol\":594:604  isItPaused */\n      0x00\n      0x14\n      swap1\n      sload\n      swap1\n      0x0100\n      exp\n      swap1\n      div\n      0xff\n      and\n        /* \"contract/firstWork.sol\":594:613  isItPaused == false */\n      iszero\n      iszero\n      eq\n        /* \"contract/firstWork.sol\":585:640  require (isItPaused == false, \"the contract is paused\") */\n      tag_102\n      jumpi\n      mload(0x40)\n      0x08c379a000000000000000000000000000000000000000000000000000000000\n      dup2\n      mstore\n      0x04\n      add\n      tag_103\n      swap1\n      tag_97\n      jump\t// in\n    tag_103:\n      mload(0x40)\n      dup1\n      swap2\n      sub\n      swap1\n      revert\n    tag_102:\n        /* \"contract/firstWork.sol\":229:234  owner */\n      0x00\n      dup1\n      sload\n      swap1\n      0x0100\n      exp\n      swap1\n      div\n      0xffffffffffffffffffffffffffffffffffffffff\n      and\n        /* \"contract/firstWork.sol\":215:234  msg.sender == owner */\n      0xffffffffffffffffffffffffffffffffffffffff\n      and\n        /* \"contract/firstWork.sol\":215:225  msg.sender */\n      caller\n        /* \"contract/firstWork.sol\":215:234  msg.sender == owner */\n      0xffffffffffffffffffffffffffffffffffffffff\n      and\n      eq\n        /* \"contract/firstWork.sol\":206:272  require (msg.sender == owner, \"only owner can call this contract\") */\n      tag_105\n      jumpi\n      mload(0x40)\n      0x08c379a000000000000000000000000000000000000000000000000000000000\n      dup2\n      mstore\n      0x04\n      add\n      tag_106\n      swap1\n      tag_107\n      jump\t// in\n    tag_106:\n      mload(0x40)\n      dup1\n      swap2\n      sub\n      swap1\n      revert\n    tag_105:\n        /* \"contract/firstWork.sol\":8007:8008  0 */\n      0x00\n        /* \"contract/firstWork.sol\":7988:8004  platformEarnings */\n      sload(0x02)\n        /* \"contract/firstWork.sol\":7988:8008  platformEarnings > 0 */\n      gt\n        /* \"contract/firstWork.sol\":7979:8029  require (platformEarnings > 0 , \"no earnings yet\") */\n      tag_109\n      jumpi\n      mload(0x40)\n      0x08c379a000000000000000000000000000000000000000000000000000000000\n      dup2\n      mstore\n      0x04\n      add\n      tag_110\n      swap1\n      tag_111\n      jump\t// in\n    tag_110:\n      mload(0x40)\n      dup1\n      swap2\n      sub\n      swap1\n      revert\n    tag_109:\n        /* \"contract/firstWork.sol\":8042:8050  uint fee */\n      0x00\n        /* \"contract/firstWork.sol\":8053:8069  platformEarnings */\n      sload(0x02)\n        /* \"contract/firstWork.sol\":8042:8069  uint fee = platformEarnings */\n      swap1\n      pop\n        /* \"contract/firstWork.sol\":8090:8095  owner */\n      0x00\n      dup1\n      sload\n      swap1\n      0x0100\n      exp\n      swap1\n      div\n      0xffffffffffffffffffffffffffffffffffffffff\n      and\n        /* \"contract/firstWork.sol\":8082:8105  payable(owner).transfer */\n      0xffffffffffffffffffffffffffffffffffffffff\n      and\n        /* \"contract/firstWork.sol\":8082:8123  payable(owner).transfer(platformEarnings) */\n      0x08fc\n        /* \"contract/firstWork.sol\":8106:8122  platformEarnings */\n      sload(0x02)\n        /* \"contract/firstWork.sol\":8082:8123  payable(owner).transfer(platformEarnings) */\n      swap1\n      dup2\n      iszero\n      mul\n      swap1\n      mload(0x40)\n      0x00\n      mload(0x40)\n      dup1\n      dup4\n      sub\n      dup2\n      dup6\n      dup9\n      dup9\n      call\n      swap4\n      pop\n      pop\n      pop\n      pop\n      iszero\n      dup1\n      iszero\n      tag_113\n      jumpi\n      returndatasize\n      0x00\n      dup1\n      returndatacopy\n      revert(0x00, returndatasize)\n    tag_113:\n      pop\n        /* \"contract/firstWork.sol\":8155:8156  0 */\n      0x00\n        /* \"contract/firstWork.sol\":8136:8152  platformEarnings */\n      0x02\n        /* \"contract/firstWork.sol\":8136:8156  platformEarnings = 0 */\n      dup2\n      swap1\n      sstore\n      pop\n        /* \"contract/firstWork.sol\":8174:8200  platformFeeWithdrawn (fee) */\n      0xa2aa7cfe8c0ee9cbafa5729e8b55eaa4b93b0faecde673005a239ae26957b35c\n        /* \"contract/firstWork.sol\":8196:8199  fee */\n      dup2\n        /* \"contract/firstWork.sol\":8174:8200  platformFeeWithdrawn (fee) */\n      mload(0x40)\n      tag_114\n      swap2\n      swap1\n      tag_34\n      jump\t// in\n    tag_114:\n      mload(0x40)\n      dup1\n      swap2\n      sub\n      swap1\n      log1\n        /* \"contract/firstWork.sol\":285:286  _ */\n      pop\n        /* \"contract/firstWork.sol\":7907:8208  function withdrawPlatformFee () external isPaused ownerOnly{\r... */\n      jump\t// out\n        /* \"contract/firstWork.sol\":8643:8753  function getMyEarnings () external view isPaused returns(uint){\r... */\n    tag_32:\n        /* \"contract/firstWork.sol\":8700:8704  uint */\n      0x00\n        /* \"contract/firstWork.sol\":608:613  false */\n      dup1\n        /* \"contract/firstWork.sol\":594:613  isItPaused == false */\n      iszero\n      iszero\n        /* \"contract/firstWork.sol\":594:604  isItPaused */\n      0x00\n      0x14\n      swap1\n      sload\n      swap1\n      0x0100\n      exp\n      swap1\n      div\n      0xff\n      and\n        /* \"contract/firstWork.sol\":594:613  isItPaused == false */\n      iszero\n      iszero\n      eq\n        /* \"contract/firstWork.sol\":585:640  require (isItPaused == false, \"the contract is paused\") */\n      tag_116\n      jumpi\n      mload(0x40)\n      0x08c379a000000000000000000000000000000000000000000000000000000000\n      dup2\n      mstore\n      0x04\n      add\n      tag_117\n      swap1\n      tag_97\n      jump\t// in\n    tag_117:\n      mload(0x40)\n      dup1\n      swap2\n      sub\n      swap1\n      revert\n    tag_116:\n        /* \"contract/firstWork.sol\":8725:8733  earnings */\n      0x07\n        /* \"contract/firstWork.sol\":8725:8745  earnings[msg.sender] */\n      0x00\n        /* \"contract/firstWork.sol\":8734:8744  msg.sender */\n      caller\n        /* \"contract/firstWork.sol\":8725:8745  earnings[msg.sender] */\n      0xffffffffffffffffffffffffffffffffffffffff\n      and\n      0xffffffffffffffffffffffffffffffffffffffff\n      and\n      dup2\n      mstore\n      0x20\n      add\n      swap1\n      dup2\n      mstore\n      0x20\n      add\n      0x00\n      keccak256\n      sload\n        /* \"contract/firstWork.sol\":8718:8745  return earnings[msg.sender] */\n      swap1\n      pop\n        /* \"contract/firstWork.sol\":8643:8753  function getMyEarnings () external view isPaused returns(uint){\r... */\n      swap1\n      jump\t// out\n        /* \"contract/firstWork.sol\":5633:7119  function resolveDispute (uint _escrowId, bool releaseToFreelancer) \r... */\n    tag_39:\n        /* \"contract/firstWork.sol\":608:613  false */\n      0x00\n        /* \"contract/firstWork.sol\":594:613  isItPaused == false */\n      iszero\n      iszero\n        /* \"contract/firstWork.sol\":594:604  isItPaused */\n      0x00\n      0x14\n      swap1\n      sload\n      swap1\n      0x0100\n      exp\n      swap1\n      div\n      0xff\n      and\n        /* \"contract/firstWork.sol\":594:613  isItPaused == false */\n      iszero\n      iszero\n      eq\n        /* \"contract/firstWork.sol\":585:640  require (isItPaused == false, \"the contract is paused\") */\n      tag_120\n      jumpi\n      mload(0x40)\n      0x08c379a000000000000000000000000000000000000000000000000000000000\n      dup2\n      mstore\n      0x04\n      add\n      tag_121\n      swap1\n      tag_97\n      jump\t// in\n    tag_121:\n      mload(0x40)\n      dup1\n      swap2\n      sub\n      swap1\n      revert\n    tag_120:\n        /* \"contract/firstWork.sol\":229:234  owner */\n      0x00\n      dup1\n      sload\n      swap1\n      0x0100\n      exp\n      swap1\n      div\n      0xffffffffffffffffffffffffffffffffffffffff\n      and\n        /* \"contract/firstWork.sol\":215:234  msg.sender == owner */\n      0xffffffffffffffffffffffffffffffffffffffff\n      and\n        /* \"contract/firstWork.sol\":215:225  msg.sender */\n      caller\n        /* \"contract/firstWork.sol\":215:234  msg.sender == owner */\n      0xffffffffffffffffffffffffffffffffffffffff\n      and\n      eq\n        /* \"contract/firstWork.sol\":206:272  require (msg.sender == owner, \"only owner can call this contract\") */\n      tag_123\n      jumpi\n      mload(0x40)\n      0x08c379a000000000000000000000000000000000000000000000000000000000\n      dup2\n      mstore\n      0x04\n      add\n      tag_124\n      swap1\n      tag_107\n      jump\t// in\n    tag_124:\n      mload(0x40)\n      dup1\n      swap2\n      sub\n      swap1\n      revert\n    tag_123:\n        /* \"contract/firstWork.sol\":5807:5816  _escrowId */\n      dup2\n        /* \"contract/firstWork.sol\":1923:1924  0 */\n      0x00\n        /* \"contract/firstWork.sol\":1911:1920  _escrowId */\n      dup2\n        /* \"contract/firstWork.sol\":1911:1924  _escrowId > 0 */\n      gt\n        /* \"contract/firstWork.sol\":1911:1954  _escrowId > 0 && _escrowId <= escrowCounter */\n      dup1\n      iszero\n      tag_126\n      jumpi\n      pop\n        /* \"contract/firstWork.sol\":1941:1954  escrowCounter */\n      sload(0x03)\n        /* \"contract/firstWork.sol\":1928:1937  _escrowId */\n      dup2\n        /* \"contract/firstWork.sol\":1928:1954  _escrowId <= escrowCounter */\n      gt\n      iszero\n        /* \"contract/firstWork.sol\":1911:1954  _escrowId > 0 && _escrowId <= escrowCounter */\n    tag_126:\n        /* \"contract/firstWork.sol\":1902:1983  require (_escrowId > 0 && _escrowId <= escrowCounter, \"escrow id does not exist\") */\n      tag_127\n      jumpi\n      mload(0x40)\n      0x08c379a000000000000000000000000000000000000000000000000000000000\n      dup2\n      mstore\n      0x04\n      add\n      tag_128\n      swap1\n      tag_129\n      jump\t// in\n    tag_128:\n      mload(0x40)\n      dup1\n      swap2\n      sub\n      swap1\n      revert\n    tag_127:\n        /* \"contract/firstWork.sol\":5904:5919  Status.Disputed */\n      0x03\n        /* \"contract/firstWork.sol\":5876:5919  Escrow[_escrowId].status == Status.Disputed */\n      0x05\n      dup2\n      gt\n      iszero\n      tag_131\n      jumpi\n      mstore(0x00, 0x4e487b7100000000000000000000000000000000000000000000000000000000)\n      mstore(0x04, 0x21)\n      revert(0x00, 0x24)\n    tag_131:\n        /* \"contract/firstWork.sol\":5876:5882  Escrow */\n      0x04\n        /* \"contract/firstWork.sol\":5876:5893  Escrow[_escrowId] */\n      0x00\n        /* \"contract/firstWork.sol\":5883:5892  _escrowId */\n      dup6\n        /* \"contract/firstWork.sol\":5876:5893  Escrow[_escrowId] */\n      dup2\n      mstore\n      0x20\n      add\n      swap1\n      dup2\n      mstore\n      0x20\n      add\n      0x00\n      keccak256\n        /* \"contract/firstWork.sol\":5876:5900  Escrow[_escrowId].status */\n      0x05\n      add\n      0x00\n      swap1\n      sload\n      swap1\n      0x0100\n      exp\n      swap1\n      div\n      0xff\n      and\n        /* \"contract/firstWork.sol\":5876:5919  Escrow[_escrowId].status == Status.Disputed */\n      0x05\n      dup2\n      gt\n      iszero\n      tag_132\n      jumpi\n      mstore(0x00, 0x4e487b7100000000000000000000000000000000000000000000000000000000)\n      mstore(0x04, 0x21)\n      revert(0x00, 0x24)\n    tag_132:\n      eq\n        /* \"contract/firstWork.sol\":5867:5946  require (Escrow[_escrowId].status == Status.Disputed, \"job has to be disputed\") */\n      tag_133\n      jumpi\n      mload(0x40)\n      0x08c379a000000000000000000000000000000000000000000000000000000000\n      dup2\n      mstore\n      0x04\n      add\n      tag_134\n      swap1\n      tag_135\n      jump\t// in\n    tag_134:\n      mload(0x40)\n      dup1\n      swap2\n      sub\n      swap1\n      revert\n    tag_133:\n        /* \"contract/firstWork.sol\":5987:6006  releaseToFreelancer */\n      dup2\n        /* \"contract/firstWork.sol\":5983:6983  if (releaseToFreelancer){\r... */\n      iszero\n      tag_136\n      jumpi\n        /* \"contract/firstWork.sol\":6084:6092  uint fee */\n      0x00\n        /* \"contract/firstWork.sol\":6136:6139  100 */\n      0x64\n        /* \"contract/firstWork.sol\":6122:6133  platformFee */\n      sload(0x01)\n        /* \"contract/firstWork.sol\":6095:6101  Escrow */\n      0x04\n        /* \"contract/firstWork.sol\":6095:6112  Escrow[_escrowId] */\n      0x00\n        /* \"contract/firstWork.sol\":6102:6111  _escrowId */\n      dup8\n        /* \"contract/firstWork.sol\":6095:6112  Escrow[_escrowId] */\n      dup2\n      mstore\n      0x20\n      add\n      swap1\n      dup2\n      mstore\n      0x20\n      add\n      0x00\n      keccak256\n        /* \"contract/firstWork.sol\":6095:6119  Escrow[_escrowId].amount */\n      0x04\n      add\n      sload\n        /* \"contract/firstWork.sol\":6095:6133  Escrow[_escrowId].amount * platformFee */\n      tag_137\n      swap2\n      swap1\n      tag_138\n      jump\t// in\n    tag_137:\n        /* \"contract/firstWork.sol\":6095:6139  Escrow[_escrowId].amount * platformFee / 100 */\n      tag_139\n      swap2\n      swap1\n      tag_140\n      jump\t// in\n    tag_139:\n        /* \"contract/firstWork.sol\":6084:6139  uint fee = Escrow[_escrowId].amount * platformFee / 100 */\n      swap1\n      pop\n        /* \"contract/firstWork.sol\":6184:6206  uint freelancerPayment */\n      0x00\n        /* \"contract/firstWork.sol\":6236:6239  fee */\n      dup2\n        /* \"contract/firstWork.sol\":6209:6215  Escrow */\n      0x04\n        /* \"contract/firstWork.sol\":6209:6226  Escrow[_escrowId] */\n      0x00\n        /* \"contract/firstWork.sol\":6216:6225  _escrowId */\n      dup8\n        /* \"contract/firstWork.sol\":6209:6226  Escrow[_escrowId] */\n      dup2\n      mstore\n      0x20\n      add\n      swap1\n      dup2\n      mstore\n      0x20\n      add\n      0x00\n      keccak256\n        /* \"contract/firstWork.sol\":6209:6233  Escrow[_escrowId].amount */\n      0x04\n      add\n      sload\n        /* \"contract/firstWork.sol\":6209:6239  Escrow[_escrowId].amount - fee */\n      tag_141\n      swap2\n      swap1\n      tag_142\n      jump\t// in\n    tag_141:\n        /* \"contract/firstWork.sol\":6184:6239  uint freelancerPayment = Escrow[_escrowId].amount - fee */\n      swap1\n      pop\n        /* \"contract/firstWork.sol\":6304:6307  fee */\n      dup2\n        /* \"contract/firstWork.sol\":6284:6300  platformEarnings */\n      0x02\n      0x00\n        /* \"contract/firstWork.sol\":6284:6307  platformEarnings += fee */\n      dup3\n      dup3\n      sload\n      tag_143\n      swap2\n      swap1\n      tag_144\n      jump\t// in\n    tag_143:\n      swap3\n      pop\n      pop\n      dup2\n      swap1\n      sstore\n      pop\n        /* \"contract/firstWork.sol\":6392:6409  freelancerPayment */\n      dup1\n        /* \"contract/firstWork.sol\":6352:6360  earnings */\n      0x07\n        /* \"contract/firstWork.sol\":6352:6388  earnings[Escrow[_escrowId].employee] */\n      0x00\n        /* \"contract/firstWork.sol\":6361:6367  Escrow */\n      0x04\n        /* \"contract/firstWork.sol\":6361:6378  Escrow[_escrowId] */\n      0x00\n        /* \"contract/firstWork.sol\":6368:6377  _escrowId */\n      dup10\n        /* \"contract/firstWork.sol\":6361:6378  Escrow[_escrowId] */\n      dup2\n      mstore\n      0x20\n      add\n      swap1\n      dup2\n      mstore\n      0x20\n      add\n      0x00\n      keccak256\n        /* \"contract/firstWork.sol\":6361:6387  Escrow[_escrowId].employee */\n      0x02\n      add\n      0x00\n      swap1\n      sload\n      swap1\n      0x0100\n      exp\n      swap1\n      div\n      0xffffffffffffffffffffffffffffffffffffffff\n      and\n        /* \"contract/firstWork.sol\":6352:6388  earnings[Escrow[_escrowId].employee] */\n      0xffffffffffffffffffffffffffffffffffffffff\n      and\n      0xffffffffffffffffffffffffffffffffffffffff\n      and\n      dup2\n      mstore\n      0x20\n      add\n      swap1\n      dup2\n      mstore\n      0x20\n      add\n      0x00\n      keccak256\n      0x00\n        /* \"contract/firstWork.sol\":6352:6409  earnings[Escrow[_escrowId].employee] += freelancerPayment */\n      dup3\n      dup3\n      sload\n      tag_145\n      swap2\n      swap1\n      tag_144\n      jump\t// in\n    tag_145:\n      swap3\n      pop\n      pop\n      dup2\n      swap1\n      sstore\n      pop\n        /* \"contract/firstWork.sol\":6481:6496  Status.Released */\n      0x04\n        /* \"contract/firstWork.sol\":6454:6460  Escrow */\n      dup1\n        /* \"contract/firstWork.sol\":6454:6471  Escrow[_escrowId] */\n      0x00\n        /* \"contract/firstWork.sol\":6461:6470  _escrowId */\n      dup8\n        /* \"contract/firstWork.sol\":6454:6471  Escrow[_escrowId] */\n      dup2\n      mstore\n      0x20\n      add\n      swap1\n      dup2\n      mstore\n      0x20\n      add\n      0x00\n      keccak256\n        /* \"contract/firstWork.sol\":6454:6478  Escrow[_escrowId].status */\n      0x05\n      add\n      0x00\n        /* \"contract/firstWork.sol\":6454:6496  Escrow[_escrowId].status = Status.Released */\n      0x0100\n      exp\n      dup2\n      sload\n      dup2\n      0xff\n      mul\n      not\n      and\n      swap1\n      dup4\n      0x05\n      dup2\n      gt\n      iszero\n      tag_146\n      jumpi\n      mstore(0x00, 0x4e487b7100000000000000000000000000000000000000000000000000000000)\n      mstore(0x04, 0x21)\n      revert(0x00, 0x24)\n    tag_146:\n      mul\n      or\n      swap1\n      sstore\n      pop\n        /* \"contract/firstWork.sol\":5983:6983  if (releaseToFreelancer){\r... */\n      pop\n      pop\n      jump(tag_147)\n    tag_136:\n        /* \"contract/firstWork.sol\":6660:6672  uint _amount */\n      0x00\n        /* \"contract/firstWork.sol\":6675:6681  Escrow */\n      0x04\n        /* \"contract/firstWork.sol\":6675:6692  Escrow[_escrowId] */\n      0x00\n        /* \"contract/firstWork.sol\":6682:6691  _escrowId */\n      dup6\n        /* \"contract/firstWork.sol\":6675:6692  Escrow[_escrowId] */\n      dup2\n      mstore\n      0x20\n      add\n      swap1\n      dup2\n      mstore\n      0x20\n      add\n      0x00\n      keccak256\n        /* \"contract/firstWork.sol\":6675:6699  Escrow[_escrowId].amount */\n      0x04\n      add\n      sload\n        /* \"contract/firstWork.sol\":6660:6699  uint _amount = Escrow[_escrowId].amount */\n      swap1\n      pop\n        /* \"contract/firstWork.sol\":6740:6755  address _client */\n      0x00\n        /* \"contract/firstWork.sol\":6758:6764  Escrow */\n      0x04\n        /* \"contract/firstWork.sol\":6758:6775  Escrow[_escrowId] */\n      0x00\n        /* \"contract/firstWork.sol\":6765:6774  _escrowId */\n      dup7\n        /* \"contract/firstWork.sol\":6758:6775  Escrow[_escrowId] */\n      dup2\n      mstore\n      0x20\n      add\n      swap1\n      dup2\n      mstore\n      0x20\n      add\n      0x00\n      keccak256\n        /* \"contract/firstWork.sol\":6758:6784  Escrow[_escrowId].employer */\n      0x01\n      add\n      0x00\n      swap1\n      sload\n      swap1\n      0x0100\n      exp\n      swap1\n      div\n      0xffffffffffffffffffffffffffffffffffffffff\n      and\n        /* \"contract/firstWork.sol\":6740:6784  address _client = Escrow[_escrowId].employer */\n      swap1\n      pop\n        /* \"contract/firstWork.sol\":6833:6840  _client */\n      dup1\n        /* \"contract/firstWork.sol\":6825:6850  payable(_client).transfer */\n      0xffffffffffffffffffffffffffffffffffffffff\n      and\n        /* \"contract/firstWork.sol\":6825:6859  payable(_client).transfer(_amount) */\n      0x08fc\n        /* \"contract/firstWork.sol\":6851:6858  _amount */\n      dup4\n        /* \"contract/firstWork.sol\":6825:6859  payable(_client).transfer(_amount) */\n      swap1\n      dup2\n      iszero\n      mul\n      swap1\n      mload(0x40)\n      0x00\n      mload(0x40)\n      dup1\n      dup4\n      sub\n      dup2\n      dup6\n      dup9\n      dup9\n      call\n      swap4\n      pop\n      pop\n      pop\n      pop\n      iszero\n      dup1\n      iszero\n      tag_149\n      jumpi\n      returndatasize\n      0x00\n      dup1\n      returndatacopy\n      revert(0x00, returndatasize)\n    tag_149:\n      pop\n        /* \"contract/firstWork.sol\":6927:6943  Status.Cancelled */\n      0x05\n        /* \"contract/firstWork.sol\":6900:6906  Escrow */\n      0x04\n        /* \"contract/firstWork.sol\":6900:6917  Escrow[_escrowId] */\n      0x00\n        /* \"contract/firstWork.sol\":6907:6916  _escrowId */\n      dup8\n        /* \"contract/firstWork.sol\":6900:6917  Escrow[_escrowId] */\n      dup2\n      mstore\n      0x20\n      add\n      swap1\n      dup2\n      mstore\n      0x20\n      add\n      0x00\n      keccak256\n        /* \"contract/firstWork.sol\":6900:6924  Escrow[_escrowId].status */\n      0x05\n      add\n      0x00\n        /* \"contract/firstWork.sol\":6900:6943  Escrow[_escrowId].status = Status.Cancelled */\n      0x0100\n      exp\n      dup2\n      sload\n      dup2\n      0xff\n      mul\n      not\n      and\n      swap1\n      dup4\n      0x05\n      dup2\n      gt\n      iszero\n      tag_150\n      jumpi\n      mstore(0x00, 0x4e487b7100000000000000000000000000000000000000000000000000000000)\n      mstore(0x04, 0x21)\n      revert(0x00, 0x24)\n    tag_150:\n      mul\n      or\n      swap1\n      sstore\n      pop\n        /* \"contract/firstWork.sol\":5983:6983  if (releaseToFreelancer){\r... */\n      pop\n      pop\n    tag_147:\n        /* \"contract/firstWork.sol\":7048:7057  _escrowId */\n      dup3\n        /* \"contract/firstWork.sol\":7032:7079  disputeResolved(_escrowId, releaseToFreelancer) */\n      0xad022a94c615bc9863e43eb37c254f7b071247baea6b292d36e7daf39649954c\n        /* \"contract/firstWork.sol\":7059:7078  releaseToFreelancer */\n      dup4\n        /* \"contract/firstWork.sol\":7032:7079  disputeResolved(_escrowId, releaseToFreelancer) */\n      mload(0x40)\n      tag_151\n      swap2\n      swap1\n      tag_152\n      jump\t// in\n    tag_151:\n      mload(0x40)\n      dup1\n      swap2\n      sub\n      swap1\n      log2\n        /* \"contract/firstWork.sol\":285:286  _ */\n      pop\n        /* \"contract/firstWork.sol\":5633:7119  function resolveDispute (uint _escrowId, bool releaseToFreelancer) \r... */\n      pop\n      pop\n      jump\t// out\n        /* \"contract/firstWork.sol\":2856:3877  function createEscrow (string memory description, address _freelancer) external payable isPaused returns(uint){\r... */\n    tag_43:\n        /* \"contract/firstWork.sol\":2961:2965  uint */\n      0x00\n        /* \"contract/firstWork.sol\":608:613  false */\n      dup1\n        /* \"contract/firstWork.sol\":594:613  isItPaused == false */\n      iszero\n      iszero\n        /* \"contract/firstWork.sol\":594:604  isItPaused */\n      0x00\n      0x14\n      swap1\n      sload\n      swap1\n      0x0100\n      exp\n      swap1\n      div\n      0xff\n      and\n        /* \"contract/firstWork.sol\":594:613  isItPaused == false */\n      iszero\n      iszero\n      eq\n        /* \"contract/firstWork.sol\":585:640  require (isItPaused == false, \"the contract is paused\") */\n      tag_154\n      jumpi\n      mload(0x40)\n      0x08c379a000000000000000000000000000000000000000000000000000000000\n      dup2\n      mstore\n      0x04\n      add\n      tag_155\n      swap1\n      tag_97\n      jump\t// in\n    tag_155:\n      mload(0x40)\n      dup1\n      swap2\n      sub\n      swap1\n      revert\n    tag_154:\n        /* \"contract/firstWork.sol\":3016:3018  10 */\n      0x0a\n        /* \"contract/firstWork.sol\":2994:3005  description */\n      dup4\n        /* \"contract/firstWork.sol\":2988:3013  bytes(description).length */\n      mload\n        /* \"contract/firstWork.sol\":2988:3018  bytes(description).length > 10 */\n      gt\n        /* \"contract/firstWork.sol\":2979:3057  require (bytes(description).length > 10, \"minimum of 10 character to proceed\") */\n      tag_157\n      jumpi\n      mload(0x40)\n      0x08c379a000000000000000000000000000000000000000000000000000000000\n      dup2\n      mstore\n      0x04\n      add\n      tag_158\n      swap1\n      tag_159\n      jump\t// in\n    tag_158:\n      mload(0x40)\n      dup1\n      swap2\n      sub\n      swap1\n      revert\n    tag_157:\n        /* \"contract/firstWork.sol\":3100:3101  0 */\n      0x00\n        /* \"contract/firstWork.sol\":3077:3102  _freelancer != address(0) */\n      0xffffffffffffffffffffffffffffffffffffffff\n      and\n        /* \"contract/firstWork.sol\":3077:3088  _freelancer */\n      dup3\n        /* \"contract/firstWork.sol\":3077:3102  _freelancer != address(0) */\n      0xffffffffffffffffffffffffffffffffffffffff\n      and\n      eq\n      iszero\n        /* \"contract/firstWork.sol\":3068:3144  require (_freelancer != address(0) , \"address can't be the default address\") */\n      tag_160\n      jumpi\n      mload(0x40)\n      0x08c379a000000000000000000000000000000000000000000000000000000000\n      dup2\n      mstore\n      0x04\n      add\n      tag_161\n      swap1\n      tag_162\n      jump\t// in\n    tag_161:\n      mload(0x40)\n      dup1\n      swap2\n      sub\n      swap1\n      revert\n    tag_160:\n        /* \"contract/firstWork.sol\":3179:3189  msg.sender */\n      caller\n        /* \"contract/firstWork.sol\":3164:3189  _freelancer != msg.sender */\n      0xffffffffffffffffffffffffffffffffffffffff\n      and\n        /* \"contract/firstWork.sol\":3164:3175  _freelancer */\n      dup3\n        /* \"contract/firstWork.sol\":3164:3189  _freelancer != msg.sender */\n      0xffffffffffffffffffffffffffffffffffffffff\n      and\n      eq\n      iszero\n        /* \"contract/firstWork.sol\":3155:3224  require (_freelancer != msg.sender ,\"freelancer can't be the client\") */\n      tag_163\n      jumpi\n      mload(0x40)\n      0x08c379a000000000000000000000000000000000000000000000000000000000\n      dup2\n      mstore\n      0x04\n      add\n      tag_164\n      swap1\n      tag_165\n      jump\t// in\n    tag_164:\n      mload(0x40)\n      dup1\n      swap2\n      sub\n      swap1\n      revert\n    tag_163:\n        /* \"contract/firstWork.sol\":3256:3257  0 */\n      0x00\n        /* \"contract/firstWork.sol\":3244:3253  msg.value */\n      callvalue\n        /* \"contract/firstWork.sol\":3244:3257  msg.value > 0 */\n      gt\n        /* \"contract/firstWork.sol\":3235:3286  require (msg.value > 0 , \"you can't have 0 amount\") */\n      tag_166\n      jumpi\n      mload(0x40)\n      0x08c379a000000000000000000000000000000000000000000000000000000000\n      dup2\n      mstore\n      0x04\n      add\n      tag_167\n      swap1\n      tag_168\n      jump\t// in\n    tag_167:\n      mload(0x40)\n      dup1\n      swap2\n      sub\n      swap1\n      revert\n    tag_166:\n        /* \"contract/firstWork.sol\":3299:3312  escrowCounter */\n      0x03\n      0x00\n        /* \"contract/firstWork.sol\":3299:3314  escrowCounter++ */\n      dup2\n      sload\n      dup1\n      swap3\n      swap2\n      swap1\n      tag_169\n      swap1\n      tag_170\n      jump\t// in\n    tag_169:\n      swap2\n      swap1\n      pop\n      sstore\n      pop\n        /* \"contract/firstWork.sol\":3353:3630  data ({\r... */\n      mload(0x40)\n      dup1\n      0xe0\n      add\n      0x40\n      mstore\n      dup1\n        /* \"contract/firstWork.sol\":3387:3400  escrowCounter */\n      sload(0x03)\n        /* \"contract/firstWork.sol\":3353:3630  data ({\r... */\n      dup2\n      mstore\n      0x20\n      add\n        /* \"contract/firstWork.sol\":3426:3436  msg.sender */\n      caller\n        /* \"contract/firstWork.sol\":3353:3630  data ({\r... */\n      0xffffffffffffffffffffffffffffffffffffffff\n      and\n      dup2\n      mstore\n      0x20\n      add\n        /* \"contract/firstWork.sol\":3462:3473  _freelancer */\n      dup4\n        /* \"contract/firstWork.sol\":3353:3630  data ({\r... */\n      0xffffffffffffffffffffffffffffffffffffffff\n      and\n      dup2\n      mstore\n      0x20\n      add\n        /* \"contract/firstWork.sol\":3497:3508  description */\n      dup5\n        /* \"contract/firstWork.sol\":3353:3630  data ({\r... */\n      dup2\n      mstore\n      0x20\n      add\n        /* \"contract/firstWork.sol\":3532:3541  msg.value */\n      callvalue\n        /* \"contract/firstWork.sol\":3353:3630  data ({\r... */\n      dup2\n      mstore\n      0x20\n      add\n        /* \"contract/firstWork.sol\":3565:3576  Status.Open */\n      0x00\n        /* \"contract/firstWork.sol\":3353:3630  data ({\r... */\n      0x05\n      dup2\n      gt\n      iszero\n      tag_171\n      jumpi\n      mstore(0x00, 0x4e487b7100000000000000000000000000000000000000000000000000000000)\n      mstore(0x04, 0x21)\n      revert(0x00, 0x24)\n    tag_171:\n      dup2\n      mstore\n      0x20\n      add\n        /* \"contract/firstWork.sol\":3603:3618  block.timestamp */\n      timestamp\n        /* \"contract/firstWork.sol\":3353:3630  data ({\r... */\n      dup2\n      mstore\n      pop\n        /* \"contract/firstWork.sol\":3329:3335  Escrow */\n      0x04\n        /* \"contract/firstWork.sol\":3329:3350  Escrow[escrowCounter] */\n      0x00\n        /* \"contract/firstWork.sol\":3336:3349  escrowCounter */\n      sload(0x03)\n        /* \"contract/firstWork.sol\":3329:3350  Escrow[escrowCounter] */\n      dup2\n      mstore\n      0x20\n      add\n      swap1\n      dup2\n      mstore\n      0x20\n      add\n      0x00\n      keccak256\n        /* \"contract/firstWork.sol\":3329:3630  Escrow[escrowCounter] = data ({\r... */\n      0x00\n      dup3\n      add\n      mload\n      dup2\n      0x00\n      add\n      sstore\n      0x20\n      dup3\n      add\n      mload\n      dup2\n      0x01\n      add\n      exp(0x0100, 0x00)\n      dup2\n      sload\n      dup2\n      0xffffffffffffffffffffffffffffffffffffffff\n      mul\n      not\n      and\n      swap1\n      dup4\n      0xffffffffffffffffffffffffffffffffffffffff\n      and\n      mul\n      or\n      swap1\n      sstore\n      pop\n      0x40\n      dup3\n      add\n      mload\n      dup2\n      0x02\n      add\n      exp(0x0100, 0x00)\n      dup2\n      sload\n      dup2\n      0xffffffffffffffffffffffffffffffffffffffff\n      mul\n      not\n      and\n      swap1\n      dup4\n      0xffffffffffffffffffffffffffffffffffffffff\n      and\n      mul\n      or\n      swap1\n      sstore\n      pop\n      0x60\n      dup3\n      add\n      mload\n      dup2\n      0x03\n      add\n      swap1\n      dup1\n      mload\n      swap1\n      0x20\n      add\n      swap1\n      tag_172\n      swap3\n      swap2\n      swap1\n      tag_173\n      jump\t// in\n    tag_172:\n      pop\n      0x80\n      dup3\n      add\n      mload\n      dup2\n      0x04\n      add\n      sstore\n      0xa0\n      dup3\n      add\n      mload\n      dup2\n      0x05\n      add\n      exp(0x0100, 0x00)\n      dup2\n      sload\n      dup2\n      0xff\n      mul\n      not\n      and\n      swap1\n      dup4\n      0x05\n      dup2\n      gt\n      iszero\n      tag_174\n      jumpi\n      mstore(0x00, 0x4e487b7100000000000000000000000000000000000000000000000000000000)\n      mstore(0x04, 0x21)\n      revert(0x00, 0x24)\n    tag_174:\n      mul\n      or\n      swap1\n      sstore\n      pop\n      0xc0\n      dup3\n      add\n      mload\n      dup2\n      0x06\n      add\n      sstore\n      swap1\n      pop\n      pop\n        /* \"contract/firstWork.sol\":3643:3649  client */\n      0x05\n        /* \"contract/firstWork.sol\":3643:3661  client[msg.sender] */\n      0x00\n        /* \"contract/firstWork.sol\":3650:3660  msg.sender */\n      caller\n        /* \"contract/firstWork.sol\":3643:3661  client[msg.sender] */\n      0xffffffffffffffffffffffffffffffffffffffff\n      and\n      0xffffffffffffffffffffffffffffffffffffffff\n      and\n      dup2\n      mstore\n      0x20\n      add\n      swap1\n      dup2\n      mstore\n      0x20\n      add\n      0x00\n      keccak256\n        /* \"contract/firstWork.sol\":3667:3680  escrowCounter */\n      sload(0x03)\n        /* \"contract/firstWork.sol\":3643:3681  client[msg.sender].push(escrowCounter) */\n      swap1\n      dup1\n      0x01\n      dup2\n      sload\n      add\n      dup1\n      dup3\n      sstore\n      dup1\n      swap2\n      pop\n      pop\n      0x01\n      swap1\n      sub\n      swap1\n      0x00\n      mstore\n      keccak256(0x00, 0x20)\n      add\n      0x00\n      swap1\n      swap2\n      swap1\n      swap2\n      swap1\n      swap2\n      pop\n      sstore\n        /* \"contract/firstWork.sol\":3692:3702  freelancer */\n      0x06\n        /* \"contract/firstWork.sol\":3692:3716  freelancer [_freelancer] */\n      0x00\n        /* \"contract/firstWork.sol\":3704:3715  _freelancer */\n      dup4\n        /* \"contract/firstWork.sol\":3692:3716  freelancer [_freelancer] */\n      0xffffffffffffffffffffffffffffffffffffffff\n      and\n      0xffffffffffffffffffffffffffffffffffffffff\n      and\n      dup2\n      mstore\n      0x20\n      add\n      swap1\n      dup2\n      mstore\n      0x20\n      add\n      0x00\n      keccak256\n        /* \"contract/firstWork.sol\":3722:3735  escrowCounter */\n      sload(0x03)\n        /* \"contract/firstWork.sol\":3692:3736  freelancer [_freelancer].push(escrowCounter) */\n      swap1\n      dup1\n      0x01\n      dup2\n      sload\n      add\n      dup1\n      dup3\n      sstore\n      dup1\n      swap2\n      pop\n      pop\n      0x01\n      swap1\n      sub\n      swap1\n      0x00\n      mstore\n      keccak256(0x00, 0x20)\n      add\n      0x00\n      swap1\n      swap2\n      swap1\n      swap2\n      swap1\n      swap2\n      pop\n      sstore\n        /* \"contract/firstWork.sol\":3798:3809  _freelancer */\n      dup2\n        /* \"contract/firstWork.sol\":3754:3836  escrowCreated (escrowCounter , msg.sender , _freelancer , description , msg.value) */\n      0xffffffffffffffffffffffffffffffffffffffff\n      and\n        /* \"contract/firstWork.sol\":3785:3795  msg.sender */\n      caller\n        /* \"contract/firstWork.sol\":3754:3836  escrowCreated (escrowCounter , msg.sender , _freelancer , description , msg.value) */\n      0xffffffffffffffffffffffffffffffffffffffff\n      and\n        /* \"contract/firstWork.sol\":3769:3782  escrowCounter */\n      sload(0x03)\n        /* \"contract/firstWork.sol\":3754:3836  escrowCreated (escrowCounter , msg.sender , _freelancer , description , msg.value) */\n      0x745e3de88e5bf91fb92b455085c084b0e0608da9801b3b42c3aede168c20cd4c\n        /* \"contract/firstWork.sol\":3812:3823  description */\n      dup7\n        /* \"contract/firstWork.sol\":3826:3835  msg.value */\n      callvalue\n        /* \"contract/firstWork.sol\":3754:3836  escrowCreated (escrowCounter , msg.sender , _freelancer , description , msg.value) */\n      mload(0x40)\n      tag_177\n      swap3\n      swap2\n      swap1\n      tag_178\n      jump\t// in\n    tag_177:\n      mload(0x40)\n      dup1\n      swap2\n      sub\n      swap1\n      log4\n        /* \"contract/firstWork.sol\":3856:3869  escrowCounter */\n      sload(0x03)\n        /* \"contract/firstWork.sol\":3849:3869  return escrowCounter */\n      swap1\n      pop\n        /* \"contract/firstWork.sol\":2856:3877  function createEscrow (string memory description, address _freelancer) external payable isPaused returns(uint){\r... */\n      swap3\n      swap2\n      pop\n      pop\n      jump\t// out\n        /* \"contract/firstWork.sol\":668:742  function Pause () external ownerOnly{\r... */\n    tag_47:\n        /* \"contract/firstWork.sol\":229:234  owner */\n      0x00\n      dup1\n      sload\n      swap1\n      0x0100\n      exp\n      swap1\n      div\n      0xffffffffffffffffffffffffffffffffffffffff\n      and\n        /* \"contract/firstWork.sol\":215:234  msg.sender == owner */\n      0xffffffffffffffffffffffffffffffffffffffff\n      and\n        /* \"contract/firstWork.sol\":215:225  msg.sender */\n      caller\n        /* \"contract/firstWork.sol\":215:234  msg.sender == owner */\n      0xffffffffffffffffffffffffffffffffffffffff\n      and\n      eq\n        /* \"contract/firstWork.sol\":206:272  require (msg.sender == owner, \"only owner can call this contract\") */\n      tag_180\n      jumpi\n      mload(0x40)\n      0x08c379a000000000000000000000000000000000000000000000000000000000\n      dup2\n      mstore\n      0x04\n      add\n      tag_181\n      swap1\n      tag_107\n      jump\t// in\n    tag_181:\n      mload(0x40)\n      dup1\n      swap2\n      sub\n      swap1\n      revert\n    tag_180:\n        /* \"contract/firstWork.sol\":730:734  true */\n      0x01\n        /* \"contract/firstWork.sol\":717:727  isItPaused */\n      0x00\n      0x14\n        /* \"contract/firstWork.sol\":717:734  isItPaused = true */\n      0x0100\n      exp\n      dup2\n      sload\n      dup2\n      0xff\n      mul\n      not\n      and\n      swap1\n      dup4\n      iszero\n      iszero\n      mul\n      or\n      swap1\n      sstore\n      pop\n        /* \"contract/firstWork.sol\":668:742  function Pause () external ownerOnly{\r... */\n      jump\t// out\n        /* \"contract/firstWork.sol\":8763:9043  function changeFee (uint _newFee) external isPaused ownerOnly{\r... */\n    tag_52:\n        /* \"contract/firstWork.sol\":608:613  false */\n      0x00\n        /* \"contract/firstWork.sol\":594:613  isItPaused == false */\n      iszero\n      iszero\n        /* \"contract/firstWork.sol\":594:604  isItPaused */\n      0x00\n      0x14\n      swap1\n      sload\n      swap1\n      0x0100\n      exp\n      swap1\n      div\n      0xff\n      and\n        /* \"contract/firstWork.sol\":594:613  isItPaused == false */\n      iszero\n      iszero\n      eq\n        /* \"contract/firstWork.sol\":585:640  require (isItPaused == false, \"the contract is paused\") */\n      tag_184\n      jumpi\n      mload(0x40)\n      0x08c379a000000000000000000000000000000000000000000000000000000000\n      dup2\n      mstore\n      0x04\n      add\n      tag_185\n      swap1\n      tag_97\n      jump\t// in\n    tag_185:\n      mload(0x40)\n      dup1\n      swap2\n      sub\n      swap1\n      revert\n    tag_184:\n        /* \"contract/firstWork.sol\":229:234  owner */\n      0x00\n      dup1\n      sload\n      swap1\n      0x0100\n      exp\n      swap1\n      div\n      0xffffffffffffffffffffffffffffffffffffffff\n      and\n        /* \"contract/firstWork.sol\":215:234  msg.sender == owner */\n      0xffffffffffffffffffffffffffffffffffffffff\n      and\n        /* \"contract/firstWork.sol\":215:225  msg.sender */\n      caller\n        /* \"contract/firstWork.sol\":215:234  msg.sender == owner */\n      0xffffffffffffffffffffffffffffffffffffffff\n      and\n      eq\n        /* \"contract/firstWork.sol\":206:272  require (msg.sender == owner, \"only owner can call this contract\") */\n      tag_187\n      jumpi\n      mload(0x40)\n      0x08c379a000000000000000000000000000000000000000000000000000000000\n      dup2\n      mstore\n      0x04\n      add\n      tag_188\n      swap1\n      tag_107\n      jump\t// in\n    tag_188:\n      mload(0x40)\n      dup1\n      swap2\n      sub\n      swap1\n      revert\n    tag_187:\n        /* \"contract/firstWork.sol\":8856:8857  0 */\n      0x00\n        /* \"contract/firstWork.sol\":8846:8853  _newFee */\n      dup2\n        /* \"contract/firstWork.sol\":8846:8857  _newFee > 0 */\n      gt\n        /* \"contract/firstWork.sol\":8846:8874  _newFee > 0 && _newFee <= 10 */\n      dup1\n      iszero\n      tag_190\n      jumpi\n      pop\n        /* \"contract/firstWork.sol\":8872:8874  10 */\n      0x0a\n        /* \"contract/firstWork.sol\":8861:8868  _newFee */\n      dup2\n        /* \"contract/firstWork.sol\":8861:8874  _newFee <= 10 */\n      gt\n      iszero\n        /* \"contract/firstWork.sol\":8846:8874  _newFee > 0 && _newFee <= 10 */\n    tag_190:\n        /* \"contract/firstWork.sol\":8837:8913  require (_newFee > 0 && _newFee <= 10, \"fee range must be between 0 to 10%\") */\n      tag_191\n      jumpi\n      mload(0x40)\n      0x08c379a000000000000000000000000000000000000000000000000000000000\n      dup2\n      mstore\n      0x04\n      add\n      tag_192\n      swap1\n      tag_193\n      jump\t// in\n    tag_192:\n      mload(0x40)\n      dup1\n      swap2\n      sub\n      swap1\n      revert\n    tag_191:\n        /* \"contract/firstWork.sol\":8926:8938  uint _oldFee */\n      0x00\n        /* \"contract/firstWork.sol\":8941:8952  platformFee */\n      sload(0x01)\n        /* \"contract/firstWork.sol\":8926:8952  uint _oldFee = platformFee */\n      swap1\n      pop\n        /* \"contract/firstWork.sol\":8979:8986  _newFee */\n      dup2\n        /* \"contract/firstWork.sol\":8965:8976  platformFee */\n      0x01\n        /* \"contract/firstWork.sol\":8965:8986  platformFee = _newFee */\n      dup2\n      swap1\n      sstore\n      pop\n        /* \"contract/firstWork.sol\":9004:9035  feesChanged (_oldFee , _newFee) */\n      0x274913e7fa17afaca46c1309c64d45f0ec6ab5100bd6c9cec896da397fde70ce\n        /* \"contract/firstWork.sol\":9017:9024  _oldFee */\n      dup2\n        /* \"contract/firstWork.sol\":9027:9034  _newFee */\n      dup4\n        /* \"contract/firstWork.sol\":9004:9035  feesChanged (_oldFee , _newFee) */\n      mload(0x40)\n      tag_194\n      swap3\n      swap2\n      swap1\n      tag_195\n      jump\t// in\n    tag_194:\n      mload(0x40)\n      dup1\n      swap2\n      sub\n      swap1\n      log1\n        /* \"contract/firstWork.sol\":285:286  _ */\n      pop\n        /* \"contract/firstWork.sol\":8763:9043  function changeFee (uint _newFee) external isPaused ownerOnly{\r... */\n      pop\n      jump\t// out\n        /* \"contract/firstWork.sol\":8216:8364  function getEscrow (uint _escrowId) external view isPaused escrowExist(_escrowId) returns (data memory){\r... */\n    tag_56:\n        /* \"contract/firstWork.sol\":8307:8318  data memory */\n      tag_196\n      tag_197\n      jump\t// in\n    tag_196:\n        /* \"contract/firstWork.sol\":608:613  false */\n      0x00\n        /* \"contract/firstWork.sol\":594:613  isItPaused == false */\n      iszero\n      iszero\n        /* \"contract/firstWork.sol\":594:604  isItPaused */\n      0x00\n      0x14\n      swap1\n      sload\n      swap1\n      0x0100\n      exp\n      swap1\n      div\n      0xff\n      and\n        /* \"contract/firstWork.sol\":594:613  isItPaused == false */\n      iszero\n      iszero\n      eq\n        /* \"contract/firstWork.sol\":585:640  require (isItPaused == false, \"the contract is paused\") */\n      tag_199\n      jumpi\n      mload(0x40)\n      0x08c379a000000000000000000000000000000000000000000000000000000000\n      dup2\n      mstore\n      0x04\n      add\n      tag_200\n      swap1\n      tag_97\n      jump\t// in\n    tag_200:\n      mload(0x40)\n      dup1\n      swap2\n      sub\n      swap1\n      revert\n    tag_199:\n        /* \"contract/firstWork.sol\":8287:8296  _escrowId */\n      dup2\n        /* \"contract/firstWork.sol\":1923:1924  0 */\n      0x00\n        /* \"contract/firstWork.sol\":1911:1920  _escrowId */\n      dup2\n        /* \"contract/firstWork.sol\":1911:1924  _escrowId > 0 */\n      gt\n        /* \"contract/firstWork.sol\":1911:1954  _escrowId > 0 && _escrowId <= escrowCounter */\n      dup1\n      iszero\n      tag_202\n      jumpi\n      pop\n        /* \"contract/firstWork.sol\":1941:1954  escrowCounter */\n      sload(0x03)\n        /* \"contract/firstWork.sol\":1928:1937  _escrowId */\n      dup2\n        /* \"contract/firstWork.sol\":1928:1954  _escrowId <= escrowCounter */\n      gt\n      iszero\n        /* \"contract/firstWork.sol\":1911:1954  _escrowId > 0 && _escrowId <= escrowCounter */\n    tag_202:\n        /* \"contract/firstWork.sol\":1902:1983  require (_escrowId > 0 && _escrowId <= escrowCounter, \"escrow id does not exist\") */\n      tag_203\n      jumpi\n      mload(0x40)\n      0x08c379a000000000000000000000000000000000000000000000000000000000\n      dup2\n      mstore\n      0x04\n      add\n      tag_204\n      swap1\n      tag_129\n      jump\t// in\n    tag_204:\n      mload(0x40)\n      dup1\n      swap2\n      sub\n      swap1\n      revert\n    tag_203:\n        /* \"contract/firstWork.sol\":8339:8345  Escrow */\n      0x04\n        /* \"contract/firstWork.sol\":8339:8356  Escrow[_escrowId] */\n      0x00\n        /* \"contract/firstWork.sol\":8346:8355  _escrowId */\n      dup5\n        /* \"contract/firstWork.sol\":8339:8356  Escrow[_escrowId] */\n      dup2\n      mstore\n      0x20\n      add\n      swap1\n      dup2\n      mstore\n      0x20\n      add\n      0x00\n      keccak256\n        /* \"contract/firstWork.sol\":8332:8356  return Escrow[_escrowId] */\n      mload(0x40)\n      dup1\n      0xe0\n      add\n      0x40\n      mstore\n      swap1\n      dup2\n      0x00\n      dup3\n      add\n      sload\n      dup2\n      mstore\n      0x20\n      add\n      0x01\n      dup3\n      add\n      0x00\n      swap1\n      sload\n      swap1\n      0x0100\n      exp\n      swap1\n      div\n      0xffffffffffffffffffffffffffffffffffffffff\n      and\n      0xffffffffffffffffffffffffffffffffffffffff\n      and\n      0xffffffffffffffffffffffffffffffffffffffff\n      and\n      dup2\n      mstore\n      0x20\n      add\n      0x02\n      dup3\n      add\n      0x00\n      swap1\n      sload\n      swap1\n      0x0100\n      exp\n      swap1\n      div\n      0xffffffffffffffffffffffffffffffffffffffff\n      and\n      0xffffffffffffffffffffffffffffffffffffffff\n      and\n      0xffffffffffffffffffffffffffffffffffffffff\n      and\n      dup2\n      mstore\n      0x20\n      add\n      0x03\n      dup3\n      add\n      dup1\n      sload\n      tag_206\n      swap1\n      tag_207\n      jump\t// in\n    tag_206:\n      dup1\n      0x1f\n      add\n      0x20\n      dup1\n      swap2\n      div\n      mul\n      0x20\n      add\n      mload(0x40)\n      swap1\n      dup2\n      add\n      0x40\n      mstore\n      dup1\n      swap3\n      swap2\n      swap1\n      dup2\n      dup2\n      mstore\n      0x20\n      add\n      dup3\n      dup1\n      sload\n      tag_208\n      swap1\n      tag_207\n      jump\t// in\n    tag_208:\n      dup1\n      iszero\n      tag_209\n      jumpi\n      dup1\n      0x1f\n      lt\n      tag_210\n      jumpi\n      0x0100\n      dup1\n      dup4\n      sload\n      div\n      mul\n      dup4\n      mstore\n      swap2\n      0x20\n      add\n      swap2\n      jump(tag_209)\n    tag_210:\n      dup3\n      add\n      swap2\n      swap1\n      0x00\n      mstore\n      keccak256(0x00, 0x20)\n      swap1\n    tag_211:\n      dup2\n      sload\n      dup2\n      mstore\n      swap1\n      0x01\n      add\n      swap1\n      0x20\n      add\n      dup1\n      dup4\n      gt\n      tag_211\n      jumpi\n      dup3\n      swap1\n      sub\n      0x1f\n      and\n      dup3\n      add\n      swap2\n    tag_209:\n      pop\n      pop\n      pop\n      pop\n      pop\n      dup2\n      mstore\n      0x20\n      add\n      0x04\n      dup3\n      add\n      sload\n      dup2\n      mstore\n      0x20\n      add\n      0x05\n      dup3\n      add\n      0x00\n      swap1\n      sload\n      swap1\n      0x0100\n      exp\n      swap1\n      div\n      0xff\n      and\n      0x05\n      dup2\n      gt\n      iszero\n      tag_212\n      jumpi\n      mstore(0x00, 0x4e487b7100000000000000000000000000000000000000000000000000000000)\n      mstore(0x04, 0x21)\n      revert(0x00, 0x24)\n    tag_212:\n      0x05\n      dup2\n      gt\n      iszero\n      tag_213\n      jumpi\n      mstore(0x00, 0x4e487b7100000000000000000000000000000000000000000000000000000000)\n      mstore(0x04, 0x21)\n      revert(0x00, 0x24)\n    tag_213:\n      dup2\n      mstore\n      0x20\n      add\n      0x06\n      dup3\n      add\n      sload\n      dup2\n      mstore\n      pop\n      pop\n      swap2\n      pop\n        /* \"contract/firstWork.sol\":651:652  _ */\n      pop\n        /* \"contract/firstWork.sol\":8216:8364  function getEscrow (uint _escrowId) external view isPaused escrowExist(_escrowId) returns (data memory){\r... */\n      swap2\n      swap1\n      pop\n      jump\t// out\n        /* \"contract/firstWork.sol\":5138:5623  function dispute (uint _escrowId) external isPaused escrowExist(_escrowId){\r... */\n    tag_62:\n        /* \"contract/firstWork.sol\":608:613  false */\n      0x00\n        /* \"contract/firstWork.sol\":594:613  isItPaused == false */\n      iszero\n      iszero\n        /* \"contract/firstWork.sol\":594:604  isItPaused */\n      0x00\n      0x14\n      swap1\n      sload\n      swap1\n      0x0100\n      exp\n      swap1\n      div\n      0xff\n      and\n        /* \"contract/firstWork.sol\":594:613  isItPaused == false */\n      iszero\n      iszero\n      eq\n        /* \"contract/firstWork.sol\":585:640  require (isItPaused == false, \"the contract is paused\") */\n      tag_215\n      jumpi\n      mload(0x40)\n      0x08c379a000000000000000000000000000000000000000000000000000000000\n      dup2\n      mstore\n      0x04\n      add\n      tag_216\n      swap1\n      tag_97\n      jump\t// in\n    tag_216:\n      mload(0x40)\n      dup1\n      swap2\n      sub\n      swap1\n      revert\n    tag_215:\n        /* \"contract/firstWork.sol\":5202:5211  _escrowId */\n      dup1\n        /* \"contract/firstWork.sol\":1923:1924  0 */\n      0x00\n        /* \"contract/firstWork.sol\":1911:1920  _escrowId */\n      dup2\n        /* \"contract/firstWork.sol\":1911:1924  _escrowId > 0 */\n      gt\n        /* \"contract/firstWork.sol\":1911:1954  _escrowId > 0 && _escrowId <= escrowCounter */\n      dup1\n      iszero\n      tag_218\n      jumpi\n      pop\n        /* \"contract/firstWork.sol\":1941:1954  escrowCounter */\n      sload(0x03)\n        /* \"contract/firstWork.sol\":1928:1937  _escrowId */\n      dup2\n        /* \"contract/firstWork.sol\":1928:1954  _escrowId <= escrowCounter */\n      gt\n      iszero\n        /* \"contract/firstWork.sol\":1911:1954  _escrowId > 0 && _escrowId <= escrowCounter */\n    tag_218:\n        /* \"contract/firstWork.sol\":1902:1983  require (_escrowId > 0 && _escrowId <= escrowCounter, \"escrow id does not exist\") */\n      tag_219\n      jumpi\n      mload(0x40)\n      0x08c379a000000000000000000000000000000000000000000000000000000000\n      dup2\n      mstore\n      0x04\n      add\n      tag_220\n      swap1\n      tag_129\n      jump\t// in\n    tag_220:\n      mload(0x40)\n      dup1\n      swap2\n      sub\n      swap1\n      revert\n    tag_219:\n        /* \"contract/firstWork.sol\":5264:5274  msg.sender */\n      caller\n        /* \"contract/firstWork.sol\":5234:5274  Escrow[_escrowId].employer == msg.sender */\n      0xffffffffffffffffffffffffffffffffffffffff\n      and\n        /* \"contract/firstWork.sol\":5234:5240  Escrow */\n      0x04\n        /* \"contract/firstWork.sol\":5234:5251  Escrow[_escrowId] */\n      0x00\n        /* \"contract/firstWork.sol\":5241:5250  _escrowId */\n      dup5\n        /* \"contract/firstWork.sol\":5234:5251  Escrow[_escrowId] */\n      dup2\n      mstore\n      0x20\n      add\n      swap1\n      dup2\n      mstore\n      0x20\n      add\n      0x00\n      keccak256\n        /* \"contract/firstWork.sol\":5234:5260  Escrow[_escrowId].employer */\n      0x01\n      add\n      0x00\n      swap1\n      sload\n      swap1\n      0x0100\n      exp\n      swap1\n      div\n      0xffffffffffffffffffffffffffffffffffffffff\n      and\n        /* \"contract/firstWork.sol\":5234:5274  Escrow[_escrowId].employer == msg.sender */\n      0xffffffffffffffffffffffffffffffffffffffff\n      and\n      eq\n        /* \"contract/firstWork.sol\":5234:5318  Escrow[_escrowId].employer == msg.sender || Escrow[_escrowId].employee == msg.sender */\n      dup1\n      tag_222\n      jumpi\n      pop\n        /* \"contract/firstWork.sol\":5308:5318  msg.sender */\n      caller\n        /* \"contract/firstWork.sol\":5278:5318  Escrow[_escrowId].employee == msg.sender */\n      0xffffffffffffffffffffffffffffffffffffffff\n      and\n        /* \"contract/firstWork.sol\":5278:5284  Escrow */\n      0x04\n        /* \"contract/firstWork.sol\":5278:5295  Escrow[_escrowId] */\n      0x00\n        /* \"contract/firstWork.sol\":5285:5294  _escrowId */\n      dup5\n        /* \"contract/firstWork.sol\":5278:5295  Escrow[_escrowId] */\n      dup2\n      mstore\n      0x20\n      add\n      swap1\n      dup2\n      mstore\n      0x20\n      add\n      0x00\n      keccak256\n        /* \"contract/firstWork.sol\":5278:5304  Escrow[_escrowId].employee */\n      0x02\n      add\n      0x00\n      swap1\n      sload\n      swap1\n      0x0100\n      exp\n      swap1\n      div\n      0xffffffffffffffffffffffffffffffffffffffff\n      and\n        /* \"contract/firstWork.sol\":5278:5318  Escrow[_escrowId].employee == msg.sender */\n      0xffffffffffffffffffffffffffffffffffffffff\n      and\n      eq\n        /* \"contract/firstWork.sol\":5234:5318  Escrow[_escrowId].employer == msg.sender || Escrow[_escrowId].employee == msg.sender */\n    tag_222:\n        /* \"contract/firstWork.sol\":5225:5348  require (Escrow[_escrowId].employer == msg.sender || Escrow[_escrowId].employee == msg.sender, \"client or freelancer only\") */\n      tag_223\n      jumpi\n      mload(0x40)\n      0x08c379a000000000000000000000000000000000000000000000000000000000\n      dup2\n      mstore\n      0x04\n      add\n      tag_224\n      swap1\n      tag_225\n      jump\t// in\n    tag_224:\n      mload(0x40)\n      dup1\n      swap2\n      sub\n      swap1\n      revert\n    tag_223:\n        /* \"contract/firstWork.sol\":5396:5413  Status.InProgress */\n      0x01\n        /* \"contract/firstWork.sol\":5368:5413  Escrow[_escrowId].status == Status.InProgress */\n      0x05\n      dup2\n      gt\n      iszero\n      tag_226\n      jumpi\n      mstore(0x00, 0x4e487b7100000000000000000000000000000000000000000000000000000000)\n      mstore(0x04, 0x21)\n      revert(0x00, 0x24)\n    tag_226:\n        /* \"contract/firstWork.sol\":5368:5374  Escrow */\n      0x04\n        /* \"contract/firstWork.sol\":5368:5385  Escrow[_escrowId] */\n      0x00\n        /* \"contract/firstWork.sol\":5375:5384  _escrowId */\n      dup5\n        /* \"contract/firstWork.sol\":5368:5385  Escrow[_escrowId] */\n      dup2\n      mstore\n      0x20\n      add\n      swap1\n      dup2\n      mstore\n      0x20\n      add\n      0x00\n      keccak256\n        /* \"contract/firstWork.sol\":5368:5392  Escrow[_escrowId].status */\n      0x05\n      add\n      0x00\n      swap1\n      sload\n      swap1\n      0x0100\n      exp\n      swap1\n      div\n      0xff\n      and\n        /* \"contract/firstWork.sol\":5368:5413  Escrow[_escrowId].status == Status.InProgress */\n      0x05\n      dup2\n      gt\n      iszero\n      tag_227\n      jumpi\n      mstore(0x00, 0x4e487b7100000000000000000000000000000000000000000000000000000000)\n      mstore(0x04, 0x21)\n      revert(0x00, 0x24)\n    tag_227:\n      eq\n        /* \"contract/firstWork.sol\":5368:5461  Escrow[_escrowId].status == Status.InProgress || Escrow[_escrowId].status == Status.Completed */\n      dup1\n      tag_228\n      jumpi\n      pop\n        /* \"contract/firstWork.sol\":5445:5461  Status.Completed */\n      0x02\n        /* \"contract/firstWork.sol\":5417:5461  Escrow[_escrowId].status == Status.Completed */\n      0x05\n      dup2\n      gt\n      iszero\n      tag_229\n      jumpi\n      mstore(0x00, 0x4e487b7100000000000000000000000000000000000000000000000000000000)\n      mstore(0x04, 0x21)\n      revert(0x00, 0x24)\n    tag_229:\n        /* \"contract/firstWork.sol\":5417:5423  Escrow */\n      0x04\n        /* \"contract/firstWork.sol\":5417:5434  Escrow[_escrowId] */\n      0x00\n        /* \"contract/firstWork.sol\":5424:5433  _escrowId */\n      dup5\n        /* \"contract/firstWork.sol\":5417:5434  Escrow[_escrowId] */\n      dup2\n      mstore\n      0x20\n      add\n      swap1\n      dup2\n      mstore\n      0x20\n      add\n      0x00\n      keccak256\n        /* \"contract/firstWork.sol\":5417:5441  Escrow[_escrowId].status */\n      0x05\n      add\n      0x00\n      swap1\n      sload\n      swap1\n      0x0100\n      exp\n      swap1\n      div\n      0xff\n      and\n        /* \"contract/firstWork.sol\":5417:5461  Escrow[_escrowId].status == Status.Completed */\n      0x05\n      dup2\n      gt\n      iszero\n      tag_230\n      jumpi\n      mstore(0x00, 0x4e487b7100000000000000000000000000000000000000000000000000000000)\n      mstore(0x04, 0x21)\n      revert(0x00, 0x24)\n    tag_230:\n      eq\n        /* \"contract/firstWork.sol\":5368:5461  Escrow[_escrowId].status == Status.InProgress || Escrow[_escrowId].status == Status.Completed */\n    tag_228:\n        /* \"contract/firstWork.sol\":5359:5503  require (Escrow[_escrowId].status == Status.InProgress || Escrow[_escrowId].status == Status.Completed , \"Job must be in progress or completed\") */\n      tag_231\n      jumpi\n      mload(0x40)\n      0x08c379a000000000000000000000000000000000000000000000000000000000\n      dup2\n      mstore\n      0x04\n      add\n      tag_232\n      swap1\n      tag_233\n      jump\t// in\n    tag_232:\n      mload(0x40)\n      dup1\n      swap2\n      sub\n      swap1\n      revert\n    tag_231:\n        /* \"contract/firstWork.sol\":5543:5558  Status.Disputed */\n      0x03\n        /* \"contract/firstWork.sol\":5516:5522  Escrow */\n      0x04\n        /* \"contract/firstWork.sol\":5516:5533  Escrow[_escrowId] */\n      0x00\n        /* \"contract/firstWork.sol\":5523:5532  _escrowId */\n      dup5\n        /* \"contract/firstWork.sol\":5516:5533  Escrow[_escrowId] */\n      dup2\n      mstore\n      0x20\n      add\n      swap1\n      dup2\n      mstore\n      0x20\n      add\n      0x00\n      keccak256\n        /* \"contract/firstWork.sol\":5516:5540  Escrow[_escrowId].status */\n      0x05\n      add\n      0x00\n        /* \"contract/firstWork.sol\":5516:5558  Escrow[_escrowId].status = Status.Disputed */\n      0x0100\n      exp\n      dup2\n      sload\n      dup2\n      0xff\n      mul\n      not\n      and\n      swap1\n      dup4\n      0x05\n      dup2\n      gt\n      iszero\n      tag_234\n      jumpi\n      mstore(0x00, 0x4e487b7100000000000000000000000000000000000000000000000000000000)\n      mstore(0x04, 0x21)\n      revert(0x00, 0x24)\n    tag_234:\n      mul\n      or\n      swap1\n      sstore\n      pop\n        /* \"contract/firstWork.sol\":5604:5614  msg.sender */\n      caller\n        /* \"contract/firstWork.sol\":5576:5615  escrowDisputed (_escrowId , msg.sender) */\n      0xffffffffffffffffffffffffffffffffffffffff\n      and\n        /* \"contract/firstWork.sol\":5592:5601  _escrowId */\n      dup3\n        /* \"contract/firstWork.sol\":5576:5615  escrowDisputed (_escrowId , msg.sender) */\n      0xfffaac61c058a50da2d1859744ddf520e9c9505d6eec51e0ef1b4830b470d7fd\n      mload(0x40)\n      mload(0x40)\n      dup1\n      swap2\n      sub\n      swap1\n      log3\n        /* \"contract/firstWork.sol\":651:652  _ */\n      pop\n        /* \"contract/firstWork.sol\":5138:5623  function dispute (uint _escrowId) external isPaused escrowExist(_escrowId){\r... */\n      pop\n      jump\t// out\n        /* \"contract/firstWork.sol\":7572:7896  function withdrawEarnings () external isPaused {\r... */\n    tag_65:\n        /* \"contract/firstWork.sol\":608:613  false */\n      0x00\n        /* \"contract/firstWork.sol\":594:613  isItPaused == false */\n      iszero\n      iszero\n        /* \"contract/firstWork.sol\":594:604  isItPaused */\n      0x00\n      0x14\n      swap1\n      sload\n      swap1\n      0x0100\n      exp\n      swap1\n      div\n      0xff\n      and\n        /* \"contract/firstWork.sol\":594:613  isItPaused == false */\n      iszero\n      iszero\n      eq\n        /* \"contract/firstWork.sol\":585:640  require (isItPaused == false, \"the contract is paused\") */\n      tag_236\n      jumpi\n      mload(0x40)\n      0x08c379a000000000000000000000000000000000000000000000000000000000\n      dup2\n      mstore\n      0x04\n      add\n      tag_237\n      swap1\n      tag_97\n      jump\t// in\n    tag_237:\n      mload(0x40)\n      dup1\n      swap2\n      sub\n      swap1\n      revert\n    tag_236:\n        /* \"contract/firstWork.sol\":7664:7665  0 */\n      0x00\n        /* \"contract/firstWork.sol\":7641:7649  earnings */\n      0x07\n        /* \"contract/firstWork.sol\":7641:7661  earnings[msg.sender] */\n      0x00\n        /* \"contract/firstWork.sol\":7650:7660  msg.sender */\n      caller\n        /* \"contract/firstWork.sol\":7641:7661  earnings[msg.sender] */\n      0xffffffffffffffffffffffffffffffffffffffff\n      and\n      0xffffffffffffffffffffffffffffffffffffffff\n      and\n      dup2\n      mstore\n      0x20\n      add\n      swap1\n      dup2\n      mstore\n      0x20\n      add\n      0x00\n      keccak256\n      sload\n        /* \"contract/firstWork.sol\":7641:7665  earnings[msg.sender] > 0 */\n      gt\n        /* \"contract/firstWork.sol\":7632:7695  require (earnings[msg.sender] > 0, \"freelancer has no balance\") */\n      tag_239\n      jumpi\n      mload(0x40)\n      0x08c379a000000000000000000000000000000000000000000000000000000000\n      dup2\n      mstore\n      0x04\n      add\n      tag_240\n      swap1\n      tag_241\n      jump\t// in\n    tag_240:\n      mload(0x40)\n      dup1\n      swap2\n      sub\n      swap1\n      revert\n    tag_239:\n        /* \"contract/firstWork.sol\":7708:7720  uint _amount */\n      0x00\n        /* \"contract/firstWork.sol\":7723:7731  earnings */\n      0x07\n        /* \"contract/firstWork.sol\":7723:7743  earnings[msg.sender] */\n      0x00\n        /* \"contract/firstWork.sol\":7732:7742  msg.sender */\n      caller\n        /* \"contract/firstWork.sol\":7723:7743  earnings[msg.sender] */\n      0xffffffffffffffffffffffffffffffffffffffff\n      and\n      0xffffffffffffffffffffffffffffffffffffffff\n      and\n      dup2\n      mstore\n      0x20\n      add\n      swap1\n      dup2\n      mstore\n      0x20\n      add\n      0x00\n      keccak256\n      sload\n        /* \"contract/firstWork.sol\":7708:7743  uint _amount = earnings[msg.sender] */\n      swap1\n      pop\n        /* \"contract/firstWork.sol\":7765:7775  msg.sender */\n      caller\n        /* \"contract/firstWork.sol\":7756:7785  payable (msg.sender).transfer */\n      0xffffffffffffffffffffffffffffffffffffffff\n      and\n        /* \"contract/firstWork.sol\":7756:7794  payable (msg.sender).transfer(_amount) */\n      0x08fc\n        /* \"contract/firstWork.sol\":7786:7793  _amount */\n      dup3\n        /* \"contract/firstWork.sol\":7756:7794  payable (msg.sender).transfer(_amount) */\n      swap1\n      dup2\n      iszero\n      mul\n      swap1\n      mload(0x40)\n      0x00\n      mload(0x40)\n      dup1\n      dup4\n      sub\n      dup2\n      dup6\n      dup9\n      dup9\n      call\n      swap4\n      pop\n      pop\n      pop\n      pop\n      iszero\n      dup1\n      iszero\n      tag_243\n      jumpi\n      returndatasize\n      0x00\n      dup1\n      returndatacopy\n      revert(0x00, returndatasize)\n    tag_243:\n      pop\n        /* \"contract/firstWork.sol\":7830:7831  0 */\n      0x00\n        /* \"contract/firstWork.sol\":7807:7815  earnings */\n      0x07\n        /* \"contract/firstWork.sol\":7807:7827  earnings[msg.sender] */\n      0x00\n        /* \"contract/firstWork.sol\":7816:7826  msg.sender */\n      caller\n        /* \"contract/firstWork.sol\":7807:7827  earnings[msg.sender] */\n      0xffffffffffffffffffffffffffffffffffffffff\n      and\n      0xffffffffffffffffffffffffffffffffffffffff\n      and\n      dup2\n      mstore\n      0x20\n      add\n      swap1\n      dup2\n      mstore\n      0x20\n      add\n      0x00\n      keccak256\n        /* \"contract/firstWork.sol\":7807:7831  earnings[msg.sender] = 0 */\n      dup2\n      swap1\n      sstore\n      pop\n        /* \"contract/firstWork.sol\":7868:7878  msg.sender */\n      caller\n        /* \"contract/firstWork.sol\":7849:7888  earningsWithdrawn (msg.sender, _amount) */\n      0xffffffffffffffffffffffffffffffffffffffff\n      and\n      0xb040b0548401c5129b6a096ba7887218c270f45cdd16bc8dd38b26de8c12acd0\n        /* \"contract/firstWork.sol\":7880:7887  _amount */\n      dup3\n        /* \"contract/firstWork.sol\":7849:7888  earningsWithdrawn (msg.sender, _amount) */\n      mload(0x40)\n      tag_244\n      swap2\n      swap1\n      tag_34\n      jump\t// in\n    tag_244:\n      mload(0x40)\n      dup1\n      swap2\n      sub\n      swap1\n      log2\n        /* \"contract/firstWork.sol\":651:652  _ */\n      pop\n        /* \"contract/firstWork.sol\":7572:7896  function withdrawEarnings () external isPaused {\r... */\n      jump\t// out\n        /* \"contract/firstWork.sol\":4208:4528  function submitWork (uint _escrowId) external isPaused freelancerOnly(_escrowId) escrowExist(_escrowId){\r... */\n    tag_69:\n        /* \"contract/firstWork.sol\":608:613  false */\n      0x00\n        /* \"contract/firstWork.sol\":594:613  isItPaused == false */\n      iszero\n      iszero\n        /* \"contract/firstWork.sol\":594:604  isItPaused */\n      0x00\n      0x14\n      swap1\n      sload\n      swap1\n      0x0100\n      exp\n      swap1\n      div\n      0xff\n      and\n        /* \"contract/firstWork.sol\":594:613  isItPaused == false */\n      iszero\n      iszero\n      eq\n        /* \"contract/firstWork.sol\":585:640  require (isItPaused == false, \"the contract is paused\") */\n      tag_246\n      jumpi\n      mload(0x40)\n      0x08c379a000000000000000000000000000000000000000000000000000000000\n      dup2\n      mstore\n      0x04\n      add\n      tag_247\n      swap1\n      tag_97\n      jump\t// in\n    tag_247:\n      mload(0x40)\n      dup1\n      swap2\n      sub\n      swap1\n      revert\n    tag_246:\n        /* \"contract/firstWork.sol\":4278:4287  _escrowId */\n      dup1\n        /* \"contract/firstWork.sol\":1606:1616  msg.sender */\n      caller\n        /* \"contract/firstWork.sol\":1576:1616  Escrow[_escrowId].employee == msg.sender */\n      0xffffffffffffffffffffffffffffffffffffffff\n      and\n        /* \"contract/firstWork.sol\":1576:1582  Escrow */\n      0x04\n        /* \"contract/firstWork.sol\":1576:1593  Escrow[_escrowId] */\n      0x00\n        /* \"contract/firstWork.sol\":1583:1592  _escrowId */\n      dup4\n        /* \"contract/firstWork.sol\":1576:1593  Escrow[_escrowId] */\n      dup2\n      mstore\n      0x20\n      add\n      swap1\n      dup2\n      mstore\n      0x20\n      add\n      0x00\n      keccak256\n        /* \"contract/firstWork.sol\":1576:1602  Escrow[_escrowId].employee */\n      0x02\n      add\n      0x00\n      swap1\n      sload\n      swap1\n      0x0100\n      exp\n      swap1\n      div\n      0xffffffffffffffffffffffffffffffffffffffff\n      and\n        /* \"contract/firstWork.sol\":1576:1616  Escrow[_escrowId].employee == msg.sender */\n      0xffffffffffffffffffffffffffffffffffffffff\n      and\n      eq\n        /* \"contract/firstWork.sol\":1567:1652  require (Escrow[_escrowId].employee == msg.sender , \"not the freelancer for the job\") */\n      tag_249\n      jumpi\n      mload(0x40)\n      0x08c379a000000000000000000000000000000000000000000000000000000000\n      dup2\n      mstore\n      0x04\n      add\n      tag_250\n      swap1\n      tag_251\n      jump\t// in\n    tag_250:\n      mload(0x40)\n      dup1\n      swap2\n      sub\n      swap1\n      revert\n    tag_249:\n        /* \"contract/firstWork.sol\":4301:4310  _escrowId */\n      dup2\n        /* \"contract/firstWork.sol\":1923:1924  0 */\n      0x00\n        /* \"contract/firstWork.sol\":1911:1920  _escrowId */\n      dup2\n        /* \"contract/firstWork.sol\":1911:1924  _escrowId > 0 */\n      gt\n        /* \"contract/firstWork.sol\":1911:1954  _escrowId > 0 && _escrowId <= escrowCounter */\n      dup1\n      iszero\n      tag_253\n      jumpi\n      pop\n        /* \"contract/firstWork.sol\":1941:1954  escrowCounter */\n      sload(0x03)\n        /* \"contract/firstWork.sol\":1928:1937  _escrowId */\n      dup2\n        /* \"contract/firstWork.sol\":1928:1954  _escrowId <= escrowCounter */\n      gt\n      iszero\n        /* \"contract/firstWork.sol\":1911:1954  _escrowId > 0 && _escrowId <= escrowCounter */\n    tag_253:\n        /* \"contract/firstWork.sol\":1902:1983  require (_escrowId > 0 && _escrowId <= escrowCounter, \"escrow id does not exist\") */\n      tag_254\n      jumpi\n      mload(0x40)\n      0x08c379a000000000000000000000000000000000000000000000000000000000\n      dup2\n      mstore\n      0x04\n      add\n      tag_255\n      swap1\n      tag_129\n      jump\t// in\n    tag_255:\n      mload(0x40)\n      dup1\n      swap2\n      sub\n      swap1\n      revert\n    tag_254:\n        /* \"contract/firstWork.sol\":4361:4378  Status.InProgress */\n      0x01\n        /* \"contract/firstWork.sol\":4333:4378  Escrow[_escrowId].status == Status.InProgress */\n      0x05\n      dup2\n      gt\n      iszero\n      tag_257\n      jumpi\n      mstore(0x00, 0x4e487b7100000000000000000000000000000000000000000000000000000000)\n      mstore(0x04, 0x21)\n      revert(0x00, 0x24)\n    tag_257:\n        /* \"contract/firstWork.sol\":4333:4339  Escrow */\n      0x04\n        /* \"contract/firstWork.sol\":4333:4350  Escrow[_escrowId] */\n      0x00\n        /* \"contract/firstWork.sol\":4340:4349  _escrowId */\n      dup6\n        /* \"contract/firstWork.sol\":4333:4350  Escrow[_escrowId] */\n      dup2\n      mstore\n      0x20\n      add\n      swap1\n      dup2\n      mstore\n      0x20\n      add\n      0x00\n      keccak256\n        /* \"contract/firstWork.sol\":4333:4357  Escrow[_escrowId].status */\n      0x05\n      add\n      0x00\n      swap1\n      sload\n      swap1\n      0x0100\n      exp\n      swap1\n      div\n      0xff\n      and\n        /* \"contract/firstWork.sol\":4333:4378  Escrow[_escrowId].status == Status.InProgress */\n      0x05\n      dup2\n      gt\n      iszero\n      tag_258\n      jumpi\n      mstore(0x00, 0x4e487b7100000000000000000000000000000000000000000000000000000000)\n      mstore(0x04, 0x21)\n      revert(0x00, 0x24)\n    tag_258:\n      eq\n        /* \"contract/firstWork.sol\":4324:4409  require (Escrow[_escrowId].status == Status.InProgress , \"Job has to be in progress\") */\n      tag_259\n      jumpi\n      mload(0x40)\n      0x08c379a000000000000000000000000000000000000000000000000000000000\n      dup2\n      mstore\n      0x04\n      add\n      tag_260\n      swap1\n      tag_261\n      jump\t// in\n    tag_260:\n      mload(0x40)\n      dup1\n      swap2\n      sub\n      swap1\n      revert\n    tag_259:\n        /* \"contract/firstWork.sol\":4449:4465  Status.Completed */\n      0x02\n        /* \"contract/firstWork.sol\":4422:4428  Escrow */\n      0x04\n        /* \"contract/firstWork.sol\":4422:4439  Escrow[_escrowId] */\n      0x00\n        /* \"contract/firstWork.sol\":4429:4438  _escrowId */\n      dup6\n        /* \"contract/firstWork.sol\":4422:4439  Escrow[_escrowId] */\n      dup2\n      mstore\n      0x20\n      add\n      swap1\n      dup2\n      mstore\n      0x20\n      add\n      0x00\n      keccak256\n        /* \"contract/firstWork.sol\":4422:4446  Escrow[_escrowId].status */\n      0x05\n      add\n      0x00\n        /* \"contract/firstWork.sol\":4422:4465  Escrow[_escrowId].status = Status.Completed */\n      0x0100\n      exp\n      dup2\n      sload\n      dup2\n      0xff\n      mul\n      not\n      and\n      swap1\n      dup4\n      0x05\n      dup2\n      gt\n      iszero\n      tag_262\n      jumpi\n      mstore(0x00, 0x4e487b7100000000000000000000000000000000000000000000000000000000)\n      mstore(0x04, 0x21)\n      revert(0x00, 0x24)\n    tag_262:\n      mul\n      or\n      swap1\n      sstore\n      pop\n        /* \"contract/firstWork.sol\":4509:4519  msg.sender */\n      caller\n        /* \"contract/firstWork.sol\":4483:4520  workSubmitted (_escrowId, msg.sender) */\n      0xffffffffffffffffffffffffffffffffffffffff\n      and\n        /* \"contract/firstWork.sol\":4498:4507  _escrowId */\n      dup4\n        /* \"contract/firstWork.sol\":4483:4520  workSubmitted (_escrowId, msg.sender) */\n      0x6f64d071670dffb53c3ec519c8d9a5b9bd92b2ece000406c1e59ae57c9187dd5\n      mload(0x40)\n      mload(0x40)\n      dup1\n      swap2\n      sub\n      swap1\n      log3\n        /* \"contract/firstWork.sol\":1665:1666  _ */\n      pop\n        /* \"contract/firstWork.sol\":651:652  _ */\n      pop\n        /* \"contract/firstWork.sol\":4208:4528  function submitWork (uint _escrowId) external isPaused freelancerOnly(_escrowId) escrowExist(_escrowId){\r... */\n      pop\n      jump\t// out\n        /* \"contract/firstWork.sol\":4538:5128  function approveAndRelease (uint _escrowId) external isPaused clientOnly(_escrowId) escrowExist(_escrowId){\r... */\n    tag_73:\n        /* \"contract/firstWork.sol\":608:613  false */\n      0x00\n        /* \"contract/firstWork.sol\":594:613  isItPaused == false */\n      iszero\n      iszero\n        /* \"contract/firstWork.sol\":594:604  isItPaused */\n      0x00\n      0x14\n      swap1\n      sload\n      swap1\n      0x0100\n      exp\n      swap1\n      div\n      0xff\n      and\n        /* \"contract/firstWork.sol\":594:613  isItPaused == false */\n      iszero\n      iszero\n      eq\n        /* \"contract/firstWork.sol\":585:640  require (isItPaused == false, \"the contract is paused\") */\n      tag_264\n      jumpi\n      mload(0x40)\n      0x08c379a000000000000000000000000000000000000000000000000000000000\n      dup2\n      mstore\n      0x04\n      add\n      tag_265\n      swap1\n      tag_97\n      jump\t// in\n    tag_265:\n      mload(0x40)\n      dup1\n      swap2\n      sub\n      swap1\n      revert\n    tag_264:\n        /* \"contract/firstWork.sol\":4611:4620  _escrowId */\n      dup1\n        /* \"contract/firstWork.sol\":1778:1788  msg.sender */\n      caller\n        /* \"contract/firstWork.sol\":1748:1788  Escrow[_escrowId].employer == msg.sender */\n      0xffffffffffffffffffffffffffffffffffffffff\n      and\n        /* \"contract/firstWork.sol\":1748:1754  Escrow */\n      0x04\n        /* \"contract/firstWork.sol\":1748:1765  Escrow[_escrowId] */\n      0x00\n        /* \"contract/firstWork.sol\":1755:1764  _escrowId */\n      dup4\n        /* \"contract/firstWork.sol\":1748:1765  Escrow[_escrowId] */\n      dup2\n      mstore\n      0x20\n      add\n      swap1\n      dup2\n      mstore\n      0x20\n      add\n      0x00\n      keccak256\n        /* \"contract/firstWork.sol\":1748:1774  Escrow[_escrowId].employer */\n      0x01\n      add\n      0x00\n      swap1\n      sload\n      swap1\n      0x0100\n      exp\n      swap1\n      div\n      0xffffffffffffffffffffffffffffffffffffffff\n      and\n        /* \"contract/firstWork.sol\":1748:1788  Escrow[_escrowId].employer == msg.sender */\n      0xffffffffffffffffffffffffffffffffffffffff\n      and\n      eq\n        /* \"contract/firstWork.sol\":1739:1820  require (Escrow[_escrowId].employer == msg.sender , \"not the client of this job\") */\n      tag_267\n      jumpi\n      mload(0x40)\n      0x08c379a000000000000000000000000000000000000000000000000000000000\n      dup2\n      mstore\n      0x04\n      add\n      tag_268\n      swap1\n      tag_269\n      jump\t// in\n    tag_268:\n      mload(0x40)\n      dup1\n      swap2\n      sub\n      swap1\n      revert\n    tag_267:\n        /* \"contract/firstWork.sol\":4634:4643  _escrowId */\n      dup2\n        /* \"contract/firstWork.sol\":1923:1924  0 */\n      0x00\n        /* \"contract/firstWork.sol\":1911:1920  _escrowId */\n      dup2\n        /* \"contract/firstWork.sol\":1911:1924  _escrowId > 0 */\n      gt\n        /* \"contract/firstWork.sol\":1911:1954  _escrowId > 0 && _escrowId <= escrowCounter */\n      dup1\n      iszero\n      tag_271\n      jumpi\n      pop\n        /* \"contract/firstWork.sol\":1941:1954  escrowCounter */\n      sload(0x03)\n        /* \"contract/firstWork.sol\":1928:1937  _escrowId */\n      dup2\n        /* \"contract/firstWork.sol\":1928:1954  _escrowId <= escrowCounter */\n      gt\n      iszero\n        /* \"contract/firstWork.sol\":1911:1954  _escrowId > 0 && _escrowId <= escrowCounter */\n    tag_271:\n        /* \"contract/firstWork.sol\":1902:1983  require (_escrowId > 0 && _escrowId <= escrowCounter, \"escrow id does not exist\") */\n      tag_272\n      jumpi\n      mload(0x40)\n      0x08c379a000000000000000000000000000000000000000000000000000000000\n      dup2\n      mstore\n      0x04\n      add\n      tag_273\n      swap1\n      tag_129\n      jump\t// in\n    tag_273:\n      mload(0x40)\n      dup1\n      swap2\n      sub\n      swap1\n      revert\n    tag_272:\n        /* \"contract/firstWork.sol\":4695:4711  Status.Completed */\n      0x02\n        /* \"contract/firstWork.sol\":4667:4711  Escrow[_escrowId].status == Status.Completed */\n      0x05\n      dup2\n      gt\n      iszero\n      tag_275\n      jumpi\n      mstore(0x00, 0x4e487b7100000000000000000000000000000000000000000000000000000000)\n      mstore(0x04, 0x21)\n      revert(0x00, 0x24)\n    tag_275:\n        /* \"contract/firstWork.sol\":4667:4673  Escrow */\n      0x04\n        /* \"contract/firstWork.sol\":4667:4684  Escrow[_escrowId] */\n      0x00\n        /* \"contract/firstWork.sol\":4674:4683  _escrowId */\n      dup6\n        /* \"contract/firstWork.sol\":4667:4684  Escrow[_escrowId] */\n      dup2\n      mstore\n      0x20\n      add\n      swap1\n      dup2\n      mstore\n      0x20\n      add\n      0x00\n      keccak256\n        /* \"contract/firstWork.sol\":4667:4691  Escrow[_escrowId].status */\n      0x05\n      add\n      0x00\n      swap1\n      sload\n      swap1\n      0x0100\n      exp\n      swap1\n      div\n      0xff\n      and\n        /* \"contract/firstWork.sol\":4667:4711  Escrow[_escrowId].status == Status.Completed */\n      0x05\n      dup2\n      gt\n      iszero\n      tag_276\n      jumpi\n      mstore(0x00, 0x4e487b7100000000000000000000000000000000000000000000000000000000)\n      mstore(0x04, 0x21)\n      revert(0x00, 0x24)\n    tag_276:\n      eq\n        /* \"contract/firstWork.sol\":4657:4739  require ( Escrow[_escrowId].status == Status.Completed, \"job has to be completed\") */\n      tag_277\n      jumpi\n      mload(0x40)\n      0x08c379a000000000000000000000000000000000000000000000000000000000\n      dup2\n      mstore\n      0x04\n      add\n      tag_278\n      swap1\n      tag_279\n      jump\t// in\n    tag_278:\n      mload(0x40)\n      dup1\n      swap2\n      sub\n      swap1\n      revert\n    tag_277:\n        /* \"contract/firstWork.sol\":4752:4760  uint fee */\n      0x00\n        /* \"contract/firstWork.sol\":4804:4807  100 */\n      0x64\n        /* \"contract/firstWork.sol\":4790:4801  platformFee */\n      sload(0x01)\n        /* \"contract/firstWork.sol\":4763:4769  Escrow */\n      0x04\n        /* \"contract/firstWork.sol\":4763:4780  Escrow[_escrowId] */\n      0x00\n        /* \"contract/firstWork.sol\":4770:4779  _escrowId */\n      dup8\n        /* \"contract/firstWork.sol\":4763:4780  Escrow[_escrowId] */\n      dup2\n      mstore\n      0x20\n      add\n      swap1\n      dup2\n      mstore\n      0x20\n      add\n      0x00\n      keccak256\n        /* \"contract/firstWork.sol\":4763:4787  Escrow[_escrowId].amount */\n      0x04\n      add\n      sload\n        /* \"contract/firstWork.sol\":4763:4801  Escrow[_escrowId].amount * platformFee */\n      tag_280\n      swap2\n      swap1\n      tag_138\n      jump\t// in\n    tag_280:\n        /* \"contract/firstWork.sol\":4763:4807  Escrow[_escrowId].amount * platformFee / 100 */\n      tag_281\n      swap2\n      swap1\n      tag_140\n      jump\t// in\n    tag_281:\n        /* \"contract/firstWork.sol\":4752:4807  uint fee = Escrow[_escrowId].amount * platformFee / 100 */\n      swap1\n      pop\n        /* \"contract/firstWork.sol\":4820:4842  uint freelancerPayment */\n      0x00\n        /* \"contract/firstWork.sol\":4872:4875  fee */\n      dup2\n        /* \"contract/firstWork.sol\":4845:4851  Escrow */\n      0x04\n        /* \"contract/firstWork.sol\":4845:4862  Escrow[_escrowId] */\n      0x00\n        /* \"contract/firstWork.sol\":4852:4861  _escrowId */\n      dup8\n        /* \"contract/firstWork.sol\":4845:4862  Escrow[_escrowId] */\n      dup2\n      mstore\n      0x20\n      add\n      swap1\n      dup2\n      mstore\n      0x20\n      add\n      0x00\n      keccak256\n        /* \"contract/firstWork.sol\":4845:4869  Escrow[_escrowId].amount */\n      0x04\n      add\n      sload\n        /* \"contract/firstWork.sol\":4845:4875  Escrow[_escrowId].amount - fee */\n      tag_282\n      swap2\n      swap1\n      tag_142\n      jump\t// in\n    tag_282:\n        /* \"contract/firstWork.sol\":4820:4875  uint freelancerPayment = Escrow[_escrowId].amount - fee */\n      swap1\n      pop\n        /* \"contract/firstWork.sol\":4908:4911  fee */\n      dup2\n        /* \"contract/firstWork.sol\":4888:4904  platformEarnings */\n      0x02\n      0x00\n        /* \"contract/firstWork.sol\":4888:4911  platformEarnings += fee */\n      dup3\n      dup3\n      sload\n      tag_283\n      swap2\n      swap1\n      tag_144\n      jump\t// in\n    tag_283:\n      swap3\n      pop\n      pop\n      dup2\n      swap1\n      sstore\n      pop\n        /* \"contract/firstWork.sol\":4964:4981  freelancerPayment */\n      dup1\n        /* \"contract/firstWork.sol\":4924:4932  earnings */\n      0x07\n        /* \"contract/firstWork.sol\":4924:4960  earnings[Escrow[_escrowId].employee] */\n      0x00\n        /* \"contract/firstWork.sol\":4933:4939  Escrow */\n      0x04\n        /* \"contract/firstWork.sol\":4933:4950  Escrow[_escrowId] */\n      0x00\n        /* \"contract/firstWork.sol\":4940:4949  _escrowId */\n      dup10\n        /* \"contract/firstWork.sol\":4933:4950  Escrow[_escrowId] */\n      dup2\n      mstore\n      0x20\n      add\n      swap1\n      dup2\n      mstore\n      0x20\n      add\n      0x00\n      keccak256\n        /* \"contract/firstWork.sol\":4933:4959  Escrow[_escrowId].employee */\n      0x02\n      add\n      0x00\n      swap1\n      sload\n      swap1\n      0x0100\n      exp\n      swap1\n      div\n      0xffffffffffffffffffffffffffffffffffffffff\n      and\n        /* \"contract/firstWork.sol\":4924:4960  earnings[Escrow[_escrowId].employee] */\n      0xffffffffffffffffffffffffffffffffffffffff\n      and\n      0xffffffffffffffffffffffffffffffffffffffff\n      and\n      dup2\n      mstore\n      0x20\n      add\n      swap1\n      dup2\n      mstore\n      0x20\n      add\n      0x00\n      keccak256\n      0x00\n        /* \"contract/firstWork.sol\":4924:4981  earnings[Escrow[_escrowId].employee] += freelancerPayment */\n      dup3\n      dup3\n      sload\n      tag_284\n      swap2\n      swap1\n      tag_144\n      jump\t// in\n    tag_284:\n      swap3\n      pop\n      pop\n      dup2\n      swap1\n      sstore\n      pop\n        /* \"contract/firstWork.sol\":5021:5036  Status.Released */\n      0x04\n        /* \"contract/firstWork.sol\":4994:5000  Escrow */\n      dup1\n        /* \"contract/firstWork.sol\":4994:5011  Escrow[_escrowId] */\n      0x00\n        /* \"contract/firstWork.sol\":5001:5010  _escrowId */\n      dup8\n        /* \"contract/firstWork.sol\":4994:5011  Escrow[_escrowId] */\n      dup2\n      mstore\n      0x20\n      add\n      swap1\n      dup2\n      mstore\n      0x20\n      add\n      0x00\n      keccak256\n        /* \"contract/firstWork.sol\":4994:5018  Escrow[_escrowId].status */\n      0x05\n      add\n      0x00\n        /* \"contract/firstWork.sol\":4994:5036  Escrow[_escrowId].status = Status.Released */\n      0x0100\n      exp\n      dup2\n      sload\n      dup2\n      0xff\n      mul\n      not\n      and\n      swap1\n      dup4\n      0x05\n      dup2\n      gt\n      iszero\n      tag_285\n      jumpi\n      mstore(0x00, 0x4e487b7100000000000000000000000000000000000000000000000000000000)\n      mstore(0x04, 0x21)\n      revert(0x00, 0x24)\n    tag_285:\n      mul\n      or\n      swap1\n      sstore\n      pop\n        /* \"contract/firstWork.sol\":5083:5093  msg.sender */\n      caller\n        /* \"contract/firstWork.sol\":5054:5120  paymentReleased (_escrowId , msg.sender , freelancerPayment , fee) */\n      0xffffffffffffffffffffffffffffffffffffffff\n      and\n        /* \"contract/firstWork.sol\":5071:5080  _escrowId */\n      dup6\n        /* \"contract/firstWork.sol\":5054:5120  paymentReleased (_escrowId , msg.sender , freelancerPayment , fee) */\n      0x06b47ac85beedca9f4ebbc12634a84dd3d260bae3cc4c67fcdf8c326f9b4a1e3\n        /* \"contract/firstWork.sol\":5096:5113  freelancerPayment */\n      dup4\n        /* \"contract/firstWork.sol\":5116:5119  fee */\n      dup6\n        /* \"contract/firstWork.sol\":5054:5120  paymentReleased (_escrowId , msg.sender , freelancerPayment , fee) */\n      mload(0x40)\n      tag_286\n      swap3\n      swap2\n      swap1\n      tag_195\n      jump\t// in\n    tag_286:\n      mload(0x40)\n      dup1\n      swap2\n      sub\n      swap1\n      log3\n        /* \"contract/firstWork.sol\":1996:1997  _ */\n      pop\n      pop\n        /* \"contract/firstWork.sol\":1833:1834  _ */\n      pop\n        /* \"contract/firstWork.sol\":651:652  _ */\n      pop\n        /* \"contract/firstWork.sol\":4538:5128  function approveAndRelease (uint _escrowId) external isPaused clientOnly(_escrowId) escrowExist(_escrowId){\r... */\n      pop\n      jump\t// out\n        /* \"contract/firstWork.sol\":7129:7562  function cancelEscrow (uint _escrowId) external isPaused clientOnly(_escrowId) escrowExist(_escrowId){\r... */\n    tag_77:\n        /* \"contract/firstWork.sol\":608:613  false */\n      0x00\n        /* \"contract/firstWork.sol\":594:613  isItPaused == false */\n      iszero\n      iszero\n        /* \"contract/firstWork.sol\":594:604  isItPaused */\n      0x00\n      0x14\n      swap1\n      sload\n      swap1\n      0x0100\n      exp\n      swap1\n      div\n      0xff\n      and\n        /* \"contract/firstWork.sol\":594:613  isItPaused == false */\n      iszero\n      iszero\n      eq\n        /* \"contract/firstWork.sol\":585:640  require (isItPaused == false, \"the contract is paused\") */\n      tag_288\n      jumpi\n      mload(0x40)\n      0x08c379a000000000000000000000000000000000000000000000000000000000\n      dup2\n      mstore\n      0x04\n      add\n      tag_289\n      swap1\n      tag_97\n      jump\t// in\n    tag_289:\n      mload(0x40)\n      dup1\n      swap2\n      sub\n      swap1\n      revert\n    tag_288:\n        /* \"contract/firstWork.sol\":7197:7206  _escrowId */\n      dup1\n        /* \"contract/firstWork.sol\":1778:1788  msg.sender */\n      caller\n        /* \"contract/firstWork.sol\":1748:1788  Escrow[_escrowId].employer == msg.sender */\n      0xffffffffffffffffffffffffffffffffffffffff\n      and\n        /* \"contract/firstWork.sol\":1748:1754  Escrow */\n      0x04\n        /* \"contract/firstWork.sol\":1748:1765  Escrow[_escrowId] */\n      0x00\n        /* \"contract/firstWork.sol\":1755:1764  _escrowId */\n      dup4\n        /* \"contract/firstWork.sol\":1748:1765  Escrow[_escrowId] */\n      dup2\n      mstore\n      0x20\n      add\n      swap1\n      dup2\n      mstore\n      0x20\n      add\n      0x00\n      keccak256\n        /* \"contract/firstWork.sol\":1748:1774  Escrow[_escrowId].employer */\n      0x01\n      add\n      0x00\n      swap1\n      sload\n      swap1\n      0x0100\n      exp\n      swap1\n      div\n      0xffffffffffffffffffffffffffffffffffffffff\n      and\n        /* \"contract/firstWork.sol\":1748:1788  Escrow[_escrowId].employer == msg.sender */\n      0xffffffffffffffffffffffffffffffffffffffff\n      and\n      eq\n        /* \"contract/firstWork.sol\":1739:1820  require (Escrow[_escrowId].employer == msg.sender , \"not the client of this job\") */\n      tag_291\n      jumpi\n      mload(0x40)\n      0x08c379a000000000000000000000000000000000000000000000000000000000\n      dup2\n      mstore\n      0x04\n      add\n      tag_292\n      swap1\n      tag_269\n      jump\t// in\n    tag_292:\n      mload(0x40)\n      dup1\n      swap2\n      sub\n      swap1\n      revert\n    tag_291:\n        /* \"contract/firstWork.sol\":7220:7229  _escrowId */\n      dup2\n        /* \"contract/firstWork.sol\":1923:1924  0 */\n      0x00\n        /* \"contract/firstWork.sol\":1911:1920  _escrowId */\n      dup2\n        /* \"contract/firstWork.sol\":1911:1924  _escrowId > 0 */\n      gt\n        /* \"contract/firstWork.sol\":1911:1954  _escrowId > 0 && _escrowId <= escrowCounter */\n      dup1\n      iszero\n      tag_294\n      jumpi\n      pop\n        /* \"contract/firstWork.sol\":1941:1954  escrowCounter */\n      sload(0x03)\n        /* \"contract/firstWork.sol\":1928:1937  _escrowId */\n      dup2\n        /* \"contract/firstWork.sol\":1928:1954  _escrowId <= escrowCounter */\n      gt\n      iszero\n        /* \"contract/firstWork.sol\":1911:1954  _escrowId > 0 && _escrowId <= escrowCounter */\n    tag_294:\n        /* \"contract/firstWork.sol\":1902:1983  require (_escrowId > 0 && _escrowId <= escrowCounter, \"escrow id does not exist\") */\n      tag_295\n      jumpi\n      mload(0x40)\n      0x08c379a000000000000000000000000000000000000000000000000000000000\n      dup2\n      mstore\n      0x04\n      add\n      tag_296\n      swap1\n      tag_129\n      jump\t// in\n    tag_296:\n      mload(0x40)\n      dup1\n      swap2\n      sub\n      swap1\n      revert\n    tag_295:\n        /* \"contract/firstWork.sol\":7280:7291  Status.Open */\n      0x00\n        /* \"contract/firstWork.sol\":7252:7291  Escrow[_escrowId].status == Status.Open */\n      0x05\n      dup2\n      gt\n      iszero\n      tag_298\n      jumpi\n      mstore(0x00, 0x4e487b7100000000000000000000000000000000000000000000000000000000)\n      mstore(0x04, 0x21)\n      revert(0x00, 0x24)\n    tag_298:\n        /* \"contract/firstWork.sol\":7252:7258  Escrow */\n      0x04\n        /* \"contract/firstWork.sol\":7252:7269  Escrow[_escrowId] */\n      0x00\n        /* \"contract/firstWork.sol\":7259:7268  _escrowId */\n      dup6\n        /* \"contract/firstWork.sol\":7252:7269  Escrow[_escrowId] */\n      dup2\n      mstore\n      0x20\n      add\n      swap1\n      dup2\n      mstore\n      0x20\n      add\n      0x00\n      keccak256\n        /* \"contract/firstWork.sol\":7252:7276  Escrow[_escrowId].status */\n      0x05\n      add\n      0x00\n      swap1\n      sload\n      swap1\n      0x0100\n      exp\n      swap1\n      div\n      0xff\n      and\n        /* \"contract/firstWork.sol\":7252:7291  Escrow[_escrowId].status == Status.Open */\n      0x05\n      dup2\n      gt\n      iszero\n      tag_299\n      jumpi\n      mstore(0x00, 0x4e487b7100000000000000000000000000000000000000000000000000000000)\n      mstore(0x04, 0x21)\n      revert(0x00, 0x24)\n    tag_299:\n      eq\n        /* \"contract/firstWork.sol\":7243:7338  require (Escrow[_escrowId].status == Status.Open, \"once job is accepted it can't be cancelled\") */\n      tag_300\n      jumpi\n      mload(0x40)\n      0x08c379a000000000000000000000000000000000000000000000000000000000\n      dup2\n      mstore\n      0x04\n      add\n      tag_301\n      swap1\n      tag_302\n      jump\t// in\n    tag_301:\n      mload(0x40)\n      dup1\n      swap2\n      sub\n      swap1\n      revert\n    tag_300:\n        /* \"contract/firstWork.sol\":7351:7363  uint _amount */\n      0x00\n        /* \"contract/firstWork.sol\":7366:7372  Escrow */\n      0x04\n        /* \"contract/firstWork.sol\":7366:7383  Escrow[_escrowId] */\n      0x00\n        /* \"contract/firstWork.sol\":7373:7382  _escrowId */\n      dup6\n        /* \"contract/firstWork.sol\":7366:7383  Escrow[_escrowId] */\n      dup2\n      mstore\n      0x20\n      add\n      swap1\n      dup2\n      mstore\n      0x20\n      add\n      0x00\n      keccak256\n        /* \"contract/firstWork.sol\":7366:7390  Escrow[_escrowId].amount */\n      0x04\n      add\n      sload\n        /* \"contract/firstWork.sol\":7351:7390  uint _amount = Escrow[_escrowId].amount */\n      swap1\n      pop\n        /* \"contract/firstWork.sol\":7411:7421  msg.sender */\n      caller\n        /* \"contract/firstWork.sol\":7403:7431  payable(msg.sender).transfer */\n      0xffffffffffffffffffffffffffffffffffffffff\n      and\n        /* \"contract/firstWork.sol\":7403:7440  payable(msg.sender).transfer(_amount) */\n      0x08fc\n        /* \"contract/firstWork.sol\":7432:7439  _amount */\n      dup3\n        /* \"contract/firstWork.sol\":7403:7440  payable(msg.sender).transfer(_amount) */\n      swap1\n      dup2\n      iszero\n      mul\n      swap1\n      mload(0x40)\n      0x00\n      mload(0x40)\n      dup1\n      dup4\n      sub\n      dup2\n      dup6\n      dup9\n      dup9\n      call\n      swap4\n      pop\n      pop\n      pop\n      pop\n      iszero\n      dup1\n      iszero\n      tag_304\n      jumpi\n      returndatasize\n      0x00\n      dup1\n      returndatacopy\n      revert(0x00, returndatasize)\n    tag_304:\n      pop\n        /* \"contract/firstWork.sol\":7480:7496  Status.Cancelled */\n      0x05\n        /* \"contract/firstWork.sol\":7453:7459  Escrow */\n      0x04\n        /* \"contract/firstWork.sol\":7453:7470  Escrow[_escrowId] */\n      0x00\n        /* \"contract/firstWork.sol\":7460:7469  _escrowId */\n      dup7\n        /* \"contract/firstWork.sol\":7453:7470  Escrow[_escrowId] */\n      dup2\n      mstore\n      0x20\n      add\n      swap1\n      dup2\n      mstore\n      0x20\n      add\n      0x00\n      keccak256\n        /* \"contract/firstWork.sol\":7453:7477  Escrow[_escrowId].status */\n      0x05\n      add\n      0x00\n        /* \"contract/firstWork.sol\":7453:7496  Escrow[_escrowId].status = Status.Cancelled */\n      0x0100\n      exp\n      dup2\n      sload\n      dup2\n      0xff\n      mul\n      not\n      and\n      swap1\n      dup4\n      0x05\n      dup2\n      gt\n      iszero\n      tag_305\n      jumpi\n      mstore(0x00, 0x4e487b7100000000000000000000000000000000000000000000000000000000)\n      mstore(0x04, 0x21)\n      revert(0x00, 0x24)\n    tag_305:\n      mul\n      or\n      swap1\n      sstore\n      pop\n        /* \"contract/firstWork.sol\":7543:7553  msg.sender */\n      caller\n        /* \"contract/firstWork.sol\":7514:7554  escrowCancelled (_escrowId , msg.sender) */\n      0xffffffffffffffffffffffffffffffffffffffff\n      and\n        /* \"contract/firstWork.sol\":7531:7540  _escrowId */\n      dup5\n        /* \"contract/firstWork.sol\":7514:7554  escrowCancelled (_escrowId , msg.sender) */\n      0xcdac2b89a9b0d70f2f97c5b7164bba2d6a770c137b5772f8e821c8c38d7c4826\n      mload(0x40)\n      mload(0x40)\n      dup1\n      swap2\n      sub\n      swap1\n      log3\n        /* \"contract/firstWork.sol\":1996:1997  _ */\n      pop\n        /* \"contract/firstWork.sol\":1833:1834  _ */\n      pop\n        /* \"contract/firstWork.sol\":651:652  _ */\n      pop\n        /* \"contract/firstWork.sol\":7129:7562  function cancelEscrow (uint _escrowId) external isPaused clientOnly(_escrowId) escrowExist(_escrowId){\r... */\n      pop\n      jump\t// out\n        /* \"contract/firstWork.sol\":8504:8635  function getMyFreelancerEscrows () external view isPaused returns(uint [] memory){\r... */\n    tag_80:\n        /* \"contract/firstWork.sol\":8570:8584  uint [] memory */\n      0x60\n        /* \"contract/firstWork.sol\":608:613  false */\n      0x00\n        /* \"contract/firstWork.sol\":594:613  isItPaused == false */\n      iszero\n      iszero\n        /* \"contract/firstWork.sol\":594:604  isItPaused */\n      0x00\n      0x14\n      swap1\n      sload\n      swap1\n      0x0100\n      exp\n      swap1\n      div\n      0xff\n      and\n        /* \"contract/firstWork.sol\":594:613  isItPaused == false */\n      iszero\n      iszero\n      eq\n        /* \"contract/firstWork.sol\":585:640  require (isItPaused == false, \"the contract is paused\") */\n      tag_307\n      jumpi\n      mload(0x40)\n      0x08c379a000000000000000000000000000000000000000000000000000000000\n      dup2\n      mstore\n      0x04\n      add\n      tag_308\n      swap1\n      tag_97\n      jump\t// in\n    tag_308:\n      mload(0x40)\n      dup1\n      swap2\n      sub\n      swap1\n      revert\n    tag_307:\n        /* \"contract/firstWork.sol\":8605:8615  freelancer */\n      0x06\n        /* \"contract/firstWork.sol\":8605:8627  freelancer[msg.sender] */\n      0x00\n        /* \"contract/firstWork.sol\":8616:8626  msg.sender */\n      caller\n        /* \"contract/firstWork.sol\":8605:8627  freelancer[msg.sender] */\n      0xffffffffffffffffffffffffffffffffffffffff\n      and\n      0xffffffffffffffffffffffffffffffffffffffff\n      and\n      dup2\n      mstore\n      0x20\n      add\n      swap1\n      dup2\n      mstore\n      0x20\n      add\n      0x00\n      keccak256\n        /* \"contract/firstWork.sol\":8598:8627  return freelancer[msg.sender] */\n      dup1\n      sload\n      dup1\n      0x20\n      mul\n      0x20\n      add\n      mload(0x40)\n      swap1\n      dup2\n      add\n      0x40\n      mstore\n      dup1\n      swap3\n      swap2\n      swap1\n      dup2\n      dup2\n      mstore\n      0x20\n      add\n      dup3\n      dup1\n      sload\n      dup1\n      iszero\n      tag_310\n      jumpi\n      0x20\n      mul\n      dup3\n      add\n      swap2\n      swap1\n      0x00\n      mstore\n      keccak256(0x00, 0x20)\n      swap1\n    tag_311:\n      dup2\n      sload\n      dup2\n      mstore\n      0x20\n      add\n      swap1\n      0x01\n      add\n      swap1\n      dup1\n      dup4\n      gt\n      tag_311\n      jumpi\n    tag_310:\n      pop\n      pop\n      pop\n      pop\n      pop\n      swap1\n      pop\n        /* \"contract/firstWork.sol\":8504:8635  function getMyFreelancerEscrows () external view isPaused returns(uint [] memory){\r... */\n      swap1\n      jump\t// out\n        /* \"contract/firstWork.sol\":3887:4198  function acceptEscrow (uint _escrowId) external isPaused freelancerOnly(_escrowId) escrowExist(_escrowId){\r... */\n    tag_85:\n        /* \"contract/firstWork.sol\":608:613  false */\n      0x00\n        /* \"contract/firstWork.sol\":594:613  isItPaused == false */\n      iszero\n      iszero\n        /* \"contract/firstWork.sol\":594:604  isItPaused */\n      0x00\n      0x14\n      swap1\n      sload\n      swap1\n      0x0100\n      exp\n      swap1\n      div\n      0xff\n      and\n        /* \"contract/firstWork.sol\":594:613  isItPaused == false */\n      iszero\n      iszero\n      eq\n        /* \"contract/firstWork.sol\":585:640  require (isItPaused == false, \"the contract is paused\") */\n      tag_313\n      jumpi\n      mload(0x40)\n      0x08c379a000000000000000000000000000000000000000000000000000000000\n      dup2\n      mstore\n      0x04\n      add\n      tag_314\n      swap1\n      tag_97\n      jump\t// in\n    tag_314:\n      mload(0x40)\n      dup1\n      swap2\n      sub\n      swap1\n      revert\n    tag_313:\n        /* \"contract/firstWork.sol\":3959:3968  _escrowId */\n      dup1\n        /* \"contract/firstWork.sol\":1606:1616  msg.sender */\n      caller\n        /* \"contract/firstWork.sol\":1576:1616  Escrow[_escrowId].employee == msg.sender */\n      0xffffffffffffffffffffffffffffffffffffffff\n      and\n        /* \"contract/firstWork.sol\":1576:1582  Escrow */\n      0x04\n        /* \"contract/firstWork.sol\":1576:1593  Escrow[_escrowId] */\n      0x00\n        /* \"contract/firstWork.sol\":1583:1592  _escrowId */\n      dup4\n        /* \"contract/firstWork.sol\":1576:1593  Escrow[_escrowId] */\n      dup2\n      mstore\n      0x20\n      add\n      swap1\n      dup2\n      mstore\n      0x20\n      add\n      0x00\n      keccak256\n        /* \"contract/firstWork.sol\":1576:1602  Escrow[_escrowId].employee */\n      0x02\n      add\n      0x00\n      swap1\n      sload\n      swap1\n      0x0100\n      exp\n      swap1\n      div\n      0xffffffffffffffffffffffffffffffffffffffff\n      and\n        /* \"contract/firstWork.sol\":1576:1616  Escrow[_escrowId].employee == msg.sender */\n      0xffffffffffffffffffffffffffffffffffffffff\n      and\n      eq\n        /* \"contract/firstWork.sol\":1567:1652  require (Escrow[_escrowId].employee == msg.sender , \"not the freelancer for the job\") */\n      tag_316\n      jumpi\n      mload(0x40)\n      0x08c379a000000000000000000000000000000000000000000000000000000000\n      dup2\n      mstore\n      0x04\n      add\n      tag_317\n      swap1\n      tag_251\n      jump\t// in\n    tag_317:\n      mload(0x40)\n      dup1\n      swap2\n      sub\n      swap1\n      revert\n    tag_316:\n        /* \"contract/firstWork.sol\":3982:3991  _escrowId */\n      dup2\n        /* \"contract/firstWork.sol\":1923:1924  0 */\n      0x00\n        /* \"contract/firstWork.sol\":1911:1920  _escrowId */\n      dup2\n        /* \"contract/firstWork.sol\":1911:1924  _escrowId > 0 */\n      gt\n        /* \"contract/firstWork.sol\":1911:1954  _escrowId > 0 && _escrowId <= escrowCounter */\n      dup1\n      iszero\n      tag_319\n      jumpi\n      pop\n        /* \"contract/firstWork.sol\":1941:1954  escrowCounter */\n      sload(0x03)\n        /* \"contract/firstWork.sol\":1928:1937  _escrowId */\n      dup2\n        /* \"contract/firstWork.sol\":1928:1954  _escrowId <= escrowCounter */\n      gt\n      iszero\n        /* \"contract/firstWork.sol\":1911:1954  _escrowId > 0 && _escrowId <= escrowCounter */\n    tag_319:\n        /* \"contract/firstWork.sol\":1902:1983  require (_escrowId > 0 && _escrowId <= escrowCounter, \"escrow id does not exist\") */\n      tag_320\n      jumpi\n      mload(0x40)\n      0x08c379a000000000000000000000000000000000000000000000000000000000\n      dup2\n      mstore\n      0x04\n      add\n      tag_321\n      swap1\n      tag_129\n      jump\t// in\n    tag_321:\n      mload(0x40)\n      dup1\n      swap2\n      sub\n      swap1\n      revert\n    tag_320:\n        /* \"contract/firstWork.sol\":4042:4053  Status.Open */\n      0x00\n        /* \"contract/firstWork.sol\":4014:4053  Escrow[_escrowId].status == Status.Open */\n      0x05\n      dup2\n      gt\n      iszero\n      tag_323\n      jumpi\n      mstore(0x00, 0x4e487b7100000000000000000000000000000000000000000000000000000000)\n      mstore(0x04, 0x21)\n      revert(0x00, 0x24)\n    tag_323:\n        /* \"contract/firstWork.sol\":4014:4020  Escrow */\n      0x04\n        /* \"contract/firstWork.sol\":4014:4031  Escrow[_escrowId] */\n      0x00\n        /* \"contract/firstWork.sol\":4021:4030  _escrowId */\n      dup6\n        /* \"contract/firstWork.sol\":4014:4031  Escrow[_escrowId] */\n      dup2\n      mstore\n      0x20\n      add\n      swap1\n      dup2\n      mstore\n      0x20\n      add\n      0x00\n      keccak256\n        /* \"contract/firstWork.sol\":4014:4038  Escrow[_escrowId].status */\n      0x05\n      add\n      0x00\n      swap1\n      sload\n      swap1\n      0x0100\n      exp\n      swap1\n      div\n      0xff\n      and\n        /* \"contract/firstWork.sol\":4014:4053  Escrow[_escrowId].status == Status.Open */\n      0x05\n      dup2\n      gt\n      iszero\n      tag_324\n      jumpi\n      mstore(0x00, 0x4e487b7100000000000000000000000000000000000000000000000000000000)\n      mstore(0x04, 0x21)\n      revert(0x00, 0x24)\n    tag_324:\n      eq\n        /* \"contract/firstWork.sol\":4005:4076  require (Escrow[_escrowId].status == Status.Open ,\"job not opened yet\") */\n      tag_325\n      jumpi\n      mload(0x40)\n      0x08c379a000000000000000000000000000000000000000000000000000000000\n      dup2\n      mstore\n      0x04\n      add\n      tag_326\n      swap1\n      tag_327\n      jump\t// in\n    tag_326:\n      mload(0x40)\n      dup1\n      swap2\n      sub\n      swap1\n      revert\n    tag_325:\n        /* \"contract/firstWork.sol\":4116:4133  Status.InProgress */\n      0x01\n        /* \"contract/firstWork.sol\":4089:4095  Escrow */\n      0x04\n        /* \"contract/firstWork.sol\":4089:4106  Escrow[_escrowId] */\n      0x00\n        /* \"contract/firstWork.sol\":4096:4105  _escrowId */\n      dup6\n        /* \"contract/firstWork.sol\":4089:4106  Escrow[_escrowId] */\n      dup2\n      mstore\n      0x20\n      add\n      swap1\n      dup2\n      mstore\n      0x20\n      add\n      0x00\n      keccak256\n        /* \"contract/firstWork.sol\":4089:4113  Escrow[_escrowId].status */\n      0x05\n      add\n      0x00\n        /* \"contract/firstWork.sol\":4089:4133  Escrow[_escrowId].status = Status.InProgress */\n      0x0100\n      exp\n      dup2\n      sload\n      dup2\n      0xff\n      mul\n      not\n      and\n      swap1\n      dup4\n      0x05\n      dup2\n      gt\n      iszero\n      tag_328\n      jumpi\n      mstore(0x00, 0x4e487b7100000000000000000000000000000000000000000000000000000000)\n      mstore(0x04, 0x21)\n      revert(0x00, 0x24)\n    tag_328:\n      mul\n      or\n      swap1\n      sstore\n      pop\n        /* \"contract/firstWork.sol\":4179:4189  msg.sender */\n      caller\n        /* \"contract/firstWork.sol\":4151:4190  escrowAccepted (_escrowId , msg.sender) */\n      0xffffffffffffffffffffffffffffffffffffffff\n      and\n        /* \"contract/firstWork.sol\":4167:4176  _escrowId */\n      dup4\n        /* \"contract/firstWork.sol\":4151:4190  escrowAccepted (_escrowId , msg.sender) */\n      0x87136e412f5f61ca8282f28c531b67a1ac65873685c16245a61f698bb0c07afe\n      mload(0x40)\n      mload(0x40)\n      dup1\n      swap2\n      sub\n      swap1\n      log3\n        /* \"contract/firstWork.sol\":1665:1666  _ */\n      pop\n        /* \"contract/firstWork.sol\":651:652  _ */\n      pop\n        /* \"contract/firstWork.sol\":3887:4198  function acceptEscrow (uint _escrowId) external isPaused freelancerOnly(_escrowId) escrowExist(_escrowId){\r... */\n      pop\n      jump\t// out\n        /* \"contract/firstWork.sol\":302:483  function transferOwnership (address newOwner) external ownerOnly{\r... */\n    tag_90:\n        /* \"contract/firstWork.sol\":229:234  owner */\n      0x00\n      dup1\n      sload\n      swap1\n      0x0100\n      exp\n      swap1\n      div\n      0xffffffffffffffffffffffffffffffffffffffff\n      and\n        /* \"contract/firstWork.sol\":215:234  msg.sender == owner */\n      0xffffffffffffffffffffffffffffffffffffffff\n      and\n        /* \"contract/firstWork.sol\":215:225  msg.sender */\n      caller\n        /* \"contract/firstWork.sol\":215:234  msg.sender == owner */\n      0xffffffffffffffffffffffffffffffffffffffff\n      and\n      eq\n        /* \"contract/firstWork.sol\":206:272  require (msg.sender == owner, \"only owner can call this contract\") */\n      tag_330\n      jumpi\n      mload(0x40)\n      0x08c379a000000000000000000000000000000000000000000000000000000000\n      dup2\n      mstore\n      0x04\n      add\n      tag_331\n      swap1\n      tag_107\n      jump\t// in\n    tag_331:\n      mload(0x40)\n      dup1\n      swap2\n      sub\n      swap1\n      revert\n    tag_330:\n        /* \"contract/firstWork.sol\":408:409  0 */\n      0x00\n        /* \"contract/firstWork.sol\":388:410  newOwner == address(0) */\n      0xffffffffffffffffffffffffffffffffffffffff\n      and\n        /* \"contract/firstWork.sol\":388:396  newOwner */\n      dup2\n        /* \"contract/firstWork.sol\":388:410  newOwner == address(0) */\n      0xffffffffffffffffffffffffffffffffffffffff\n      and\n      eq\n        /* \"contract/firstWork.sol\":379:446  require (newOwner == address(0), \"address can't be a zero address\") */\n      tag_333\n      jumpi\n      mload(0x40)\n      0x08c379a000000000000000000000000000000000000000000000000000000000\n      dup2\n      mstore\n      0x04\n      add\n      tag_334\n      swap1\n      tag_335\n      jump\t// in\n    tag_334:\n      mload(0x40)\n      dup1\n      swap2\n      sub\n      swap1\n      revert\n    tag_333:\n        /* \"contract/firstWork.sol\":467:475  newOwner */\n      dup1\n        /* \"contract/firstWork.sol\":459:464  owner */\n      0x00\n      dup1\n        /* \"contract/firstWork.sol\":459:475  owner = newOwner */\n      0x0100\n      exp\n      dup2\n      sload\n      dup2\n      0xffffffffffffffffffffffffffffffffffffffff\n      mul\n      not\n      and\n      swap1\n      dup4\n      0xffffffffffffffffffffffffffffffffffffffff\n      and\n      mul\n      or\n      swap1\n      sstore\n      pop\n        /* \"contract/firstWork.sol\":302:483  function transferOwnership (address newOwner) external ownerOnly{\r... */\n      pop\n      jump\t// out\n        /* \"contract/firstWork.sol\":750:836  function unPause () external ownerOnly{\r... */\n    tag_93:\n        /* \"contract/firstWork.sol\":229:234  owner */\n      0x00\n      dup1\n      sload\n      swap1\n      0x0100\n      exp\n      swap1\n      div\n      0xffffffffffffffffffffffffffffffffffffffff\n      and\n        /* \"contract/firstWork.sol\":215:234  msg.sender == owner */\n      0xffffffffffffffffffffffffffffffffffffffff\n      and\n        /* \"contract/firstWork.sol\":215:225  msg.sender */\n      caller\n        /* \"contract/firstWork.sol\":215:234  msg.sender == owner */\n      0xffffffffffffffffffffffffffffffffffffffff\n      and\n      eq\n        /* \"contract/firstWork.sol\":206:272  require (msg.sender == owner, \"only owner can call this contract\") */\n      tag_337\n      jumpi\n      mload(0x40)\n      0x08c379a000000000000000000000000000000000000000000000000000000000\n      dup2\n      mstore\n      0x04\n      add\n      tag_338\n      swap1\n      tag_107\n      jump\t// in\n    tag_338:\n      mload(0x40)\n      dup1\n      swap2\n      sub\n      swap1\n      revert\n    tag_337:\n        /* \"contract/firstWork.sol\":823:828  false */\n      0x00\n        /* \"contract/firstWork.sol\":809:819  isItPaused */\n      dup1\n      0x14\n        /* \"contract/firstWork.sol\":809:828  isItPaused  = false */\n      0x0100\n      exp\n      dup2\n      sload\n      dup2\n      0xff\n      mul\n      not\n      and\n      swap1\n      dup4\n      iszero\n      iszero\n      mul\n      or\n      swap1\n      sstore\n      pop\n        /* \"contract/firstWork.sol\":750:836  function unPause () external ownerOnly{\r... */\n      jump\t// out\n    tag_173:\n      dup3\n      dup1\n      sload\n      tag_340\n      swap1\n      tag_207\n      jump\t// in\n    tag_340:\n      swap1\n      0x00\n      mstore\n      keccak256(0x00, 0x20)\n      swap1\n      0x1f\n      add\n      0x20\n      swap1\n      div\n      dup2\n      add\n      swap3\n      dup3\n      tag_342\n      jumpi\n      0x00\n      dup6\n      sstore\n      jump(tag_341)\n    tag_342:\n      dup3\n      0x1f\n      lt\n      tag_343\n      jumpi\n      dup1\n      mload\n      not(0xff)\n      and\n      dup4\n      dup1\n      add\n      or\n      dup6\n      sstore\n      jump(tag_341)\n    tag_343:\n      dup3\n      dup1\n      add\n      0x01\n      add\n      dup6\n      sstore\n      dup3\n      iszero\n      tag_341\n      jumpi\n      swap2\n      dup3\n      add\n    tag_344:\n      dup3\n      dup2\n      gt\n      iszero\n      tag_345\n      jumpi\n      dup3\n      mload\n      dup3\n      sstore\n      swap2\n      0x20\n      add\n      swap2\n      swap1\n      0x01\n      add\n      swap1\n      jump(tag_344)\n    tag_345:\n    tag_341:\n      pop\n      swap1\n      pop\n      tag_346\n      swap2\n      swap1\n      tag_347\n      jump\t// in\n    tag_346:\n      pop\n      swap1\n      jump\t// out\n    tag_197:\n      mload(0x40)\n      dup1\n      0xe0\n      add\n      0x40\n      mstore\n      dup1\n      0x00\n      dup2\n      mstore\n      0x20\n      add\n      and(0xffffffffffffffffffffffffffffffffffffffff, 0x00)\n      dup2\n      mstore\n      0x20\n      add\n      and(0xffffffffffffffffffffffffffffffffffffffff, 0x00)\n      dup2\n      mstore\n      0x20\n      add\n      0x60\n      dup2\n      mstore\n      0x20\n      add\n      0x00\n      dup2\n      mstore\n      0x20\n      add\n      0x00\n      0x05\n      dup2\n      gt\n      iszero\n      tag_348\n      jumpi\n      mstore(0x00, 0x4e487b7100000000000000000000000000000000000000000000000000000000)\n      mstore(0x04, 0x21)\n      revert(0x00, 0x24)\n    tag_348:\n      dup2\n      mstore\n      0x20\n      add\n      0x00\n      dup2\n      mstore\n      pop\n      swap1\n      jump\t// out\n    tag_347:\n    tag_349:\n      dup1\n      dup3\n      gt\n      iszero\n      tag_350\n      jumpi\n      0x00\n      dup2\n      0x00\n      swap1\n      sstore\n      pop\n      0x01\n      add\n      jump(tag_349)\n    tag_350:\n      pop\n      swap1\n      jump\t// out\n        /* \"#utility.yul\":7:352   */\n    tag_352:\n      0x00\n        /* \"#utility.yul\":110:176   */\n      tag_354\n        /* \"#utility.yul\":126:175   */\n      tag_355\n        /* \"#utility.yul\":168:174   */\n      dup5\n        /* \"#utility.yul\":126:175   */\n      tag_356\n      jump\t// in\n    tag_355:\n        /* \"#utility.yul\":110:176   */\n      tag_357\n      jump\t// in\n    tag_354:\n        /* \"#utility.yul\":101:176   */\n      swap1\n      pop\n        /* \"#utility.yul\":199:205   */\n      dup3\n        /* \"#utility.yul\":192:197   */\n      dup2\n        /* \"#utility.yul\":185:206   */\n      mstore\n        /* \"#utility.yul\":237:241   */\n      0x20\n        /* \"#utility.yul\":230:235   */\n      dup2\n        /* \"#utility.yul\":226:242   */\n      add\n        /* \"#utility.yul\":275:278   */\n      dup5\n        /* \"#utility.yul\":266:272   */\n      dup5\n        /* \"#utility.yul\":261:264   */\n      dup5\n        /* \"#utility.yul\":257:273   */\n      add\n        /* \"#utility.yul\":254:279   */\n      gt\n        /* \"#utility.yul\":251:253   */\n      iszero\n      tag_358\n      jumpi\n        /* \"#utility.yul\":292:293   */\n      0x00\n        /* \"#utility.yul\":289:290   */\n      dup1\n        /* \"#utility.yul\":282:294   */\n      revert\n        /* \"#utility.yul\":251:253   */\n    tag_358:\n        /* \"#utility.yul\":305:346   */\n      tag_359\n        /* \"#utility.yul\":339:345   */\n      dup5\n        /* \"#utility.yul\":334:337   */\n      dup3\n        /* \"#utility.yul\":329:332   */\n      dup6\n        /* \"#utility.yul\":305:346   */\n      tag_360\n      jump\t// in\n    tag_359:\n        /* \"#utility.yul\":91:352   */\n      pop\n      swap4\n      swap3\n      pop\n      pop\n      pop\n      jump\t// out\n        /* \"#utility.yul\":358:497   */\n    tag_361:\n      0x00\n        /* \"#utility.yul\":442:448   */\n      dup2\n        /* \"#utility.yul\":429:449   */\n      calldataload\n        /* \"#utility.yul\":420:449   */\n      swap1\n      pop\n        /* \"#utility.yul\":458:491   */\n      tag_363\n        /* \"#utility.yul\":485:490   */\n      dup2\n        /* \"#utility.yul\":458:491   */\n      tag_364\n      jump\t// in\n    tag_363:\n        /* \"#utility.yul\":410:497   */\n      swap3\n      swap2\n      pop\n      pop\n      jump\t// out\n        /* \"#utility.yul\":503:636   */\n    tag_365:\n      0x00\n        /* \"#utility.yul\":584:590   */\n      dup2\n        /* \"#utility.yul\":571:591   */\n      calldataload\n        /* \"#utility.yul\":562:591   */\n      swap1\n      pop\n        /* \"#utility.yul\":600:630   */\n      tag_367\n        /* \"#utility.yul\":624:629   */\n      dup2\n        /* \"#utility.yul\":600:630   */\n      tag_368\n      jump\t// in\n    tag_367:\n        /* \"#utility.yul\":552:636   */\n      swap3\n      swap2\n      pop\n      pop\n      jump\t// out\n        /* \"#utility.yul\":656:929   */\n    tag_369:\n      0x00\n        /* \"#utility.yul\":761:764   */\n      dup3\n        /* \"#utility.yul\":754:758   */\n      0x1f\n        /* \"#utility.yul\":746:752   */\n      dup4\n        /* \"#utility.yul\":742:759   */\n      add\n        /* \"#utility.yul\":738:765   */\n      slt\n        /* \"#utility.yul\":728:730   */\n      tag_371\n      jumpi\n        /* \"#utility.yul\":779:780   */\n      0x00\n        /* \"#utility.yul\":776:777   */\n      dup1\n        /* \"#utility.yul\":769:781   */\n      revert\n        /* \"#utility.yul\":728:730   */\n    tag_371:\n        /* \"#utility.yul\":819:825   */\n      dup2\n        /* \"#utility.yul\":806:826   */\n      calldataload\n        /* \"#utility.yul\":844:923   */\n      tag_372\n        /* \"#utility.yul\":919:922   */\n      dup5\n        /* \"#utility.yul\":911:917   */\n      dup3\n        /* \"#utility.yul\":904:908   */\n      0x20\n        /* \"#utility.yul\":896:902   */\n      dup7\n        /* \"#utility.yul\":892:909   */\n      add\n        /* \"#utility.yul\":844:923   */\n      tag_352\n      jump\t// in\n    tag_372:\n        /* \"#utility.yul\":835:923   */\n      swap2\n      pop\n        /* \"#utility.yul\":718:929   */\n      pop\n      swap3\n      swap2\n      pop\n      pop\n      jump\t// out\n        /* \"#utility.yul\":935:1074   */\n    tag_373:\n      0x00\n        /* \"#utility.yul\":1019:1025   */\n      dup2\n        /* \"#utility.yul\":1006:1026   */\n      calldataload\n        /* \"#utility.yul\":997:1026   */\n      swap1\n      pop\n        /* \"#utility.yul\":1035:1068   */\n      tag_375\n        /* \"#utility.yul\":1062:1067   */\n      dup2\n        /* \"#utility.yul\":1035:1068   */\n      tag_376\n      jump\t// in\n    tag_375:\n        /* \"#utility.yul\":987:1074   */\n      swap3\n      swap2\n      pop\n      pop\n      jump\t// out\n        /* \"#utility.yul\":1080:1342   */\n    tag_89:\n      0x00\n        /* \"#utility.yul\":1188:1190   */\n      0x20\n        /* \"#utility.yul\":1176:1185   */\n      dup3\n        /* \"#utility.yul\":1167:1174   */\n      dup5\n        /* \"#utility.yul\":1163:1186   */\n      sub\n        /* \"#utility.yul\":1159:1191   */\n      slt\n        /* \"#utility.yul\":1156:1158   */\n      iszero\n      tag_378\n      jumpi\n        /* \"#utility.yul\":1204:1205   */\n      0x00\n        /* \"#utility.yul\":1201:1202   */\n      dup1\n        /* \"#utility.yul\":1194:1206   */\n      revert\n        /* \"#utility.yul\":1156:1158   */\n    tag_378:\n        /* \"#utility.yul\":1247:1248   */\n      0x00\n        /* \"#utility.yul\":1272:1325   */\n      tag_379\n        /* \"#utility.yul\":1317:1324   */\n      dup5\n        /* \"#utility.yul\":1308:1314   */\n      dup3\n        /* \"#utility.yul\":1297:1306   */\n      dup6\n        /* \"#utility.yul\":1293:1315   */\n      add\n        /* \"#utility.yul\":1272:1325   */\n      tag_361\n      jump\t// in\n    tag_379:\n        /* \"#utility.yul\":1262:1325   */\n      swap2\n      pop\n        /* \"#utility.yul\":1218:1335   */\n      pop\n        /* \"#utility.yul\":1146:1342   */\n      swap3\n      swap2\n      pop\n      pop\n      jump\t// out\n        /* \"#utility.yul\":1348:1868   */\n    tag_42:\n      0x00\n      dup1\n        /* \"#utility.yul\":1483:1485   */\n      0x40\n        /* \"#utility.yul\":1471:1480   */\n      dup4\n        /* \"#utility.yul\":1462:1469   */\n      dup6\n        /* \"#utility.yul\":1458:1481   */\n      sub\n        /* \"#utility.yul\":1454:1486   */\n      slt\n        /* \"#utility.yul\":1451:1453   */\n      iszero\n      tag_381\n      jumpi\n        /* \"#utility.yul\":1499:1500   */\n      0x00\n        /* \"#utility.yul\":1496:1497   */\n      dup1\n        /* \"#utility.yul\":1489:1501   */\n      revert\n        /* \"#utility.yul\":1451:1453   */\n    tag_381:\n        /* \"#utility.yul\":1570:1571   */\n      0x00\n        /* \"#utility.yul\":1559:1568   */\n      dup4\n        /* \"#utility.yul\":1555:1572   */\n      add\n        /* \"#utility.yul\":1542:1573   */\n      calldataload\n        /* \"#utility.yul\":1600:1618   */\n      0xffffffffffffffff\n        /* \"#utility.yul\":1592:1598   */\n      dup2\n        /* \"#utility.yul\":1589:1619   */\n      gt\n        /* \"#utility.yul\":1586:1588   */\n      iszero\n      tag_382\n      jumpi\n        /* \"#utility.yul\":1632:1633   */\n      0x00\n        /* \"#utility.yul\":1629:1630   */\n      dup1\n        /* \"#utility.yul\":1622:1634   */\n      revert\n        /* \"#utility.yul\":1586:1588   */\n    tag_382:\n        /* \"#utility.yul\":1660:1723   */\n      tag_383\n        /* \"#utility.yul\":1715:1722   */\n      dup6\n        /* \"#utility.yul\":1706:1712   */\n      dup3\n        /* \"#utility.yul\":1695:1704   */\n      dup7\n        /* \"#utility.yul\":1691:1713   */\n      add\n        /* \"#utility.yul\":1660:1723   */\n      tag_369\n      jump\t// in\n    tag_383:\n        /* \"#utility.yul\":1650:1723   */\n      swap3\n      pop\n        /* \"#utility.yul\":1513:1733   */\n      pop\n        /* \"#utility.yul\":1772:1774   */\n      0x20\n        /* \"#utility.yul\":1798:1851   */\n      tag_384\n        /* \"#utility.yul\":1843:1850   */\n      dup6\n        /* \"#utility.yul\":1834:1840   */\n      dup3\n        /* \"#utility.yul\":1823:1832   */\n      dup7\n        /* \"#utility.yul\":1819:1841   */\n      add\n        /* \"#utility.yul\":1798:1851   */\n      tag_361\n      jump\t// in\n    tag_384:\n        /* \"#utility.yul\":1788:1851   */\n      swap2\n      pop\n        /* \"#utility.yul\":1743:1861   */\n      pop\n        /* \"#utility.yul\":1441:1868   */\n      swap3\n      pop\n      swap3\n      swap1\n      pop\n      jump\t// out\n        /* \"#utility.yul\":1874:2136   */\n    tag_51:\n      0x00\n        /* \"#utility.yul\":1982:1984   */\n      0x20\n        /* \"#utility.yul\":1970:1979   */\n      dup3\n        /* \"#utility.yul\":1961:1968   */\n      dup5\n        /* \"#utility.yul\":1957:1980   */\n      sub\n        /* \"#utility.yul\":1953:1985   */\n      slt\n        /* \"#utility.yul\":1950:1952   */\n      iszero\n      tag_386\n      jumpi\n        /* \"#utility.yul\":1998:1999   */\n      0x00\n        /* \"#utility.yul\":1995:1996   */\n      dup1\n        /* \"#utility.yul\":1988:2000   */\n      revert\n        /* \"#utility.yul\":1950:1952   */\n    tag_386:\n        /* \"#utility.yul\":2041:2042   */\n      0x00\n        /* \"#utility.yul\":2066:2119   */\n      tag_387\n        /* \"#utility.yul\":2111:2118   */\n      dup5\n        /* \"#utility.yul\":2102:2108   */\n      dup3\n        /* \"#utility.yul\":2091:2100   */\n      dup6\n        /* \"#utility.yul\":2087:2109   */\n      add\n        /* \"#utility.yul\":2066:2119   */\n      tag_373\n      jump\t// in\n    tag_387:\n        /* \"#utility.yul\":2056:2119   */\n      swap2\n      pop\n        /* \"#utility.yul\":2012:2129   */\n      pop\n        /* \"#utility.yul\":1940:2136   */\n      swap3\n      swap2\n      pop\n      pop\n      jump\t// out\n        /* \"#utility.yul\":2142:2543   */\n    tag_38:\n      0x00\n      dup1\n        /* \"#utility.yul\":2264:2266   */\n      0x40\n        /* \"#utility.yul\":2252:2261   */\n      dup4\n        /* \"#utility.yul\":2243:2250   */\n      dup6\n        /* \"#utility.yul\":2239:2262   */\n      sub\n        /* \"#utility.yul\":2235:2267   */\n      slt\n        /* \"#utility.yul\":2232:2234   */\n      iszero\n      tag_389\n      jumpi\n        /* \"#utility.yul\":2280:2281   */\n      0x00\n        /* \"#utility.yul\":2277:2278   */\n      dup1\n        /* \"#utility.yul\":2270:2282   */\n      revert\n        /* \"#utility.yul\":2232:2234   */\n    tag_389:\n        /* \"#utility.yul\":2323:2324   */\n      0x00\n        /* \"#utility.yul\":2348:2401   */\n      tag_390\n        /* \"#utility.yul\":2393:2400   */\n      dup6\n        /* \"#utility.yul\":2384:2390   */\n      dup3\n        /* \"#utility.yul\":2373:2382   */\n      dup7\n        /* \"#utility.yul\":2369:2391   */\n      add\n        /* \"#utility.yul\":2348:2401   */\n      tag_373\n      jump\t// in\n    tag_390:\n        /* \"#utility.yul\":2338:2401   */\n      swap3\n      pop\n        /* \"#utility.yul\":2294:2411   */\n      pop\n        /* \"#utility.yul\":2450:2452   */\n      0x20\n        /* \"#utility.yul\":2476:2526   */\n      tag_391\n        /* \"#utility.yul\":2518:2525   */\n      dup6\n        /* \"#utility.yul\":2509:2515   */\n      dup3\n        /* \"#utility.yul\":2498:2507   */\n      dup7\n        /* \"#utility.yul\":2494:2516   */\n      add\n        /* \"#utility.yul\":2476:2526   */\n      tag_365\n      jump\t// in\n    tag_391:\n        /* \"#utility.yul\":2466:2526   */\n      swap2\n      pop\n        /* \"#utility.yul\":2421:2536   */\n      pop\n        /* \"#utility.yul\":2222:2543   */\n      swap3\n      pop\n      swap3\n      swap1\n      pop\n      jump\t// out\n        /* \"#utility.yul\":2549:2728   */\n    tag_392:\n      0x00\n        /* \"#utility.yul\":2639:2685   */\n      tag_394\n        /* \"#utility.yul\":2681:2684   */\n      dup4\n        /* \"#utility.yul\":2673:2679   */\n      dup4\n        /* \"#utility.yul\":2639:2685   */\n      tag_395\n      jump\t// in\n    tag_394:\n        /* \"#utility.yul\":2717:2721   */\n      0x20\n        /* \"#utility.yul\":2712:2715   */\n      dup4\n        /* \"#utility.yul\":2708:2722   */\n      add\n        /* \"#utility.yul\":2694:2722   */\n      swap1\n      pop\n        /* \"#utility.yul\":2629:2728   */\n      swap3\n      swap2\n      pop\n      pop\n      jump\t// out\n        /* \"#utility.yul\":2734:2842   */\n    tag_396:\n        /* \"#utility.yul\":2811:2835   */\n      tag_398\n        /* \"#utility.yul\":2829:2834   */\n      dup2\n        /* \"#utility.yul\":2811:2835   */\n      tag_399\n      jump\t// in\n    tag_398:\n        /* \"#utility.yul\":2806:2809   */\n      dup3\n        /* \"#utility.yul\":2799:2836   */\n      mstore\n        /* \"#utility.yul\":2789:2842   */\n      pop\n      pop\n      jump\t// out\n        /* \"#utility.yul\":2878:3610   */\n    tag_400:\n      0x00\n        /* \"#utility.yul\":3026:3080   */\n      tag_402\n        /* \"#utility.yul\":3074:3079   */\n      dup3\n        /* \"#utility.yul\":3026:3080   */\n      tag_403\n      jump\t// in\n    tag_402:\n        /* \"#utility.yul\":3096:3182   */\n      tag_404\n        /* \"#utility.yul\":3175:3181   */\n      dup2\n        /* \"#utility.yul\":3170:3173   */\n      dup6\n        /* \"#utility.yul\":3096:3182   */\n      tag_405\n      jump\t// in\n    tag_404:\n        /* \"#utility.yul\":3089:3182   */\n      swap4\n      pop\n        /* \"#utility.yul\":3206:3262   */\n      tag_406\n        /* \"#utility.yul\":3256:3261   */\n      dup4\n        /* \"#utility.yul\":3206:3262   */\n      tag_407\n      jump\t// in\n    tag_406:\n        /* \"#utility.yul\":3285:3292   */\n      dup1\n        /* \"#utility.yul\":3316:3317   */\n      0x00\n        /* \"#utility.yul\":3301:3585   */\n    tag_408:\n        /* \"#utility.yul\":3326:3332   */\n      dup4\n        /* \"#utility.yul\":3323:3324   */\n      dup2\n        /* \"#utility.yul\":3320:3333   */\n      lt\n        /* \"#utility.yul\":3301:3585   */\n      iszero\n      tag_410\n      jumpi\n        /* \"#utility.yul\":3402:3408   */\n      dup2\n        /* \"#utility.yul\":3396:3409   */\n      mload\n        /* \"#utility.yul\":3429:3492   */\n      tag_411\n        /* \"#utility.yul\":3488:3491   */\n      dup9\n        /* \"#utility.yul\":3473:3486   */\n      dup3\n        /* \"#utility.yul\":3429:3492   */\n      tag_392\n      jump\t// in\n    tag_411:\n        /* \"#utility.yul\":3422:3492   */\n      swap8\n      pop\n        /* \"#utility.yul\":3515:3575   */\n      tag_412\n        /* \"#utility.yul\":3568:3574   */\n      dup4\n        /* \"#utility.yul\":3515:3575   */\n      tag_413\n      jump\t// in\n    tag_412:\n        /* \"#utility.yul\":3505:3575   */\n      swap3\n      pop\n        /* \"#utility.yul\":3361:3585   */\n      pop\n        /* \"#utility.yul\":3348:3349   */\n      0x01\n        /* \"#utility.yul\":3345:3346   */\n      dup2\n        /* \"#utility.yul\":3341:3350   */\n      add\n        /* \"#utility.yul\":3336:3350   */\n      swap1\n      pop\n        /* \"#utility.yul\":3301:3585   */\n      jump(tag_408)\n    tag_410:\n        /* \"#utility.yul\":3305:3319   */\n      pop\n        /* \"#utility.yul\":3601:3604   */\n      dup6\n        /* \"#utility.yul\":3594:3604   */\n      swap4\n      pop\n        /* \"#utility.yul\":3002:3610   */\n      pop\n      pop\n      pop\n      swap3\n      swap2\n      pop\n      pop\n      jump\t// out\n        /* \"#utility.yul\":3616:3725   */\n    tag_414:\n        /* \"#utility.yul\":3697:3718   */\n      tag_416\n        /* \"#utility.yul\":3712:3717   */\n      dup2\n        /* \"#utility.yul\":3697:3718   */\n      tag_417\n      jump\t// in\n    tag_416:\n        /* \"#utility.yul\":3692:3695   */\n      dup3\n        /* \"#utility.yul\":3685:3719   */\n      mstore\n        /* \"#utility.yul\":3675:3725   */\n      pop\n      pop\n      jump\t// out\n        /* \"#utility.yul\":3731:3868   */\n    tag_418:\n        /* \"#utility.yul\":3816:3861   */\n      tag_420\n        /* \"#utility.yul\":3855:3860   */\n      dup2\n        /* \"#utility.yul\":3816:3861   */\n      tag_421\n      jump\t// in\n    tag_420:\n        /* \"#utility.yul\":3811:3814   */\n      dup3\n        /* \"#utility.yul\":3804:3862   */\n      mstore\n        /* \"#utility.yul\":3794:3868   */\n      pop\n      pop\n      jump\t// out\n        /* \"#utility.yul\":3874:4218   */\n    tag_422:\n      0x00\n        /* \"#utility.yul\":3980:4019   */\n      tag_424\n        /* \"#utility.yul\":4013:4018   */\n      dup3\n        /* \"#utility.yul\":3980:4019   */\n      tag_425\n      jump\t// in\n    tag_424:\n        /* \"#utility.yul\":4035:4096   */\n      tag_426\n        /* \"#utility.yul\":4089:4095   */\n      dup2\n        /* \"#utility.yul\":4084:4087   */\n      dup6\n        /* \"#utility.yul\":4035:4096   */\n      tag_427\n      jump\t// in\n    tag_426:\n        /* \"#utility.yul\":4028:4096   */\n      swap4\n      pop\n        /* \"#utility.yul\":4105:4157   */\n      tag_428\n        /* \"#utility.yul\":4150:4156   */\n      dup2\n        /* \"#utility.yul\":4145:4148   */\n      dup6\n        /* \"#utility.yul\":4138:4142   */\n      0x20\n        /* \"#utility.yul\":4131:4136   */\n      dup7\n        /* \"#utility.yul\":4127:4143   */\n      add\n        /* \"#utility.yul\":4105:4157   */\n      tag_429\n      jump\t// in\n    tag_428:\n        /* \"#utility.yul\":4182:4211   */\n      tag_430\n        /* \"#utility.yul\":4204:4210   */\n      dup2\n        /* \"#utility.yul\":4182:4211   */\n      tag_431\n      jump\t// in\n    tag_430:\n        /* \"#utility.yul\":4177:4180   */\n      dup5\n        /* \"#utility.yul\":4173:4212   */\n      add\n        /* \"#utility.yul\":4166:4212   */\n      swap2\n      pop\n        /* \"#utility.yul\":3956:4218   */\n      pop\n      swap3\n      swap2\n      pop\n      pop\n      jump\t// out\n        /* \"#utility.yul\":4224:4588   */\n    tag_432:\n      0x00\n        /* \"#utility.yul\":4340:4379   */\n      tag_434\n        /* \"#utility.yul\":4373:4378   */\n      dup3\n        /* \"#utility.yul\":4340:4379   */\n      tag_425\n      jump\t// in\n    tag_434:\n        /* \"#utility.yul\":4395:4466   */\n      tag_435\n        /* \"#utility.yul\":4459:4465   */\n      dup2\n        /* \"#utility.yul\":4454:4457   */\n      dup6\n        /* \"#utility.yul\":4395:4466   */\n      tag_436\n      jump\t// in\n    tag_435:\n        /* \"#utility.yul\":4388:4466   */\n      swap4\n      pop\n        /* \"#utility.yul\":4475:4527   */\n      tag_437\n        /* \"#utility.yul\":4520:4526   */\n      dup2\n        /* \"#utility.yul\":4515:4518   */\n      dup6\n        /* \"#utility.yul\":4508:4512   */\n      0x20\n        /* \"#utility.yul\":4501:4506   */\n      dup7\n        /* \"#utility.yul\":4497:4513   */\n      add\n        /* \"#utility.yul\":4475:4527   */\n      tag_429\n      jump\t// in\n    tag_437:\n        /* \"#utility.yul\":4552:4581   */\n      tag_438\n        /* \"#utility.yul\":4574:4580   */\n      dup2\n        /* \"#utility.yul\":4552:4581   */\n      tag_431\n      jump\t// in\n    tag_438:\n        /* \"#utility.yul\":4547:4550   */\n      dup5\n        /* \"#utility.yul\":4543:4582   */\n      add\n        /* \"#utility.yul\":4536:4582   */\n      swap2\n      pop\n        /* \"#utility.yul\":4316:4588   */\n      pop\n      swap3\n      swap2\n      pop\n      pop\n      jump\t// out\n        /* \"#utility.yul\":4594:4960   */\n    tag_439:\n      0x00\n        /* \"#utility.yul\":4757:4824   */\n      tag_441\n        /* \"#utility.yul\":4821:4823   */\n      0x12\n        /* \"#utility.yul\":4816:4819   */\n      dup4\n        /* \"#utility.yul\":4757:4824   */\n      tag_436\n      jump\t// in\n    tag_441:\n        /* \"#utility.yul\":4750:4824   */\n      swap2\n      pop\n        /* \"#utility.yul\":4833:4926   */\n      tag_442\n        /* \"#utility.yul\":4922:4925   */\n      dup3\n        /* \"#utility.yul\":4833:4926   */\n      tag_443\n      jump\t// in\n    tag_442:\n        /* \"#utility.yul\":4951:4953   */\n      0x20\n        /* \"#utility.yul\":4946:4949   */\n      dup3\n        /* \"#utility.yul\":4942:4954   */\n      add\n        /* \"#utility.yul\":4935:4954   */\n      swap1\n      pop\n        /* \"#utility.yul\":4740:4960   */\n      swap2\n      swap1\n      pop\n      jump\t// out\n        /* \"#utility.yul\":4966:5332   */\n    tag_444:\n      0x00\n        /* \"#utility.yul\":5129:5196   */\n      tag_446\n        /* \"#utility.yul\":5193:5195   */\n      0x1a\n        /* \"#utility.yul\":5188:5191   */\n      dup4\n        /* \"#utility.yul\":5129:5196   */\n      tag_436\n      jump\t// in\n    tag_446:\n        /* \"#utility.yul\":5122:5196   */\n      swap2\n      pop\n        /* \"#utility.yul\":5205:5298   */\n      tag_447\n        /* \"#utility.yul\":5294:5297   */\n      dup3\n        /* \"#utility.yul\":5205:5298   */\n      tag_448\n      jump\t// in\n    tag_447:\n        /* \"#utility.yul\":5323:5325   */\n      0x20\n        /* \"#utility.yul\":5318:5321   */\n      dup3\n        /* \"#utility.yul\":5314:5326   */\n      add\n        /* \"#utility.yul\":5307:5326   */\n      swap1\n      pop\n        /* \"#utility.yul\":5112:5332   */\n      swap2\n      swap1\n      pop\n      jump\t// out\n        /* \"#utility.yul\":5338:5704   */\n    tag_449:\n      0x00\n        /* \"#utility.yul\":5501:5568   */\n      tag_451\n        /* \"#utility.yul\":5565:5567   */\n      0x22\n        /* \"#utility.yul\":5560:5563   */\n      dup4\n        /* \"#utility.yul\":5501:5568   */\n      tag_436\n      jump\t// in\n    tag_451:\n        /* \"#utility.yul\":5494:5568   */\n      swap2\n      pop\n        /* \"#utility.yul\":5577:5670   */\n      tag_452\n        /* \"#utility.yul\":5666:5669   */\n      dup3\n        /* \"#utility.yul\":5577:5670   */\n      tag_453\n      jump\t// in\n    tag_452:\n        /* \"#utility.yul\":5695:5697   */\n      0x40\n        /* \"#utility.yul\":5690:5693   */\n      dup3\n        /* \"#utility.yul\":5686:5698   */\n      add\n        /* \"#utility.yul\":5679:5698   */\n      swap1\n      pop\n        /* \"#utility.yul\":5484:5704   */\n      swap2\n      swap1\n      pop\n      jump\t// out\n        /* \"#utility.yul\":5710:6076   */\n    tag_454:\n      0x00\n        /* \"#utility.yul\":5873:5940   */\n      tag_456\n        /* \"#utility.yul\":5937:5939   */\n      0x1e\n        /* \"#utility.yul\":5932:5935   */\n      dup4\n        /* \"#utility.yul\":5873:5940   */\n      tag_436\n      jump\t// in\n    tag_456:\n        /* \"#utility.yul\":5866:5940   */\n      swap2\n      pop\n        /* \"#utility.yul\":5949:6042   */\n      tag_457\n        /* \"#utility.yul\":6038:6041   */\n      dup3\n        /* \"#utility.yul\":5949:6042   */\n      tag_458\n      jump\t// in\n    tag_457:\n        /* \"#utility.yul\":6067:6069   */\n      0x20\n        /* \"#utility.yul\":6062:6065   */\n      dup3\n        /* \"#utility.yul\":6058:6070   */\n      add\n        /* \"#utility.yul\":6051:6070   */\n      swap1\n      pop\n        /* \"#utility.yul\":5856:6076   */\n      swap2\n      swap1\n      pop\n      jump\t// out\n        /* \"#utility.yul\":6082:6448   */\n    tag_459:\n      0x00\n        /* \"#utility.yul\":6245:6312   */\n      tag_461\n        /* \"#utility.yul\":6309:6311   */\n      0x16\n        /* \"#utility.yul\":6304:6307   */\n      dup4\n        /* \"#utility.yul\":6245:6312   */\n      tag_436\n      jump\t// in\n    tag_461:\n        /* \"#utility.yul\":6238:6312   */\n      swap2\n      pop\n        /* \"#utility.yul\":6321:6414   */\n      tag_462\n        /* \"#utility.yul\":6410:6413   */\n      dup3\n        /* \"#utility.yul\":6321:6414   */\n      tag_463\n      jump\t// in\n    tag_462:\n        /* \"#utility.yul\":6439:6441   */\n      0x20\n        /* \"#utility.yul\":6434:6437   */\n      dup3\n        /* \"#utility.yul\":6430:6442   */\n      add\n        /* \"#utility.yul\":6423:6442   */\n      swap1\n      pop\n        /* \"#utility.yul\":6228:6448   */\n      swap2\n      swap1\n      pop\n      jump\t// out\n        /* \"#utility.yul\":6454:6820   */\n    tag_464:\n      0x00\n        /* \"#utility.yul\":6617:6684   */\n      tag_466\n        /* \"#utility.yul\":6681:6683   */\n      0x17\n        /* \"#utility.yul\":6676:6679   */\n      dup4\n        /* \"#utility.yul\":6617:6684   */\n      tag_436\n      jump\t// in\n    tag_466:\n        /* \"#utility.yul\":6610:6684   */\n      swap2\n      pop\n        /* \"#utility.yul\":6693:6786   */\n      tag_467\n        /* \"#utility.yul\":6782:6785   */\n      dup3\n        /* \"#utility.yul\":6693:6786   */\n      tag_468\n      jump\t// in\n    tag_467:\n        /* \"#utility.yul\":6811:6813   */\n      0x20\n        /* \"#utility.yul\":6806:6809   */\n      dup3\n        /* \"#utility.yul\":6802:6814   */\n      add\n        /* \"#utility.yul\":6795:6814   */\n      swap1\n      pop\n        /* \"#utility.yul\":6600:6820   */\n      swap2\n      swap1\n      pop\n      jump\t// out\n        /* \"#utility.yul\":6826:7192   */\n    tag_469:\n      0x00\n        /* \"#utility.yul\":6989:7056   */\n      tag_471\n        /* \"#utility.yul\":7053:7055   */\n      0x18\n        /* \"#utility.yul\":7048:7051   */\n      dup4\n        /* \"#utility.yul\":6989:7056   */\n      tag_436\n      jump\t// in\n    tag_471:\n        /* \"#utility.yul\":6982:7056   */\n      swap2\n      pop\n        /* \"#utility.yul\":7065:7158   */\n      tag_472\n        /* \"#utility.yul\":7154:7157   */\n      dup3\n        /* \"#utility.yul\":7065:7158   */\n      tag_473\n      jump\t// in\n    tag_472:\n        /* \"#utility.yul\":7183:7185   */\n      0x20\n        /* \"#utility.yul\":7178:7181   */\n      dup3\n        /* \"#utility.yul\":7174:7186   */\n      add\n        /* \"#utility.yul\":7167:7186   */\n      swap1\n      pop\n        /* \"#utility.yul\":6972:7192   */\n      swap2\n      swap1\n      pop\n      jump\t// out\n        /* \"#utility.yul\":7198:7564   */\n    tag_474:\n      0x00\n        /* \"#utility.yul\":7361:7428   */\n      tag_476\n        /* \"#utility.yul\":7425:7427   */\n      0x19\n        /* \"#utility.yul\":7420:7423   */\n      dup4\n        /* \"#utility.yul\":7361:7428   */\n      tag_436\n      jump\t// in\n    tag_476:\n        /* \"#utility.yul\":7354:7428   */\n      swap2\n      pop\n        /* \"#utility.yul\":7437:7530   */\n      tag_477\n        /* \"#utility.yul\":7526:7529   */\n      dup3\n        /* \"#utility.yul\":7437:7530   */\n      tag_478\n      jump\t// in\n    tag_477:\n        /* \"#utility.yul\":7555:7557   */\n      0x20\n        /* \"#utility.yul\":7550:7553   */\n      dup3\n        /* \"#utility.yul\":7546:7558   */\n      add\n        /* \"#utility.yul\":7539:7558   */\n      swap1\n      pop\n        /* \"#utility.yul\":7344:7564   */\n      swap2\n      swap1\n      pop\n      jump\t// out\n        /* \"#utility.yul\":7570:7936   */\n    tag_479:\n      0x00\n        /* \"#utility.yul\":7733:7800   */\n      tag_481\n        /* \"#utility.yul\":7797:7799   */\n      0x22\n        /* \"#utility.yul\":7792:7795   */\n      dup4\n        /* \"#utility.yul\":7733:7800   */\n      tag_436\n      jump\t// in\n    tag_481:\n        /* \"#utility.yul\":7726:7800   */\n      swap2\n      pop\n        /* \"#utility.yul\":7809:7902   */\n      tag_482\n        /* \"#utility.yul\":7898:7901   */\n      dup3\n        /* \"#utility.yul\":7809:7902   */\n      tag_483\n      jump\t// in\n    tag_482:\n        /* \"#utility.yul\":7927:7929   */\n      0x40\n        /* \"#utility.yul\":7922:7925   */\n      dup3\n        /* \"#utility.yul\":7918:7930   */\n      add\n        /* \"#utility.yul\":7911:7930   */\n      swap1\n      pop\n        /* \"#utility.yul\":7716:7936   */\n      swap2\n      swap1\n      pop\n      jump\t// out\n        /* \"#utility.yul\":7942:8308   */\n    tag_484:\n      0x00\n        /* \"#utility.yul\":8105:8172   */\n      tag_486\n        /* \"#utility.yul\":8169:8171   */\n      0x19\n        /* \"#utility.yul\":8164:8167   */\n      dup4\n        /* \"#utility.yul\":8105:8172   */\n      tag_436\n      jump\t// in\n    tag_486:\n        /* \"#utility.yul\":8098:8172   */\n      swap2\n      pop\n        /* \"#utility.yul\":8181:8274   */\n      tag_487\n        /* \"#utility.yul\":8270:8273   */\n      dup3\n        /* \"#utility.yul\":8181:8274   */\n      tag_488\n      jump\t// in\n    tag_487:\n        /* \"#utility.yul\":8299:8301   */\n      0x20\n        /* \"#utility.yul\":8294:8297   */\n      dup3\n        /* \"#utility.yul\":8290:8302   */\n      add\n        /* \"#utility.yul\":8283:8302   */\n      swap1\n      pop\n        /* \"#utility.yul\":8088:8308   */\n      swap2\n      swap1\n      pop\n      jump\t// out\n        /* \"#utility.yul\":8314:8680   */\n    tag_489:\n      0x00\n        /* \"#utility.yul\":8477:8544   */\n      tag_491\n        /* \"#utility.yul\":8541:8543   */\n      0x17\n        /* \"#utility.yul\":8536:8539   */\n      dup4\n        /* \"#utility.yul\":8477:8544   */\n      tag_436\n      jump\t// in\n    tag_491:\n        /* \"#utility.yul\":8470:8544   */\n      swap2\n      pop\n        /* \"#utility.yul\":8553:8646   */\n      tag_492\n        /* \"#utility.yul\":8642:8645   */\n      dup3\n        /* \"#utility.yul\":8553:8646   */\n      tag_493\n      jump\t// in\n    tag_492:\n        /* \"#utility.yul\":8671:8673   */\n      0x20\n        /* \"#utility.yul\":8666:8669   */\n      dup3\n        /* \"#utility.yul\":8662:8674   */\n      add\n        /* \"#utility.yul\":8655:8674   */\n      swap1\n      pop\n        /* \"#utility.yul\":8460:8680   */\n      swap2\n      swap1\n      pop\n      jump\t// out\n        /* \"#utility.yul\":8686:9052   */\n    tag_494:\n      0x00\n        /* \"#utility.yul\":8849:8916   */\n      tag_496\n        /* \"#utility.yul\":8913:8915   */\n      0x1f\n        /* \"#utility.yul\":8908:8911   */\n      dup4\n        /* \"#utility.yul\":8849:8916   */\n      tag_436\n      jump\t// in\n    tag_496:\n        /* \"#utility.yul\":8842:8916   */\n      swap2\n      pop\n        /* \"#utility.yul\":8925:9018   */\n      tag_497\n        /* \"#utility.yul\":9014:9017   */\n      dup3\n        /* \"#utility.yul\":8925:9018   */\n      tag_498\n      jump\t// in\n    tag_497:\n        /* \"#utility.yul\":9043:9045   */\n      0x20\n        /* \"#utility.yul\":9038:9041   */\n      dup3\n        /* \"#utility.yul\":9034:9046   */\n      add\n        /* \"#utility.yul\":9027:9046   */\n      swap1\n      pop\n        /* \"#utility.yul\":8832:9052   */\n      swap2\n      swap1\n      pop\n      jump\t// out\n        /* \"#utility.yul\":9058:9424   */\n    tag_499:\n      0x00\n        /* \"#utility.yul\":9221:9288   */\n      tag_501\n        /* \"#utility.yul\":9285:9287   */\n      0x16\n        /* \"#utility.yul\":9280:9283   */\n      dup4\n        /* \"#utility.yul\":9221:9288   */\n      tag_436\n      jump\t// in\n    tag_501:\n        /* \"#utility.yul\":9214:9288   */\n      swap2\n      pop\n        /* \"#utility.yul\":9297:9390   */\n      tag_502\n        /* \"#utility.yul\":9386:9389   */\n      dup3\n        /* \"#utility.yul\":9297:9390   */\n      tag_503\n      jump\t// in\n    tag_502:\n        /* \"#utility.yul\":9415:9417   */\n      0x20\n        /* \"#utility.yul\":9410:9413   */\n      dup3\n        /* \"#utility.yul\":9406:9418   */\n      add\n        /* \"#utility.yul\":9399:9418   */\n      swap1\n      pop\n        /* \"#utility.yul\":9204:9424   */\n      swap2\n      swap1\n      pop\n      jump\t// out\n        /* \"#utility.yul\":9430:9796   */\n    tag_504:\n      0x00\n        /* \"#utility.yul\":9593:9660   */\n      tag_506\n        /* \"#utility.yul\":9657:9659   */\n      0x24\n        /* \"#utility.yul\":9652:9655   */\n      dup4\n        /* \"#utility.yul\":9593:9660   */\n      tag_436\n      jump\t// in\n    tag_506:\n        /* \"#utility.yul\":9586:9660   */\n      swap2\n      pop\n        /* \"#utility.yul\":9669:9762   */\n      tag_507\n        /* \"#utility.yul\":9758:9761   */\n      dup3\n        /* \"#utility.yul\":9669:9762   */\n      tag_508\n      jump\t// in\n    tag_507:\n        /* \"#utility.yul\":9787:9789   */\n      0x40\n        /* \"#utility.yul\":9782:9785   */\n      dup3\n        /* \"#utility.yul\":9778:9790   */\n      add\n        /* \"#utility.yul\":9771:9790   */\n      swap1\n      pop\n        /* \"#utility.yul\":9576:9796   */\n      swap2\n      swap1\n      pop\n      jump\t// out\n        /* \"#utility.yul\":9802:10168   */\n    tag_509:\n      0x00\n        /* \"#utility.yul\":9965:10032   */\n      tag_511\n        /* \"#utility.yul\":10029:10031   */\n      0x0f\n        /* \"#utility.yul\":10024:10027   */\n      dup4\n        /* \"#utility.yul\":9965:10032   */\n      tag_436\n      jump\t// in\n    tag_511:\n        /* \"#utility.yul\":9958:10032   */\n      swap2\n      pop\n        /* \"#utility.yul\":10041:10134   */\n      tag_512\n        /* \"#utility.yul\":10130:10133   */\n      dup3\n        /* \"#utility.yul\":10041:10134   */\n      tag_513\n      jump\t// in\n    tag_512:\n        /* \"#utility.yul\":10159:10161   */\n      0x20\n        /* \"#utility.yul\":10154:10157   */\n      dup3\n        /* \"#utility.yul\":10150:10162   */\n      add\n        /* \"#utility.yul\":10143:10162   */\n      swap1\n      pop\n        /* \"#utility.yul\":9948:10168   */\n      swap2\n      swap1\n      pop\n      jump\t// out\n        /* \"#utility.yul\":10174:10540   */\n    tag_514:\n      0x00\n        /* \"#utility.yul\":10337:10404   */\n      tag_516\n        /* \"#utility.yul\":10401:10403   */\n      0x24\n        /* \"#utility.yul\":10396:10399   */\n      dup4\n        /* \"#utility.yul\":10337:10404   */\n      tag_436\n      jump\t// in\n    tag_516:\n        /* \"#utility.yul\":10330:10404   */\n      swap2\n      pop\n        /* \"#utility.yul\":10413:10506   */\n      tag_517\n        /* \"#utility.yul\":10502:10505   */\n      dup3\n        /* \"#utility.yul\":10413:10506   */\n      tag_518\n      jump\t// in\n    tag_517:\n        /* \"#utility.yul\":10531:10533   */\n      0x40\n        /* \"#utility.yul\":10526:10529   */\n      dup3\n        /* \"#utility.yul\":10522:10534   */\n      add\n        /* \"#utility.yul\":10515:10534   */\n      swap1\n      pop\n        /* \"#utility.yul\":10320:10540   */\n      swap2\n      swap1\n      pop\n      jump\t// out\n        /* \"#utility.yul\":10546:10912   */\n    tag_519:\n      0x00\n        /* \"#utility.yul\":10709:10776   */\n      tag_521\n        /* \"#utility.yul\":10773:10775   */\n      0x21\n        /* \"#utility.yul\":10768:10771   */\n      dup4\n        /* \"#utility.yul\":10709:10776   */\n      tag_436\n      jump\t// in\n    tag_521:\n        /* \"#utility.yul\":10702:10776   */\n      swap2\n      pop\n        /* \"#utility.yul\":10785:10878   */\n      tag_522\n        /* \"#utility.yul\":10874:10877   */\n      dup3\n        /* \"#utility.yul\":10785:10878   */\n      tag_523\n      jump\t// in\n    tag_522:\n        /* \"#utility.yul\":10903:10905   */\n      0x40\n        /* \"#utility.yul\":10898:10901   */\n      dup3\n        /* \"#utility.yul\":10894:10906   */\n      add\n        /* \"#utility.yul\":10887:10906   */\n      swap1\n      pop\n        /* \"#utility.yul\":10692:10912   */\n      swap2\n      swap1\n      pop\n      jump\t// out\n        /* \"#utility.yul\":10918:11284   */\n    tag_524:\n      0x00\n        /* \"#utility.yul\":11081:11148   */\n      tag_526\n        /* \"#utility.yul\":11145:11147   */\n      0x2a\n        /* \"#utility.yul\":11140:11143   */\n      dup4\n        /* \"#utility.yul\":11081:11148   */\n      tag_436\n      jump\t// in\n    tag_526:\n        /* \"#utility.yul\":11074:11148   */\n      swap2\n      pop\n        /* \"#utility.yul\":11157:11250   */\n      tag_527\n        /* \"#utility.yul\":11246:11249   */\n      dup3\n        /* \"#utility.yul\":11157:11250   */\n      tag_528\n      jump\t// in\n    tag_527:\n        /* \"#utility.yul\":11275:11277   */\n      0x40\n        /* \"#utility.yul\":11270:11273   */\n      dup3\n        /* \"#utility.yul\":11266:11278   */\n      add\n        /* \"#utility.yul\":11259:11278   */\n      swap1\n      pop\n        /* \"#utility.yul\":11064:11284   */\n      swap2\n      swap1\n      pop\n      jump\t// out\n        /* \"#utility.yul\":11290:11656   */\n    tag_529:\n      0x00\n        /* \"#utility.yul\":11453:11520   */\n      tag_531\n        /* \"#utility.yul\":11517:11519   */\n      0x1e\n        /* \"#utility.yul\":11512:11515   */\n      dup4\n        /* \"#utility.yul\":11453:11520   */\n      tag_436\n      jump\t// in\n    tag_531:\n        /* \"#utility.yul\":11446:11520   */\n      swap2\n      pop\n        /* \"#utility.yul\":11529:11622   */\n      tag_532\n        /* \"#utility.yul\":11618:11621   */\n      dup3\n        /* \"#utility.yul\":11529:11622   */\n      tag_533\n      jump\t// in\n    tag_532:\n        /* \"#utility.yul\":11647:11649   */\n      0x20\n        /* \"#utility.yul\":11642:11645   */\n      dup3\n        /* \"#utility.yul\":11638:11650   */\n      add\n        /* \"#utility.yul\":11631:11650   */\n      swap1\n      pop\n        /* \"#utility.yul\":11436:11656   */\n      swap2\n      swap1\n      pop\n      jump\t// out\n        /* \"#utility.yul\":11662:12028   */\n    tag_534:\n      0x00\n        /* \"#utility.yul\":11825:11892   */\n      tag_536\n        /* \"#utility.yul\":11889:11891   */\n      0x19\n        /* \"#utility.yul\":11884:11887   */\n      dup4\n        /* \"#utility.yul\":11825:11892   */\n      tag_436\n      jump\t// in\n    tag_536:\n        /* \"#utility.yul\":11818:11892   */\n      swap2\n      pop\n        /* \"#utility.yul\":11901:11994   */\n      tag_537\n        /* \"#utility.yul\":11990:11993   */\n      dup3\n        /* \"#utility.yul\":11901:11994   */\n      tag_538\n      jump\t// in\n    tag_537:\n        /* \"#utility.yul\":12019:12021   */\n      0x20\n        /* \"#utility.yul\":12014:12017   */\n      dup3\n        /* \"#utility.yul\":12010:12022   */\n      add\n        /* \"#utility.yul\":12003:12022   */\n      swap1\n      pop\n        /* \"#utility.yul\":11808:12028   */\n      swap2\n      swap1\n      pop\n      jump\t// out\n        /* \"#utility.yul\":12082:13582   */\n    tag_539:\n      0x00\n        /* \"#utility.yul\":12229:12233   */\n      0xe0\n        /* \"#utility.yul\":12224:12227   */\n      dup4\n        /* \"#utility.yul\":12220:12234   */\n      add\n        /* \"#utility.yul\":12320:12324   */\n      0x00\n        /* \"#utility.yul\":12313:12318   */\n      dup4\n        /* \"#utility.yul\":12309:12325   */\n      add\n        /* \"#utility.yul\":12303:12326   */\n      mload\n        /* \"#utility.yul\":12339:12402   */\n      tag_541\n        /* \"#utility.yul\":12396:12400   */\n      0x00\n        /* \"#utility.yul\":12391:12394   */\n      dup7\n        /* \"#utility.yul\":12387:12401   */\n      add\n        /* \"#utility.yul\":12373:12385   */\n      dup3\n        /* \"#utility.yul\":12339:12402   */\n      tag_395\n      jump\t// in\n    tag_541:\n        /* \"#utility.yul\":12244:12412   */\n      pop\n        /* \"#utility.yul\":12498:12502   */\n      0x20\n        /* \"#utility.yul\":12491:12496   */\n      dup4\n        /* \"#utility.yul\":12487:12503   */\n      add\n        /* \"#utility.yul\":12481:12504   */\n      mload\n        /* \"#utility.yul\":12517:12580   */\n      tag_542\n        /* \"#utility.yul\":12574:12578   */\n      0x20\n        /* \"#utility.yul\":12569:12572   */\n      dup7\n        /* \"#utility.yul\":12565:12579   */\n      add\n        /* \"#utility.yul\":12551:12563   */\n      dup3\n        /* \"#utility.yul\":12517:12580   */\n      tag_396\n      jump\t// in\n    tag_542:\n        /* \"#utility.yul\":12422:12590   */\n      pop\n        /* \"#utility.yul\":12676:12680   */\n      0x40\n        /* \"#utility.yul\":12669:12674   */\n      dup4\n        /* \"#utility.yul\":12665:12681   */\n      add\n        /* \"#utility.yul\":12659:12682   */\n      mload\n        /* \"#utility.yul\":12695:12758   */\n      tag_543\n        /* \"#utility.yul\":12752:12756   */\n      0x40\n        /* \"#utility.yul\":12747:12750   */\n      dup7\n        /* \"#utility.yul\":12743:12757   */\n      add\n        /* \"#utility.yul\":12729:12741   */\n      dup3\n        /* \"#utility.yul\":12695:12758   */\n      tag_396\n      jump\t// in\n    tag_543:\n        /* \"#utility.yul\":12600:12768   */\n      pop\n        /* \"#utility.yul\":12853:12857   */\n      0x60\n        /* \"#utility.yul\":12846:12851   */\n      dup4\n        /* \"#utility.yul\":12842:12858   */\n      add\n        /* \"#utility.yul\":12836:12859   */\n      mload\n        /* \"#utility.yul\":12906:12909   */\n      dup5\n        /* \"#utility.yul\":12900:12904   */\n      dup3\n        /* \"#utility.yul\":12896:12910   */\n      sub\n        /* \"#utility.yul\":12889:12893   */\n      0x60\n        /* \"#utility.yul\":12884:12887   */\n      dup7\n        /* \"#utility.yul\":12880:12894   */\n      add\n        /* \"#utility.yul\":12873:12911   */\n      mstore\n        /* \"#utility.yul\":12932:13005   */\n      tag_544\n        /* \"#utility.yul\":13000:13004   */\n      dup3\n        /* \"#utility.yul\":12986:12998   */\n      dup3\n        /* \"#utility.yul\":12932:13005   */\n      tag_422\n      jump\t// in\n    tag_544:\n        /* \"#utility.yul\":12924:13005   */\n      swap2\n      pop\n        /* \"#utility.yul\":12778:13016   */\n      pop\n        /* \"#utility.yul\":13100:13104   */\n      0x80\n        /* \"#utility.yul\":13093:13098   */\n      dup4\n        /* \"#utility.yul\":13089:13105   */\n      add\n        /* \"#utility.yul\":13083:13106   */\n      mload\n        /* \"#utility.yul\":13119:13182   */\n      tag_545\n        /* \"#utility.yul\":13176:13180   */\n      0x80\n        /* \"#utility.yul\":13171:13174   */\n      dup7\n        /* \"#utility.yul\":13167:13181   */\n      add\n        /* \"#utility.yul\":13153:13165   */\n      dup3\n        /* \"#utility.yul\":13119:13182   */\n      tag_395\n      jump\t// in\n    tag_545:\n        /* \"#utility.yul\":13026:13192   */\n      pop\n        /* \"#utility.yul\":13276:13280   */\n      0xa0\n        /* \"#utility.yul\":13269:13274   */\n      dup4\n        /* \"#utility.yul\":13265:13281   */\n      add\n        /* \"#utility.yul\":13259:13282   */\n      mload\n        /* \"#utility.yul\":13295:13366   */\n      tag_546\n        /* \"#utility.yul\":13360:13364   */\n      0xa0\n        /* \"#utility.yul\":13355:13358   */\n      dup7\n        /* \"#utility.yul\":13351:13365   */\n      add\n        /* \"#utility.yul\":13337:13349   */\n      dup3\n        /* \"#utility.yul\":13295:13366   */\n      tag_418\n      jump\t// in\n    tag_546:\n        /* \"#utility.yul\":13202:13376   */\n      pop\n        /* \"#utility.yul\":13463:13467   */\n      0xc0\n        /* \"#utility.yul\":13456:13461   */\n      dup4\n        /* \"#utility.yul\":13452:13468   */\n      add\n        /* \"#utility.yul\":13446:13469   */\n      mload\n        /* \"#utility.yul\":13482:13545   */\n      tag_547\n        /* \"#utility.yul\":13539:13543   */\n      0xc0\n        /* \"#utility.yul\":13534:13537   */\n      dup7\n        /* \"#utility.yul\":13530:13544   */\n      add\n        /* \"#utility.yul\":13516:13528   */\n      dup3\n        /* \"#utility.yul\":13482:13545   */\n      tag_395\n      jump\t// in\n    tag_547:\n        /* \"#utility.yul\":13386:13555   */\n      pop\n        /* \"#utility.yul\":13572:13576   */\n      dup1\n        /* \"#utility.yul\":13565:13576   */\n      swap2\n      pop\n        /* \"#utility.yul\":12198:13582   */\n      pop\n      swap3\n      swap2\n      pop\n      pop\n      jump\t// out\n        /* \"#utility.yul\":13588:13696   */\n    tag_395:\n        /* \"#utility.yul\":13665:13689   */\n      tag_549\n        /* \"#utility.yul\":13683:13688   */\n      dup2\n        /* \"#utility.yul\":13665:13689   */\n      tag_550\n      jump\t// in\n    tag_549:\n        /* \"#utility.yul\":13660:13663   */\n      dup3\n        /* \"#utility.yul\":13653:13690   */\n      mstore\n        /* \"#utility.yul\":13643:13696   */\n      pop\n      pop\n      jump\t// out\n        /* \"#utility.yul\":13702:13820   */\n    tag_551:\n        /* \"#utility.yul\":13789:13813   */\n      tag_553\n        /* \"#utility.yul\":13807:13812   */\n      dup2\n        /* \"#utility.yul\":13789:13813   */\n      tag_550\n      jump\t// in\n    tag_553:\n        /* \"#utility.yul\":13784:13787   */\n      dup3\n        /* \"#utility.yul\":13777:13814   */\n      mstore\n        /* \"#utility.yul\":13767:13820   */\n      pop\n      pop\n      jump\t// out\n        /* \"#utility.yul\":13826:14199   */\n    tag_26:\n      0x00\n        /* \"#utility.yul\":14007:14009   */\n      0x20\n        /* \"#utility.yul\":13996:14005   */\n      dup3\n        /* \"#utility.yul\":13992:14010   */\n      add\n        /* \"#utility.yul\":13984:14010   */\n      swap1\n      pop\n        /* \"#utility.yul\":14056:14065   */\n      dup2\n        /* \"#utility.yul\":14050:14054   */\n      dup2\n        /* \"#utility.yul\":14046:14066   */\n      sub\n        /* \"#utility.yul\":14042:14043   */\n      0x00\n        /* \"#utility.yul\":14031:14040   */\n      dup4\n        /* \"#utility.yul\":14027:14044   */\n      add\n        /* \"#utility.yul\":14020:14067   */\n      mstore\n        /* \"#utility.yul\":14084:14192   */\n      tag_555\n        /* \"#utility.yul\":14187:14191   */\n      dup2\n        /* \"#utility.yul\":14178:14184   */\n      dup5\n        /* \"#utility.yul\":14084:14192   */\n      tag_400\n      jump\t// in\n    tag_555:\n        /* \"#utility.yul\":14076:14192   */\n      swap1\n      pop\n        /* \"#utility.yul\":13974:14199   */\n      swap3\n      swap2\n      pop\n      pop\n      jump\t// out\n        /* \"#utility.yul\":14205:14415   */\n    tag_152:\n      0x00\n        /* \"#utility.yul\":14330:14332   */\n      0x20\n        /* \"#utility.yul\":14319:14328   */\n      dup3\n        /* \"#utility.yul\":14315:14333   */\n      add\n        /* \"#utility.yul\":14307:14333   */\n      swap1\n      pop\n        /* \"#utility.yul\":14343:14408   */\n      tag_557\n        /* \"#utility.yul\":14405:14406   */\n      0x00\n        /* \"#utility.yul\":14394:14403   */\n      dup4\n        /* \"#utility.yul\":14390:14407   */\n      add\n        /* \"#utility.yul\":14381:14387   */\n      dup5\n        /* \"#utility.yul\":14343:14408   */\n      tag_414\n      jump\t// in\n    tag_557:\n        /* \"#utility.yul\":14297:14415   */\n      swap3\n      swap2\n      pop\n      pop\n      jump\t// out\n        /* \"#utility.yul\":14421:14844   */\n    tag_178:\n      0x00\n        /* \"#utility.yul\":14600:14602   */\n      0x40\n        /* \"#utility.yul\":14589:14598   */\n      dup3\n        /* \"#utility.yul\":14585:14603   */\n      add\n        /* \"#utility.yul\":14577:14603   */\n      swap1\n      pop\n        /* \"#utility.yul\":14649:14658   */\n      dup2\n        /* \"#utility.yul\":14643:14647   */\n      dup2\n        /* \"#utility.yul\":14639:14659   */\n      sub\n        /* \"#utility.yul\":14635:14636   */\n      0x00\n        /* \"#utility.yul\":14624:14633   */\n      dup4\n        /* \"#utility.yul\":14620:14637   */\n      add\n        /* \"#utility.yul\":14613:14660   */\n      mstore\n        /* \"#utility.yul\":14677:14755   */\n      tag_559\n        /* \"#utility.yul\":14750:14754   */\n      dup2\n        /* \"#utility.yul\":14741:14747   */\n      dup6\n        /* \"#utility.yul\":14677:14755   */\n      tag_432\n      jump\t// in\n    tag_559:\n        /* \"#utility.yul\":14669:14755   */\n      swap1\n      pop\n        /* \"#utility.yul\":14765:14837   */\n      tag_560\n        /* \"#utility.yul\":14833:14835   */\n      0x20\n        /* \"#utility.yul\":14822:14831   */\n      dup4\n        /* \"#utility.yul\":14818:14836   */\n      add\n        /* \"#utility.yul\":14809:14815   */\n      dup5\n        /* \"#utility.yul\":14765:14837   */\n      tag_551\n      jump\t// in\n    tag_560:\n        /* \"#utility.yul\":14567:14844   */\n      swap4\n      swap3\n      pop\n      pop\n      pop\n      jump\t// out\n        /* \"#utility.yul\":14850:15269   */\n    tag_327:\n      0x00\n        /* \"#utility.yul\":15054:15056   */\n      0x20\n        /* \"#utility.yul\":15043:15052   */\n      dup3\n        /* \"#utility.yul\":15039:15057   */\n      add\n        /* \"#utility.yul\":15031:15057   */\n      swap1\n      pop\n        /* \"#utility.yul\":15103:15112   */\n      dup2\n        /* \"#utility.yul\":15097:15101   */\n      dup2\n        /* \"#utility.yul\":15093:15113   */\n      sub\n        /* \"#utility.yul\":15089:15090   */\n      0x00\n        /* \"#utility.yul\":15078:15087   */\n      dup4\n        /* \"#utility.yul\":15074:15091   */\n      add\n        /* \"#utility.yul\":15067:15114   */\n      mstore\n        /* \"#utility.yul\":15131:15262   */\n      tag_562\n        /* \"#utility.yul\":15257:15261   */\n      dup2\n        /* \"#utility.yul\":15131:15262   */\n      tag_439\n      jump\t// in\n    tag_562:\n        /* \"#utility.yul\":15123:15262   */\n      swap1\n      pop\n        /* \"#utility.yul\":15021:15269   */\n      swap2\n      swap1\n      pop\n      jump\t// out\n        /* \"#utility.yul\":15275:15694   */\n    tag_269:\n      0x00\n        /* \"#utility.yul\":15479:15481   */\n      0x20\n        /* \"#utility.yul\":15468:15477   */\n      dup3\n        /* \"#utility.yul\":15464:15482   */\n      add\n        /* \"#utility.yul\":15456:15482   */\n      swap1\n      pop\n        /* \"#utility.yul\":15528:15537   */\n      dup2\n        /* \"#utility.yul\":15522:15526   */\n      dup2\n        /* \"#utility.yul\":15518:15538   */\n      sub\n        /* \"#utility.yul\":15514:15515   */\n      0x00\n        /* \"#utility.yul\":15503:15512   */\n      dup4\n        /* \"#utility.yul\":15499:15516   */\n      add\n        /* \"#utility.yul\":15492:15539   */\n      mstore\n        /* \"#utility.yul\":15556:15687   */\n      tag_564\n        /* \"#utility.yul\":15682:15686   */\n      dup2\n        /* \"#utility.yul\":15556:15687   */\n      tag_444\n      jump\t// in\n    tag_564:\n        /* \"#utility.yul\":15548:15687   */\n      swap1\n      pop\n        /* \"#utility.yul\":15446:15694   */\n      swap2\n      swap1\n      pop\n      jump\t// out\n        /* \"#utility.yul\":15700:16119   */\n    tag_159:\n      0x00\n        /* \"#utility.yul\":15904:15906   */\n      0x20\n        /* \"#utility.yul\":15893:15902   */\n      dup3\n        /* \"#utility.yul\":15889:15907   */\n      add\n        /* \"#utility.yul\":15881:15907   */\n      swap1\n      pop\n        /* \"#utility.yul\":15953:15962   */\n      dup2\n        /* \"#utility.yul\":15947:15951   */\n      dup2\n        /* \"#utility.yul\":15943:15963   */\n      sub\n        /* \"#utility.yul\":15939:15940   */\n      0x00\n        /* \"#utility.yul\":15928:15937   */\n      dup4\n        /* \"#utility.yul\":15924:15941   */\n      add\n        /* \"#utility.yul\":15917:15964   */\n      mstore\n        /* \"#utility.yul\":15981:16112   */\n      tag_566\n        /* \"#utility.yul\":16107:16111   */\n      dup2\n        /* \"#utility.yul\":15981:16112   */\n      tag_449\n      jump\t// in\n    tag_566:\n        /* \"#utility.yul\":15973:16112   */\n      swap1\n      pop\n        /* \"#utility.yul\":15871:16119   */\n      swap2\n      swap1\n      pop\n      jump\t// out\n        /* \"#utility.yul\":16125:16544   */\n    tag_251:\n      0x00\n        /* \"#utility.yul\":16329:16331   */\n      0x20\n        /* \"#utility.yul\":16318:16327   */\n      dup3\n        /* \"#utility.yul\":16314:16332   */\n      add\n        /* \"#utility.yul\":16306:16332   */\n      swap1\n      pop\n        /* \"#utility.yul\":16378:16387   */\n      dup2\n        /* \"#utility.yul\":16372:16376   */\n      dup2\n        /* \"#utility.yul\":16368:16388   */\n      sub\n        /* \"#utility.yul\":16364:16365   */\n      0x00\n        /* \"#utility.yul\":16353:16362   */\n      dup4\n        /* \"#utility.yul\":16349:16366   */\n      add\n        /* \"#utility.yul\":16342:16389   */\n      mstore\n        /* \"#utility.yul\":16406:16537   */\n      tag_568\n        /* \"#utility.yul\":16532:16536   */\n      dup2\n        /* \"#utility.yul\":16406:16537   */\n      tag_454\n      jump\t// in\n    tag_568:\n        /* \"#utility.yul\":16398:16537   */\n      swap1\n      pop\n        /* \"#utility.yul\":16296:16544   */\n      swap2\n      swap1\n      pop\n      jump\t// out\n        /* \"#utility.yul\":16550:16969   */\n    tag_135:\n      0x00\n        /* \"#utility.yul\":16754:16756   */\n      0x20\n        /* \"#utility.yul\":16743:16752   */\n      dup3\n        /* \"#utility.yul\":16739:16757   */\n      add\n        /* \"#utility.yul\":16731:16757   */\n      swap1\n      pop\n        /* \"#utility.yul\":16803:16812   */\n      dup2\n        /* \"#utility.yul\":16797:16801   */\n      dup2\n        /* \"#utility.yul\":16793:16813   */\n      sub\n        /* \"#utility.yul\":16789:16790   */\n      0x00\n        /* \"#utility.yul\":16778:16787   */\n      dup4\n        /* \"#utility.yul\":16774:16791   */\n      add\n        /* \"#utility.yul\":16767:16814   */\n      mstore\n        /* \"#utility.yul\":16831:16962   */\n      tag_570\n        /* \"#utility.yul\":16957:16961   */\n      dup2\n        /* \"#utility.yul\":16831:16962   */\n      tag_459\n      jump\t// in\n    tag_570:\n        /* \"#utility.yul\":16823:16962   */\n      swap1\n      pop\n        /* \"#utility.yul\":16721:16969   */\n      swap2\n      swap1\n      pop\n      jump\t// out\n        /* \"#utility.yul\":16975:17394   */\n    tag_279:\n      0x00\n        /* \"#utility.yul\":17179:17181   */\n      0x20\n        /* \"#utility.yul\":17168:17177   */\n      dup3\n        /* \"#utility.yul\":17164:17182   */\n      add\n        /* \"#utility.yul\":17156:17182   */\n      swap1\n      pop\n        /* \"#utility.yul\":17228:17237   */\n      dup2\n        /* \"#utility.yul\":17222:17226   */\n      dup2\n        /* \"#utility.yul\":17218:17238   */\n      sub\n        /* \"#utility.yul\":17214:17215   */\n      0x00\n        /* \"#utility.yul\":17203:17212   */\n      dup4\n        /* \"#utility.yul\":17199:17216   */\n      add\n        /* \"#utility.yul\":17192:17239   */\n      mstore\n        /* \"#utility.yul\":17256:17387   */\n      tag_572\n        /* \"#utility.yul\":17382:17386   */\n      dup2\n        /* \"#utility.yul\":17256:17387   */\n      tag_464\n      jump\t// in\n    tag_572:\n        /* \"#utility.yul\":17248:17387   */\n      swap1\n      pop\n        /* \"#utility.yul\":17146:17394   */\n      swap2\n      swap1\n      pop\n      jump\t// out\n        /* \"#utility.yul\":17400:17819   */\n    tag_129:\n      0x00\n        /* \"#utility.yul\":17604:17606   */\n      0x20\n        /* \"#utility.yul\":17593:17602   */\n      dup3\n        /* \"#utility.yul\":17589:17607   */\n      add\n        /* \"#utility.yul\":17581:17607   */\n      swap1\n      pop\n        /* \"#utility.yul\":17653:17662   */\n      dup2\n        /* \"#utility.yul\":17647:17651   */\n      dup2\n        /* \"#utility.yul\":17643:17663   */\n      sub\n        /* \"#utility.yul\":17639:17640   */\n      0x00\n        /* \"#utility.yul\":17628:17637   */\n      dup4\n        /* \"#utility.yul\":17624:17641   */\n      add\n        /* \"#utility.yul\":17617:17664   */\n      mstore\n        /* \"#utility.yul\":17681:17812   */\n      tag_574\n        /* \"#utility.yul\":17807:17811   */\n      dup2\n        /* \"#utility.yul\":17681:17812   */\n      tag_469\n      jump\t// in\n    tag_574:\n        /* \"#utility.yul\":17673:17812   */\n      swap1\n      pop\n        /* \"#utility.yul\":17571:17819   */\n      swap2\n      swap1\n      pop\n      jump\t// out\n        /* \"#utility.yul\":17825:18244   */\n    tag_261:\n      0x00\n        /* \"#utility.yul\":18029:18031   */\n      0x20\n        /* \"#utility.yul\":18018:18027   */\n      dup3\n        /* \"#utility.yul\":18014:18032   */\n      add\n        /* \"#utility.yul\":18006:18032   */\n      swap1\n      pop\n        /* \"#utility.yul\":18078:18087   */\n      dup2\n        /* \"#utility.yul\":18072:18076   */\n      dup2\n        /* \"#utility.yul\":18068:18088   */\n      sub\n        /* \"#utility.yul\":18064:18065   */\n      0x00\n        /* \"#utility.yul\":18053:18062   */\n      dup4\n        /* \"#utility.yul\":18049:18066   */\n      add\n        /* \"#utility.yul\":18042:18089   */\n      mstore\n        /* \"#utility.yul\":18106:18237   */\n      tag_576\n        /* \"#utility.yul\":18232:18236   */\n      dup2\n        /* \"#utility.yul\":18106:18237   */\n      tag_474\n      jump\t// in\n    tag_576:\n        /* \"#utility.yul\":18098:18237   */\n      swap1\n      pop\n        /* \"#utility.yul\":17996:18244   */\n      swap2\n      swap1\n      pop\n      jump\t// out\n        /* \"#utility.yul\":18250:18669   */\n    tag_193:\n      0x00\n        /* \"#utility.yul\":18454:18456   */\n      0x20\n        /* \"#utility.yul\":18443:18452   */\n      dup3\n        /* \"#utility.yul\":18439:18457   */\n      add\n        /* \"#utility.yul\":18431:18457   */\n      swap1\n      pop\n        /* \"#utility.yul\":18503:18512   */\n      dup2\n        /* \"#utility.yul\":18497:18501   */\n      dup2\n        /* \"#utility.yul\":18493:18513   */\n      sub\n        /* \"#utility.yul\":18489:18490   */\n      0x00\n        /* \"#utility.yul\":18478:18487   */\n      dup4\n        /* \"#utility.yul\":18474:18491   */\n      add\n        /* \"#utility.yul\":18467:18514   */\n      mstore\n        /* \"#utility.yul\":18531:18662   */\n      tag_578\n        /* \"#utility.yul\":18657:18661   */\n      dup2\n        /* \"#utility.yul\":18531:18662   */\n      tag_479\n      jump\t// in\n    tag_578:\n        /* \"#utility.yul\":18523:18662   */\n      swap1\n      pop\n        /* \"#utility.yul\":18421:18669   */\n      swap2\n      swap1\n      pop\n      jump\t// out\n        /* \"#utility.yul\":18675:19094   */\n    tag_225:\n      0x00\n        /* \"#utility.yul\":18879:18881   */\n      0x20\n        /* \"#utility.yul\":18868:18877   */\n      dup3\n        /* \"#utility.yul\":18864:18882   */\n      add\n        /* \"#utility.yul\":18856:18882   */\n      swap1\n      pop\n        /* \"#utility.yul\":18928:18937   */\n      dup2\n        /* \"#utility.yul\":18922:18926   */\n      dup2\n        /* \"#utility.yul\":18918:18938   */\n      sub\n        /* \"#utility.yul\":18914:18915   */\n      0x00\n        /* \"#utility.yul\":18903:18912   */\n      dup4\n        /* \"#utility.yul\":18899:18916   */\n      add\n        /* \"#utility.yul\":18892:18939   */\n      mstore\n        /* \"#utility.yul\":18956:19087   */\n      tag_580\n        /* \"#utility.yul\":19082:19086   */\n      dup2\n        /* \"#utility.yul\":18956:19087   */\n      tag_484\n      jump\t// in\n    tag_580:\n        /* \"#utility.yul\":18948:19087   */\n      swap1\n      pop\n        /* \"#utility.yul\":18846:19094   */\n      swap2\n      swap1\n      pop\n      jump\t// out\n        /* \"#utility.yul\":19100:19519   */\n    tag_168:\n      0x00\n        /* \"#utility.yul\":19304:19306   */\n      0x20\n        /* \"#utility.yul\":19293:19302   */\n      dup3\n        /* \"#utility.yul\":19289:19307   */\n      add\n        /* \"#utility.yul\":19281:19307   */\n      swap1\n      pop\n        /* \"#utility.yul\":19353:19362   */\n      dup2\n        /* \"#utility.yul\":19347:19351   */\n      dup2\n        /* \"#utility.yul\":19343:19363   */\n      sub\n        /* \"#utility.yul\":19339:19340   */\n      0x00\n        /* \"#utility.yul\":19328:19337   */\n      dup4\n        /* \"#utility.yul\":19324:19341   */\n      add\n        /* \"#utility.yul\":19317:19364   */\n      mstore\n        /* \"#utility.yul\":19381:19512   */\n      tag_582\n        /* \"#utility.yul\":19507:19511   */\n      dup2\n        /* \"#utility.yul\":19381:19512   */\n      tag_489\n      jump\t// in\n    tag_582:\n        /* \"#utility.yul\":19373:19512   */\n      swap1\n      pop\n        /* \"#utility.yul\":19271:19519   */\n      swap2\n      swap1\n      pop\n      jump\t// out\n        /* \"#utility.yul\":19525:19944   */\n    tag_335:\n      0x00\n        /* \"#utility.yul\":19729:19731   */\n      0x20\n        /* \"#utility.yul\":19718:19727   */\n      dup3\n        /* \"#utility.yul\":19714:19732   */\n      add\n        /* \"#utility.yul\":19706:19732   */\n      swap1\n      pop\n        /* \"#utility.yul\":19778:19787   */\n      dup2\n        /* \"#utility.yul\":19772:19776   */\n      dup2\n        /* \"#utility.yul\":19768:19788   */\n      sub\n        /* \"#utility.yul\":19764:19765   */\n      0x00\n        /* \"#utility.yul\":19753:19762   */\n      dup4\n        /* \"#utility.yul\":19749:19766   */\n      add\n        /* \"#utility.yul\":19742:19789   */\n      mstore\n        /* \"#utility.yul\":19806:19937   */\n      tag_584\n        /* \"#utility.yul\":19932:19936   */\n      dup2\n        /* \"#utility.yul\":19806:19937   */\n      tag_494\n      jump\t// in\n    tag_584:\n        /* \"#utility.yul\":19798:19937   */\n      swap1\n      pop\n        /* \"#utility.yul\":19696:19944   */\n      swap2\n      swap1\n      pop\n      jump\t// out\n        /* \"#utility.yul\":19950:20369   */\n    tag_97:\n      0x00\n        /* \"#utility.yul\":20154:20156   */\n      0x20\n        /* \"#utility.yul\":20143:20152   */\n      dup3\n        /* \"#utility.yul\":20139:20157   */\n      add\n        /* \"#utility.yul\":20131:20157   */\n      swap1\n      pop\n        /* \"#utility.yul\":20203:20212   */\n      dup2\n        /* \"#utility.yul\":20197:20201   */\n      dup2\n        /* \"#utility.yul\":20193:20213   */\n      sub\n        /* \"#utility.yul\":20189:20190   */\n      0x00\n        /* \"#utility.yul\":20178:20187   */\n      dup4\n        /* \"#utility.yul\":20174:20191   */\n      add\n        /* \"#utility.yul\":20167:20214   */\n      mstore\n        /* \"#utility.yul\":20231:20362   */\n      tag_586\n        /* \"#utility.yul\":20357:20361   */\n      dup2\n        /* \"#utility.yul\":20231:20362   */\n      tag_499\n      jump\t// in\n    tag_586:\n        /* \"#utility.yul\":20223:20362   */\n      swap1\n      pop\n        /* \"#utility.yul\":20121:20369   */\n      swap2\n      swap1\n      pop\n      jump\t// out\n        /* \"#utility.yul\":20375:20794   */\n    tag_233:\n      0x00\n        /* \"#utility.yul\":20579:20581   */\n      0x20\n        /* \"#utility.yul\":20568:20577   */\n      dup3\n        /* \"#utility.yul\":20564:20582   */\n      add\n        /* \"#utility.yul\":20556:20582   */\n      swap1\n      pop\n        /* \"#utility.yul\":20628:20637   */\n      dup2\n        /* \"#utility.yul\":20622:20626   */\n      dup2\n        /* \"#utility.yul\":20618:20638   */\n      sub\n        /* \"#utility.yul\":20614:20615   */\n      0x00\n        /* \"#utility.yul\":20603:20612   */\n      dup4\n        /* \"#utility.yul\":20599:20616   */\n      add\n        /* \"#utility.yul\":20592:20639   */\n      mstore\n        /* \"#utility.yul\":20656:20787   */\n      tag_588\n        /* \"#utility.yul\":20782:20786   */\n      dup2\n        /* \"#utility.yul\":20656:20787   */\n      tag_504\n      jump\t// in\n    tag_588:\n        /* \"#utility.yul\":20648:20787   */\n      swap1\n      pop\n        /* \"#utility.yul\":20546:20794   */\n      swap2\n      swap1\n      pop\n      jump\t// out\n        /* \"#utility.yul\":20800:21219   */\n    tag_111:\n      0x00\n        /* \"#utility.yul\":21004:21006   */\n      0x20\n        /* \"#utility.yul\":20993:21002   */\n      dup3\n        /* \"#utility.yul\":20989:21007   */\n      add\n        /* \"#utility.yul\":20981:21007   */\n      swap1\n      pop\n        /* \"#utility.yul\":21053:21062   */\n      dup2\n        /* \"#utility.yul\":21047:21051   */\n      dup2\n        /* \"#utility.yul\":21043:21063   */\n      sub\n        /* \"#utility.yul\":21039:21040   */\n      0x00\n        /* \"#utility.yul\":21028:21037   */\n      dup4\n        /* \"#utility.yul\":21024:21041   */\n      add\n        /* \"#utility.yul\":21017:21064   */\n      mstore\n        /* \"#utility.yul\":21081:21212   */\n      tag_590\n        /* \"#utility.yul\":21207:21211   */\n      dup2\n        /* \"#utility.yul\":21081:21212   */\n      tag_509\n      jump\t// in\n    tag_590:\n        /* \"#utility.yul\":21073:21212   */\n      swap1\n      pop\n        /* \"#utility.yul\":20971:21219   */\n      swap2\n      swap1\n      pop\n      jump\t// out\n        /* \"#utility.yul\":21225:21644   */\n    tag_162:\n      0x00\n        /* \"#utility.yul\":21429:21431   */\n      0x20\n        /* \"#utility.yul\":21418:21427   */\n      dup3\n        /* \"#utility.yul\":21414:21432   */\n      add\n        /* \"#utility.yul\":21406:21432   */\n      swap1\n      pop\n        /* \"#utility.yul\":21478:21487   */\n      dup2\n        /* \"#utility.yul\":21472:21476   */\n      dup2\n        /* \"#utility.yul\":21468:21488   */\n      sub\n        /* \"#utility.yul\":21464:21465   */\n      0x00\n        /* \"#utility.yul\":21453:21462   */\n      dup4\n        /* \"#utility.yul\":21449:21466   */\n      add\n        /* \"#utility.yul\":21442:21489   */\n      mstore\n        /* \"#utility.yul\":21506:21637   */\n      tag_592\n        /* \"#utility.yul\":21632:21636   */\n      dup2\n        /* \"#utility.yul\":21506:21637   */\n      tag_514\n      jump\t// in\n    tag_592:\n        /* \"#utility.yul\":21498:21637   */\n      swap1\n      pop\n        /* \"#utility.yul\":21396:21644   */\n      swap2\n      swap1\n      pop\n      jump\t// out\n        /* \"#utility.yul\":21650:22069   */\n    tag_107:\n      0x00\n        /* \"#utility.yul\":21854:21856   */\n      0x20\n        /* \"#utility.yul\":21843:21852   */\n      dup3\n        /* \"#utility.yul\":21839:21857   */\n      add\n        /* \"#utility.yul\":21831:21857   */\n      swap1\n      pop\n        /* \"#utility.yul\":21903:21912   */\n      dup2\n        /* \"#utility.yul\":21897:21901   */\n      dup2\n        /* \"#utility.yul\":21893:21913   */\n      sub\n        /* \"#utility.yul\":21889:21890   */\n      0x00\n        /* \"#utility.yul\":21878:21887   */\n      dup4\n        /* \"#utility.yul\":21874:21891   */\n      add\n        /* \"#utility.yul\":21867:21914   */\n      mstore\n        /* \"#utility.yul\":21931:22062   */\n      tag_594\n        /* \"#utility.yul\":22057:22061   */\n      dup2\n        /* \"#utility.yul\":21931:22062   */\n      tag_519\n      jump\t// in\n    tag_594:\n        /* \"#utility.yul\":21923:22062   */\n      swap1\n      pop\n        /* \"#utility.yul\":21821:22069   */\n      swap2\n      swap1\n      pop\n      jump\t// out\n        /* \"#utility.yul\":22075:22494   */\n    tag_302:\n      0x00\n        /* \"#utility.yul\":22279:22281   */\n      0x20\n        /* \"#utility.yul\":22268:22277   */\n      dup3\n        /* \"#utility.yul\":22264:22282   */\n      add\n        /* \"#utility.yul\":22256:22282   */\n      swap1\n      pop\n        /* \"#utility.yul\":22328:22337   */\n      dup2\n        /* \"#utility.yul\":22322:22326   */\n      dup2\n        /* \"#utility.yul\":22318:22338   */\n      sub\n        /* \"#utility.yul\":22314:22315   */\n      0x00\n        /* \"#utility.yul\":22303:22312   */\n      dup4\n        /* \"#utility.yul\":22299:22316   */\n      add\n        /* \"#utility.yul\":22292:22339   */\n      mstore\n        /* \"#utility.yul\":22356:22487   */\n      tag_596\n        /* \"#utility.yul\":22482:22486   */\n      dup2\n        /* \"#utility.yul\":22356:22487   */\n      tag_524\n      jump\t// in\n    tag_596:\n        /* \"#utility.yul\":22348:22487   */\n      swap1\n      pop\n        /* \"#utility.yul\":22246:22494   */\n      swap2\n      swap1\n      pop\n      jump\t// out\n        /* \"#utility.yul\":22500:22919   */\n    tag_165:\n      0x00\n        /* \"#utility.yul\":22704:22706   */\n      0x20\n        /* \"#utility.yul\":22693:22702   */\n      dup3\n        /* \"#utility.yul\":22689:22707   */\n      add\n        /* \"#utility.yul\":22681:22707   */\n      swap1\n      pop\n        /* \"#utility.yul\":22753:22762   */\n      dup2\n        /* \"#utility.yul\":22747:22751   */\n      dup2\n        /* \"#utility.yul\":22743:22763   */\n      sub\n        /* \"#utility.yul\":22739:22740   */\n      0x00\n        /* \"#utility.yul\":22728:22737   */\n      dup4\n        /* \"#utility.yul\":22724:22741   */\n      add\n        /* \"#utility.yul\":22717:22764   */\n      mstore\n        /* \"#utility.yul\":22781:22912   */\n      tag_598\n        /* \"#utility.yul\":22907:22911   */\n      dup2\n        /* \"#utility.yul\":22781:22912   */\n      tag_529\n      jump\t// in\n    tag_598:\n        /* \"#utility.yul\":22773:22912   */\n      swap1\n      pop\n        /* \"#utility.yul\":22671:22919   */\n      swap2\n      swap1\n      pop\n      jump\t// out\n        /* \"#utility.yul\":22925:23344   */\n    tag_241:\n      0x00\n        /* \"#utility.yul\":23129:23131   */\n      0x20\n        /* \"#utility.yul\":23118:23127   */\n      dup3\n        /* \"#utility.yul\":23114:23132   */\n      add\n        /* \"#utility.yul\":23106:23132   */\n      swap1\n      pop\n        /* \"#utility.yul\":23178:23187   */\n      dup2\n        /* \"#utility.yul\":23172:23176   */\n      dup2\n        /* \"#utility.yul\":23168:23188   */\n      sub\n        /* \"#utility.yul\":23164:23165   */\n      0x00\n        /* \"#utility.yul\":23153:23162   */\n      dup4\n        /* \"#utility.yul\":23149:23166   */\n      add\n        /* \"#utility.yul\":23142:23189   */\n      mstore\n        /* \"#utility.yul\":23206:23337   */\n      tag_600\n        /* \"#utility.yul\":23332:23336   */\n      dup2\n        /* \"#utility.yul\":23206:23337   */\n      tag_534\n      jump\t// in\n    tag_600:\n        /* \"#utility.yul\":23198:23337   */\n      swap1\n      pop\n        /* \"#utility.yul\":23096:23344   */\n      swap2\n      swap1\n      pop\n      jump\t// out\n        /* \"#utility.yul\":23350:23707   */\n    tag_58:\n      0x00\n        /* \"#utility.yul\":23523:23525   */\n      0x20\n        /* \"#utility.yul\":23512:23521   */\n      dup3\n        /* \"#utility.yul\":23508:23526   */\n      add\n        /* \"#utility.yul\":23500:23526   */\n      swap1\n      pop\n        /* \"#utility.yul\":23572:23581   */\n      dup2\n        /* \"#utility.yul\":23566:23570   */\n      dup2\n        /* \"#utility.yul\":23562:23582   */\n      sub\n        /* \"#utility.yul\":23558:23559   */\n      0x00\n        /* \"#utility.yul\":23547:23556   */\n      dup4\n        /* \"#utility.yul\":23543:23560   */\n      add\n        /* \"#utility.yul\":23536:23583   */\n      mstore\n        /* \"#utility.yul\":23600:23700   */\n      tag_602\n        /* \"#utility.yul\":23695:23699   */\n      dup2\n        /* \"#utility.yul\":23686:23692   */\n      dup5\n        /* \"#utility.yul\":23600:23700   */\n      tag_539\n      jump\t// in\n    tag_602:\n        /* \"#utility.yul\":23592:23700   */\n      swap1\n      pop\n        /* \"#utility.yul\":23490:23707   */\n      swap3\n      swap2\n      pop\n      pop\n      jump\t// out\n        /* \"#utility.yul\":23713:23935   */\n    tag_34:\n      0x00\n        /* \"#utility.yul\":23844:23846   */\n      0x20\n        /* \"#utility.yul\":23833:23842   */\n      dup3\n        /* \"#utility.yul\":23829:23847   */\n      add\n        /* \"#utility.yul\":23821:23847   */\n      swap1\n      pop\n        /* \"#utility.yul\":23857:23928   */\n      tag_604\n        /* \"#utility.yul\":23925:23926   */\n      0x00\n        /* \"#utility.yul\":23914:23923   */\n      dup4\n        /* \"#utility.yul\":23910:23927   */\n      add\n        /* \"#utility.yul\":23901:23907   */\n      dup5\n        /* \"#utility.yul\":23857:23928   */\n      tag_551\n      jump\t// in\n    tag_604:\n        /* \"#utility.yul\":23811:23935   */\n      swap3\n      swap2\n      pop\n      pop\n      jump\t// out\n        /* \"#utility.yul\":23941:24273   */\n    tag_195:\n      0x00\n        /* \"#utility.yul\":24100:24102   */\n      0x40\n        /* \"#utility.yul\":24089:24098   */\n      dup3\n        /* \"#utility.yul\":24085:24103   */\n      add\n        /* \"#utility.yul\":24077:24103   */\n      swap1\n      pop\n        /* \"#utility.yul\":24113:24184   */\n      tag_606\n        /* \"#utility.yul\":24181:24182   */\n      0x00\n        /* \"#utility.yul\":24170:24179   */\n      dup4\n        /* \"#utility.yul\":24166:24183   */\n      add\n        /* \"#utility.yul\":24157:24163   */\n      dup6\n        /* \"#utility.yul\":24113:24184   */\n      tag_551\n      jump\t// in\n    tag_606:\n        /* \"#utility.yul\":24194:24266   */\n      tag_607\n        /* \"#utility.yul\":24262:24264   */\n      0x20\n        /* \"#utility.yul\":24251:24260   */\n      dup4\n        /* \"#utility.yul\":24247:24265   */\n      add\n        /* \"#utility.yul\":24238:24244   */\n      dup5\n        /* \"#utility.yul\":24194:24266   */\n      tag_551\n      jump\t// in\n    tag_607:\n        /* \"#utility.yul\":24067:24273   */\n      swap4\n      swap3\n      pop\n      pop\n      pop\n      jump\t// out\n        /* \"#utility.yul\":24279:24408   */\n    tag_357:\n      0x00\n        /* \"#utility.yul\":24340:24360   */\n      tag_609\n      tag_610\n      jump\t// in\n    tag_609:\n        /* \"#utility.yul\":24330:24360   */\n      swap1\n      pop\n        /* \"#utility.yul\":24369:24402   */\n      tag_611\n        /* \"#utility.yul\":24397:24401   */\n      dup3\n        /* \"#utility.yul\":24389:24395   */\n      dup3\n        /* \"#utility.yul\":24369:24402   */\n      tag_612\n      jump\t// in\n    tag_611:\n        /* \"#utility.yul\":24320:24408   */\n      swap2\n      swap1\n      pop\n      jump\t// out\n        /* \"#utility.yul\":24414:24489   */\n    tag_610:\n      0x00\n        /* \"#utility.yul\":24480:24482   */\n      0x40\n        /* \"#utility.yul\":24474:24483   */\n      mload\n        /* \"#utility.yul\":24464:24483   */\n      swap1\n      pop\n        /* \"#utility.yul\":24454:24489   */\n      swap1\n      jump\t// out\n        /* \"#utility.yul\":24495:24803   */\n    tag_356:\n      0x00\n        /* \"#utility.yul\":24647:24665   */\n      0xffffffffffffffff\n        /* \"#utility.yul\":24639:24645   */\n      dup3\n        /* \"#utility.yul\":24636:24666   */\n      gt\n        /* \"#utility.yul\":24633:24635   */\n      iszero\n      tag_615\n      jumpi\n        /* \"#utility.yul\":24669:24687   */\n      tag_616\n      tag_617\n      jump\t// in\n    tag_616:\n        /* \"#utility.yul\":24633:24635   */\n    tag_615:\n        /* \"#utility.yul\":24707:24736   */\n      tag_618\n        /* \"#utility.yul\":24729:24735   */\n      dup3\n        /* \"#utility.yul\":24707:24736   */\n      tag_431\n      jump\t// in\n    tag_618:\n        /* \"#utility.yul\":24699:24736   */\n      swap1\n      pop\n        /* \"#utility.yul\":24791:24795   */\n      0x20\n        /* \"#utility.yul\":24785:24789   */\n      dup2\n        /* \"#utility.yul\":24781:24796   */\n      add\n        /* \"#utility.yul\":24773:24796   */\n      swap1\n      pop\n        /* \"#utility.yul\":24562:24803   */\n      swap2\n      swap1\n      pop\n      jump\t// out\n        /* \"#utility.yul\":24809:24941   */\n    tag_407:\n      0x00\n        /* \"#utility.yul\":24899:24902   */\n      dup2\n        /* \"#utility.yul\":24891:24902   */\n      swap1\n      pop\n        /* \"#utility.yul\":24929:24933   */\n      0x20\n        /* \"#utility.yul\":24924:24927   */\n      dup3\n        /* \"#utility.yul\":24920:24934   */\n      add\n        /* \"#utility.yul\":24912:24934   */\n      swap1\n      pop\n        /* \"#utility.yul\":24881:24941   */\n      swap2\n      swap1\n      pop\n      jump\t// out\n        /* \"#utility.yul\":24947:25061   */\n    tag_403:\n      0x00\n        /* \"#utility.yul\":25048:25053   */\n      dup2\n        /* \"#utility.yul\":25042:25054   */\n      mload\n        /* \"#utility.yul\":25032:25054   */\n      swap1\n      pop\n        /* \"#utility.yul\":25021:25061   */\n      swap2\n      swap1\n      pop\n      jump\t// out\n        /* \"#utility.yul\":25067:25166   */\n    tag_425:\n      0x00\n        /* \"#utility.yul\":25153:25158   */\n      dup2\n        /* \"#utility.yul\":25147:25159   */\n      mload\n        /* \"#utility.yul\":25137:25159   */\n      swap1\n      pop\n        /* \"#utility.yul\":25126:25166   */\n      swap2\n      swap1\n      pop\n      jump\t// out\n        /* \"#utility.yul\":25172:25285   */\n    tag_413:\n      0x00\n        /* \"#utility.yul\":25274:25278   */\n      0x20\n        /* \"#utility.yul\":25269:25272   */\n      dup3\n        /* \"#utility.yul\":25265:25279   */\n      add\n        /* \"#utility.yul\":25257:25279   */\n      swap1\n      pop\n        /* \"#utility.yul\":25247:25285   */\n      swap2\n      swap1\n      pop\n      jump\t// out\n        /* \"#utility.yul\":25291:25475   */\n    tag_405:\n      0x00\n        /* \"#utility.yul\":25424:25430   */\n      dup3\n        /* \"#utility.yul\":25419:25422   */\n      dup3\n        /* \"#utility.yul\":25412:25431   */\n      mstore\n        /* \"#utility.yul\":25464:25468   */\n      0x20\n        /* \"#utility.yul\":25459:25462   */\n      dup3\n        /* \"#utility.yul\":25455:25469   */\n      add\n        /* \"#utility.yul\":25440:25469   */\n      swap1\n      pop\n        /* \"#utility.yul\":25402:25475   */\n      swap3\n      swap2\n      pop\n      pop\n      jump\t// out\n        /* \"#utility.yul\":25481:25640   */\n    tag_427:\n      0x00\n        /* \"#utility.yul\":25589:25595   */\n      dup3\n        /* \"#utility.yul\":25584:25587   */\n      dup3\n        /* \"#utility.yul\":25577:25596   */\n      mstore\n        /* \"#utility.yul\":25629:25633   */\n      0x20\n        /* \"#utility.yul\":25624:25627   */\n      dup3\n        /* \"#utility.yul\":25620:25634   */\n      add\n        /* \"#utility.yul\":25605:25634   */\n      swap1\n      pop\n        /* \"#utility.yul\":25567:25640   */\n      swap3\n      swap2\n      pop\n      pop\n      jump\t// out\n        /* \"#utility.yul\":25646:25815   */\n    tag_436:\n      0x00\n        /* \"#utility.yul\":25764:25770   */\n      dup3\n        /* \"#utility.yul\":25759:25762   */\n      dup3\n        /* \"#utility.yul\":25752:25771   */\n      mstore\n        /* \"#utility.yul\":25804:25808   */\n      0x20\n        /* \"#utility.yul\":25799:25802   */\n      dup3\n        /* \"#utility.yul\":25795:25809   */\n      add\n        /* \"#utility.yul\":25780:25809   */\n      swap1\n      pop\n        /* \"#utility.yul\":25742:25815   */\n      swap3\n      swap2\n      pop\n      pop\n      jump\t// out\n        /* \"#utility.yul\":25821:26126   */\n    tag_144:\n      0x00\n        /* \"#utility.yul\":25880:25900   */\n      tag_627\n        /* \"#utility.yul\":25898:25899   */\n      dup3\n        /* \"#utility.yul\":25880:25900   */\n      tag_550\n      jump\t// in\n    tag_627:\n        /* \"#utility.yul\":25875:25900   */\n      swap2\n      pop\n        /* \"#utility.yul\":25914:25934   */\n      tag_628\n        /* \"#utility.yul\":25932:25933   */\n      dup4\n        /* \"#utility.yul\":25914:25934   */\n      tag_550\n      jump\t// in\n    tag_628:\n        /* \"#utility.yul\":25909:25934   */\n      swap3\n      pop\n        /* \"#utility.yul\":26068:26069   */\n      dup3\n        /* \"#utility.yul\":26000:26066   */\n      0xffffffffffffffffffffffffffffffffffffffffffffffffffffffffffffffff\n        /* \"#utility.yul\":25996:26070   */\n      sub\n        /* \"#utility.yul\":25993:25994   */\n      dup3\n        /* \"#utility.yul\":25990:26071   */\n      gt\n        /* \"#utility.yul\":25987:25989   */\n      iszero\n      tag_629\n      jumpi\n        /* \"#utility.yul\":26074:26092   */\n      tag_630\n      tag_631\n      jump\t// in\n    tag_630:\n        /* \"#utility.yul\":25987:25989   */\n    tag_629:\n        /* \"#utility.yul\":26118:26119   */\n      dup3\n        /* \"#utility.yul\":26115:26116   */\n      dup3\n        /* \"#utility.yul\":26111:26120   */\n      add\n        /* \"#utility.yul\":26104:26120   */\n      swap1\n      pop\n        /* \"#utility.yul\":25865:26126   */\n      swap3\n      swap2\n      pop\n      pop\n      jump\t// out\n        /* \"#utility.yul\":26132:26317   */\n    tag_140:\n      0x00\n        /* \"#utility.yul\":26189:26209   */\n      tag_633\n        /* \"#utility.yul\":26207:26208   */\n      dup3\n        /* \"#utility.yul\":26189:26209   */\n      tag_550\n      jump\t// in\n    tag_633:\n        /* \"#utility.yul\":26184:26209   */\n      swap2\n      pop\n        /* \"#utility.yul\":26223:26243   */\n      tag_634\n        /* \"#utility.yul\":26241:26242   */\n      dup4\n        /* \"#utility.yul\":26223:26243   */\n      tag_550\n      jump\t// in\n    tag_634:\n        /* \"#utility.yul\":26218:26243   */\n      swap3\n      pop\n        /* \"#utility.yul\":26262:26263   */\n      dup3\n        /* \"#utility.yul\":26252:26254   */\n      tag_635\n      jumpi\n        /* \"#utility.yul\":26267:26285   */\n      tag_636\n      tag_637\n      jump\t// in\n    tag_636:\n        /* \"#utility.yul\":26252:26254   */\n    tag_635:\n        /* \"#utility.yul\":26309:26310   */\n      dup3\n        /* \"#utility.yul\":26306:26307   */\n      dup3\n        /* \"#utility.yul\":26302:26311   */\n      div\n        /* \"#utility.yul\":26297:26311   */\n      swap1\n      pop\n        /* \"#utility.yul\":26174:26317   */\n      swap3\n      swap2\n      pop\n      pop\n      jump\t// out\n        /* \"#utility.yul\":26323:26671   */\n    tag_138:\n      0x00\n        /* \"#utility.yul\":26386:26406   */\n      tag_639\n        /* \"#utility.yul\":26404:26405   */\n      dup3\n        /* \"#utility.yul\":26386:26406   */\n      tag_550\n      jump\t// in\n    tag_639:\n        /* \"#utility.yul\":26381:26406   */\n      swap2\n      pop\n        /* \"#utility.yul\":26420:26440   */\n      tag_640\n        /* \"#utility.yul\":26438:26439   */\n      dup4\n        /* \"#utility.yul\":26420:26440   */\n      tag_550\n      jump\t// in\n    tag_640:\n        /* \"#utility.yul\":26415:26440   */\n      swap3\n      pop\n        /* \"#utility.yul\":26608:26609   */\n      dup2\n        /* \"#utility.yul\":26540:26606   */\n      0xffffffffffffffffffffffffffffffffffffffffffffffffffffffffffffffff\n        /* \"#utility.yul\":26536:26610   */\n      div\n        /* \"#utility.yul\":26533:26534   */\n      dup4\n        /* \"#utility.yul\":26530:26611   */\n      gt\n        /* \"#utility.yul\":26525:26526   */\n      dup3\n        /* \"#utility.yul\":26518:26527   */\n      iszero\n        /* \"#utility.yul\":26511:26528   */\n      iszero\n        /* \"#utility.yul\":26507:26612   */\n      and\n        /* \"#utility.yul\":26504:26506   */\n      iszero\n      tag_641\n      jumpi\n        /* \"#utility.yul\":26615:26633   */\n      tag_642\n      tag_631\n      jump\t// in\n    tag_642:\n        /* \"#utility.yul\":26504:26506   */\n    tag_641:\n        /* \"#utility.yul\":26663:26664   */\n      dup3\n        /* \"#utility.yul\":26660:26661   */\n      dup3\n        /* \"#utility.yul\":26656:26665   */\n      mul\n        /* \"#utility.yul\":26645:26665   */\n      swap1\n      pop\n        /* \"#utility.yul\":26371:26671   */\n      swap3\n      swap2\n      pop\n      pop\n      jump\t// out\n        /* \"#utility.yul\":26677:26868   */\n    tag_142:\n      0x00\n        /* \"#utility.yul\":26737:26757   */\n      tag_644\n        /* \"#utility.yul\":26755:26756   */\n      dup3\n        /* \"#utility.yul\":26737:26757   */\n      tag_550\n      jump\t// in\n    tag_644:\n        /* \"#utility.yul\":26732:26757   */\n      swap2\n      pop\n        /* \"#utility.yul\":26771:26791   */\n      tag_645\n        /* \"#utility.yul\":26789:26790   */\n      dup4\n        /* \"#utility.yul\":26771:26791   */\n      tag_550\n      jump\t// in\n    tag_645:\n        /* \"#utility.yul\":26766:26791   */\n      swap3\n      pop\n        /* \"#utility.yul\":26810:26811   */\n      dup3\n        /* \"#utility.yul\":26807:26808   */\n      dup3\n        /* \"#utility.yul\":26804:26812   */\n      lt\n        /* \"#utility.yul\":26801:26803   */\n      iszero\n      tag_646\n      jumpi\n        /* \"#utility.yul\":26815:26833   */\n      tag_647\n      tag_631\n      jump\t// in\n    tag_647:\n        /* \"#utility.yul\":26801:26803   */\n    tag_646:\n        /* \"#utility.yul\":26860:26861   */\n      dup3\n        /* \"#utility.yul\":26857:26858   */\n      dup3\n        /* \"#utility.yul\":26853:26862   */\n      sub\n        /* \"#utility.yul\":26845:26862   */\n      swap1\n      pop\n        /* \"#utility.yul\":26722:26868   */\n      swap3\n      swap2\n      pop\n      pop\n      jump\t// out\n        /* \"#utility.yul\":26874:26970   */\n    tag_399:\n      0x00\n        /* \"#utility.yul\":26940:26964   */\n      tag_649\n        /* \"#utility.yul\":26958:26963   */\n      dup3\n        /* \"#utility.yul\":26940:26964   */\n      tag_650\n      jump\t// in\n    tag_649:\n        /* \"#utility.yul\":26929:26964   */\n      swap1\n      pop\n        /* \"#utility.yul\":26919:26970   */\n      swap2\n      swap1\n      pop\n      jump\t// out\n        /* \"#utility.yul\":26976:27066   */\n    tag_417:\n      0x00\n        /* \"#utility.yul\":27053:27058   */\n      dup2\n        /* \"#utility.yul\":27046:27059   */\n      iszero\n        /* \"#utility.yul\":27039:27060   */\n      iszero\n        /* \"#utility.yul\":27028:27060   */\n      swap1\n      pop\n        /* \"#utility.yul\":27018:27066   */\n      swap2\n      swap1\n      pop\n      jump\t// out\n        /* \"#utility.yul\":27072:27203   */\n    tag_652:\n      0x00\n        /* \"#utility.yul\":27148:27153   */\n      dup2\n        /* \"#utility.yul\":27137:27153   */\n      swap1\n      pop\n        /* \"#utility.yul\":27154:27197   */\n      tag_654\n        /* \"#utility.yul\":27191:27196   */\n      dup3\n        /* \"#utility.yul\":27154:27197   */\n      tag_655\n      jump\t// in\n    tag_654:\n        /* \"#utility.yul\":27127:27203   */\n      swap2\n      swap1\n      pop\n      jump\t// out\n        /* \"#utility.yul\":27209:27335   */\n    tag_650:\n      0x00\n        /* \"#utility.yul\":27286:27328   */\n      0xffffffffffffffffffffffffffffffffffffffff\n        /* \"#utility.yul\":27279:27284   */\n      dup3\n        /* \"#utility.yul\":27275:27329   */\n      and\n        /* \"#utility.yul\":27264:27329   */\n      swap1\n      pop\n        /* \"#utility.yul\":27254:27335   */\n      swap2\n      swap1\n      pop\n      jump\t// out\n        /* \"#utility.yul\":27341:27418   */\n    tag_550:\n      0x00\n        /* \"#utility.yul\":27407:27412   */\n      dup2\n        /* \"#utility.yul\":27396:27412   */\n      swap1\n      pop\n        /* \"#utility.yul\":27386:27418   */\n      swap2\n      swap1\n      pop\n      jump\t// out\n        /* \"#utility.yul\":27424:27555   */\n    tag_421:\n      0x00\n        /* \"#utility.yul\":27515:27549   */\n      tag_659\n        /* \"#utility.yul\":27543:27548   */\n      dup3\n        /* \"#utility.yul\":27515:27549   */\n      tag_652\n      jump\t// in\n    tag_659:\n        /* \"#utility.yul\":27502:27549   */\n      swap1\n      pop\n        /* \"#utility.yul\":27492:27555   */\n      swap2\n      swap1\n      pop\n      jump\t// out\n        /* \"#utility.yul\":27561:27715   */\n    tag_360:\n        /* \"#utility.yul\":27645:27651   */\n      dup3\n        /* \"#utility.yul\":27640:27643   */\n      dup2\n        /* \"#utility.yul\":27635:27638   */\n      dup4\n        /* \"#utility.yul\":27622:27652   */\n      calldatacopy\n        /* \"#utility.yul\":27707:27708   */\n      0x00\n        /* \"#utility.yul\":27698:27704   */\n      dup4\n        /* \"#utility.yul\":27693:27696   */\n      dup4\n        /* \"#utility.yul\":27689:27705   */\n      add\n        /* \"#utility.yul\":27682:27709   */\n      mstore\n        /* \"#utility.yul\":27612:27715   */\n      pop\n      pop\n      pop\n      jump\t// out\n        /* \"#utility.yul\":27721:28028   */\n    tag_429:\n        /* \"#utility.yul\":27789:27790   */\n      0x00\n        /* \"#utility.yul\":27799:27912   */\n    tag_662:\n        /* \"#utility.yul\":27813:27819   */\n      dup4\n        /* \"#utility.yul\":27810:27811   */\n      dup2\n        /* \"#utility.yul\":27807:27820   */\n      lt\n        /* \"#utility.yul\":27799:27912   */\n      iszero\n      tag_664\n      jumpi\n        /* \"#utility.yul\":27898:27899   */\n      dup1\n        /* \"#utility.yul\":27893:27896   */\n      dup3\n        /* \"#utility.yul\":27889:27900   */\n      add\n        /* \"#utility.yul\":27883:27901   */\n      mload\n        /* \"#utility.yul\":27879:27880   */\n      dup2\n        /* \"#utility.yul\":27874:27877   */\n      dup5\n        /* \"#utility.yul\":27870:27881   */\n      add\n        /* \"#utility.yul\":27863:27902   */\n      mstore\n        /* \"#utility.yul\":27835:27837   */\n      0x20\n        /* \"#utility.yul\":27832:27833   */\n      dup2\n        /* \"#utility.yul\":27828:27838   */\n      add\n        /* \"#utility.yul\":27823:27838   */\n      swap1\n      pop\n        /* \"#utility.yul\":27799:27912   */\n      jump(tag_662)\n    tag_664:\n        /* \"#utility.yul\":27930:27936   */\n      dup4\n        /* \"#utility.yul\":27927:27928   */\n      dup2\n        /* \"#utility.yul\":27924:27937   */\n      gt\n        /* \"#utility.yul\":27921:27923   */\n      iszero\n      tag_665\n      jumpi\n        /* \"#utility.yul\":28010:28011   */\n      0x00\n        /* \"#utility.yul\":28001:28007   */\n      dup5\n        /* \"#utility.yul\":27996:27999   */\n      dup5\n        /* \"#utility.yul\":27992:28008   */\n      add\n        /* \"#utility.yul\":27985:28012   */\n      mstore\n        /* \"#utility.yul\":27921:27923   */\n    tag_665:\n        /* \"#utility.yul\":27770:28028   */\n      pop\n      pop\n      pop\n      pop\n      jump\t// out\n        /* \"#utility.yul\":28034:28354   */\n    tag_207:\n      0x00\n        /* \"#utility.yul\":28115:28116   */\n      0x02\n        /* \"#utility.yul\":28109:28113   */\n      dup3\n        /* \"#utility.yul\":28105:28117   */\n      div\n        /* \"#utility.yul\":28095:28117   */\n      swap1\n      pop\n        /* \"#utility.yul\":28162:28163   */\n      0x01\n        /* \"#utility.yul\":28156:28160   */\n      dup3\n        /* \"#utility.yul\":28152:28164   */\n      and\n        /* \"#utility.yul\":28183:28201   */\n      dup1\n        /* \"#utility.yul\":28173:28175   */\n      tag_667\n      jumpi\n        /* \"#utility.yul\":28239:28243   */\n      0x7f\n        /* \"#utility.yul\":28231:28237   */\n      dup3\n        /* \"#utility.yul\":28227:28244   */\n      and\n        /* \"#utility.yul\":28217:28244   */\n      swap2\n      pop\n        /* \"#utility.yul\":28173:28175   */\n    tag_667:\n        /* \"#utility.yul\":28301:28303   */\n      0x20\n        /* \"#utility.yul\":28293:28299   */\n      dup3\n        /* \"#utility.yul\":28290:28304   */\n      lt\n        /* \"#utility.yul\":28270:28288   */\n      dup2\n        /* \"#utility.yul\":28267:28305   */\n      eq\n        /* \"#utility.yul\":28264:28266   */\n      iszero\n      tag_668\n      jumpi\n        /* \"#utility.yul\":28320:28338   */\n      tag_669\n      tag_670\n      jump\t// in\n    tag_669:\n        /* \"#utility.yul\":28264:28266   */\n    tag_668:\n        /* \"#utility.yul\":28085:28354   */\n      pop\n      swap2\n      swap1\n      pop\n      jump\t// out\n        /* \"#utility.yul\":28360:28641   */\n    tag_612:\n        /* \"#utility.yul\":28443:28470   */\n      tag_672\n        /* \"#utility.yul\":28465:28469   */\n      dup3\n        /* \"#utility.yul\":28443:28470   */\n      tag_431\n      jump\t// in\n    tag_672:\n        /* \"#utility.yul\":28435:28441   */\n      dup2\n        /* \"#utility.yul\":28431:28471   */\n      add\n        /* \"#utility.yul\":28573:28579   */\n      dup2\n        /* \"#utility.yul\":28561:28571   */\n      dup2\n        /* \"#utility.yul\":28558:28580   */\n      lt\n        /* \"#utility.yul\":28537:28555   */\n      0xffffffffffffffff\n        /* \"#utility.yul\":28525:28535   */\n      dup3\n        /* \"#utility.yul\":28522:28556   */\n      gt\n        /* \"#utility.yul\":28519:28581   */\n      or\n        /* \"#utility.yul\":28516:28518   */\n      iszero\n      tag_673\n      jumpi\n        /* \"#utility.yul\":28584:28602   */\n      tag_674\n      tag_617\n      jump\t// in\n    tag_674:\n        /* \"#utility.yul\":28516:28518   */\n    tag_673:\n        /* \"#utility.yul\":28624:28634   */\n      dup1\n        /* \"#utility.yul\":28620:28622   */\n      0x40\n        /* \"#utility.yul\":28613:28635   */\n      mstore\n        /* \"#utility.yul\":28403:28641   */\n      pop\n      pop\n      pop\n      jump\t// out\n        /* \"#utility.yul\":28647:28880   */\n    tag_170:\n      0x00\n        /* \"#utility.yul\":28709:28733   */\n      tag_676\n        /* \"#utility.yul\":28727:28732   */\n      dup3\n        /* \"#utility.yul\":28709:28733   */\n      tag_550\n      jump\t// in\n    tag_676:\n        /* \"#utility.yul\":28700:28733   */\n      swap2\n      pop\n        /* \"#utility.yul\":28755:28821   */\n      0xffffffffffffffffffffffffffffffffffffffffffffffffffffffffffffffff\n        /* \"#utility.yul\":28748:28753   */\n      dup3\n        /* \"#utility.yul\":28745:28822   */\n      eq\n        /* \"#utility.yul\":28742:28744   */\n      iszero\n      tag_677\n      jumpi\n        /* \"#utility.yul\":28825:28843   */\n      tag_678\n      tag_631\n      jump\t// in\n    tag_678:\n        /* \"#utility.yul\":28742:28744   */\n    tag_677:\n        /* \"#utility.yul\":28872:28873   */\n      0x01\n        /* \"#utility.yul\":28865:28870   */\n      dup3\n        /* \"#utility.yul\":28861:28874   */\n      add\n        /* \"#utility.yul\":28854:28874   */\n      swap1\n      pop\n        /* \"#utility.yul\":28690:28880   */\n      swap2\n      swap1\n      pop\n      jump\t// out\n        /* \"#utility.yul\":28886:29066   */\n    tag_631:\n        /* \"#utility.yul\":28934:29011   */\n      0x4e487b7100000000000000000000000000000000000000000000000000000000\n        /* \"#utility.yul\":28931:28932   */\n      0x00\n        /* \"#utility.yul\":28924:29012   */\n      mstore\n        /* \"#utility.yul\":29031:29035   */\n      0x11\n        /* \"#utility.yul\":29028:29029   */\n      0x04\n        /* \"#utility.yul\":29021:29036   */\n      mstore\n        /* \"#utility.yul\":29055:29059   */\n      0x24\n        /* \"#utility.yul\":29052:29053   */\n      0x00\n        /* \"#utility.yul\":29045:29060   */\n      revert\n        /* \"#utility.yul\":29072:29252   */\n    tag_637:\n        /* \"#utility.yul\":29120:29197   */\n      0x4e487b7100000000000000000000000000000000000000000000000000000000\n        /* \"#utility.yul\":29117:29118   */\n      0x00\n        /* \"#utility.yul\":29110:29198   */\n      mstore\n        /* \"#utility.yul\":29217:29221   */\n      0x12\n        /* \"#utility.yul\":29214:29215   */\n      0x04\n        /* \"#utility.yul\":29207:29222   */\n      mstore\n        /* \"#utility.yul\":29241:29245   */\n      0x24\n        /* \"#utility.yul\":29238:29239   */\n      0x00\n        /* \"#utility.yul\":29231:29246   */\n      revert\n        /* \"#utility.yul\":29258:29438   */\n    tag_681:\n        /* \"#utility.yul\":29306:29383   */\n      0x4e487b7100000000000000000000000000000000000000000000000000000000\n        /* \"#utility.yul\":29303:29304   */\n      0x00\n        /* \"#utility.yul\":29296:29384   */\n      mstore\n        /* \"#utility.yul\":29403:29407   */\n      0x21\n        /* \"#utility.yul\":29400:29401   */\n      0x04\n        /* \"#utility.yul\":29393:29408   */\n      mstore\n        /* \"#utility.yul\":29427:29431   */\n      0x24\n        /* \"#utility.yul\":29424:29425   */\n      0x00\n        /* \"#utility.yul\":29417:29432   */\n      revert\n        /* \"#utility.yul\":29444:29624   */\n    tag_670:\n        /* \"#utility.yul\":29492:29569   */\n      0x4e487b7100000000000000000000000000000000000000000000000000000000\n        /* \"#utility.yul\":29489:29490   */\n      0x00\n        /* \"#utility.yul\":29482:29570   */\n      mstore\n        /* \"#utility.yul\":29589:29593   */\n      0x22\n        /* \"#utility.yul\":29586:29587   */\n      0x04\n        /* \"#utility.yul\":29579:29594   */\n      mstore\n        /* \"#utility.yul\":29613:29617   */\n      0x24\n        /* \"#utility.yul\":29610:29611   */\n      0x00\n        /* \"#utility.yul\":29603:29618   */\n      revert\n        /* \"#utility.yul\":29630:29810   */\n    tag_617:\n        /* \"#utility.yul\":29678:29755   */\n      0x4e487b7100000000000000000000000000000000000000000000000000000000\n        /* \"#utility.yul\":29675:29676   */\n      0x00\n        /* \"#utility.yul\":29668:29756   */\n      mstore\n        /* \"#utility.yul\":29775:29779   */\n      0x41\n        /* \"#utility.yul\":29772:29773   */\n      0x04\n        /* \"#utility.yul\":29765:29780   */\n      mstore\n        /* \"#utility.yul\":29799:29803   */\n      0x24\n        /* \"#utility.yul\":29796:29797   */\n      0x00\n        /* \"#utility.yul\":29789:29804   */\n      revert\n        /* \"#utility.yul\":29816:29918   */\n    tag_431:\n      0x00\n        /* \"#utility.yul\":29908:29910   */\n      0x1f\n        /* \"#utility.yul\":29904:29911   */\n      not\n        /* \"#utility.yul\":29899:29901   */\n      0x1f\n        /* \"#utility.yul\":29892:29897   */\n      dup4\n        /* \"#utility.yul\":29888:29902   */\n      add\n        /* \"#utility.yul\":29884:29912   */\n      and\n        /* \"#utility.yul\":29874:29912   */\n      swap1\n      pop\n        /* \"#utility.yul\":29864:29918   */\n      swap2\n      swap1\n      pop\n      jump\t// out\n        /* \"#utility.yul\":29924:30092   */\n    tag_443:\n        /* \"#utility.yul\":30064:30084   */\n      0x6a6f62206e6f74206f70656e6564207965740000000000000000000000000000\n        /* \"#utility.yul\":30060:30061   */\n      0x00\n        /* \"#utility.yul\":30052:30058   */\n      dup3\n        /* \"#utility.yul\":30048:30062   */\n      add\n        /* \"#utility.yul\":30041:30085   */\n      mstore\n        /* \"#utility.yul\":30030:30092   */\n      pop\n      jump\t// out\n        /* \"#utility.yul\":30098:30274   */\n    tag_448:\n        /* \"#utility.yul\":30238:30266   */\n      0x6e6f742074686520636c69656e74206f662074686973206a6f62000000000000\n        /* \"#utility.yul\":30234:30235   */\n      0x00\n        /* \"#utility.yul\":30226:30232   */\n      dup3\n        /* \"#utility.yul\":30222:30236   */\n      add\n        /* \"#utility.yul\":30215:30267   */\n      mstore\n        /* \"#utility.yul\":30204:30274   */\n      pop\n      jump\t// out\n        /* \"#utility.yul\":30280:30501   */\n    tag_453:\n        /* \"#utility.yul\":30420:30454   */\n      0x6d696e696d756d206f662031302063686172616374657220746f2070726f6365\n        /* \"#utility.yul\":30416:30417   */\n      0x00\n        /* \"#utility.yul\":30408:30414   */\n      dup3\n        /* \"#utility.yul\":30404:30418   */\n      add\n        /* \"#utility.yul\":30397:30455   */\n      mstore\n        /* \"#utility.yul\":30489:30493   */\n      0x6564000000000000000000000000000000000000000000000000000000000000\n        /* \"#utility.yul\":30484:30486   */\n      0x20\n        /* \"#utility.yul\":30476:30482   */\n      dup3\n        /* \"#utility.yul\":30472:30487   */\n      add\n        /* \"#utility.yul\":30465:30494   */\n      mstore\n        /* \"#utility.yul\":30386:30501   */\n      pop\n      jump\t// out\n        /* \"#utility.yul\":30507:30687   */\n    tag_458:\n        /* \"#utility.yul\":30647:30679   */\n      0x6e6f742074686520667265656c616e63657220666f7220746865206a6f620000\n        /* \"#utility.yul\":30643:30644   */\n      0x00\n        /* \"#utility.yul\":30635:30641   */\n      dup3\n        /* \"#utility.yul\":30631:30645   */\n      add\n        /* \"#utility.yul\":30624:30680   */\n      mstore\n        /* \"#utility.yul\":30613:30687   */\n      pop\n      jump\t// out\n        /* \"#utility.yul\":30693:30865   */\n    tag_463:\n        /* \"#utility.yul\":30833:30857   */\n      0x6a6f622068617320746f20626520646973707574656400000000000000000000\n        /* \"#utility.yul\":30829:30830   */\n      0x00\n        /* \"#utility.yul\":30821:30827   */\n      dup3\n        /* \"#utility.yul\":30817:30831   */\n      add\n        /* \"#utility.yul\":30810:30858   */\n      mstore\n        /* \"#utility.yul\":30799:30865   */\n      pop\n      jump\t// out\n        /* \"#utility.yul\":30871:31044   */\n    tag_468:\n        /* \"#utility.yul\":31011:31036   */\n      0x6a6f622068617320746f20626520636f6d706c65746564000000000000000000\n        /* \"#utility.yul\":31007:31008   */\n      0x00\n        /* \"#utility.yul\":30999:31005   */\n      dup3\n        /* \"#utility.yul\":30995:31009   */\n      add\n        /* \"#utility.yul\":30988:31037   */\n      mstore\n        /* \"#utility.yul\":30977:31044   */\n      pop\n      jump\t// out\n        /* \"#utility.yul\":31050:31224   */\n    tag_473:\n        /* \"#utility.yul\":31190:31216   */\n      0x657363726f7720696420646f6573206e6f742065786973740000000000000000\n        /* \"#utility.yul\":31186:31187   */\n      0x00\n        /* \"#utility.yul\":31178:31184   */\n      dup3\n        /* \"#utility.yul\":31174:31188   */\n      add\n        /* \"#utility.yul\":31167:31217   */\n      mstore\n        /* \"#utility.yul\":31156:31224   */\n      pop\n      jump\t// out\n        /* \"#utility.yul\":31230:31405   */\n    tag_478:\n        /* \"#utility.yul\":31370:31397   */\n      0x4a6f622068617320746f20626520696e2070726f677265737300000000000000\n        /* \"#utility.yul\":31366:31367   */\n      0x00\n        /* \"#utility.yul\":31358:31364   */\n      dup3\n        /* \"#utility.yul\":31354:31368   */\n      add\n        /* \"#utility.yul\":31347:31398   */\n      mstore\n        /* \"#utility.yul\":31336:31405   */\n      pop\n      jump\t// out\n        /* \"#utility.yul\":31411:31632   */\n    tag_483:\n        /* \"#utility.yul\":31551:31585   */\n      0x6665652072616e6765206d757374206265206265747765656e203020746f2031\n        /* \"#utility.yul\":31547:31548   */\n      0x00\n        /* \"#utility.yul\":31539:31545   */\n      dup3\n        /* \"#utility.yul\":31535:31549   */\n      add\n        /* \"#utility.yul\":31528:31586   */\n      mstore\n        /* \"#utility.yul\":31620:31624   */\n      0x3025000000000000000000000000000000000000000000000000000000000000\n        /* \"#utility.yul\":31615:31617   */\n      0x20\n        /* \"#utility.yul\":31607:31613   */\n      dup3\n        /* \"#utility.yul\":31603:31618   */\n      add\n        /* \"#utility.yul\":31596:31625   */\n      mstore\n        /* \"#utility.yul\":31517:31632   */\n      pop\n      jump\t// out\n        /* \"#utility.yul\":31638:31813   */\n    tag_488:\n        /* \"#utility.yul\":31778:31805   */\n      0x636c69656e74206f7220667265656c616e636572206f6e6c7900000000000000\n        /* \"#utility.yul\":31774:31775   */\n      0x00\n        /* \"#utility.yul\":31766:31772   */\n      dup3\n        /* \"#utility.yul\":31762:31776   */\n      add\n        /* \"#utility.yul\":31755:31806   */\n      mstore\n        /* \"#utility.yul\":31744:31813   */\n      pop\n      jump\t// out\n        /* \"#utility.yul\":31819:31992   */\n    tag_493:\n        /* \"#utility.yul\":31959:31984   */\n      0x796f752063616e27742068617665203020616d6f756e74000000000000000000\n        /* \"#utility.yul\":31955:31956   */\n      0x00\n        /* \"#utility.yul\":31947:31953   */\n      dup3\n        /* \"#utility.yul\":31943:31957   */\n      add\n        /* \"#utility.yul\":31936:31985   */\n      mstore\n        /* \"#utility.yul\":31925:31992   */\n      pop\n      jump\t// out\n        /* \"#utility.yul\":31998:32179   */\n    tag_498:\n        /* \"#utility.yul\":32138:32171   */\n      0x616464726573732063616e27742062652061207a65726f206164647265737300\n        /* \"#utility.yul\":32134:32135   */\n      0x00\n        /* \"#utility.yul\":32126:32132   */\n      dup3\n        /* \"#utility.yul\":32122:32136   */\n      add\n        /* \"#utility.yul\":32115:32172   */\n      mstore\n        /* \"#utility.yul\":32104:32179   */\n      pop\n      jump\t// out\n        /* \"#utility.yul\":32185:32357   */\n    tag_503:\n        /* \"#utility.yul\":32325:32349   */\n      0x74686520636f6e74726163742069732070617573656400000000000000000000\n        /* \"#utility.yul\":32321:32322   */\n      0x00\n        /* \"#utility.yul\":32313:32319   */\n      dup3\n        /* \"#utility.yul\":32309:32323   */\n      add\n        /* \"#utility.yul\":32302:32350   */\n      mstore\n        /* \"#utility.yul\":32291:32357   */\n      pop\n      jump\t// out\n        /* \"#utility.yul\":32363:32586   */\n    tag_508:\n        /* \"#utility.yul\":32503:32537   */\n      0x4a6f62206d75737420626520696e2070726f6772657373206f7220636f6d706c\n        /* \"#utility.yul\":32499:32500   */\n      0x00\n        /* \"#utility.yul\":32491:32497   */\n      dup3\n        /* \"#utility.yul\":32487:32501   */\n      add\n        /* \"#utility.yul\":32480:32538   */\n      mstore\n        /* \"#utility.yul\":32572:32578   */\n      0x6574656400000000000000000000000000000000000000000000000000000000\n        /* \"#utility.yul\":32567:32569   */\n      0x20\n        /* \"#utility.yul\":32559:32565   */\n      dup3\n        /* \"#utility.yul\":32555:32570   */\n      add\n        /* \"#utility.yul\":32548:32579   */\n      mstore\n        /* \"#utility.yul\":32469:32586   */\n      pop\n      jump\t// out\n        /* \"#utility.yul\":32592:32757   */\n    tag_513:\n        /* \"#utility.yul\":32732:32749   */\n      0x6e6f206561726e696e6773207965740000000000000000000000000000000000\n        /* \"#utility.yul\":32728:32729   */\n      0x00\n        /* \"#utility.yul\":32720:32726   */\n      dup3\n        /* \"#utility.yul\":32716:32730   */\n      add\n        /* \"#utility.yul\":32709:32750   */\n      mstore\n        /* \"#utility.yul\":32698:32757   */\n      pop\n      jump\t// out\n        /* \"#utility.yul\":32763:32986   */\n    tag_518:\n        /* \"#utility.yul\":32903:32937   */\n      0x616464726573732063616e2774206265207468652064656661756c7420616464\n        /* \"#utility.yul\":32899:32900   */\n      0x00\n        /* \"#utility.yul\":32891:32897   */\n      dup3\n        /* \"#utility.yul\":32887:32901   */\n      add\n        /* \"#utility.yul\":32880:32938   */\n      mstore\n        /* \"#utility.yul\":32972:32978   */\n      0x7265737300000000000000000000000000000000000000000000000000000000\n        /* \"#utility.yul\":32967:32969   */\n      0x20\n        /* \"#utility.yul\":32959:32965   */\n      dup3\n        /* \"#utility.yul\":32955:32970   */\n      add\n        /* \"#utility.yul\":32948:32979   */\n      mstore\n        /* \"#utility.yul\":32869:32986   */\n      pop\n      jump\t// out\n        /* \"#utility.yul\":32992:33212   */\n    tag_523:\n        /* \"#utility.yul\":33132:33166   */\n      0x6f6e6c79206f776e65722063616e2063616c6c207468697320636f6e74726163\n        /* \"#utility.yul\":33128:33129   */\n      0x00\n        /* \"#utility.yul\":33120:33126   */\n      dup3\n        /* \"#utility.yul\":33116:33130   */\n      add\n        /* \"#utility.yul\":33109:33167   */\n      mstore\n        /* \"#utility.yul\":33201:33204   */\n      0x7400000000000000000000000000000000000000000000000000000000000000\n        /* \"#utility.yul\":33196:33198   */\n      0x20\n        /* \"#utility.yul\":33188:33194   */\n      dup3\n        /* \"#utility.yul\":33184:33199   */\n      add\n        /* \"#utility.yul\":33177:33205   */\n      mstore\n        /* \"#utility.yul\":33098:33212   */\n      pop\n      jump\t// out\n        /* \"#utility.yul\":33218:33447   */\n    tag_528:\n        /* \"#utility.yul\":33358:33392   */\n      0x6f6e6365206a6f622069732061636365707465642069742063616e2774206265\n        /* \"#utility.yul\":33354:33355   */\n      0x00\n        /* \"#utility.yul\":33346:33352   */\n      dup3\n        /* \"#utility.yul\":33342:33356   */\n      add\n        /* \"#utility.yul\":33335:33393   */\n      mstore\n        /* \"#utility.yul\":33427:33439   */\n      0x2063616e63656c6c656400000000000000000000000000000000000000000000\n        /* \"#utility.yul\":33422:33424   */\n      0x20\n        /* \"#utility.yul\":33414:33420   */\n      dup3\n        /* \"#utility.yul\":33410:33425   */\n      add\n        /* \"#utility.yul\":33403:33440   */\n      mstore\n        /* \"#utility.yul\":33324:33447   */\n      pop\n      jump\t// out\n        /* \"#utility.yul\":33453:33633   */\n    tag_533:\n        /* \"#utility.yul\":33593:33625   */\n      0x667265656c616e6365722063616e27742062652074686520636c69656e740000\n        /* \"#utility.yul\":33589:33590   */\n      0x00\n        /* \"#utility.yul\":33581:33587   */\n      dup3\n        /* \"#utility.yul\":33577:33591   */\n      add\n        /* \"#utility.yul\":33570:33626   */\n      mstore\n        /* \"#utility.yul\":33559:33633   */\n      pop\n      jump\t// out\n        /* \"#utility.yul\":33639:33814   */\n    tag_538:\n        /* \"#utility.yul\":33779:33806   */\n      0x667265656c616e63657220686173206e6f2062616c616e636500000000000000\n        /* \"#utility.yul\":33775:33776   */\n      0x00\n        /* \"#utility.yul\":33767:33773   */\n      dup3\n        /* \"#utility.yul\":33763:33777   */\n      add\n        /* \"#utility.yul\":33756:33807   */\n      mstore\n        /* \"#utility.yul\":33745:33814   */\n      pop\n      jump\t// out\n        /* \"#utility.yul\":33820:33935   */\n    tag_655:\n        /* \"#utility.yul\":33903:33904   */\n      0x06\n        /* \"#utility.yul\":33896:33901   */\n      dup2\n        /* \"#utility.yul\":33893:33905   */\n      lt\n        /* \"#utility.yul\":33883:33885   */\n      tag_707\n      jumpi\n        /* \"#utility.yul\":33909:33927   */\n      tag_708\n      tag_681\n      jump\t// in\n    tag_708:\n        /* \"#utility.yul\":33883:33885   */\n    tag_707:\n        /* \"#utility.yul\":33873:33935   */\n      pop\n      jump\t// out\n        /* \"#utility.yul\":33941:34063   */\n    tag_364:\n        /* \"#utility.yul\":34014:34038   */\n      tag_710\n        /* \"#utility.yul\":34032:34037   */\n      dup2\n        /* \"#utility.yul\":34014:34038   */\n      tag_399\n      jump\t// in\n    tag_710:\n        /* \"#utility.yul\":34007:34012   */\n      dup2\n        /* \"#utility.yul\":34004:34039   */\n      eq\n        /* \"#utility.yul\":33994:33996   */\n      tag_711\n      jumpi\n        /* \"#utility.yul\":34053:34054   */\n      0x00\n        /* \"#utility.yul\":34050:34051   */\n      dup1\n        /* \"#utility.yul\":34043:34055   */\n      revert\n        /* \"#utility.yul\":33994:33996   */\n    tag_711:\n        /* \"#utility.yul\":33984:34063   */\n      pop\n      jump\t// out\n        /* \"#utility.yul\":34069:34185   */\n    tag_368:\n        /* \"#utility.yul\":34139:34160   */\n      tag_713\n        /* \"#utility.yul\":34154:34159   */\n      dup2\n        /* \"#utility.yul\":34139:34160   */\n      tag_417\n      jump\t// in\n    tag_713:\n        /* \"#utility.yul\":34132:34137   */\n      dup2\n        /* \"#utility.yul\":34129:34161   */\n      eq\n        /* \"#utility.yul\":34119:34121   */\n      tag_714\n      jumpi\n        /* \"#utility.yul\":34175:34176   */\n      0x00\n        /* \"#utility.yul\":34172:34173   */\n      dup1\n        /* \"#utility.yul\":34165:34177   */\n      revert\n        /* \"#utility.yul\":34119:34121   */\n    tag_714:\n        /* \"#utility.yul\":34109:34185   */\n      pop\n      jump\t// out\n        /* \"#utility.yul\":34191:34313   */\n    tag_376:\n        /* \"#utility.yul\":34264:34288   */\n      tag_716\n        /* \"#utility.yul\":34282:34287   */\n      dup2\n        /* \"#utility.yul\":34264:34288   */\n      tag_550\n      jump\t// in\n    tag_716:\n        /* \"#utility.yul\":34257:34262   */\n      dup2\n        /* \"#utility.yul\":34254:34289   */\n      eq\n        /* \"#utility.yul\":34244:34246   */\n      tag_717\n      jumpi\n        /* \"#utility.yul\":34303:34304   */\n      0x00\n        /* \"#utility.yul\":34300:34301   */\n      dup1\n        /* \"#utility.yul\":34293:34305   */\n      revert\n        /* \"#utility.yul\":34244:34246   */\n    tag_717:\n        /* \"#utility.yul\":34234:34313   */\n      pop\n      jump\t// out\n\n    auxdata: 0xa2646970667358221220eb1ada5ca0230da7f68293a9eb4a40f5a0ba98fa74b8d7890e8d694167e438a864736f6c63430008030033\n}\n",
				"bytecode": {
					"linkReferences": {},
					"object": "6080604052600560015534801561001557600080fd5b50336000806101000a81548173ffffffffffffffffffffffffffffffffffffffff021916908373ffffffffffffffffffffffffffffffffffffffff160217905550613e58806100656000396000f3fe6080604052600436106100fe5760003560e01c806386d6282c11610095578063e018243611610064578063e0182436146102d8578063e39c336714610301578063ee28ea621461032c578063f2fde38b14610355578063f7b188a51461037e576100fe565b806386d6282c14610246578063b73c6ce91461026f578063c4c1152314610286578063dcb05611146102af576100fe565b80635c77298d116100d15780635c77298d146101995780636985a022146101c95780636a1db1bf146101e05780637d19e59614610209576100fe565b80630f3dcdf214610103578063202cefd51461012e57806322754d8b1461014557806334b25ee214610170575b600080fd5b34801561010f57600080fd5b50610118610395565b6040516101259190613236565b60405180910390f35b34801561013a57600080fd5b50610143610480565b005b34801561015157600080fd5b5061015a61065b565b6040516101679190613545565b60405180910390f35b34801561017c57600080fd5b5061019760048036038101906101929190612d6f565b6106f7565b005b6101b360048036038101906101ae9190612cf2565b610bb5565b6040516101c09190613545565b60405180910390f35b3480156101d557600080fd5b506101de6110a0565b005b3480156101ec57600080fd5b5061020760048036038101906102029190612d46565b61114b565b005b34801561021557600080fd5b50610230600480360381019061022b9190612d46565b6112ca565b60405161023d9190613523565b60405180910390f35b34801561025257600080fd5b5061026d60048036038101906102689190612d46565b611583565b005b34801561027b57600080fd5b5061028461195c565b005b34801561029257600080fd5b506102ad60048036038101906102a89190612d46565b611b55565b005b3480156102bb57600080fd5b506102d660048036038101906102d19190612d46565b611e26565b005b3480156102e457600080fd5b506102ff60048036038101906102fa9190612d46565b612204565b005b34801561030d57600080fd5b50610316612538565b6040516103239190613236565b60405180910390f35b34801561033857600080fd5b50610353600480360381019061034e9190612d46565b612623565b005b34801561036157600080fd5b5061037c60048036038101906103779190612cc9565b6128f4565b005b34801561038a57600080fd5b50610393612a34565b005b606060001515600060149054906101000a900460ff161515146103ed576040517f08c379a00000000000000000000000000000000000000000000000000000000081526004016103e490613423565b60405180910390fd5b600560003373ffffffffffffffffffffffffffffffffffffffff1673ffffffffffffffffffffffffffffffffffffffff16815260200190815260200160002080548060200260200160405190810160405280929190818152602001828054801561047657602002820191906000526020600020905b815481526020019060010190808311610462575b5050505050905090565b60001515600060149054906101000a900460ff161515146104d6576040517f08c379a00000000000000000000000000000000000000000000000000000000081526004016104cd90613423565b60405180910390fd5b60008054906101000a900473ffffffffffffffffffffffffffffffffffffffff1673ffffffffffffffffffffffffffffffffffffffff163373ffffffffffffffffffffffffffffffffffffffff1614610564576040517f08c379a000000000000000000000000000000000000000000000000000000000815260040161055b906134a3565b60405180910390fd5b6000600254116105a9576040517f08c379a00000000000000000000000000000000000000000000000000000000081526004016105a090613463565b60405180910390fd5b6000600254905060008054906101000a900473ffffffffffffffffffffffffffffffffffffffff1673ffffffffffffffffffffffffffffffffffffffff166108fc6002549081150290604051600060405180830381858888f19350505050158015610618573d6000803e3d6000fd5b5060006002819055507fa2aa7cfe8c0ee9cbafa5729e8b55eaa4b93b0faecde673005a239ae26957b35c816040516106509190613545565b60405180910390a150565b6000801515600060149054906101000a900460ff161515146106b2576040517f08c379a00000000000000000000000000000000000000000000000000000000081526004016106a990613423565b60405180910390fd5b600760003373ffffffffffffffffffffffffffffffffffffffff1673ffffffffffffffffffffffffffffffffffffffff16815260200190815260200160002054905090565b60001515600060149054906101000a900460ff1615151461074d576040517f08c379a000000000000000000000000000000000000000000000000000000000815260040161074490613423565b60405180910390fd5b60008054906101000a900473ffffffffffffffffffffffffffffffffffffffff1673ffffffffffffffffffffffffffffffffffffffff163373ffffffffffffffffffffffffffffffffffffffff16146107db576040517f08c379a00000000000000000000000000000000000000000000000000000000081526004016107d2906134a3565b60405180910390fd5b816000811180156107ee57506003548111155b61082d576040517f08c379a000000000000000000000000000000000000000000000000000000000815260040161082490613363565b60405180910390fd5b60036005811115610867577f4e487b7100000000000000000000000000000000000000000000000000000000600052602160045260246000fd5b6004600085815260200190815260200160002060050160009054906101000a900460ff1660058111156108c3577f4e487b7100000000000000000000000000000000000000000000000000000000600052602160045260246000fd5b14610903576040517f08c379a00000000000000000000000000000000000000000000000000000000081526004016108fa90613323565b60405180910390fd5b8115610a735760006064600154600460008781526020019081526020016000206004015461093191906136cc565b61093b919061369b565b905060008160046000878152602001908152602001600020600401546109619190613726565b905081600260008282546109759190613645565b9250508190555080600760006004600089815260200190815260200160002060020160009054906101000a900473ffffffffffffffffffffffffffffffffffffffff1673ffffffffffffffffffffffffffffffffffffffff1673ffffffffffffffffffffffffffffffffffffffff1681526020019081526020016000206000828254610a019190613645565b92505081905550600480600087815260200190815260200160002060050160006101000a81548160ff02191690836005811115610a67577f4e487b7100000000000000000000000000000000000000000000000000000000600052602160045260246000fd5b02179055505050610b78565b60006004600085815260200190815260200160002060040154905060006004600086815260200190815260200160002060010160009054906101000a900473ffffffffffffffffffffffffffffffffffffffff1690508073ffffffffffffffffffffffffffffffffffffffff166108fc839081150290604051600060405180830381858888f19350505050158015610b0f573d6000803e3d6000fd5b5060056004600087815260200190815260200160002060050160006101000a81548160ff02191690836005811115610b70577f4e487b7100000000000000000000000000000000000000000000000000000000600052602160045260246000fd5b021790555050505b827fad022a94c615bc9863e43eb37c254f7b071247baea6b292d36e7daf39649954c83604051610ba89190613258565b60405180910390a2505050565b6000801515600060149054906101000a900460ff16151514610c0c576040517f08c379a0000000000000000000000000000000000000000000000000000000008152600401610c0390613423565b60405180910390fd5b600a835111610c50576040517f08c379a0000000000000000000000000000000000000000000000000000000008152600401610c47906132e3565b60405180910390fd5b600073ffffffffffffffffffffffffffffffffffffffff168273ffffffffffffffffffffffffffffffffffffffff161415610cc0576040517f08c379a0000000000000000000000000000000000000000000000000000000008152600401610cb790613483565b60405180910390fd5b3373ffffffffffffffffffffffffffffffffffffffff168273ffffffffffffffffffffffffffffffffffffffff161415610d2f576040517f08c379a0000000000000000000000000000000000000000000000000000000008152600401610d26906134e3565b60405180910390fd5b60003411610d72576040517f08c379a0000000000000000000000000000000000000000000000000000000008152600401610d69906133e3565b60405180910390fd5b60036000815480929190610d859061386c565b91905055506040518060e0016040528060035481526020013373ffffffffffffffffffffffffffffffffffffffff1681526020018373ffffffffffffffffffffffffffffffffffffffff16815260200184815260200134815260200160006005811115610e1b577f4e487b7100000000000000000000000000000000000000000000000000000000600052602160045260246000fd5b8152602001428152506004600060035481526020019081526020016000206000820151816000015560208201518160010160006101000a81548173ffffffffffffffffffffffffffffffffffffffff021916908373ffffffffffffffffffffffffffffffffffffffff16021790555060408201518160020160006101000a81548173ffffffffffffffffffffffffffffffffffffffff021916908373ffffffffffffffffffffffffffffffffffffffff1602179055506060820151816003019080519060200190610eed929190612ade565b506080820151816004015560a08201518160050160006101000a81548160ff02191690836005811115610f49577f4e487b7100000000000000000000000000000000000000000000000000000000600052602160045260246000fd5b021790555060c08201518160060155905050600560003373ffffffffffffffffffffffffffffffffffffffff1673ffffffffffffffffffffffffffffffffffffffff1681526020019081526020016000206003549080600181540180825580915050600190039060005260206000200160009091909190915055600660008373ffffffffffffffffffffffffffffffffffffffff1673ffffffffffffffffffffffffffffffffffffffff16815260200190815260200160002060035490806001815401808255809150506001900390600052602060002001600090919091909150558173ffffffffffffffffffffffffffffffffffffffff163373ffffffffffffffffffffffffffffffffffffffff166003547f745e3de88e5bf91fb92b455085c084b0e0608da9801b3b42c3aede168c20cd4c863460405161108d929190613273565b60405180910390a4600354905092915050565b60008054906101000a900473ffffffffffffffffffffffffffffffffffffffff1673ffffffffffffffffffffffffffffffffffffffff163373ffffffffffffffffffffffffffffffffffffffff161461112e576040517f08c379a0000000000000000000000000000000000000000000000000000000008152600401611125906134a3565b60405180910390fd5b6001600060146101000a81548160ff021916908315150217905550565b60001515600060149054906101000a900460ff161515146111a1576040517f08c379a000000000000000000000000000000000000000000000000000000000815260040161119890613423565b60405180910390fd5b60008054906101000a900473ffffffffffffffffffffffffffffffffffffffff1673ffffffffffffffffffffffffffffffffffffffff163373ffffffffffffffffffffffffffffffffffffffff161461122f576040517f08c379a0000000000000000000000000000000000000000000000000000000008152600401611226906134a3565b60405180910390fd5b6000811180156112405750600a8111155b61127f576040517f08c379a0000000000000000000000000000000000000000000000000000000008152600401611276906133a3565b60405180910390fd5b60006001549050816001819055507f274913e7fa17afaca46c1309c64d45f0ec6ab5100bd6c9cec896da397fde70ce81836040516112be929190613560565b60405180910390a15050565b6112d2612b64565b60001515600060149054906101000a900460ff16151514611328576040517f08c379a000000000000000000000000000000000000000000000000000000000815260040161131f90613423565b60405180910390fd5b8160008111801561133b57506003548111155b61137a576040517f08c379a000000000000000000000000000000000000000000000000000000000815260040161137190613363565b60405180910390fd5b600460008481526020019081526020016000206040518060e0016040529081600082015481526020016001820160009054906101000a900473ffffffffffffffffffffffffffffffffffffffff1673ffffffffffffffffffffffffffffffffffffffff1673ffffffffffffffffffffffffffffffffffffffff1681526020016002820160009054906101000a900473ffffffffffffffffffffffffffffffffffffffff1673ffffffffffffffffffffffffffffffffffffffff1673ffffffffffffffffffffffffffffffffffffffff16815260200160038201805461145e90613809565b80601f016020809104026020016040519081016040528092919081815260200182805461148a90613809565b80156114d75780601f106114ac576101008083540402835291602001916114d7565b820191906000526020600020905b8154815290600101906020018083116114ba57829003601f168201915b50505050508152602001600482015481526020016005820160009054906101000a900460ff166005811115611535577f4e487b7100000000000000000000000000000000000000000000000000000000600052602160045260246000fd5b600581111561156d577f4e487b7100000000000000000000000000000000000000000000000000000000600052602160045260246000fd5b8152602001600682015481525050915050919050565b60001515600060149054906101000a900460ff161515146115d9576040517f08c379a00000000000000000000000000000000000000000000000000000000081526004016115d090613423565b60405180910390fd5b806000811180156115ec57506003548111155b61162b576040517f08c379a000000000000000000000000000000000000000000000000000000000815260040161162290613363565b60405180910390fd5b3373ffffffffffffffffffffffffffffffffffffffff166004600084815260200190815260200160002060010160009054906101000a900473ffffffffffffffffffffffffffffffffffffffff1673ffffffffffffffffffffffffffffffffffffffff1614806116fc57503373ffffffffffffffffffffffffffffffffffffffff166004600084815260200190815260200160002060020160009054906101000a900473ffffffffffffffffffffffffffffffffffffffff1673ffffffffffffffffffffffffffffffffffffffff16145b61173b576040517f08c379a0000000000000000000000000000000000000000000000000000000008152600401611732906133c3565b60405180910390fd5b60016005811115611775577f4e487b7100000000000000000000000000000000000000000000000000000000600052602160045260246000fd5b6004600084815260200190815260200160002060050160009054906101000a900460ff1660058111156117d1577f4e487b7100000000000000000000000000000000000000000000000000000000600052602160045260246000fd5b1480611870575060026005811115611812577f4e487b7100000000000000000000000000000000000000000000000000000000600052602160045260246000fd5b6004600084815260200190815260200160002060050160009054906101000a900460ff16600581111561186e577f4e487b7100000000000000000000000000000000000000000000000000000000600052602160045260246000fd5b145b6118af576040517f08c379a00000000000000000000000000000000000000000000000000000000081526004016118a690613443565b60405180910390fd5b60036004600084815260200190815260200160002060050160006101000a81548160ff0219169083600581111561190f577f4e487b7100000000000000000000000000000000000000000000000000000000600052602160045260246000fd5b02179055503373ffffffffffffffffffffffffffffffffffffffff16827ffffaac61c058a50da2d1859744ddf520e9c9505d6eec51e0ef1b4830b470d7fd60405160405180910390a35050565b60001515600060149054906101000a900460ff161515146119b2576040517f08c379a00000000000000000000000000000000000000000000000000000000081526004016119a990613423565b60405180910390fd5b6000600760003373ffffffffffffffffffffffffffffffffffffffff1673ffffffffffffffffffffffffffffffffffffffff1681526020019081526020016000205411611a34576040517f08c379a0000000000000000000000000000000000000000000000000000000008152600401611a2b90613503565b60405180910390fd5b6000600760003373ffffffffffffffffffffffffffffffffffffffff1673ffffffffffffffffffffffffffffffffffffffff1681526020019081526020016000205490503373ffffffffffffffffffffffffffffffffffffffff166108fc829081150290604051600060405180830381858888f19350505050158015611abe573d6000803e3d6000fd5b506000600760003373ffffffffffffffffffffffffffffffffffffffff1673ffffffffffffffffffffffffffffffffffffffff168152602001908152602001600020819055503373ffffffffffffffffffffffffffffffffffffffff167fb040b0548401c5129b6a096ba7887218c270f45cdd16bc8dd38b26de8c12acd082604051611b4a9190613545565b60405180910390a250565b60001515600060149054906101000a900460ff16151514611bab576040517f08c379a0000000000000000000000000000000000000000000000000000000008152600401611ba290613423565b60405180910390fd5b803373ffffffffffffffffffffffffffffffffffffffff166004600083815260200190815260200160002060020160009054906101000a900473ffffffffffffffffffffffffffffffffffffffff1673ffffffffffffffffffffffffffffffffffffffff1614611c50576040517f08c379a0000000000000000000000000000000000000000000000000000000008152600401611c4790613303565b60405180910390fd5b81600081118015611c6357506003548111155b611ca2576040517f08c379a0000000000000000000000000000000000000000000000000000000008152600401611c9990613363565b60405180910390fd5b60016005811115611cdc577f4e487b7100000000000000000000000000000000000000000000000000000000600052602160045260246000fd5b6004600085815260200190815260200160002060050160009054906101000a900460ff166005811115611d38577f4e487b7100000000000000000000000000000000000000000000000000000000600052602160045260246000fd5b14611d78576040517f08c379a0000000000000000000000000000000000000000000000000000000008152600401611d6f90613383565b60405180910390fd5b60026004600085815260200190815260200160002060050160006101000a81548160ff02191690836005811115611dd8577f4e487b7100000000000000000000000000000000000000000000000000000000600052602160045260246000fd5b02179055503373ffffffffffffffffffffffffffffffffffffffff16837f6f64d071670dffb53c3ec519c8d9a5b9bd92b2ece000406c1e59ae57c9187dd560405160405180910390a3505050565b60001515600060149054906101000a900460ff16151514611e7c576040517f08c379a0000000000000000000000000000000000000000000000000000000008152600401611e7390613423565b60405180910390fd5b803373ffffffffffffffffffffffffffffffffffffffff166004600083815260200190815260200160002060010160009054906101000a900473ffffffffffffffffffffffffffffffffffffffff1673ffffffffffffffffffffffffffffffffffffffff1614611f21576040517f08c379a0000000000000000000000000000000000000000000000000000000008152600401611f18906132c3565b60405180910390fd5b81600081118015611f3457506003548111155b611f73576040517f08c379a0000000000000000000000000000000000000000000000000000000008152600401611f6a90613363565b60405180910390fd5b60026005811115611fad577f4e487b7100000000000000000000000000000000000000000000000000000000600052602160045260246000fd5b6004600085815260200190815260200160002060050160009054906101000a900460ff166005811115612009577f4e487b7100000000000000000000000000000000000000000000000000000000600052602160045260246000fd5b14612049576040517f08c379a000000000000000000000000000000000000000000000000000000000815260040161204090613343565b60405180910390fd5b60006064600154600460008781526020019081526020016000206004015461207191906136cc565b61207b919061369b565b905060008160046000878152602001908152602001600020600401546120a19190613726565b905081600260008282546120b59190613645565b9250508190555080600760006004600089815260200190815260200160002060020160009054906101000a900473ffffffffffffffffffffffffffffffffffffffff1673ffffffffffffffffffffffffffffffffffffffff1673ffffffffffffffffffffffffffffffffffffffff16815260200190815260200160002060008282546121419190613645565b92505081905550600480600087815260200190815260200160002060050160006101000a81548160ff021916908360058111156121a7577f4e487b7100000000000000000000000000000000000000000000000000000000600052602160045260246000fd5b02179055503373ffffffffffffffffffffffffffffffffffffffff16857f06b47ac85beedca9f4ebbc12634a84dd3d260bae3cc4c67fcdf8c326f9b4a1e383856040516121f5929190613560565b60405180910390a35050505050565b60001515600060149054906101000a900460ff1615151461225a576040517f08c379a000000000000000000000000000000000000000000000000000000000815260040161225190613423565b60405180910390fd5b803373ffffffffffffffffffffffffffffffffffffffff166004600083815260200190815260200160002060010160009054906101000a900473ffffffffffffffffffffffffffffffffffffffff1673ffffffffffffffffffffffffffffffffffffffff16146122ff576040517f08c379a00000000000000000000000000000000000000000000000000000000081526004016122f6906132c3565b60405180910390fd5b8160008111801561231257506003548111155b612351576040517f08c379a000000000000000000000000000000000000000000000000000000000815260040161234890613363565b60405180910390fd5b6000600581111561238b577f4e487b7100000000000000000000000000000000000000000000000000000000600052602160045260246000fd5b6004600085815260200190815260200160002060050160009054906101000a900460ff1660058111156123e7577f4e487b7100000000000000000000000000000000000000000000000000000000600052602160045260246000fd5b14612427576040517f08c379a000000000000000000000000000000000000000000000000000000000815260040161241e906134c3565b60405180910390fd5b6000600460008581526020019081526020016000206004015490503373ffffffffffffffffffffffffffffffffffffffff166108fc829081150290604051600060405180830381858888f19350505050158015612488573d6000803e3d6000fd5b5060056004600086815260200190815260200160002060050160006101000a81548160ff021916908360058111156124e9577f4e487b7100000000000000000000000000000000000000000000000000000000600052602160045260246000fd5b02179055503373ffffffffffffffffffffffffffffffffffffffff16847fcdac2b89a9b0d70f2f97c5b7164bba2d6a770c137b5772f8e821c8c38d7c482660405160405180910390a350505050565b606060001515600060149054906101000a900460ff16151514612590576040517f08c379a000000000000000000000000000000000000000000000000000000000815260040161258790613423565b60405180910390fd5b600660003373ffffffffffffffffffffffffffffffffffffffff1673ffffffffffffffffffffffffffffffffffffffff16815260200190815260200160002080548060200260200160405190810160405280929190818152602001828054801561261957602002820191906000526020600020905b815481526020019060010190808311612605575b5050505050905090565b60001515600060149054906101000a900460ff16151514612679576040517f08c379a000000000000000000000000000000000000000000000000000000000815260040161267090613423565b60405180910390fd5b803373ffffffffffffffffffffffffffffffffffffffff166004600083815260200190815260200160002060020160009054906101000a900473ffffffffffffffffffffffffffffffffffffffff1673ffffffffffffffffffffffffffffffffffffffff161461271e576040517f08c379a000000000000000000000000000000000000000000000000000000000815260040161271590613303565b60405180910390fd5b8160008111801561273157506003548111155b612770576040517f08c379a000000000000000000000000000000000000000000000000000000000815260040161276790613363565b60405180910390fd5b600060058111156127aa577f4e487b7100000000000000000000000000000000000000000000000000000000600052602160045260246000fd5b6004600085815260200190815260200160002060050160009054906101000a900460ff166005811115612806577f4e487b7100000000000000000000000000000000000000000000000000000000600052602160045260246000fd5b14612846576040517f08c379a000000000000000000000000000000000000000000000000000000000815260040161283d906132a3565b60405180910390fd5b60016004600085815260200190815260200160002060050160006101000a81548160ff021916908360058111156128a6577f4e487b7100000000000000000000000000000000000000000000000000000000600052602160045260246000fd5b02179055503373ffffffffffffffffffffffffffffffffffffffff16837f87136e412f5f61ca8282f28c531b67a1ac65873685c16245a61f698bb0c07afe60405160405180910390a3505050565b60008054906101000a900473ffffffffffffffffffffffffffffffffffffffff1673ffffffffffffffffffffffffffffffffffffffff163373ffffffffffffffffffffffffffffffffffffffff1614612982576040517f08c379a0000000000000000000000000000000000000000000000000000000008152600401612979906134a3565b60405180910390fd5b600073ffffffffffffffffffffffffffffffffffffffff168173ffffffffffffffffffffffffffffffffffffffff16146129f1576040517f08c379a00000000000000000000000000000000000000000000000000000000081526004016129e890613403565b60405180910390fd5b806000806101000a81548173ffffffffffffffffffffffffffffffffffffffff021916908373ffffffffffffffffffffffffffffffffffffffff16021790555050565b60008054906101000a900473ffffffffffffffffffffffffffffffffffffffff1673ffffffffffffffffffffffffffffffffffffffff163373ffffffffffffffffffffffffffffffffffffffff1614612ac2576040517f08c379a0000000000000000000000000000000000000000000000000000000008152600401612ab9906134a3565b60405180910390fd5b60008060146101000a81548160ff021916908315150217905550565b828054612aea90613809565b90600052602060002090601f016020900481019282612b0c5760008555612b53565b82601f10612b2557805160ff1916838001178555612b53565b82800160010185558215612b53579182015b82811115612b52578251825591602001919060010190612b37565b5b509050612b609190612c05565b5090565b6040518060e0016040528060008152602001600073ffffffffffffffffffffffffffffffffffffffff168152602001600073ffffffffffffffffffffffffffffffffffffffff168152602001606081526020016000815260200160006005811115612bf8577f4e487b7100000000000000000000000000000000000000000000000000000000600052602160045260246000fd5b8152602001600081525090565b5b80821115612c1e576000816000905550600101612c06565b5090565b6000612c35612c30846135ae565b613589565b905082815260208101848484011115612c4d57600080fd5b612c588482856137c7565b509392505050565b600081359050612c6f81613ddd565b92915050565b600081359050612c8481613df4565b92915050565b600082601f830112612c9b57600080fd5b8135612cab848260208601612c22565b91505092915050565b600081359050612cc381613e0b565b92915050565b600060208284031215612cdb57600080fd5b6000612ce984828501612c60565b91505092915050565b60008060408385031215612d0557600080fd5b600083013567ffffffffffffffff811115612d1f57600080fd5b612d2b85828601612c8a565b9250506020612d3c85828601612c60565b9150509250929050565b600060208284031215612d5857600080fd5b6000612d6684828501612cb4565b91505092915050565b60008060408385031215612d8257600080fd5b6000612d9085828601612cb4565b9250506020612da185828601612c75565b9150509250929050565b6000612db78383613218565b60208301905092915050565b612dcc8161375a565b82525050565b6000612ddd826135ef565b612de78185613612565b9350612df2836135df565b8060005b83811015612e23578151612e0a8882612dab565b9750612e1583613605565b925050600181019050612df6565b5085935050505092915050565b612e398161376c565b82525050565b612e48816137b5565b82525050565b6000612e59826135fa565b612e638185613623565b9350612e738185602086016137d6565b612e7c816139a0565b840191505092915050565b6000612e92826135fa565b612e9c8185613634565b9350612eac8185602086016137d6565b612eb5816139a0565b840191505092915050565b6000612ecd601283613634565b9150612ed8826139b1565b602082019050919050565b6000612ef0601a83613634565b9150612efb826139da565b602082019050919050565b6000612f13602283613634565b9150612f1e82613a03565b604082019050919050565b6000612f36601e83613634565b9150612f4182613a52565b602082019050919050565b6000612f59601683613634565b9150612f6482613a7b565b602082019050919050565b6000612f7c601783613634565b9150612f8782613aa4565b602082019050919050565b6000612f9f601883613634565b9150612faa82613acd565b602082019050919050565b6000612fc2601983613634565b9150612fcd82613af6565b602082019050919050565b6000612fe5602283613634565b9150612ff082613b1f565b604082019050919050565b6000613008601983613634565b915061301382613b6e565b602082019050919050565b600061302b601783613634565b915061303682613b97565b602082019050919050565b600061304e601f83613634565b915061305982613bc0565b602082019050919050565b6000613071601683613634565b915061307c82613be9565b602082019050919050565b6000613094602483613634565b915061309f82613c12565b604082019050919050565b60006130b7600f83613634565b91506130c282613c61565b602082019050919050565b60006130da602483613634565b91506130e582613c8a565b604082019050919050565b60006130fd602183613634565b915061310882613cd9565b604082019050919050565b6000613120602a83613634565b915061312b82613d28565b604082019050919050565b6000613143601e83613634565b915061314e82613d77565b602082019050919050565b6000613166601983613634565b915061317182613da0565b602082019050919050565b600060e0830160008301516131946000860182613218565b5060208301516131a76020860182612dc3565b5060408301516131ba6040860182612dc3565b50606083015184820360608601526131d28282612e4e565b91505060808301516131e76080860182613218565b5060a08301516131fa60a0860182612e3f565b5060c083015161320d60c0860182613218565b508091505092915050565b613221816137ab565b82525050565b613230816137ab565b82525050565b600060208201905081810360008301526132508184612dd2565b905092915050565b600060208201905061326d6000830184612e30565b92915050565b6000604082019050818103600083015261328d8185612e87565b905061329c6020830184613227565b9392505050565b600060208201905081810360008301526132bc81612ec0565b9050919050565b600060208201905081810360008301526132dc81612ee3565b9050919050565b600060208201905081810360008301526132fc81612f06565b9050919050565b6000602082019050818103600083015261331c81612f29565b9050919050565b6000602082019050818103600083015261333c81612f4c565b9050919050565b6000602082019050818103600083015261335c81612f6f565b9050919050565b6000602082019050818103600083015261337c81612f92565b9050919050565b6000602082019050818103600083015261339c81612fb5565b9050919050565b600060208201905081810360008301526133bc81612fd8565b9050919050565b600060208201905081810360008301526133dc81612ffb565b9050919050565b600060208201905081810360008301526133fc8161301e565b9050919050565b6000602082019050818103600083015261341c81613041565b9050919050565b6000602082019050818103600083015261343c81613064565b9050919050565b6000602082019050818103600083015261345c81613087565b9050919050565b6000602082019050818103600083015261347c816130aa565b9050919050565b6000602082019050818103600083015261349c816130cd565b9050919050565b600060208201905081810360008301526134bc816130f0565b9050919050565b600060208201905081810360008301526134dc81613113565b9050919050565b600060208201905081810360008301526134fc81613136565b9050919050565b6000602082019050818103600083015261351c81613159565b9050919050565b6000602082019050818103600083015261353d818461317c565b905092915050565b600060208201905061355a6000830184613227565b92915050565b60006040820190506135756000830185613227565b6135826020830184613227565b9392505050565b60006135936135a4565b905061359f828261383b565b919050565b6000604051905090565b600067ffffffffffffffff8211156135c9576135c8613971565b5b6135d2826139a0565b9050602081019050919050565b6000819050602082019050919050565b600081519050919050565b600081519050919050565b6000602082019050919050565b600082825260208201905092915050565b600082825260208201905092915050565b600082825260208201905092915050565b6000613650826137ab565b915061365b836137ab565b9250827fffffffffffffffffffffffffffffffffffffffffffffffffffffffffffffffff038211156136905761368f6138b5565b5b828201905092915050565b60006136a6826137ab565b91506136b1836137ab565b9250826136c1576136c06138e4565b5b828204905092915050565b60006136d7826137ab565b91506136e2836137ab565b9250817fffffffffffffffffffffffffffffffffffffffffffffffffffffffffffffffff048311821515161561371b5761371a6138b5565b5b828202905092915050565b6000613731826137ab565b915061373c836137ab565b92508282101561374f5761374e6138b5565b5b828203905092915050565b60006137658261378b565b9050919050565b60008115159050919050565b600081905061378682613dc9565b919050565b600073ffffffffffffffffffffffffffffffffffffffff82169050919050565b6000819050919050565b60006137c082613778565b9050919050565b82818337600083830152505050565b60005b838110156137f45780820151818401526020810190506137d9565b83811115613803576000848401525b50505050565b6000600282049050600182168061382157607f821691505b6020821081141561383557613834613942565b5b50919050565b613844826139a0565b810181811067ffffffffffffffff8211171561386357613862613971565b5b80604052505050565b6000613877826137ab565b91507fffffffffffffffffffffffffffffffffffffffffffffffffffffffffffffffff8214156138aa576138a96138b5565b5b600182019050919050565b7f4e487b7100000000000000000000000000000000000000000000000000000000600052601160045260246000fd5b7f4e487b7100000000000000000000000000000000000000000000000000000000600052601260045260246000fd5b7f4e487b7100000000000000000000000000000000000000000000000000000000600052602160045260246000fd5b7f4e487b7100000000000000000000000000000000000000000000000000000000600052602260045260246000fd5b7f4e487b7100000000000000000000000000000000000000000000000000000000600052604160045260246000fd5b6000601f19601f8301169050919050565b7f6a6f62206e6f74206f70656e6564207965740000000000000000000000000000600082015250565b7f6e6f742074686520636c69656e74206f662074686973206a6f62000000000000600082015250565b7f6d696e696d756d206f662031302063686172616374657220746f2070726f636560008201527f6564000000000000000000000000000000000000000000000000000000000000602082015250565b7f6e6f742074686520667265656c616e63657220666f7220746865206a6f620000600082015250565b7f6a6f622068617320746f20626520646973707574656400000000000000000000600082015250565b7f6a6f622068617320746f20626520636f6d706c65746564000000000000000000600082015250565b7f657363726f7720696420646f6573206e6f742065786973740000000000000000600082015250565b7f4a6f622068617320746f20626520696e2070726f677265737300000000000000600082015250565b7f6665652072616e6765206d757374206265206265747765656e203020746f203160008201527f3025000000000000000000000000000000000000000000000000000000000000602082015250565b7f636c69656e74206f7220667265656c616e636572206f6e6c7900000000000000600082015250565b7f796f752063616e27742068617665203020616d6f756e74000000000000000000600082015250565b7f616464726573732063616e27742062652061207a65726f206164647265737300600082015250565b7f74686520636f6e74726163742069732070617573656400000000000000000000600082015250565b7f4a6f62206d75737420626520696e2070726f6772657373206f7220636f6d706c60008201527f6574656400000000000000000000000000000000000000000000000000000000602082015250565b7f6e6f206561726e696e6773207965740000000000000000000000000000000000600082015250565b7f616464726573732063616e2774206265207468652064656661756c742061646460008201527f7265737300000000000000000000000000000000000000000000000000000000602082015250565b7f6f6e6c79206f776e65722063616e2063616c6c207468697320636f6e7472616360008201527f7400000000000000000000000000000000000000000000000000000000000000602082015250565b7f6f6e6365206a6f622069732061636365707465642069742063616e277420626560008201527f2063616e63656c6c656400000000000000000000000000000000000000000000602082015250565b7f667265656c616e6365722063616e27742062652074686520636c69656e740000600082015250565b7f667265656c616e63657220686173206e6f2062616c616e636500000000000000600082015250565b60068110613dda57613dd9613913565b5b50565b613de68161375a565b8114613df157600080fd5b50565b613dfd8161376c565b8114613e0857600080fd5b50565b613e14816137ab565b8114613e1f57600080fd5b5056fea2646970667358221220eb1ada5ca0230da7f68293a9eb4a40f5a0ba98fa74b8d7890e8d694167e438a864736f6c63430008030033",
					"opcodes": "PUSH1 0x80 PUSH1 0x40 MSTORE PUSH1 0x5 PUSH1 0x1 SSTORE CALLVALUE DUP1 ISZERO PUSH2 0x15 JUMPI PUSH1 0x0 DUP1 REVERT JUMPDEST POP CALLER PUSH1 0x0 DUP1 PUSH2 0x100 EXP DUP2 SLOAD DUP2 PUSH20 0xFFFFFFFFFFFFFFFFFFFFFFFFFFFFFFFFFFFFFFFF MUL NOT AND SWAP1 DUP4 PUSH20 0xFFFFFFFFFFFFFFFFFFFFFFFFFFFFFFFFFFFFFFFF AND MUL OR SWAP1 SSTORE POP PUSH2 0x3E58 DUP1 PUSH2 0x65 PUSH1 0x0 CODECOPY PUSH1 0x0 RETURN INVALID PUSH1 0x80 PUSH1 0x40 MSTORE PUSH1 0x4 CALLDATASIZE LT PUSH2 0xFE JUMPI PUSH1 0x0 CALLDATALOAD PUSH1 0xE0 SHR DUP1 PUSH4 0x86D6282C GT PUSH2 0x95 JUMPI DUP1 PUSH4 0xE0182436 GT PUSH2 0x64 JUMPI DUP1 PUSH4 0xE0182436 EQ PUSH2 0x2D8 JUMPI DUP1 PUSH4 0xE39C3367 EQ PUSH2 0x301 JUMPI DUP1 PUSH4 0xEE28EA62 EQ PUSH2 0x32C JUMPI DUP1 PUSH4 0xF2FDE38B EQ PUSH2 0x355 JUMPI DUP1 PUSH4 0xF7B188A5 EQ PUSH2 0x37E JUMPI PUSH2 0xFE JUMP JUMPDEST DUP1 PUSH4 0x86D6282C EQ PUSH2 0x246 JUMPI DUP1 PUSH4 0xB73C6CE9 EQ PUSH2 0x26F JUMPI DUP1 PUSH4 0xC4C11523 EQ PUSH2 0x286 JUMPI DUP1 PUSH4 0xDCB05611 EQ PUSH2 0x2AF JUMPI PUSH2 0xFE JUMP JUMPDEST DUP1 PUSH4 0x5C77298D GT PUSH2 0xD1 JUMPI DUP1 PUSH4 0x5C77298D EQ PUSH2 0x199 JUMPI DUP1 PUSH4 0x6985A022 EQ PUSH2 0x1C9 JUMPI DUP1 PUSH4 0x6A1DB1BF EQ PUSH2 0x1E0 JUMPI DUP1 PUSH4 0x7D19E596 EQ PUSH2 0x209 JUMPI PUSH2 0xFE JUMP JUMPDEST DUP1 PUSH4 0xF3DCDF2 EQ PUSH2 0x103 JUMPI DUP1 PUSH4 0x202CEFD5 EQ PUSH2 0x12E JUMPI DUP1 PUSH4 0x22754D8B EQ PUSH2 0x145 JUMPI DUP1 PUSH4 0x34B25EE2 EQ PUSH2 0x170 JUMPI JUMPDEST PUSH1 0x0 DUP1 REVERT JUMPDEST CALLVALUE DUP1 ISZERO PUSH2 0x10F JUMPI PUSH1 0x0 DUP1 REVERT JUMPDEST POP PUSH2 0x118 PUSH2 0x395 JUMP JUMPDEST PUSH1 0x40 MLOAD PUSH2 0x125 SWAP2 SWAP1 PUSH2 0x3236 JUMP JUMPDEST PUSH1 0x40 MLOAD DUP1 SWAP2 SUB SWAP1 RETURN JUMPDEST CALLVALUE DUP1 ISZERO PUSH2 0x13A JUMPI PUSH1 0x0 DUP1 REVERT JUMPDEST POP PUSH2 0x143 PUSH2 0x480 JUMP JUMPDEST STOP JUMPDEST CALLVALUE DUP1 ISZERO PUSH2 0x151 JUMPI PUSH1 0x0 DUP1 REVERT JUMPDEST POP PUSH2 0x15A PUSH2 0x65B JUMP JUMPDEST PUSH1 0x40 MLOAD PUSH2 0x167 SWAP2 SWAP1 PUSH2 0x3545 JUMP JUMPDEST PUSH1 0x40 MLOAD DUP1 SWAP2 SUB SWAP1 RETURN JUMPDEST CALLVALUE DUP1 ISZERO PUSH2 0x17C JUMPI PUSH1 0x0 DUP1 REVERT JUMPDEST POP PUSH2 0x197 PUSH1 0x4 DUP1 CALLDATASIZE SUB DUP2 ADD SWAP1 PUSH2 0x192 SWAP2 SWAP1 PUSH2 0x2D6F JUMP JUMPDEST PUSH2 0x6F7 JUMP JUMPDEST STOP JUMPDEST PUSH2 0x1B3 PUSH1 0x4 DUP1 CALLDATASIZE SUB DUP2 ADD SWAP1 PUSH2 0x1AE SWAP2 SWAP1 PUSH2 0x2CF2 JUMP JUMPDEST PUSH2 0xBB5 JUMP JUMPDEST PUSH1 0x40 MLOAD PUSH2 0x1C0 SWAP2 SWAP1 PUSH2 0x3545 JUMP JUMPDEST PUSH1 0x40 MLOAD DUP1 SWAP2 SUB SWAP1 RETURN JUMPDEST CALLVALUE DUP1 ISZERO PUSH2 0x1D5 JUMPI PUSH1 0x0 DUP1 REVERT JUMPDEST POP PUSH2 0x1DE PUSH2 0x10A0 JUMP JUMPDEST STOP JUMPDEST CALLVALUE DUP1 ISZERO PUSH2 0x1EC JUMPI PUSH1 0x0 DUP1 REVERT JUMPDEST POP PUSH2 0x207 PUSH1 0x4 DUP1 CALLDATASIZE SUB DUP2 ADD SWAP1 PUSH2 0x202 SWAP2 SWAP1 PUSH2 0x2D46 JUMP JUMPDEST PUSH2 0x114B JUMP JUMPDEST STOP JUMPDEST CALLVALUE DUP1 ISZERO PUSH2 0x215 JUMPI PUSH1 0x0 DUP1 REVERT JUMPDEST POP PUSH2 0x230 PUSH1 0x4 DUP1 CALLDATASIZE SUB DUP2 ADD SWAP1 PUSH2 0x22B SWAP2 SWAP1 PUSH2 0x2D46 JUMP JUMPDEST PUSH2 0x12CA JUMP JUMPDEST PUSH1 0x40 MLOAD PUSH2 0x23D SWAP2 SWAP1 PUSH2 0x3523 JUMP JUMPDEST PUSH1 0x40 MLOAD DUP1 SWAP2 SUB SWAP1 RETURN JUMPDEST CALLVALUE DUP1 ISZERO PUSH2 0x252 JUMPI PUSH1 0x0 DUP1 REVERT JUMPDEST POP PUSH2 0x26D PUSH1 0x4 DUP1 CALLDATASIZE SUB DUP2 ADD SWAP1 PUSH2 0x268 SWAP2 SWAP1 PUSH2 0x2D46 JUMP JUMPDEST PUSH2 0x1583 JUMP JUMPDEST STOP JUMPDEST CALLVALUE DUP1 ISZERO PUSH2 0x27B JUMPI PUSH1 0x0 DUP1 REVERT JUMPDEST POP PUSH2 0x284 PUSH2 0x195C JUMP JUMPDEST STOP JUMPDEST CALLVALUE DUP1 ISZERO PUSH2 0x292 JUMPI PUSH1 0x0 DUP1 REVERT JUMPDEST POP PUSH2 0x2AD PUSH1 0x4 DUP1 CALLDATASIZE SUB DUP2 ADD SWAP1 PUSH2 0x2A8 SWAP2 SWAP1 PUSH2 0x2D46 JUMP JUMPDEST PUSH2 0x1B55 JUMP JUMPDEST STOP JUMPDEST CALLVALUE DUP1 ISZERO PUSH2 0x2BB JUMPI PUSH1 0x0 DUP1 REVERT JUMPDEST POP PUSH2 0x2D6 PUSH1 0x4 DUP1 CALLDATASIZE SUB DUP2 ADD SWAP1 PUSH2 0x2D1 SWAP2 SWAP1 PUSH2 0x2D46 JUMP JUMPDEST PUSH2 0x1E26 JUMP JUMPDEST STOP JUMPDEST CALLVALUE DUP1 ISZERO PUSH2 0x2E4 JUMPI PUSH1 0x0 DUP1 REVERT JUMPDEST POP PUSH2 0x2FF PUSH1 0x4 DUP1 CALLDATASIZE SUB DUP2 ADD SWAP1 PUSH2 0x2FA SWAP2 SWAP1 PUSH2 0x2D46 JUMP JUMPDEST PUSH2 0x2204 JUMP JUMPDEST STOP JUMPDEST CALLVALUE DUP1 ISZERO PUSH2 0x30D JUMPI PUSH1 0x0 DUP1 REVERT JUMPDEST POP PUSH2 0x316 PUSH2 0x2538 JUMP JUMPDEST PUSH1 0x40 MLOAD PUSH2 0x323 SWAP2 SWAP1 PUSH2 0x3236 JUMP JUMPDEST PUSH1 0x40 MLOAD DUP1 SWAP2 SUB SWAP1 RETURN JUMPDEST CALLVALUE DUP1 ISZERO PUSH2 0x338 JUMPI PUSH1 0x0 DUP1 REVERT JUMPDEST POP PUSH2 0x353 PUSH1 0x4 DUP1 CALLDATASIZE SUB DUP2 ADD SWAP1 PUSH2 0x34E SWAP2 SWAP1 PUSH2 0x2D46 JUMP JUMPDEST PUSH2 0x2623 JUMP JUMPDEST STOP JUMPDEST CALLVALUE DUP1 ISZERO PUSH2 0x361 JUMPI PUSH1 0x0 DUP1 REVERT JUMPDEST POP PUSH2 0x37C PUSH1 0x4 DUP1 CALLDATASIZE SUB DUP2 ADD SWAP1 PUSH2 0x377 SWAP2 SWAP1 PUSH2 0x2CC9 JUMP JUMPDEST PUSH2 0x28F4 JUMP JUMPDEST STOP JUMPDEST CALLVALUE DUP1 ISZERO PUSH2 0x38A JUMPI PUSH1 0x0 DUP1 REVERT JUMPDEST POP PUSH2 0x393 PUSH2 0x2A34 JUMP JUMPDEST STOP JUMPDEST PUSH1 0x60 PUSH1 0x0 ISZERO ISZERO PUSH1 0x0 PUSH1 0x14 SWAP1 SLOAD SWAP1 PUSH2 0x100 EXP SWAP1 DIV PUSH1 0xFF AND ISZERO ISZERO EQ PUSH2 0x3ED JUMPI PUSH1 0x40 MLOAD PUSH32 0x8C379A000000000000000000000000000000000000000000000000000000000 DUP2 MSTORE PUSH1 0x4 ADD PUSH2 0x3E4 SWAP1 PUSH2 0x3423 JUMP JUMPDEST PUSH1 0x40 MLOAD DUP1 SWAP2 SUB SWAP1 REVERT JUMPDEST PUSH1 0x5 PUSH1 0x0 CALLER PUSH20 0xFFFFFFFFFFFFFFFFFFFFFFFFFFFFFFFFFFFFFFFF AND PUSH20 0xFFFFFFFFFFFFFFFFFFFFFFFFFFFFFFFFFFFFFFFF AND DUP2 MSTORE PUSH1 0x20 ADD SWAP1 DUP2 MSTORE PUSH1 0x20 ADD PUSH1 0x0 KECCAK256 DUP1 SLOAD DUP1 PUSH1 0x20 MUL PUSH1 0x20 ADD PUSH1 0x40 MLOAD SWAP1 DUP2 ADD PUSH1 0x40 MSTORE DUP1 SWAP3 SWAP2 SWAP1 DUP2 DUP2 MSTORE PUSH1 0x20 ADD DUP3 DUP1 SLOAD DUP1 ISZERO PUSH2 0x476 JUMPI PUSH1 0x20 MUL DUP3 ADD SWAP2 SWAP1 PUSH1 0x0 MSTORE PUSH1 0x20 PUSH1 0x0 KECCAK256 SWAP1 JUMPDEST DUP2 SLOAD DUP2 MSTORE PUSH1 0x20 ADD SWAP1 PUSH1 0x1 ADD SWAP1 DUP1 DUP4 GT PUSH2 0x462 JUMPI JUMPDEST POP POP POP POP POP SWAP1 POP SWAP1 JUMP JUMPDEST PUSH1 0x0 ISZERO ISZERO PUSH1 0x0 PUSH1 0x14 SWAP1 SLOAD SWAP1 PUSH2 0x100 EXP SWAP1 DIV PUSH1 0xFF AND ISZERO ISZERO EQ PUSH2 0x4D6 JUMPI PUSH1 0x40 MLOAD PUSH32 0x8C379A000000000000000000000000000000000000000000000000000000000 DUP2 MSTORE PUSH1 0x4 ADD PUSH2 0x4CD SWAP1 PUSH2 0x3423 JUMP JUMPDEST PUSH1 0x40 MLOAD DUP1 SWAP2 SUB SWAP1 REVERT JUMPDEST PUSH1 0x0 DUP1 SLOAD SWAP1 PUSH2 0x100 EXP SWAP1 DIV PUSH20 0xFFFFFFFFFFFFFFFFFFFFFFFFFFFFFFFFFFFFFFFF AND PUSH20 0xFFFFFFFFFFFFFFFFFFFFFFFFFFFFFFFFFFFFFFFF AND CALLER PUSH20 0xFFFFFFFFFFFFFFFFFFFFFFFFFFFFFFFFFFFFFFFF AND EQ PUSH2 0x564 JUMPI PUSH1 0x40 MLOAD PUSH32 0x8C379A000000000000000000000000000000000000000000000000000000000 DUP2 MSTORE PUSH1 0x4 ADD PUSH2 0x55B SWAP1 PUSH2 0x34A3 JUMP JUMPDEST PUSH1 0x40 MLOAD DUP1 SWAP2 SUB SWAP1 REVERT JUMPDEST PUSH1 0x0 PUSH1 0x2 SLOAD GT PUSH2 0x5A9 JUMPI PUSH1 0x40 MLOAD PUSH32 0x8C379A000000000000000000000000000000000000000000000000000000000 DUP2 MSTORE PUSH1 0x4 ADD PUSH2 0x5A0 SWAP1 PUSH2 0x3463 JUMP JUMPDEST PUSH1 0x40 MLOAD DUP1 SWAP2 SUB SWAP1 REVERT JUMPDEST PUSH1 0x0 PUSH1 0x2 SLOAD SWAP1 POP PUSH1 0x0 DUP1 SLOAD SWAP1 PUSH2 0x100 EXP SWAP1 DIV PUSH20 0xFFFFFFFFFFFFFFFFFFFFFFFFFFFFFFFFFFFFFFFF AND PUSH20 0xFFFFFFFFFFFFFFFFFFFFFFFFFFFFFFFFFFFFFFFF AND PUSH2 0x8FC PUSH1 0x2 SLOAD SWAP1 DUP2 ISZERO MUL SWAP1 PUSH1 0x40 MLOAD PUSH1 0x0 PUSH1 0x40 MLOAD DUP1 DUP4 SUB DUP2 DUP6 DUP9 DUP9 CALL SWAP4 POP POP POP POP ISZERO DUP1 ISZERO PUSH2 0x618 JUMPI RETURNDATASIZE PUSH1 0x0 DUP1 RETURNDATACOPY RETURNDATASIZE PUSH1 0x0 REVERT JUMPDEST POP PUSH1 0x0 PUSH1 0x2 DUP2 SWAP1 SSTORE POP PUSH32 0xA2AA7CFE8C0EE9CBAFA5729E8B55EAA4B93B0FAECDE673005A239AE26957B35C DUP2 PUSH1 0x40 MLOAD PUSH2 0x650 SWAP2 SWAP1 PUSH2 0x3545 JUMP JUMPDEST PUSH1 0x40 MLOAD DUP1 SWAP2 SUB SWAP1 LOG1 POP JUMP JUMPDEST PUSH1 0x0 DUP1 ISZERO ISZERO PUSH1 0x0 PUSH1 0x14 SWAP1 SLOAD SWAP1 PUSH2 0x100 EXP SWAP1 DIV PUSH1 0xFF AND ISZERO ISZERO EQ PUSH2 0x6B2 JUMPI PUSH1 0x40 MLOAD PUSH32 0x8C379A000000000000000000000000000000000000000000000000000000000 DUP2 MSTORE PUSH1 0x4 ADD PUSH2 0x6A9 SWAP1 PUSH2 0x3423 JUMP JUMPDEST PUSH1 0x40 MLOAD DUP1 SWAP2 SUB SWAP1 REVERT JUMPDEST PUSH1 0x7 PUSH1 0x0 CALLER PUSH20 0xFFFFFFFFFFFFFFFFFFFFFFFFFFFFFFFFFFFFFFFF AND PUSH20 0xFFFFFFFFFFFFFFFFFFFFFFFFFFFFFFFFFFFFFFFF AND DUP2 MSTORE PUSH1 0x20 ADD SWAP1 DUP2 MSTORE PUSH1 0x20 ADD PUSH1 0x0 KECCAK256 SLOAD SWAP1 POP SWAP1 JUMP JUMPDEST PUSH1 0x0 ISZERO ISZERO PUSH1 0x0 PUSH1 0x14 SWAP1 SLOAD SWAP1 PUSH2 0x100 EXP SWAP1 DIV PUSH1 0xFF AND ISZERO ISZERO EQ PUSH2 0x74D JUMPI PUSH1 0x40 MLOAD PUSH32 0x8C379A000000000000000000000000000000000000000000000000000000000 DUP2 MSTORE PUSH1 0x4 ADD PUSH2 0x744 SWAP1 PUSH2 0x3423 JUMP JUMPDEST PUSH1 0x40 MLOAD DUP1 SWAP2 SUB SWAP1 REVERT JUMPDEST PUSH1 0x0 DUP1 SLOAD SWAP1 PUSH2 0x100 EXP SWAP1 DIV PUSH20 0xFFFFFFFFFFFFFFFFFFFFFFFFFFFFFFFFFFFFFFFF AND PUSH20 0xFFFFFFFFFFFFFFFFFFFFFFFFFFFFFFFFFFFFFFFF AND CALLER PUSH20 0xFFFFFFFFFFFFFFFFFFFFFFFFFFFFFFFFFFFFFFFF AND EQ PUSH2 0x7DB JUMPI PUSH1 0x40 MLOAD PUSH32 0x8C379A000000000000000000000000000000000000000000000000000000000 DUP2 MSTORE PUSH1 0x4 ADD PUSH2 0x7D2 SWAP1 PUSH2 0x34A3 JUMP JUMPDEST PUSH1 0x40 MLOAD DUP1 SWAP2 SUB SWAP1 REVERT JUMPDEST DUP2 PUSH1 0x0 DUP2 GT DUP1 ISZERO PUSH2 0x7EE JUMPI POP PUSH1 0x3 SLOAD DUP2 GT ISZERO JUMPDEST PUSH2 0x82D JUMPI PUSH1 0x40 MLOAD PUSH32 0x8C379A000000000000000000000000000000000000000000000000000000000 DUP2 MSTORE PUSH1 0x4 ADD PUSH2 0x824 SWAP1 PUSH2 0x3363 JUMP JUMPDEST PUSH1 0x40 MLOAD DUP1 SWAP2 SUB SWAP1 REVERT JUMPDEST PUSH1 0x3 PUSH1 0x5 DUP2 GT ISZERO PUSH2 0x867 JUMPI PUSH32 0x4E487B7100000000000000000000000000000000000000000000000000000000 PUSH1 0x0 MSTORE PUSH1 0x21 PUSH1 0x4 MSTORE PUSH1 0x24 PUSH1 0x0 REVERT JUMPDEST PUSH1 0x4 PUSH1 0x0 DUP6 DUP2 MSTORE PUSH1 0x20 ADD SWAP1 DUP2 MSTORE PUSH1 0x20 ADD PUSH1 0x0 KECCAK256 PUSH1 0x5 ADD PUSH1 0x0 SWAP1 SLOAD SWAP1 PUSH2 0x100 EXP SWAP1 DIV PUSH1 0xFF AND PUSH1 0x5 DUP2 GT ISZERO PUSH2 0x8C3 JUMPI PUSH32 0x4E487B7100000000000000000000000000000000000000000000000000000000 PUSH1 0x0 MSTORE PUSH1 0x21 PUSH1 0x4 MSTORE PUSH1 0x24 PUSH1 0x0 REVERT JUMPDEST EQ PUSH2 0x903 JUMPI PUSH1 0x40 MLOAD PUSH32 0x8C379A000000000000000000000000000000000000000000000000000000000 DUP2 MSTORE PUSH1 0x4 ADD PUSH2 0x8FA SWAP1 PUSH2 0x3323 JUMP JUMPDEST PUSH1 0x40 MLOAD DUP1 SWAP2 SUB SWAP1 REVERT JUMPDEST DUP2 ISZERO PUSH2 0xA73 JUMPI PUSH1 0x0 PUSH1 0x64 PUSH1 0x1 SLOAD PUSH1 0x4 PUSH1 0x0 DUP8 DUP2 MSTORE PUSH1 0x20 ADD SWAP1 DUP2 MSTORE PUSH1 0x20 ADD PUSH1 0x0 KECCAK256 PUSH1 0x4 ADD SLOAD PUSH2 0x931 SWAP2 SWAP1 PUSH2 0x36CC JUMP JUMPDEST PUSH2 0x93B SWAP2 SWAP1 PUSH2 0x369B JUMP JUMPDEST SWAP1 POP PUSH1 0x0 DUP2 PUSH1 0x4 PUSH1 0x0 DUP8 DUP2 MSTORE PUSH1 0x20 ADD SWAP1 DUP2 MSTORE PUSH1 0x20 ADD PUSH1 0x0 KECCAK256 PUSH1 0x4 ADD SLOAD PUSH2 0x961 SWAP2 SWAP1 PUSH2 0x3726 JUMP JUMPDEST SWAP1 POP DUP2 PUSH1 0x2 PUSH1 0x0 DUP3 DUP3 SLOAD PUSH2 0x975 SWAP2 SWAP1 PUSH2 0x3645 JUMP JUMPDEST SWAP3 POP POP DUP2 SWAP1 SSTORE POP DUP1 PUSH1 0x7 PUSH1 0x0 PUSH1 0x4 PUSH1 0x0 DUP10 DUP2 MSTORE PUSH1 0x20 ADD SWAP1 DUP2 MSTORE PUSH1 0x20 ADD PUSH1 0x0 KECCAK256 PUSH1 0x2 ADD PUSH1 0x0 SWAP1 SLOAD SWAP1 PUSH2 0x100 EXP SWAP1 DIV PUSH20 0xFFFFFFFFFFFFFFFFFFFFFFFFFFFFFFFFFFFFFFFF AND PUSH20 0xFFFFFFFFFFFFFFFFFFFFFFFFFFFFFFFFFFFFFFFF AND PUSH20 0xFFFFFFFFFFFFFFFFFFFFFFFFFFFFFFFFFFFFFFFF AND DUP2 MSTORE PUSH1 0x20 ADD SWAP1 DUP2 MSTORE PUSH1 0x20 ADD PUSH1 0x0 KECCAK256 PUSH1 0x0 DUP3 DUP3 SLOAD PUSH2 0xA01 SWAP2 SWAP1 PUSH2 0x3645 JUMP JUMPDEST SWAP3 POP POP DUP2 SWAP1 SSTORE POP PUSH1 0x4 DUP1 PUSH1 0x0 DUP8 DUP2 MSTORE PUSH1 0x20 ADD SWAP1 DUP2 MSTORE PUSH1 0x20 ADD PUSH1 0x0 KECCAK256 PUSH1 0x5 ADD PUSH1 0x0 PUSH2 0x100 EXP DUP2 SLOAD DUP2 PUSH1 0xFF MUL NOT AND SWAP1 DUP4 PUSH1 0x5 DUP2 GT ISZERO PUSH2 0xA67 JUMPI PUSH32 0x4E487B7100000000000000000000000000000000000000000000000000000000 PUSH1 0x0 MSTORE PUSH1 0x21 PUSH1 0x4 MSTORE PUSH1 0x24 PUSH1 0x0 REVERT JUMPDEST MUL OR SWAP1 SSTORE POP POP POP PUSH2 0xB78 JUMP JUMPDEST PUSH1 0x0 PUSH1 0x4 PUSH1 0x0 DUP6 DUP2 MSTORE PUSH1 0x20 ADD SWAP1 DUP2 MSTORE PUSH1 0x20 ADD PUSH1 0x0 KECCAK256 PUSH1 0x4 ADD SLOAD SWAP1 POP PUSH1 0x0 PUSH1 0x4 PUSH1 0x0 DUP7 DUP2 MSTORE PUSH1 0x20 ADD SWAP1 DUP2 MSTORE PUSH1 0x20 ADD PUSH1 0x0 KECCAK256 PUSH1 0x1 ADD PUSH1 0x0 SWAP1 SLOAD SWAP1 PUSH2 0x100 EXP SWAP1 DIV PUSH20 0xFFFFFFFFFFFFFFFFFFFFFFFFFFFFFFFFFFFFFFFF AND SWAP1 POP DUP1 PUSH20 0xFFFFFFFFFFFFFFFFFFFFFFFFFFFFFFFFFFFFFFFF AND PUSH2 0x8FC DUP4 SWAP1 DUP2 ISZERO MUL SWAP1 PUSH1 0x40 MLOAD PUSH1 0x0 PUSH1 0x40 MLOAD DUP1 DUP4 SUB DUP2 DUP6 DUP9 DUP9 CALL SWAP4 POP POP POP POP ISZERO DUP1 ISZERO PUSH2 0xB0F JUMPI RETURNDATASIZE PUSH1 0x0 DUP1 RETURNDATACOPY RETURNDATASIZE PUSH1 0x0 REVERT JUMPDEST POP PUSH1 0x5 PUSH1 0x4 PUSH1 0x0 DUP8 DUP2 MSTORE PUSH1 0x20 ADD SWAP1 DUP2 MSTORE PUSH1 0x20 ADD PUSH1 0x0 KECCAK256 PUSH1 0x5 ADD PUSH1 0x0 PUSH2 0x100 EXP DUP2 SLOAD DUP2 PUSH1 0xFF MUL NOT AND SWAP1 DUP4 PUSH1 0x5 DUP2 GT ISZERO PUSH2 0xB70 JUMPI PUSH32 0x4E487B7100000000000000000000000000000000000000000000000000000000 PUSH1 0x0 MSTORE PUSH1 0x21 PUSH1 0x4 MSTORE PUSH1 0x24 PUSH1 0x0 REVERT JUMPDEST MUL OR SWAP1 SSTORE POP POP POP JUMPDEST DUP3 PUSH32 0xAD022A94C615BC9863E43EB37C254F7B071247BAEA6B292D36E7DAF39649954C DUP4 PUSH1 0x40 MLOAD PUSH2 0xBA8 SWAP2 SWAP1 PUSH2 0x3258 JUMP JUMPDEST PUSH1 0x40 MLOAD DUP1 SWAP2 SUB SWAP1 LOG2 POP POP POP JUMP JUMPDEST PUSH1 0x0 DUP1 ISZERO ISZERO PUSH1 0x0 PUSH1 0x14 SWAP1 SLOAD SWAP1 PUSH2 0x100 EXP SWAP1 DIV PUSH1 0xFF AND ISZERO ISZERO EQ PUSH2 0xC0C JUMPI PUSH1 0x40 MLOAD PUSH32 0x8C379A000000000000000000000000000000000000000000000000000000000 DUP2 MSTORE PUSH1 0x4 ADD PUSH2 0xC03 SWAP1 PUSH2 0x3423 JUMP JUMPDEST PUSH1 0x40 MLOAD DUP1 SWAP2 SUB SWAP1 REVERT JUMPDEST PUSH1 0xA DUP4 MLOAD GT PUSH2 0xC50 JUMPI PUSH1 0x40 MLOAD PUSH32 0x8C379A000000000000000000000000000000000000000000000000000000000 DUP2 MSTORE PUSH1 0x4 ADD PUSH2 0xC47 SWAP1 PUSH2 0x32E3 JUMP JUMPDEST PUSH1 0x40 MLOAD DUP1 SWAP2 SUB SWAP1 REVERT JUMPDEST PUSH1 0x0 PUSH20 0xFFFFFFFFFFFFFFFFFFFFFFFFFFFFFFFFFFFFFFFF AND DUP3 PUSH20 0xFFFFFFFFFFFFFFFFFFFFFFFFFFFFFFFFFFFFFFFF AND EQ ISZERO PUSH2 0xCC0 JUMPI PUSH1 0x40 MLOAD PUSH32 0x8C379A000000000000000000000000000000000000000000000000000000000 DUP2 MSTORE PUSH1 0x4 ADD PUSH2 0xCB7 SWAP1 PUSH2 0x3483 JUMP JUMPDEST PUSH1 0x40 MLOAD DUP1 SWAP2 SUB SWAP1 REVERT JUMPDEST CALLER PUSH20 0xFFFFFFFFFFFFFFFFFFFFFFFFFFFFFFFFFFFFFFFF AND DUP3 PUSH20 0xFFFFFFFFFFFFFFFFFFFFFFFFFFFFFFFFFFFFFFFF AND EQ ISZERO PUSH2 0xD2F JUMPI PUSH1 0x40 MLOAD PUSH32 0x8C379A000000000000000000000000000000000000000000000000000000000 DUP2 MSTORE PUSH1 0x4 ADD PUSH2 0xD26 SWAP1 PUSH2 0x34E3 JUMP JUMPDEST PUSH1 0x40 MLOAD DUP1 SWAP2 SUB SWAP1 REVERT JUMPDEST PUSH1 0x0 CALLVALUE GT PUSH2 0xD72 JUMPI PUSH1 0x40 MLOAD PUSH32 0x8C379A000000000000000000000000000000000000000000000000000000000 DUP2 MSTORE PUSH1 0x4 ADD PUSH2 0xD69 SWAP1 PUSH2 0x33E3 JUMP JUMPDEST PUSH1 0x40 MLOAD DUP1 SWAP2 SUB SWAP1 REVERT JUMPDEST PUSH1 0x3 PUSH1 0x0 DUP2 SLOAD DUP1 SWAP3 SWAP2 SWAP1 PUSH2 0xD85 SWAP1 PUSH2 0x386C JUMP JUMPDEST SWAP2 SWAP1 POP SSTORE POP PUSH1 0x40 MLOAD DUP1 PUSH1 0xE0 ADD PUSH1 0x40 MSTORE DUP1 PUSH1 0x3 SLOAD DUP2 MSTORE PUSH1 0x20 ADD CALLER PUSH20 0xFFFFFFFFFFFFFFFFFFFFFFFFFFFFFFFFFFFFFFFF AND DUP2 MSTORE PUSH1 0x20 ADD DUP4 PUSH20 0xFFFFFFFFFFFFFFFFFFFFFFFFFFFFFFFFFFFFFFFF AND DUP2 MSTORE PUSH1 0x20 ADD DUP5 DUP2 MSTORE PUSH1 0x20 ADD CALLVALUE DUP2 MSTORE PUSH1 0x20 ADD PUSH1 0x0 PUSH1 0x5 DUP2 GT ISZERO PUSH2 0xE1B JUMPI PUSH32 0x4E487B7100000000000000000000000000000000000000000000000000000000 PUSH1 0x0 MSTORE PUSH1 0x21 PUSH1 0x4 MSTORE PUSH1 0x24 PUSH1 0x0 REVERT JUMPDEST DUP2 MSTORE PUSH1 0x20 ADD TIMESTAMP DUP2 MSTORE POP PUSH1 0x4 PUSH1 0x0 PUSH1 0x3 SLOAD DUP2 MSTORE PUSH1 0x20 ADD SWAP1 DUP2 MSTORE PUSH1 0x20 ADD PUSH1 0x0 KECCAK256 PUSH1 0x0 DUP3 ADD MLOAD DUP2 PUSH1 0x0 ADD SSTORE PUSH1 0x20 DUP3 ADD MLOAD DUP2 PUSH1 0x1 ADD PUSH1 0x0 PUSH2 0x100 EXP DUP2 SLOAD DUP2 PUSH20 0xFFFFFFFFFFFFFFFFFFFFFFFFFFFFFFFFFFFFFFFF MUL NOT AND SWAP1 DUP4 PUSH20 0xFFFFFFFFFFFFFFFFFFFFFFFFFFFFFFFFFFFFFFFF AND MUL OR SWAP1 SSTORE POP PUSH1 0x40 DUP3 ADD MLOAD DUP2 PUSH1 0x2 ADD PUSH1 0x0 PUSH2 0x100 EXP DUP2 SLOAD DUP2 PUSH20 0xFFFFFFFFFFFFFFFFFFFFFFFFFFFFFFFFFFFFFFFF MUL NOT AND SWAP1 DUP4 PUSH20 0xFFFFFFFFFFFFFFFFFFFFFFFFFFFFFFFFFFFFFFFF AND MUL OR SWAP1 SSTORE POP PUSH1 0x60 DUP3 ADD MLOAD DUP2 PUSH1 0x3 ADD SWAP1 DUP1 MLOAD SWAP1 PUSH1 0x20 ADD SWAP1 PUSH2 0xEED SWAP3 SWAP2 SWAP1 PUSH2 0x2ADE JUMP JUMPDEST POP PUSH1 0x80 DUP3 ADD MLOAD DUP2 PUSH1 0x4 ADD SSTORE PUSH1 0xA0 DUP3 ADD MLOAD DUP2 PUSH1 0x5 ADD PUSH1 0x0 PUSH2 0x100 EXP DUP2 SLOAD DUP2 PUSH1 0xFF MUL NOT AND SWAP1 DUP4 PUSH1 0x5 DUP2 GT ISZERO PUSH2 0xF49 JUMPI PUSH32 0x4E487B7100000000000000000000000000000000000000000000000000000000 PUSH1 0x0 MSTORE PUSH1 0x21 PUSH1 0x4 MSTORE PUSH1 0x24 PUSH1 0x0 REVERT JUMPDEST MUL OR SWAP1 SSTORE POP PUSH1 0xC0 DUP3 ADD MLOAD DUP2 PUSH1 0x6 ADD SSTORE SWAP1 POP POP PUSH1 0x5 PUSH1 0x0 CALLER PUSH20 0xFFFFFFFFFFFFFFFFFFFFFFFFFFFFFFFFFFFFFFFF AND PUSH20 0xFFFFFFFFFFFFFFFFFFFFFFFFFFFFFFFFFFFFFFFF AND DUP2 MSTORE PUSH1 0x20 ADD SWAP1 DUP2 MSTORE PUSH1 0x20 ADD PUSH1 0x0 KECCAK256 PUSH1 0x3 SLOAD SWAP1 DUP1 PUSH1 0x1 DUP2 SLOAD ADD DUP1 DUP3 SSTORE DUP1 SWAP2 POP POP PUSH1 0x1 SWAP1 SUB SWAP1 PUSH1 0x0 MSTORE PUSH1 0x20 PUSH1 0x0 KECCAK256 ADD PUSH1 0x0 SWAP1 SWAP2 SWAP1 SWAP2 SWAP1 SWAP2 POP SSTORE PUSH1 0x6 PUSH1 0x0 DUP4 PUSH20 0xFFFFFFFFFFFFFFFFFFFFFFFFFFFFFFFFFFFFFFFF AND PUSH20 0xFFFFFFFFFFFFFFFFFFFFFFFFFFFFFFFFFFFFFFFF AND DUP2 MSTORE PUSH1 0x20 ADD SWAP1 DUP2 MSTORE PUSH1 0x20 ADD PUSH1 0x0 KECCAK256 PUSH1 0x3 SLOAD SWAP1 DUP1 PUSH1 0x1 DUP2 SLOAD ADD DUP1 DUP3 SSTORE DUP1 SWAP2 POP POP PUSH1 0x1 SWAP1 SUB SWAP1 PUSH1 0x0 MSTORE PUSH1 0x20 PUSH1 0x0 KECCAK256 ADD PUSH1 0x0 SWAP1 SWAP2 SWAP1 SWAP2 SWAP1 SWAP2 POP SSTORE DUP2 PUSH20 0xFFFFFFFFFFFFFFFFFFFFFFFFFFFFFFFFFFFFFFFF AND CALLER PUSH20 0xFFFFFFFFFFFFFFFFFFFFFFFFFFFFFFFFFFFFFFFF AND PUSH1 0x3 SLOAD PUSH32 0x745E3DE88E5BF91FB92B455085C084B0E0608DA9801B3B42C3AEDE168C20CD4C DUP7 CALLVALUE PUSH1 0x40 MLOAD PUSH2 0x108D SWAP3 SWAP2 SWAP1 PUSH2 0x3273 JUMP JUMPDEST PUSH1 0x40 MLOAD DUP1 SWAP2 SUB SWAP1 LOG4 PUSH1 0x3 SLOAD SWAP1 POP SWAP3 SWAP2 POP POP JUMP JUMPDEST PUSH1 0x0 DUP1 SLOAD SWAP1 PUSH2 0x100 EXP SWAP1 DIV PUSH20 0xFFFFFFFFFFFFFFFFFFFFFFFFFFFFFFFFFFFFFFFF AND PUSH20 0xFFFFFFFFFFFFFFFFFFFFFFFFFFFFFFFFFFFFFFFF AND CALLER PUSH20 0xFFFFFFFFFFFFFFFFFFFFFFFFFFFFFFFFFFFFFFFF AND EQ PUSH2 0x112E JUMPI PUSH1 0x40 MLOAD PUSH32 0x8C379A000000000000000000000000000000000000000000000000000000000 DUP2 MSTORE PUSH1 0x4 ADD PUSH2 0x1125 SWAP1 PUSH2 0x34A3 JUMP JUMPDEST PUSH1 0x40 MLOAD DUP1 SWAP2 SUB SWAP1 REVERT JUMPDEST PUSH1 0x1 PUSH1 0x0 PUSH1 0x14 PUSH2 0x100 EXP DUP2 SLOAD DUP2 PUSH1 0xFF MUL NOT AND SWAP1 DUP4 ISZERO ISZERO MUL OR SWAP1 SSTORE POP JUMP JUMPDEST PUSH1 0x0 ISZERO ISZERO PUSH1 0x0 PUSH1 0x14 SWAP1 SLOAD SWAP1 PUSH2 0x100 EXP SWAP1 DIV PUSH1 0xFF AND ISZERO ISZERO EQ PUSH2 0x11A1 JUMPI PUSH1 0x40 MLOAD PUSH32 0x8C379A000000000000000000000000000000000000000000000000000000000 DUP2 MSTORE PUSH1 0x4 ADD PUSH2 0x1198 SWAP1 PUSH2 0x3423 JUMP JUMPDEST PUSH1 0x40 MLOAD DUP1 SWAP2 SUB SWAP1 REVERT JUMPDEST PUSH1 0x0 DUP1 SLOAD SWAP1 PUSH2 0x100 EXP SWAP1 DIV PUSH20 0xFFFFFFFFFFFFFFFFFFFFFFFFFFFFFFFFFFFFFFFF AND PUSH20 0xFFFFFFFFFFFFFFFFFFFFFFFFFFFFFFFFFFFFFFFF AND CALLER PUSH20 0xFFFFFFFFFFFFFFFFFFFFFFFFFFFFFFFFFFFFFFFF AND EQ PUSH2 0x122F JUMPI PUSH1 0x40 MLOAD PUSH32 0x8C379A000000000000000000000000000000000000000000000000000000000 DUP2 MSTORE PUSH1 0x4 ADD PUSH2 0x1226 SWAP1 PUSH2 0x34A3 JUMP JUMPDEST PUSH1 0x40 MLOAD DUP1 SWAP2 SUB SWAP1 REVERT JUMPDEST PUSH1 0x0 DUP2 GT DUP1 ISZERO PUSH2 0x1240 JUMPI POP PUSH1 0xA DUP2 GT ISZERO JUMPDEST PUSH2 0x127F JUMPI PUSH1 0x40 MLOAD PUSH32 0x8C379A000000000000000000000000000000000000000000000000000000000 DUP2 MSTORE PUSH1 0x4 ADD PUSH2 0x1276 SWAP1 PUSH2 0x33A3 JUMP JUMPDEST PUSH1 0x40 MLOAD DUP1 SWAP2 SUB SWAP1 REVERT JUMPDEST PUSH1 0x0 PUSH1 0x1 SLOAD SWAP1 POP DUP2 PUSH1 0x1 DUP2 SWAP1 SSTORE POP PUSH32 0x274913E7FA17AFACA46C1309C64D45F0EC6AB5100BD6C9CEC896DA397FDE70CE DUP2 DUP4 PUSH1 0x40 MLOAD PUSH2 0x12BE SWAP3 SWAP2 SWAP1 PUSH2 0x3560 JUMP JUMPDEST PUSH1 0x40 MLOAD DUP1 SWAP2 SUB SWAP1 LOG1 POP POP JUMP JUMPDEST PUSH2 0x12D2 PUSH2 0x2B64 JUMP JUMPDEST PUSH1 0x0 ISZERO ISZERO PUSH1 0x0 PUSH1 0x14 SWAP1 SLOAD SWAP1 PUSH2 0x100 EXP SWAP1 DIV PUSH1 0xFF AND ISZERO ISZERO EQ PUSH2 0x1328 JUMPI PUSH1 0x40 MLOAD PUSH32 0x8C379A000000000000000000000000000000000000000000000000000000000 DUP2 MSTORE PUSH1 0x4 ADD PUSH2 0x131F SWAP1 PUSH2 0x3423 JUMP JUMPDEST PUSH1 0x40 MLOAD DUP1 SWAP2 SUB SWAP1 REVERT JUMPDEST DUP2 PUSH1 0x0 DUP2 GT DUP1 ISZERO PUSH2 0x133B JUMPI POP PUSH1 0x3 SLOAD DUP2 GT ISZERO JUMPDEST PUSH2 0x137A JUMPI PUSH1 0x40 MLOAD PUSH32 0x8C379A000000000000000000000000000000000000000000000000000000000 DUP2 MSTORE PUSH1 0x4 ADD PUSH2 0x1371 SWAP1 PUSH2 0x3363 JUMP JUMPDEST PUSH1 0x40 MLOAD DUP1 SWAP2 SUB SWAP1 REVERT JUMPDEST PUSH1 0x4 PUSH1 0x0 DUP5 DUP2 MSTORE PUSH1 0x20 ADD SWAP1 DUP2 MSTORE PUSH1 0x20 ADD PUSH1 0x0 KECCAK256 PUSH1 0x40 MLOAD DUP1 PUSH1 0xE0 ADD PUSH1 0x40 MSTORE SWAP1 DUP2 PUSH1 0x0 DUP3 ADD SLOAD DUP2 MSTORE PUSH1 0x20 ADD PUSH1 0x1 DUP3 ADD PUSH1 0x0 SWAP1 SLOAD SWAP1 PUSH2 0x100 EXP SWAP1 DIV PUSH20 0xFFFFFFFFFFFFFFFFFFFFFFFFFFFFFFFFFFFFFFFF AND PUSH20 0xFFFFFFFFFFFFFFFFFFFFFFFFFFFFFFFFFFFFFFFF AND PUSH20 0xFFFFFFFFFFFFFFFFFFFFFFFFFFFFFFFFFFFFFFFF AND DUP2 MSTORE PUSH1 0x20 ADD PUSH1 0x2 DUP3 ADD PUSH1 0x0 SWAP1 SLOAD SWAP1 PUSH2 0x100 EXP SWAP1 DIV PUSH20 0xFFFFFFFFFFFFFFFFFFFFFFFFFFFFFFFFFFFFFFFF AND PUSH20 0xFFFFFFFFFFFFFFFFFFFFFFFFFFFFFFFFFFFFFFFF AND PUSH20 0xFFFFFFFFFFFFFFFFFFFFFFFFFFFFFFFFFFFFFFFF AND DUP2 MSTORE PUSH1 0x20 ADD PUSH1 0x3 DUP3 ADD DUP1 SLOAD PUSH2 0x145E SWAP1 PUSH2 0x3809 JUMP JUMPDEST DUP1 PUSH1 0x1F ADD PUSH1 0x20 DUP1 SWAP2 DIV MUL PUSH1 0x20 ADD PUSH1 0x40 MLOAD SWAP1 DUP2 ADD PUSH1 0x40 MSTORE DUP1 SWAP3 SWAP2 SWAP1 DUP2 DUP2 MSTORE PUSH1 0x20 ADD DUP3 DUP1 SLOAD PUSH2 0x148A SWAP1 PUSH2 0x3809 JUMP JUMPDEST DUP1 ISZERO PUSH2 0x14D7 JUMPI DUP1 PUSH1 0x1F LT PUSH2 0x14AC JUMPI PUSH2 0x100 DUP1 DUP4 SLOAD DIV MUL DUP4 MSTORE SWAP2 PUSH1 0x20 ADD SWAP2 PUSH2 0x14D7 JUMP JUMPDEST DUP3 ADD SWAP2 SWAP1 PUSH1 0x0 MSTORE PUSH1 0x20 PUSH1 0x0 KECCAK256 SWAP1 JUMPDEST DUP2 SLOAD DUP2 MSTORE SWAP1 PUSH1 0x1 ADD SWAP1 PUSH1 0x20 ADD DUP1 DUP4 GT PUSH2 0x14BA JUMPI DUP3 SWAP1 SUB PUSH1 0x1F AND DUP3 ADD SWAP2 JUMPDEST POP POP POP POP POP DUP2 MSTORE PUSH1 0x20 ADD PUSH1 0x4 DUP3 ADD SLOAD DUP2 MSTORE PUSH1 0x20 ADD PUSH1 0x5 DUP3 ADD PUSH1 0x0 SWAP1 SLOAD SWAP1 PUSH2 0x100 EXP SWAP1 DIV PUSH1 0xFF AND PUSH1 0x5 DUP2 GT ISZERO PUSH2 0x1535 JUMPI PUSH32 0x4E487B7100000000000000000000000000000000000000000000000000000000 PUSH1 0x0 MSTORE PUSH1 0x21 PUSH1 0x4 MSTORE PUSH1 0x24 PUSH1 0x0 REVERT JUMPDEST PUSH1 0x5 DUP2 GT ISZERO PUSH2 0x156D JUMPI PUSH32 0x4E487B7100000000000000000000000000000000000000000000000000000000 PUSH1 0x0 MSTORE PUSH1 0x21 PUSH1 0x4 MSTORE PUSH1 0x24 PUSH1 0x0 REVERT JUMPDEST DUP2 MSTORE PUSH1 0x20 ADD PUSH1 0x6 DUP3 ADD SLOAD DUP2 MSTORE POP POP SWAP2 POP POP SWAP2 SWAP1 POP JUMP JUMPDEST PUSH1 0x0 ISZERO ISZERO PUSH1 0x0 PUSH1 0x14 SWAP1 SLOAD SWAP1 PUSH2 0x100 EXP SWAP1 DIV PUSH1 0xFF AND ISZERO ISZERO EQ PUSH2 0x15D9 JUMPI PUSH1 0x40 MLOAD PUSH32 0x8C379A000000000000000000000000000000000000000000000000000000000 DUP2 MSTORE PUSH1 0x4 ADD PUSH2 0x15D0 SWAP1 PUSH2 0x3423 JUMP JUMPDEST PUSH1 0x40 MLOAD DUP1 SWAP2 SUB SWAP1 REVERT JUMPDEST DUP1 PUSH1 0x0 DUP2 GT DUP1 ISZERO PUSH2 0x15EC JUMPI POP PUSH1 0x3 SLOAD DUP2 GT ISZERO JUMPDEST PUSH2 0x162B JUMPI PUSH1 0x40 MLOAD PUSH32 0x8C379A000000000000000000000000000000000000000000000000000000000 DUP2 MSTORE PUSH1 0x4 ADD PUSH2 0x1622 SWAP1 PUSH2 0x3363 JUMP JUMPDEST PUSH1 0x40 MLOAD DUP1 SWAP2 SUB SWAP1 REVERT JUMPDEST CALLER PUSH20 0xFFFFFFFFFFFFFFFFFFFFFFFFFFFFFFFFFFFFFFFF AND PUSH1 0x4 PUSH1 0x0 DUP5 DUP2 MSTORE PUSH1 0x20 ADD SWAP1 DUP2 MSTORE PUSH1 0x20 ADD PUSH1 0x0 KECCAK256 PUSH1 0x1 ADD PUSH1 0x0 SWAP1 SLOAD SWAP1 PUSH2 0x100 EXP SWAP1 DIV PUSH20 0xFFFFFFFFFFFFFFFFFFFFFFFFFFFFFFFFFFFFFFFF AND PUSH20 0xFFFFFFFFFFFFFFFFFFFFFFFFFFFFFFFFFFFFFFFF AND EQ DUP1 PUSH2 0x16FC JUMPI POP CALLER PUSH20 0xFFFFFFFFFFFFFFFFFFFFFFFFFFFFFFFFFFFFFFFF AND PUSH1 0x4 PUSH1 0x0 DUP5 DUP2 MSTORE PUSH1 0x20 ADD SWAP1 DUP2 MSTORE PUSH1 0x20 ADD PUSH1 0x0 KECCAK256 PUSH1 0x2 ADD PUSH1 0x0 SWAP1 SLOAD SWAP1 PUSH2 0x100 EXP SWAP1 DIV PUSH20 0xFFFFFFFFFFFFFFFFFFFFFFFFFFFFFFFFFFFFFFFF AND PUSH20 0xFFFFFFFFFFFFFFFFFFFFFFFFFFFFFFFFFFFFFFFF AND EQ JUMPDEST PUSH2 0x173B JUMPI PUSH1 0x40 MLOAD PUSH32 0x8C379A000000000000000000000000000000000000000000000000000000000 DUP2 MSTORE PUSH1 0x4 ADD PUSH2 0x1732 SWAP1 PUSH2 0x33C3 JUMP JUMPDEST PUSH1 0x40 MLOAD DUP1 SWAP2 SUB SWAP1 REVERT JUMPDEST PUSH1 0x1 PUSH1 0x5 DUP2 GT ISZERO PUSH2 0x1775 JUMPI PUSH32 0x4E487B7100000000000000000000000000000000000000000000000000000000 PUSH1 0x0 MSTORE PUSH1 0x21 PUSH1 0x4 MSTORE PUSH1 0x24 PUSH1 0x0 REVERT JUMPDEST PUSH1 0x4 PUSH1 0x0 DUP5 DUP2 MSTORE PUSH1 0x20 ADD SWAP1 DUP2 MSTORE PUSH1 0x20 ADD PUSH1 0x0 KECCAK256 PUSH1 0x5 ADD PUSH1 0x0 SWAP1 SLOAD SWAP1 PUSH2 0x100 EXP SWAP1 DIV PUSH1 0xFF AND PUSH1 0x5 DUP2 GT ISZERO PUSH2 0x17D1 JUMPI PUSH32 0x4E487B7100000000000000000000000000000000000000000000000000000000 PUSH1 0x0 MSTORE PUSH1 0x21 PUSH1 0x4 MSTORE PUSH1 0x24 PUSH1 0x0 REVERT JUMPDEST EQ DUP1 PUSH2 0x1870 JUMPI POP PUSH1 0x2 PUSH1 0x5 DUP2 GT ISZERO PUSH2 0x1812 JUMPI PUSH32 0x4E487B7100000000000000000000000000000000000000000000000000000000 PUSH1 0x0 MSTORE PUSH1 0x21 PUSH1 0x4 MSTORE PUSH1 0x24 PUSH1 0x0 REVERT JUMPDEST PUSH1 0x4 PUSH1 0x0 DUP5 DUP2 MSTORE PUSH1 0x20 ADD SWAP1 DUP2 MSTORE PUSH1 0x20 ADD PUSH1 0x0 KECCAK256 PUSH1 0x5 ADD PUSH1 0x0 SWAP1 SLOAD SWAP1 PUSH2 0x100 EXP SWAP1 DIV PUSH1 0xFF AND PUSH1 0x5 DUP2 GT ISZERO PUSH2 0x186E JUMPI PUSH32 0x4E487B7100000000000000000000000000000000000000000000000000000000 PUSH1 0x0 MSTORE PUSH1 0x21 PUSH1 0x4 MSTORE PUSH1 0x24 PUSH1 0x0 REVERT JUMPDEST EQ JUMPDEST PUSH2 0x18AF JUMPI PUSH1 0x40 MLOAD PUSH32 0x8C379A000000000000000000000000000000000000000000000000000000000 DUP2 MSTORE PUSH1 0x4 ADD PUSH2 0x18A6 SWAP1 PUSH2 0x3443 JUMP JUMPDEST PUSH1 0x40 MLOAD DUP1 SWAP2 SUB SWAP1 REVERT JUMPDEST PUSH1 0x3 PUSH1 0x4 PUSH1 0x0 DUP5 DUP2 MSTORE PUSH1 0x20 ADD SWAP1 DUP2 MSTORE PUSH1 0x20 ADD PUSH1 0x0 KECCAK256 PUSH1 0x5 ADD PUSH1 0x0 PUSH2 0x100 EXP DUP2 SLOAD DUP2 PUSH1 0xFF MUL NOT AND SWAP1 DUP4 PUSH1 0x5 DUP2 GT ISZERO PUSH2 0x190F JUMPI PUSH32 0x4E487B7100000000000000000000000000000000000000000000000000000000 PUSH1 0x0 MSTORE PUSH1 0x21 PUSH1 0x4 MSTORE PUSH1 0x24 PUSH1 0x0 REVERT JUMPDEST MUL OR SWAP1 SSTORE POP CALLER PUSH20 0xFFFFFFFFFFFFFFFFFFFFFFFFFFFFFFFFFFFFFFFF AND DUP3 PUSH32 0xFFFAAC61C058A50DA2D1859744DDF520E9C9505D6EEC51E0EF1B4830B470D7FD PUSH1 0x40 MLOAD PUSH1 0x40 MLOAD DUP1 SWAP2 SUB SWAP1 LOG3 POP POP JUMP JUMPDEST PUSH1 0x0 ISZERO ISZERO PUSH1 0x0 PUSH1 0x14 SWAP1 SLOAD SWAP1 PUSH2 0x100 EXP SWAP1 DIV PUSH1 0xFF AND ISZERO ISZERO EQ PUSH2 0x19B2 JUMPI PUSH1 0x40 MLOAD PUSH32 0x8C379A000000000000000000000000000000000000000000000000000000000 DUP2 MSTORE PUSH1 0x4 ADD PUSH2 0x19A9 SWAP1 PUSH2 0x3423 JUMP JUMPDEST PUSH1 0x40 MLOAD DUP1 SWAP2 SUB SWAP1 REVERT JUMPDEST PUSH1 0x0 PUSH1 0x7 PUSH1 0x0 CALLER PUSH20 0xFFFFFFFFFFFFFFFFFFFFFFFFFFFFFFFFFFFFFFFF AND PUSH20 0xFFFFFFFFFFFFFFFFFFFFFFFFFFFFFFFFFFFFFFFF AND DUP2 MSTORE PUSH1 0x20 ADD SWAP1 DUP2 MSTORE PUSH1 0x20 ADD PUSH1 0x0 KECCAK256 SLOAD GT PUSH2 0x1A34 JUMPI PUSH1 0x40 MLOAD PUSH32 0x8C379A000000000000000000000000000000000000000000000000000000000 DUP2 MSTORE PUSH1 0x4 ADD PUSH2 0x1A2B SWAP1 PUSH2 0x3503 JUMP JUMPDEST PUSH1 0x40 MLOAD DUP1 SWAP2 SUB SWAP1 REVERT JUMPDEST PUSH1 0x0 PUSH1 0x7 PUSH1 0x0 CALLER PUSH20 0xFFFFFFFFFFFFFFFFFFFFFFFFFFFFFFFFFFFFFFFF AND PUSH20 0xFFFFFFFFFFFFFFFFFFFFFFFFFFFFFFFFFFFFFFFF AND DUP2 MSTORE PUSH1 0x20 ADD SWAP1 DUP2 MSTORE PUSH1 0x20 ADD PUSH1 0x0 KECCAK256 SLOAD SWAP1 POP CALLER PUSH20 0xFFFFFFFFFFFFFFFFFFFFFFFFFFFFFFFFFFFFFFFF AND PUSH2 0x8FC DUP3 SWAP1 DUP2 ISZERO MUL SWAP1 PUSH1 0x40 MLOAD PUSH1 0x0 PUSH1 0x40 MLOAD DUP1 DUP4 SUB DUP2 DUP6 DUP9 DUP9 CALL SWAP4 POP POP POP POP ISZERO DUP1 ISZERO PUSH2 0x1ABE JUMPI RETURNDATASIZE PUSH1 0x0 DUP1 RETURNDATACOPY RETURNDATASIZE PUSH1 0x0 REVERT JUMPDEST POP PUSH1 0x0 PUSH1 0x7 PUSH1 0x0 CALLER PUSH20 0xFFFFFFFFFFFFFFFFFFFFFFFFFFFFFFFFFFFFFFFF AND PUSH20 0xFFFFFFFFFFFFFFFFFFFFFFFFFFFFFFFFFFFFFFFF AND DUP2 MSTORE PUSH1 0x20 ADD SWAP1 DUP2 MSTORE PUSH1 0x20 ADD PUSH1 0x0 KECCAK256 DUP2 SWAP1 SSTORE POP CALLER PUSH20 0xFFFFFFFFFFFFFFFFFFFFFFFFFFFFFFFFFFFFFFFF AND PUSH32 0xB040B0548401C5129B6A096BA7887218C270F45CDD16BC8DD38B26DE8C12ACD0 DUP3 PUSH1 0x40 MLOAD PUSH2 0x1B4A SWAP2 SWAP1 PUSH2 0x3545 JUMP JUMPDEST PUSH1 0x40 MLOAD DUP1 SWAP2 SUB SWAP1 LOG2 POP JUMP JUMPDEST PUSH1 0x0 ISZERO ISZERO PUSH1 0x0 PUSH1 0x14 SWAP1 SLOAD SWAP1 PUSH2 0x100 EXP SWAP1 DIV PUSH1 0xFF AND ISZERO ISZERO EQ PUSH2 0x1BAB JUMPI PUSH1 0x40 MLOAD PUSH32 0x8C379A000000000000000000000000000000000000000000000000000000000 DUP2 MSTORE PUSH1 0x4 ADD PUSH2 0x1BA2 SWAP1 PUSH2 0x3423 JUMP JUMPDEST PUSH1 0x40 MLOAD DUP1 SWAP2 SUB SWAP1 REVERT JUMPDEST DUP1 CALLER PUSH20 0xFFFFFFFFFFFFFFFFFFFFFFFFFFFFFFFFFFFFFFFF AND PUSH1 0x4 PUSH1 0x0 DUP4 DUP2 MSTORE PUSH1 0x20 ADD SWAP1 DUP2 MSTORE PUSH1 0x20 ADD PUSH1 0x0 KECCAK256 PUSH1 0x2 ADD PUSH1 0x0 SWAP1 SLOAD SWAP1 PUSH2 0x100 EXP SWAP1 DIV PUSH20 0xFFFFFFFFFFFFFFFFFFFFFFFFFFFFFFFFFFFFFFFF AND PUSH20 0xFFFFFFFFFFFFFFFFFFFFFFFFFFFFFFFFFFFFFFFF AND EQ PUSH2 0x1C50 JUMPI PUSH1 0x40 MLOAD PUSH32 0x8C379A000000000000000000000000000000000000000000000000000000000 DUP2 MSTORE PUSH1 0x4 ADD PUSH2 0x1C47 SWAP1 PUSH2 0x3303 JUMP JUMPDEST PUSH1 0x40 MLOAD DUP1 SWAP2 SUB SWAP1 REVERT JUMPDEST DUP2 PUSH1 0x0 DUP2 GT DUP1 ISZERO PUSH2 0x1C63 JUMPI POP PUSH1 0x3 SLOAD DUP2 GT ISZERO JUMPDEST PUSH2 0x1CA2 JUMPI PUSH1 0x40 MLOAD PUSH32 0x8C379A000000000000000000000000000000000000000000000000000000000 DUP2 MSTORE PUSH1 0x4 ADD PUSH2 0x1C99 SWAP1 PUSH2 0x3363 JUMP JUMPDEST PUSH1 0x40 MLOAD DUP1 SWAP2 SUB SWAP1 REVERT JUMPDEST PUSH1 0x1 PUSH1 0x5 DUP2 GT ISZERO PUSH2 0x1CDC JUMPI PUSH32 0x4E487B7100000000000000000000000000000000000000000000000000000000 PUSH1 0x0 MSTORE PUSH1 0x21 PUSH1 0x4 MSTORE PUSH1 0x24 PUSH1 0x0 REVERT JUMPDEST PUSH1 0x4 PUSH1 0x0 DUP6 DUP2 MSTORE PUSH1 0x20 ADD SWAP1 DUP2 MSTORE PUSH1 0x20 ADD PUSH1 0x0 KECCAK256 PUSH1 0x5 ADD PUSH1 0x0 SWAP1 SLOAD SWAP1 PUSH2 0x100 EXP SWAP1 DIV PUSH1 0xFF AND PUSH1 0x5 DUP2 GT ISZERO PUSH2 0x1D38 JUMPI PUSH32 0x4E487B7100000000000000000000000000000000000000000000000000000000 PUSH1 0x0 MSTORE PUSH1 0x21 PUSH1 0x4 MSTORE PUSH1 0x24 PUSH1 0x0 REVERT JUMPDEST EQ PUSH2 0x1D78 JUMPI PUSH1 0x40 MLOAD PUSH32 0x8C379A000000000000000000000000000000000000000000000000000000000 DUP2 MSTORE PUSH1 0x4 ADD PUSH2 0x1D6F SWAP1 PUSH2 0x3383 JUMP JUMPDEST PUSH1 0x40 MLOAD DUP1 SWAP2 SUB SWAP1 REVERT JUMPDEST PUSH1 0x2 PUSH1 0x4 PUSH1 0x0 DUP6 DUP2 MSTORE PUSH1 0x20 ADD SWAP1 DUP2 MSTORE PUSH1 0x20 ADD PUSH1 0x0 KECCAK256 PUSH1 0x5 ADD PUSH1 0x0 PUSH2 0x100 EXP DUP2 SLOAD DUP2 PUSH1 0xFF MUL NOT AND SWAP1 DUP4 PUSH1 0x5 DUP2 GT ISZERO PUSH2 0x1DD8 JUMPI PUSH32 0x4E487B7100000000000000000000000000000000000000000000000000000000 PUSH1 0x0 MSTORE PUSH1 0x21 PUSH1 0x4 MSTORE PUSH1 0x24 PUSH1 0x0 REVERT JUMPDEST MUL OR SWAP1 SSTORE POP CALLER PUSH20 0xFFFFFFFFFFFFFFFFFFFFFFFFFFFFFFFFFFFFFFFF AND DUP4 PUSH32 0x6F64D071670DFFB53C3EC519C8D9A5B9BD92B2ECE000406C1E59AE57C9187DD5 PUSH1 0x40 MLOAD PUSH1 0x40 MLOAD DUP1 SWAP2 SUB SWAP1 LOG3 POP POP POP JUMP JUMPDEST PUSH1 0x0 ISZERO ISZERO PUSH1 0x0 PUSH1 0x14 SWAP1 SLOAD SWAP1 PUSH2 0x100 EXP SWAP1 DIV PUSH1 0xFF AND ISZERO ISZERO EQ PUSH2 0x1E7C JUMPI PUSH1 0x40 MLOAD PUSH32 0x8C379A000000000000000000000000000000000000000000000000000000000 DUP2 MSTORE PUSH1 0x4 ADD PUSH2 0x1E73 SWAP1 PUSH2 0x3423 JUMP JUMPDEST PUSH1 0x40 MLOAD DUP1 SWAP2 SUB SWAP1 REVERT JUMPDEST DUP1 CALLER PUSH20 0xFFFFFFFFFFFFFFFFFFFFFFFFFFFFFFFFFFFFFFFF AND PUSH1 0x4 PUSH1 0x0 DUP4 DUP2 MSTORE PUSH1 0x20 ADD SWAP1 DUP2 MSTORE PUSH1 0x20 ADD PUSH1 0x0 KECCAK256 PUSH1 0x1 ADD PUSH1 0x0 SWAP1 SLOAD SWAP1 PUSH2 0x100 EXP SWAP1 DIV PUSH20 0xFFFFFFFFFFFFFFFFFFFFFFFFFFFFFFFFFFFFFFFF AND PUSH20 0xFFFFFFFFFFFFFFFFFFFFFFFFFFFFFFFFFFFFFFFF AND EQ PUSH2 0x1F21 JUMPI PUSH1 0x40 MLOAD PUSH32 0x8C379A000000000000000000000000000000000000000000000000000000000 DUP2 MSTORE PUSH1 0x4 ADD PUSH2 0x1F18 SWAP1 PUSH2 0x32C3 JUMP JUMPDEST PUSH1 0x40 MLOAD DUP1 SWAP2 SUB SWAP1 REVERT JUMPDEST DUP2 PUSH1 0x0 DUP2 GT DUP1 ISZERO PUSH2 0x1F34 JUMPI POP PUSH1 0x3 SLOAD DUP2 GT ISZERO JUMPDEST PUSH2 0x1F73 JUMPI PUSH1 0x40 MLOAD PUSH32 0x8C379A000000000000000000000000000000000000000000000000000000000 DUP2 MSTORE PUSH1 0x4 ADD PUSH2 0x1F6A SWAP1 PUSH2 0x3363 JUMP JUMPDEST PUSH1 0x40 MLOAD DUP1 SWAP2 SUB SWAP1 REVERT JUMPDEST PUSH1 0x2 PUSH1 0x5 DUP2 GT ISZERO PUSH2 0x1FAD JUMPI PUSH32 0x4E487B7100000000000000000000000000000000000000000000000000000000 PUSH1 0x0 MSTORE PUSH1 0x21 PUSH1 0x4 MSTORE PUSH1 0x24 PUSH1 0x0 REVERT JUMPDEST PUSH1 0x4 PUSH1 0x0 DUP6 DUP2 MSTORE PUSH1 0x20 ADD SWAP1 DUP2 MSTORE PUSH1 0x20 ADD PUSH1 0x0 KECCAK256 PUSH1 0x5 ADD PUSH1 0x0 SWAP1 SLOAD SWAP1 PUSH2 0x100 EXP SWAP1 DIV PUSH1 0xFF AND PUSH1 0x5 DUP2 GT ISZERO PUSH2 0x2009 JUMPI PUSH32 0x4E487B7100000000000000000000000000000000000000000000000000000000 PUSH1 0x0 MSTORE PUSH1 0x21 PUSH1 0x4 MSTORE PUSH1 0x24 PUSH1 0x0 REVERT JUMPDEST EQ PUSH2 0x2049 JUMPI PUSH1 0x40 MLOAD PUSH32 0x8C379A000000000000000000000000000000000000000000000000000000000 DUP2 MSTORE PUSH1 0x4 ADD PUSH2 0x2040 SWAP1 PUSH2 0x3343 JUMP JUMPDEST PUSH1 0x40 MLOAD DUP1 SWAP2 SUB SWAP1 REVERT JUMPDEST PUSH1 0x0 PUSH1 0x64 PUSH1 0x1 SLOAD PUSH1 0x4 PUSH1 0x0 DUP8 DUP2 MSTORE PUSH1 0x20 ADD SWAP1 DUP2 MSTORE PUSH1 0x20 ADD PUSH1 0x0 KECCAK256 PUSH1 0x4 ADD SLOAD PUSH2 0x2071 SWAP2 SWAP1 PUSH2 0x36CC JUMP JUMPDEST PUSH2 0x207B SWAP2 SWAP1 PUSH2 0x369B JUMP JUMPDEST SWAP1 POP PUSH1 0x0 DUP2 PUSH1 0x4 PUSH1 0x0 DUP8 DUP2 MSTORE PUSH1 0x20 ADD SWAP1 DUP2 MSTORE PUSH1 0x20 ADD PUSH1 0x0 KECCAK256 PUSH1 0x4 ADD SLOAD PUSH2 0x20A1 SWAP2 SWAP1 PUSH2 0x3726 JUMP JUMPDEST SWAP1 POP DUP2 PUSH1 0x2 PUSH1 0x0 DUP3 DUP3 SLOAD PUSH2 0x20B5 SWAP2 SWAP1 PUSH2 0x3645 JUMP JUMPDEST SWAP3 POP POP DUP2 SWAP1 SSTORE POP DUP1 PUSH1 0x7 PUSH1 0x0 PUSH1 0x4 PUSH1 0x0 DUP10 DUP2 MSTORE PUSH1 0x20 ADD SWAP1 DUP2 MSTORE PUSH1 0x20 ADD PUSH1 0x0 KECCAK256 PUSH1 0x2 ADD PUSH1 0x0 SWAP1 SLOAD SWAP1 PUSH2 0x100 EXP SWAP1 DIV PUSH20 0xFFFFFFFFFFFFFFFFFFFFFFFFFFFFFFFFFFFFFFFF AND PUSH20 0xFFFFFFFFFFFFFFFFFFFFFFFFFFFFFFFFFFFFFFFF AND PUSH20 0xFFFFFFFFFFFFFFFFFFFFFFFFFFFFFFFFFFFFFFFF AND DUP2 MSTORE PUSH1 0x20 ADD SWAP1 DUP2 MSTORE PUSH1 0x20 ADD PUSH1 0x0 KECCAK256 PUSH1 0x0 DUP3 DUP3 SLOAD PUSH2 0x2141 SWAP2 SWAP1 PUSH2 0x3645 JUMP JUMPDEST SWAP3 POP POP DUP2 SWAP1 SSTORE POP PUSH1 0x4 DUP1 PUSH1 0x0 DUP8 DUP2 MSTORE PUSH1 0x20 ADD SWAP1 DUP2 MSTORE PUSH1 0x20 ADD PUSH1 0x0 KECCAK256 PUSH1 0x5 ADD PUSH1 0x0 PUSH2 0x100 EXP DUP2 SLOAD DUP2 PUSH1 0xFF MUL NOT AND SWAP1 DUP4 PUSH1 0x5 DUP2 GT ISZERO PUSH2 0x21A7 JUMPI PUSH32 0x4E487B7100000000000000000000000000000000000000000000000000000000 PUSH1 0x0 MSTORE PUSH1 0x21 PUSH1 0x4 MSTORE PUSH1 0x24 PUSH1 0x0 REVERT JUMPDEST MUL OR SWAP1 SSTORE POP CALLER PUSH20 0xFFFFFFFFFFFFFFFFFFFFFFFFFFFFFFFFFFFFFFFF AND DUP6 PUSH32 0x6B47AC85BEEDCA9F4EBBC12634A84DD3D260BAE3CC4C67FCDF8C326F9B4A1E3 DUP4 DUP6 PUSH1 0x40 MLOAD PUSH2 0x21F5 SWAP3 SWAP2 SWAP1 PUSH2 0x3560 JUMP JUMPDEST PUSH1 0x40 MLOAD DUP1 SWAP2 SUB SWAP1 LOG3 POP POP POP POP POP JUMP JUMPDEST PUSH1 0x0 ISZERO ISZERO PUSH1 0x0 PUSH1 0x14 SWAP1 SLOAD SWAP1 PUSH2 0x100 EXP SWAP1 DIV PUSH1 0xFF AND ISZERO ISZERO EQ PUSH2 0x225A JUMPI PUSH1 0x40 MLOAD PUSH32 0x8C379A000000000000000000000000000000000000000000000000000000000 DUP2 MSTORE PUSH1 0x4 ADD PUSH2 0x2251 SWAP1 PUSH2 0x3423 JUMP JUMPDEST PUSH1 0x40 MLOAD DUP1 SWAP2 SUB SWAP1 REVERT JUMPDEST DUP1 CALLER PUSH20 0xFFFFFFFFFFFFFFFFFFFFFFFFFFFFFFFFFFFFFFFF AND PUSH1 0x4 PUSH1 0x0 DUP4 DUP2 MSTORE PUSH1 0x20 ADD SWAP1 DUP2 MSTORE PUSH1 0x20 ADD PUSH1 0x0 KECCAK256 PUSH1 0x1 ADD PUSH1 0x0 SWAP1 SLOAD SWAP1 PUSH2 0x100 EXP SWAP1 DIV PUSH20 0xFFFFFFFFFFFFFFFFFFFFFFFFFFFFFFFFFFFFFFFF AND PUSH20 0xFFFFFFFFFFFFFFFFFFFFFFFFFFFFFFFFFFFFFFFF AND EQ PUSH2 0x22FF JUMPI PUSH1 0x40 MLOAD PUSH32 0x8C379A000000000000000000000000000000000000000000000000000000000 DUP2 MSTORE PUSH1 0x4 ADD PUSH2 0x22F6 SWAP1 PUSH2 0x32C3 JUMP JUMPDEST PUSH1 0x40 MLOAD DUP1 SWAP2 SUB SWAP1 REVERT JUMPDEST DUP2 PUSH1 0x0 DUP2 GT DUP1 ISZERO PUSH2 0x2312 JUMPI POP PUSH1 0x3 SLOAD DUP2 GT ISZERO JUMPDEST PUSH2 0x2351 JUMPI PUSH1 0x40 MLOAD PUSH32 0x8C379A000000000000000000000000000000000000000000000000000000000 DUP2 MSTORE PUSH1 0x4 ADD PUSH2 0x2348 SWAP1 PUSH2 0x3363 JUMP JUMPDEST PUSH1 0x40 MLOAD DUP1 SWAP2 SUB SWAP1 REVERT JUMPDEST PUSH1 0x0 PUSH1 0x5 DUP2 GT ISZERO PUSH2 0x238B JUMPI PUSH32 0x4E487B7100000000000000000000000000000000000000000000000000000000 PUSH1 0x0 MSTORE PUSH1 0x21 PUSH1 0x4 MSTORE PUSH1 0x24 PUSH1 0x0 REVERT JUMPDEST PUSH1 0x4 PUSH1 0x0 DUP6 DUP2 MSTORE PUSH1 0x20 ADD SWAP1 DUP2 MSTORE PUSH1 0x20 ADD PUSH1 0x0 KECCAK256 PUSH1 0x5 ADD PUSH1 0x0 SWAP1 SLOAD SWAP1 PUSH2 0x100 EXP SWAP1 DIV PUSH1 0xFF AND PUSH1 0x5 DUP2 GT ISZERO PUSH2 0x23E7 JUMPI PUSH32 0x4E487B7100000000000000000000000000000000000000000000000000000000 PUSH1 0x0 MSTORE PUSH1 0x21 PUSH1 0x4 MSTORE PUSH1 0x24 PUSH1 0x0 REVERT JUMPDEST EQ PUSH2 0x2427 JUMPI PUSH1 0x40 MLOAD PUSH32 0x8C379A000000000000000000000000000000000000000000000000000000000 DUP2 MSTORE PUSH1 0x4 ADD PUSH2 0x241E SWAP1 PUSH2 0x34C3 JUMP JUMPDEST PUSH1 0x40 MLOAD DUP1 SWAP2 SUB SWAP1 REVERT JUMPDEST PUSH1 0x0 PUSH1 0x4 PUSH1 0x0 DUP6 DUP2 MSTORE PUSH1 0x20 ADD SWAP1 DUP2 MSTORE PUSH1 0x20 ADD PUSH1 0x0 KECCAK256 PUSH1 0x4 ADD SLOAD SWAP1 POP CALLER PUSH20 0xFFFFFFFFFFFFFFFFFFFFFFFFFFFFFFFFFFFFFFFF AND PUSH2 0x8FC DUP3 SWAP1 DUP2 ISZERO MUL SWAP1 PUSH1 0x40 MLOAD PUSH1 0x0 PUSH1 0x40 MLOAD DUP1 DUP4 SUB DUP2 DUP6 DUP9 DUP9 CALL SWAP4 POP POP POP POP ISZERO DUP1 ISZERO PUSH2 0x2488 JUMPI RETURNDATASIZE PUSH1 0x0 DUP1 RETURNDATACOPY RETURNDATASIZE PUSH1 0x0 REVERT JUMPDEST POP PUSH1 0x5 PUSH1 0x4 PUSH1 0x0 DUP7 DUP2 MSTORE PUSH1 0x20 ADD SWAP1 DUP2 MSTORE PUSH1 0x20 ADD PUSH1 0x0 KECCAK256 PUSH1 0x5 ADD PUSH1 0x0 PUSH2 0x100 EXP DUP2 SLOAD DUP2 PUSH1 0xFF MUL NOT AND SWAP1 DUP4 PUSH1 0x5 DUP2 GT ISZERO PUSH2 0x24E9 JUMPI PUSH32 0x4E487B7100000000000000000000000000000000000000000000000000000000 PUSH1 0x0 MSTORE PUSH1 0x21 PUSH1 0x4 MSTORE PUSH1 0x24 PUSH1 0x0 REVERT JUMPDEST MUL OR SWAP1 SSTORE POP CALLER PUSH20 0xFFFFFFFFFFFFFFFFFFFFFFFFFFFFFFFFFFFFFFFF AND DUP5 PUSH32 0xCDAC2B89A9B0D70F2F97C5B7164BBA2D6A770C137B5772F8E821C8C38D7C4826 PUSH1 0x40 MLOAD PUSH1 0x40 MLOAD DUP1 SWAP2 SUB SWAP1 LOG3 POP POP POP POP JUMP JUMPDEST PUSH1 0x60 PUSH1 0x0 ISZERO ISZERO PUSH1 0x0 PUSH1 0x14 SWAP1 SLOAD SWAP1 PUSH2 0x100 EXP SWAP1 DIV PUSH1 0xFF AND ISZERO ISZERO EQ PUSH2 0x2590 JUMPI PUSH1 0x40 MLOAD PUSH32 0x8C379A000000000000000000000000000000000000000000000000000000000 DUP2 MSTORE PUSH1 0x4 ADD PUSH2 0x2587 SWAP1 PUSH2 0x3423 JUMP JUMPDEST PUSH1 0x40 MLOAD DUP1 SWAP2 SUB SWAP1 REVERT JUMPDEST PUSH1 0x6 PUSH1 0x0 CALLER PUSH20 0xFFFFFFFFFFFFFFFFFFFFFFFFFFFFFFFFFFFFFFFF AND PUSH20 0xFFFFFFFFFFFFFFFFFFFFFFFFFFFFFFFFFFFFFFFF AND DUP2 MSTORE PUSH1 0x20 ADD SWAP1 DUP2 MSTORE PUSH1 0x20 ADD PUSH1 0x0 KECCAK256 DUP1 SLOAD DUP1 PUSH1 0x20 MUL PUSH1 0x20 ADD PUSH1 0x40 MLOAD SWAP1 DUP2 ADD PUSH1 0x40 MSTORE DUP1 SWAP3 SWAP2 SWAP1 DUP2 DUP2 MSTORE PUSH1 0x20 ADD DUP3 DUP1 SLOAD DUP1 ISZERO PUSH2 0x2619 JUMPI PUSH1 0x20 MUL DUP3 ADD SWAP2 SWAP1 PUSH1 0x0 MSTORE PUSH1 0x20 PUSH1 0x0 KECCAK256 SWAP1 JUMPDEST DUP2 SLOAD DUP2 MSTORE PUSH1 0x20 ADD SWAP1 PUSH1 0x1 ADD SWAP1 DUP1 DUP4 GT PUSH2 0x2605 JUMPI JUMPDEST POP POP POP POP POP SWAP1 POP SWAP1 JUMP JUMPDEST PUSH1 0x0 ISZERO ISZERO PUSH1 0x0 PUSH1 0x14 SWAP1 SLOAD SWAP1 PUSH2 0x100 EXP SWAP1 DIV PUSH1 0xFF AND ISZERO ISZERO EQ PUSH2 0x2679 JUMPI PUSH1 0x40 MLOAD PUSH32 0x8C379A000000000000000000000000000000000000000000000000000000000 DUP2 MSTORE PUSH1 0x4 ADD PUSH2 0x2670 SWAP1 PUSH2 0x3423 JUMP JUMPDEST PUSH1 0x40 MLOAD DUP1 SWAP2 SUB SWAP1 REVERT JUMPDEST DUP1 CALLER PUSH20 0xFFFFFFFFFFFFFFFFFFFFFFFFFFFFFFFFFFFFFFFF AND PUSH1 0x4 PUSH1 0x0 DUP4 DUP2 MSTORE PUSH1 0x20 ADD SWAP1 DUP2 MSTORE PUSH1 0x20 ADD PUSH1 0x0 KECCAK256 PUSH1 0x2 ADD PUSH1 0x0 SWAP1 SLOAD SWAP1 PUSH2 0x100 EXP SWAP1 DIV PUSH20 0xFFFFFFFFFFFFFFFFFFFFFFFFFFFFFFFFFFFFFFFF AND PUSH20 0xFFFFFFFFFFFFFFFFFFFFFFFFFFFFFFFFFFFFFFFF AND EQ PUSH2 0x271E JUMPI PUSH1 0x40 MLOAD PUSH32 0x8C379A000000000000000000000000000000000000000000000000000000000 DUP2 MSTORE PUSH1 0x4 ADD PUSH2 0x2715 SWAP1 PUSH2 0x3303 JUMP JUMPDEST PUSH1 0x40 MLOAD DUP1 SWAP2 SUB SWAP1 REVERT JUMPDEST DUP2 PUSH1 0x0 DUP2 GT DUP1 ISZERO PUSH2 0x2731 JUMPI POP PUSH1 0x3 SLOAD DUP2 GT ISZERO JUMPDEST PUSH2 0x2770 JUMPI PUSH1 0x40 MLOAD PUSH32 0x8C379A000000000000000000000000000000000000000000000000000000000 DUP2 MSTORE PUSH1 0x4 ADD PUSH2 0x2767 SWAP1 PUSH2 0x3363 JUMP JUMPDEST PUSH1 0x40 MLOAD DUP1 SWAP2 SUB SWAP1 REVERT JUMPDEST PUSH1 0x0 PUSH1 0x5 DUP2 GT ISZERO PUSH2 0x27AA JUMPI PUSH32 0x4E487B7100000000000000000000000000000000000000000000000000000000 PUSH1 0x0 MSTORE PUSH1 0x21 PUSH1 0x4 MSTORE PUSH1 0x24 PUSH1 0x0 REVERT JUMPDEST PUSH1 0x4 PUSH1 0x0 DUP6 DUP2 MSTORE PUSH1 0x20 ADD SWAP1 DUP2 MSTORE PUSH1 0x20 ADD PUSH1 0x0 KECCAK256 PUSH1 0x5 ADD PUSH1 0x0 SWAP1 SLOAD SWAP1 PUSH2 0x100 EXP SWAP1 DIV PUSH1 0xFF AND PUSH1 0x5 DUP2 GT ISZERO PUSH2 0x2806 JUMPI PUSH32 0x4E487B7100000000000000000000000000000000000000000000000000000000 PUSH1 0x0 MSTORE PUSH1 0x21 PUSH1 0x4 MSTORE PUSH1 0x24 PUSH1 0x0 REVERT JUMPDEST EQ PUSH2 0x2846 JUMPI PUSH1 0x40 MLOAD PUSH32 0x8C379A000000000000000000000000000000000000000000000000000000000 DUP2 MSTORE PUSH1 0x4 ADD PUSH2 0x283D SWAP1 PUSH2 0x32A3 JUMP JUMPDEST PUSH1 0x40 MLOAD DUP1 SWAP2 SUB SWAP1 REVERT JUMPDEST PUSH1 0x1 PUSH1 0x4 PUSH1 0x0 DUP6 DUP2 MSTORE PUSH1 0x20 ADD SWAP1 DUP2 MSTORE PUSH1 0x20 ADD PUSH1 0x0 KECCAK256 PUSH1 0x5 ADD PUSH1 0x0 PUSH2 0x100 EXP DUP2 SLOAD DUP2 PUSH1 0xFF MUL NOT AND SWAP1 DUP4 PUSH1 0x5 DUP2 GT ISZERO PUSH2 0x28A6 JUMPI PUSH32 0x4E487B7100000000000000000000000000000000000000000000000000000000 PUSH1 0x0 MSTORE PUSH1 0x21 PUSH1 0x4 MSTORE PUSH1 0x24 PUSH1 0x0 REVERT JUMPDEST MUL OR SWAP1 SSTORE POP CALLER PUSH20 0xFFFFFFFFFFFFFFFFFFFFFFFFFFFFFFFFFFFFFFFF AND DUP4 PUSH32 0x87136E412F5F61CA8282F28C531B67A1AC65873685C16245A61F698BB0C07AFE PUSH1 0x40 MLOAD PUSH1 0x40 MLOAD DUP1 SWAP2 SUB SWAP1 LOG3 POP POP POP JUMP JUMPDEST PUSH1 0x0 DUP1 SLOAD SWAP1 PUSH2 0x100 EXP SWAP1 DIV PUSH20 0xFFFFFFFFFFFFFFFFFFFFFFFFFFFFFFFFFFFFFFFF AND PUSH20 0xFFFFFFFFFFFFFFFFFFFFFFFFFFFFFFFFFFFFFFFF AND CALLER PUSH20 0xFFFFFFFFFFFFFFFFFFFFFFFFFFFFFFFFFFFFFFFF AND EQ PUSH2 0x2982 JUMPI PUSH1 0x40 MLOAD PUSH32 0x8C379A000000000000000000000000000000000000000000000000000000000 DUP2 MSTORE PUSH1 0x4 ADD PUSH2 0x2979 SWAP1 PUSH2 0x34A3 JUMP JUMPDEST PUSH1 0x40 MLOAD DUP1 SWAP2 SUB SWAP1 REVERT JUMPDEST PUSH1 0x0 PUSH20 0xFFFFFFFFFFFFFFFFFFFFFFFFFFFFFFFFFFFFFFFF AND DUP2 PUSH20 0xFFFFFFFFFFFFFFFFFFFFFFFFFFFFFFFFFFFFFFFF AND EQ PUSH2 0x29F1 JUMPI PUSH1 0x40 MLOAD PUSH32 0x8C379A000000000000000000000000000000000000000000000000000000000 DUP2 MSTORE PUSH1 0x4 ADD PUSH2 0x29E8 SWAP1 PUSH2 0x3403 JUMP JUMPDEST PUSH1 0x40 MLOAD DUP1 SWAP2 SUB SWAP1 REVERT JUMPDEST DUP1 PUSH1 0x0 DUP1 PUSH2 0x100 EXP DUP2 SLOAD DUP2 PUSH20 0xFFFFFFFFFFFFFFFFFFFFFFFFFFFFFFFFFFFFFFFF MUL NOT AND SWAP1 DUP4 PUSH20 0xFFFFFFFFFFFFFFFFFFFFFFFFFFFFFFFFFFFFFFFF AND MUL OR SWAP1 SSTORE POP POP JUMP JUMPDEST PUSH1 0x0 DUP1 SLOAD SWAP1 PUSH2 0x100 EXP SWAP1 DIV PUSH20 0xFFFFFFFFFFFFFFFFFFFFFFFFFFFFFFFFFFFFFFFF AND PUSH20 0xFFFFFFFFFFFFFFFFFFFFFFFFFFFFFFFFFFFFFFFF AND CALLER PUSH20 0xFFFFFFFFFFFFFFFFFFFFFFFFFFFFFFFFFFFFFFFF AND EQ PUSH2 0x2AC2 JUMPI PUSH1 0x40 MLOAD PUSH32 0x8C379A000000000000000000000000000000000000000000000000000000000 DUP2 MSTORE PUSH1 0x4 ADD PUSH2 0x2AB9 SWAP1 PUSH2 0x34A3 JUMP JUMPDEST PUSH1 0x40 MLOAD DUP1 SWAP2 SUB SWAP1 REVERT JUMPDEST PUSH1 0x0 DUP1 PUSH1 0x14 PUSH2 0x100 EXP DUP2 SLOAD DUP2 PUSH1 0xFF MUL NOT AND SWAP1 DUP4 ISZERO ISZERO MUL OR SWAP1 SSTORE POP JUMP JUMPDEST DUP3 DUP1 SLOAD PUSH2 0x2AEA SWAP1 PUSH2 0x3809 JUMP JUMPDEST SWAP1 PUSH1 0x0 MSTORE PUSH1 0x20 PUSH1 0x0 KECCAK256 SWAP1 PUSH1 0x1F ADD PUSH1 0x20 SWAP1 DIV DUP2 ADD SWAP3 DUP3 PUSH2 0x2B0C JUMPI PUSH1 0x0 DUP6 SSTORE PUSH2 0x2B53 JUMP JUMPDEST DUP3 PUSH1 0x1F LT PUSH2 0x2B25 JUMPI DUP1 MLOAD PUSH1 0xFF NOT AND DUP4 DUP1 ADD OR DUP6 SSTORE PUSH2 0x2B53 JUMP JUMPDEST DUP3 DUP1 ADD PUSH1 0x1 ADD DUP6 SSTORE DUP3 ISZERO PUSH2 0x2B53 JUMPI SWAP2 DUP3 ADD JUMPDEST DUP3 DUP2 GT ISZERO PUSH2 0x2B52 JUMPI DUP3 MLOAD DUP3 SSTORE SWAP2 PUSH1 0x20 ADD SWAP2 SWAP1 PUSH1 0x1 ADD SWAP1 PUSH2 0x2B37 JUMP JUMPDEST JUMPDEST POP SWAP1 POP PUSH2 0x2B60 SWAP2 SWAP1 PUSH2 0x2C05 JUMP JUMPDEST POP SWAP1 JUMP JUMPDEST PUSH1 0x40 MLOAD DUP1 PUSH1 0xE0 ADD PUSH1 0x40 MSTORE DUP1 PUSH1 0x0 DUP2 MSTORE PUSH1 0x20 ADD PUSH1 0x0 PUSH20 0xFFFFFFFFFFFFFFFFFFFFFFFFFFFFFFFFFFFFFFFF AND DUP2 MSTORE PUSH1 0x20 ADD PUSH1 0x0 PUSH20 0xFFFFFFFFFFFFFFFFFFFFFFFFFFFFFFFFFFFFFFFF AND DUP2 MSTORE PUSH1 0x20 ADD PUSH1 0x60 DUP2 MSTORE PUSH1 0x20 ADD PUSH1 0x0 DUP2 MSTORE PUSH1 0x20 ADD PUSH1 0x0 PUSH1 0x5 DUP2 GT ISZERO PUSH2 0x2BF8 JUMPI PUSH32 0x4E487B7100000000000000000000000000000000000000000000000000000000 PUSH1 0x0 MSTORE PUSH1 0x21 PUSH1 0x4 MSTORE PUSH1 0x24 PUSH1 0x0 REVERT JUMPDEST DUP2 MSTORE PUSH1 0x20 ADD PUSH1 0x0 DUP2 MSTORE POP SWAP1 JUMP JUMPDEST JUMPDEST DUP1 DUP3 GT ISZERO PUSH2 0x2C1E JUMPI PUSH1 0x0 DUP2 PUSH1 0x0 SWAP1 SSTORE POP PUSH1 0x1 ADD PUSH2 0x2C06 JUMP JUMPDEST POP SWAP1 JUMP JUMPDEST PUSH1 0x0 PUSH2 0x2C35 PUSH2 0x2C30 DUP5 PUSH2 0x35AE JUMP JUMPDEST PUSH2 0x3589 JUMP JUMPDEST SWAP1 POP DUP3 DUP2 MSTORE PUSH1 0x20 DUP2 ADD DUP5 DUP5 DUP5 ADD GT ISZERO PUSH2 0x2C4D JUMPI PUSH1 0x0 DUP1 REVERT JUMPDEST PUSH2 0x2C58 DUP5 DUP3 DUP6 PUSH2 0x37C7 JUMP JUMPDEST POP SWAP4 SWAP3 POP POP POP JUMP JUMPDEST PUSH1 0x0 DUP2 CALLDATALOAD SWAP1 POP PUSH2 0x2C6F DUP2 PUSH2 0x3DDD JUMP JUMPDEST SWAP3 SWAP2 POP POP JUMP JUMPDEST PUSH1 0x0 DUP2 CALLDATALOAD SWAP1 POP PUSH2 0x2C84 DUP2 PUSH2 0x3DF4 JUMP JUMPDEST SWAP3 SWAP2 POP POP JUMP JUMPDEST PUSH1 0x0 DUP3 PUSH1 0x1F DUP4 ADD SLT PUSH2 0x2C9B JUMPI PUSH1 0x0 DUP1 REVERT JUMPDEST DUP2 CALLDATALOAD PUSH2 0x2CAB DUP5 DUP3 PUSH1 0x20 DUP7 ADD PUSH2 0x2C22 JUMP JUMPDEST SWAP2 POP POP SWAP3 SWAP2 POP POP JUMP JUMPDEST PUSH1 0x0 DUP2 CALLDATALOAD SWAP1 POP PUSH2 0x2CC3 DUP2 PUSH2 0x3E0B JUMP JUMPDEST SWAP3 SWAP2 POP POP JUMP JUMPDEST PUSH1 0x0 PUSH1 0x20 DUP3 DUP5 SUB SLT ISZERO PUSH2 0x2CDB JUMPI PUSH1 0x0 DUP1 REVERT JUMPDEST PUSH1 0x0 PUSH2 0x2CE9 DUP5 DUP3 DUP6 ADD PUSH2 0x2C60 JUMP JUMPDEST SWAP2 POP POP SWAP3 SWAP2 POP POP JUMP JUMPDEST PUSH1 0x0 DUP1 PUSH1 0x40 DUP4 DUP6 SUB SLT ISZERO PUSH2 0x2D05 JUMPI PUSH1 0x0 DUP1 REVERT JUMPDEST PUSH1 0x0 DUP4 ADD CALLDATALOAD PUSH8 0xFFFFFFFFFFFFFFFF DUP2 GT ISZERO PUSH2 0x2D1F JUMPI PUSH1 0x0 DUP1 REVERT JUMPDEST PUSH2 0x2D2B DUP6 DUP3 DUP7 ADD PUSH2 0x2C8A JUMP JUMPDEST SWAP3 POP POP PUSH1 0x20 PUSH2 0x2D3C DUP6 DUP3 DUP7 ADD PUSH2 0x2C60 JUMP JUMPDEST SWAP2 POP POP SWAP3 POP SWAP3 SWAP1 POP JUMP JUMPDEST PUSH1 0x0 PUSH1 0x20 DUP3 DUP5 SUB SLT ISZERO PUSH2 0x2D58 JUMPI PUSH1 0x0 DUP1 REVERT JUMPDEST PUSH1 0x0 PUSH2 0x2D66 DUP5 DUP3 DUP6 ADD PUSH2 0x2CB4 JUMP JUMPDEST SWAP2 POP POP SWAP3 SWAP2 POP POP JUMP JUMPDEST PUSH1 0x0 DUP1 PUSH1 0x40 DUP4 DUP6 SUB SLT ISZERO PUSH2 0x2D82 JUMPI PUSH1 0x0 DUP1 REVERT JUMPDEST PUSH1 0x0 PUSH2 0x2D90 DUP6 DUP3 DUP7 ADD PUSH2 0x2CB4 JUMP JUMPDEST SWAP3 POP POP PUSH1 0x20 PUSH2 0x2DA1 DUP6 DUP3 DUP7 ADD PUSH2 0x2C75 JUMP JUMPDEST SWAP2 POP POP SWAP3 POP SWAP3 SWAP1 POP JUMP JUMPDEST PUSH1 0x0 PUSH2 0x2DB7 DUP4 DUP4 PUSH2 0x3218 JUMP JUMPDEST PUSH1 0x20 DUP4 ADD SWAP1 POP SWAP3 SWAP2 POP POP JUMP JUMPDEST PUSH2 0x2DCC DUP2 PUSH2 0x375A JUMP JUMPDEST DUP3 MSTORE POP POP JUMP JUMPDEST PUSH1 0x0 PUSH2 0x2DDD DUP3 PUSH2 0x35EF JUMP JUMPDEST PUSH2 0x2DE7 DUP2 DUP6 PUSH2 0x3612 JUMP JUMPDEST SWAP4 POP PUSH2 0x2DF2 DUP4 PUSH2 0x35DF JUMP JUMPDEST DUP1 PUSH1 0x0 JUMPDEST DUP4 DUP2 LT ISZERO PUSH2 0x2E23 JUMPI DUP2 MLOAD PUSH2 0x2E0A DUP9 DUP3 PUSH2 0x2DAB JUMP JUMPDEST SWAP8 POP PUSH2 0x2E15 DUP4 PUSH2 0x3605 JUMP JUMPDEST SWAP3 POP POP PUSH1 0x1 DUP2 ADD SWAP1 POP PUSH2 0x2DF6 JUMP JUMPDEST POP DUP6 SWAP4 POP POP POP POP SWAP3 SWAP2 POP POP JUMP JUMPDEST PUSH2 0x2E39 DUP2 PUSH2 0x376C JUMP JUMPDEST DUP3 MSTORE POP POP JUMP JUMPDEST PUSH2 0x2E48 DUP2 PUSH2 0x37B5 JUMP JUMPDEST DUP3 MSTORE POP POP JUMP JUMPDEST PUSH1 0x0 PUSH2 0x2E59 DUP3 PUSH2 0x35FA JUMP JUMPDEST PUSH2 0x2E63 DUP2 DUP6 PUSH2 0x3623 JUMP JUMPDEST SWAP4 POP PUSH2 0x2E73 DUP2 DUP6 PUSH1 0x20 DUP7 ADD PUSH2 0x37D6 JUMP JUMPDEST PUSH2 0x2E7C DUP2 PUSH2 0x39A0 JUMP JUMPDEST DUP5 ADD SWAP2 POP POP SWAP3 SWAP2 POP POP JUMP JUMPDEST PUSH1 0x0 PUSH2 0x2E92 DUP3 PUSH2 0x35FA JUMP JUMPDEST PUSH2 0x2E9C DUP2 DUP6 PUSH2 0x3634 JUMP JUMPDEST SWAP4 POP PUSH2 0x2EAC DUP2 DUP6 PUSH1 0x20 DUP7 ADD PUSH2 0x37D6 JUMP JUMPDEST PUSH2 0x2EB5 DUP2 PUSH2 0x39A0 JUMP JUMPDEST DUP5 ADD SWAP2 POP POP SWAP3 SWAP2 POP POP JUMP JUMPDEST PUSH1 0x0 PUSH2 0x2ECD PUSH1 0x12 DUP4 PUSH2 0x3634 JUMP JUMPDEST SWAP2 POP PUSH2 0x2ED8 DUP3 PUSH2 0x39B1 JUMP JUMPDEST PUSH1 0x20 DUP3 ADD SWAP1 POP SWAP2 SWAP1 POP JUMP JUMPDEST PUSH1 0x0 PUSH2 0x2EF0 PUSH1 0x1A DUP4 PUSH2 0x3634 JUMP JUMPDEST SWAP2 POP PUSH2 0x2EFB DUP3 PUSH2 0x39DA JUMP JUMPDEST PUSH1 0x20 DUP3 ADD SWAP1 POP SWAP2 SWAP1 POP JUMP JUMPDEST PUSH1 0x0 PUSH2 0x2F13 PUSH1 0x22 DUP4 PUSH2 0x3634 JUMP JUMPDEST SWAP2 POP PUSH2 0x2F1E DUP3 PUSH2 0x3A03 JUMP JUMPDEST PUSH1 0x40 DUP3 ADD SWAP1 POP SWAP2 SWAP1 POP JUMP JUMPDEST PUSH1 0x0 PUSH2 0x2F36 PUSH1 0x1E DUP4 PUSH2 0x3634 JUMP JUMPDEST SWAP2 POP PUSH2 0x2F41 DUP3 PUSH2 0x3A52 JUMP JUMPDEST PUSH1 0x20 DUP3 ADD SWAP1 POP SWAP2 SWAP1 POP JUMP JUMPDEST PUSH1 0x0 PUSH2 0x2F59 PUSH1 0x16 DUP4 PUSH2 0x3634 JUMP JUMPDEST SWAP2 POP PUSH2 0x2F64 DUP3 PUSH2 0x3A7B JUMP JUMPDEST PUSH1 0x20 DUP3 ADD SWAP1 POP SWAP2 SWAP1 POP JUMP JUMPDEST PUSH1 0x0 PUSH2 0x2F7C PUSH1 0x17 DUP4 PUSH2 0x3634 JUMP JUMPDEST SWAP2 POP PUSH2 0x2F87 DUP3 PUSH2 0x3AA4 JUMP JUMPDEST PUSH1 0x20 DUP3 ADD SWAP1 POP SWAP2 SWAP1 POP JUMP JUMPDEST PUSH1 0x0 PUSH2 0x2F9F PUSH1 0x18 DUP4 PUSH2 0x3634 JUMP JUMPDEST SWAP2 POP PUSH2 0x2FAA DUP3 PUSH2 0x3ACD JUMP JUMPDEST PUSH1 0x20 DUP3 ADD SWAP1 POP SWAP2 SWAP1 POP JUMP JUMPDEST PUSH1 0x0 PUSH2 0x2FC2 PUSH1 0x19 DUP4 PUSH2 0x3634 JUMP JUMPDEST SWAP2 POP PUSH2 0x2FCD DUP3 PUSH2 0x3AF6 JUMP JUMPDEST PUSH1 0x20 DUP3 ADD SWAP1 POP SWAP2 SWAP1 POP JUMP JUMPDEST PUSH1 0x0 PUSH2 0x2FE5 PUSH1 0x22 DUP4 PUSH2 0x3634 JUMP JUMPDEST SWAP2 POP PUSH2 0x2FF0 DUP3 PUSH2 0x3B1F JUMP JUMPDEST PUSH1 0x40 DUP3 ADD SWAP1 POP SWAP2 SWAP1 POP JUMP JUMPDEST PUSH1 0x0 PUSH2 0x3008 PUSH1 0x19 DUP4 PUSH2 0x3634 JUMP JUMPDEST SWAP2 POP PUSH2 0x3013 DUP3 PUSH2 0x3B6E JUMP JUMPDEST PUSH1 0x20 DUP3 ADD SWAP1 POP SWAP2 SWAP1 POP JUMP JUMPDEST PUSH1 0x0 PUSH2 0x302B PUSH1 0x17 DUP4 PUSH2 0x3634 JUMP JUMPDEST SWAP2 POP PUSH2 0x3036 DUP3 PUSH2 0x3B97 JUMP JUMPDEST PUSH1 0x20 DUP3 ADD SWAP1 POP SWAP2 SWAP1 POP JUMP JUMPDEST PUSH1 0x0 PUSH2 0x304E PUSH1 0x1F DUP4 PUSH2 0x3634 JUMP JUMPDEST SWAP2 POP PUSH2 0x3059 DUP3 PUSH2 0x3BC0 JUMP JUMPDEST PUSH1 0x20 DUP3 ADD SWAP1 POP SWAP2 SWAP1 POP JUMP JUMPDEST PUSH1 0x0 PUSH2 0x3071 PUSH1 0x16 DUP4 PUSH2 0x3634 JUMP JUMPDEST SWAP2 POP PUSH2 0x307C DUP3 PUSH2 0x3BE9 JUMP JUMPDEST PUSH1 0x20 DUP3 ADD SWAP1 POP SWAP2 SWAP1 POP JUMP JUMPDEST PUSH1 0x0 PUSH2 0x3094 PUSH1 0x24 DUP4 PUSH2 0x3634 JUMP JUMPDEST SWAP2 POP PUSH2 0x309F DUP3 PUSH2 0x3C12 JUMP JUMPDEST PUSH1 0x40 DUP3 ADD SWAP1 POP SWAP2 SWAP1 POP JUMP JUMPDEST PUSH1 0x0 PUSH2 0x30B7 PUSH1 0xF DUP4 PUSH2 0x3634 JUMP JUMPDEST SWAP2 POP PUSH2 0x30C2 DUP3 PUSH2 0x3C61 JUMP JUMPDEST PUSH1 0x20 DUP3 ADD SWAP1 POP SWAP2 SWAP1 POP JUMP JUMPDEST PUSH1 0x0 PUSH2 0x30DA PUSH1 0x24 DUP4 PUSH2 0x3634 JUMP JUMPDEST SWAP2 POP PUSH2 0x30E5 DUP3 PUSH2 0x3C8A JUMP JUMPDEST PUSH1 0x40 DUP3 ADD SWAP1 POP SWAP2 SWAP1 POP JUMP JUMPDEST PUSH1 0x0 PUSH2 0x30FD PUSH1 0x21 DUP4 PUSH2 0x3634 JUMP JUMPDEST SWAP2 POP PUSH2 0x3108 DUP3 PUSH2 0x3CD9 JUMP JUMPDEST PUSH1 0x40 DUP3 ADD SWAP1 POP SWAP2 SWAP1 POP JUMP JUMPDEST PUSH1 0x0 PUSH2 0x3120 PUSH1 0x2A DUP4 PUSH2 0x3634 JUMP JUMPDEST SWAP2 POP PUSH2 0x312B DUP3 PUSH2 0x3D28 JUMP JUMPDEST PUSH1 0x40 DUP3 ADD SWAP1 POP SWAP2 SWAP1 POP JUMP JUMPDEST PUSH1 0x0 PUSH2 0x3143 PUSH1 0x1E DUP4 PUSH2 0x3634 JUMP JUMPDEST SWAP2 POP PUSH2 0x314E DUP3 PUSH2 0x3D77 JUMP JUMPDEST PUSH1 0x20 DUP3 ADD SWAP1 POP SWAP2 SWAP1 POP JUMP JUMPDEST PUSH1 0x0 PUSH2 0x3166 PUSH1 0x19 DUP4 PUSH2 0x3634 JUMP JUMPDEST SWAP2 POP PUSH2 0x3171 DUP3 PUSH2 0x3DA0 JUMP JUMPDEST PUSH1 0x20 DUP3 ADD SWAP1 POP SWAP2 SWAP1 POP JUMP JUMPDEST PUSH1 0x0 PUSH1 0xE0 DUP4 ADD PUSH1 0x0 DUP4 ADD MLOAD PUSH2 0x3194 PUSH1 0x0 DUP7 ADD DUP3 PUSH2 0x3218 JUMP JUMPDEST POP PUSH1 0x20 DUP4 ADD MLOAD PUSH2 0x31A7 PUSH1 0x20 DUP7 ADD DUP3 PUSH2 0x2DC3 JUMP JUMPDEST POP PUSH1 0x40 DUP4 ADD MLOAD PUSH2 0x31BA PUSH1 0x40 DUP7 ADD DUP3 PUSH2 0x2DC3 JUMP JUMPDEST POP PUSH1 0x60 DUP4 ADD MLOAD DUP5 DUP3 SUB PUSH1 0x60 DUP7 ADD MSTORE PUSH2 0x31D2 DUP3 DUP3 PUSH2 0x2E4E JUMP JUMPDEST SWAP2 POP POP PUSH1 0x80 DUP4 ADD MLOAD PUSH2 0x31E7 PUSH1 0x80 DUP7 ADD DUP3 PUSH2 0x3218 JUMP JUMPDEST POP PUSH1 0xA0 DUP4 ADD MLOAD PUSH2 0x31FA PUSH1 0xA0 DUP7 ADD DUP3 PUSH2 0x2E3F JUMP JUMPDEST POP PUSH1 0xC0 DUP4 ADD MLOAD PUSH2 0x320D PUSH1 0xC0 DUP7 ADD DUP3 PUSH2 0x3218 JUMP JUMPDEST POP DUP1 SWAP2 POP POP SWAP3 SWAP2 POP POP JUMP JUMPDEST PUSH2 0x3221 DUP2 PUSH2 0x37AB JUMP JUMPDEST DUP3 MSTORE POP POP JUMP JUMPDEST PUSH2 0x3230 DUP2 PUSH2 0x37AB JUMP JUMPDEST DUP3 MSTORE POP POP JUMP JUMPDEST PUSH1 0x0 PUSH1 0x20 DUP3 ADD SWAP1 POP DUP2 DUP2 SUB PUSH1 0x0 DUP4 ADD MSTORE PUSH2 0x3250 DUP2 DUP5 PUSH2 0x2DD2 JUMP JUMPDEST SWAP1 POP SWAP3 SWAP2 POP POP JUMP JUMPDEST PUSH1 0x0 PUSH1 0x20 DUP3 ADD SWAP1 POP PUSH2 0x326D PUSH1 0x0 DUP4 ADD DUP5 PUSH2 0x2E30 JUMP JUMPDEST SWAP3 SWAP2 POP POP JUMP JUMPDEST PUSH1 0x0 PUSH1 0x40 DUP3 ADD SWAP1 POP DUP2 DUP2 SUB PUSH1 0x0 DUP4 ADD MSTORE PUSH2 0x328D DUP2 DUP6 PUSH2 0x2E87 JUMP JUMPDEST SWAP1 POP PUSH2 0x329C PUSH1 0x20 DUP4 ADD DUP5 PUSH2 0x3227 JUMP JUMPDEST SWAP4 SWAP3 POP POP POP JUMP JUMPDEST PUSH1 0x0 PUSH1 0x20 DUP3 ADD SWAP1 POP DUP2 DUP2 SUB PUSH1 0x0 DUP4 ADD MSTORE PUSH2 0x32BC DUP2 PUSH2 0x2EC0 JUMP JUMPDEST SWAP1 POP SWAP2 SWAP1 POP JUMP JUMPDEST PUSH1 0x0 PUSH1 0x20 DUP3 ADD SWAP1 POP DUP2 DUP2 SUB PUSH1 0x0 DUP4 ADD MSTORE PUSH2 0x32DC DUP2 PUSH2 0x2EE3 JUMP JUMPDEST SWAP1 POP SWAP2 SWAP1 POP JUMP JUMPDEST PUSH1 0x0 PUSH1 0x20 DUP3 ADD SWAP1 POP DUP2 DUP2 SUB PUSH1 0x0 DUP4 ADD MSTORE PUSH2 0x32FC DUP2 PUSH2 0x2F06 JUMP JUMPDEST SWAP1 POP SWAP2 SWAP1 POP JUMP JUMPDEST PUSH1 0x0 PUSH1 0x20 DUP3 ADD SWAP1 POP DUP2 DUP2 SUB PUSH1 0x0 DUP4 ADD MSTORE PUSH2 0x331C DUP2 PUSH2 0x2F29 JUMP JUMPDEST SWAP1 POP SWAP2 SWAP1 POP JUMP JUMPDEST PUSH1 0x0 PUSH1 0x20 DUP3 ADD SWAP1 POP DUP2 DUP2 SUB PUSH1 0x0 DUP4 ADD MSTORE PUSH2 0x333C DUP2 PUSH2 0x2F4C JUMP JUMPDEST SWAP1 POP SWAP2 SWAP1 POP JUMP JUMPDEST PUSH1 0x0 PUSH1 0x20 DUP3 ADD SWAP1 POP DUP2 DUP2 SUB PUSH1 0x0 DUP4 ADD MSTORE PUSH2 0x335C DUP2 PUSH2 0x2F6F JUMP JUMPDEST SWAP1 POP SWAP2 SWAP1 POP JUMP JUMPDEST PUSH1 0x0 PUSH1 0x20 DUP3 ADD SWAP1 POP DUP2 DUP2 SUB PUSH1 0x0 DUP4 ADD MSTORE PUSH2 0x337C DUP2 PUSH2 0x2F92 JUMP JUMPDEST SWAP1 POP SWAP2 SWAP1 POP JUMP JUMPDEST PUSH1 0x0 PUSH1 0x20 DUP3 ADD SWAP1 POP DUP2 DUP2 SUB PUSH1 0x0 DUP4 ADD MSTORE PUSH2 0x339C DUP2 PUSH2 0x2FB5 JUMP JUMPDEST SWAP1 POP SWAP2 SWAP1 POP JUMP JUMPDEST PUSH1 0x0 PUSH1 0x20 DUP3 ADD SWAP1 POP DUP2 DUP2 SUB PUSH1 0x0 DUP4 ADD MSTORE PUSH2 0x33BC DUP2 PUSH2 0x2FD8 JUMP JUMPDEST SWAP1 POP SWAP2 SWAP1 POP JUMP JUMPDEST PUSH1 0x0 PUSH1 0x20 DUP3 ADD SWAP1 POP DUP2 DUP2 SUB PUSH1 0x0 DUP4 ADD MSTORE PUSH2 0x33DC DUP2 PUSH2 0x2FFB JUMP JUMPDEST SWAP1 POP SWAP2 SWAP1 POP JUMP JUMPDEST PUSH1 0x0 PUSH1 0x20 DUP3 ADD SWAP1 POP DUP2 DUP2 SUB PUSH1 0x0 DUP4 ADD MSTORE PUSH2 0x33FC DUP2 PUSH2 0x301E JUMP JUMPDEST SWAP1 POP SWAP2 SWAP1 POP JUMP JUMPDEST PUSH1 0x0 PUSH1 0x20 DUP3 ADD SWAP1 POP DUP2 DUP2 SUB PUSH1 0x0 DUP4 ADD MSTORE PUSH2 0x341C DUP2 PUSH2 0x3041 JUMP JUMPDEST SWAP1 POP SWAP2 SWAP1 POP JUMP JUMPDEST PUSH1 0x0 PUSH1 0x20 DUP3 ADD SWAP1 POP DUP2 DUP2 SUB PUSH1 0x0 DUP4 ADD MSTORE PUSH2 0x343C DUP2 PUSH2 0x3064 JUMP JUMPDEST SWAP1 POP SWAP2 SWAP1 POP JUMP JUMPDEST PUSH1 0x0 PUSH1 0x20 DUP3 ADD SWAP1 POP DUP2 DUP2 SUB PUSH1 0x0 DUP4 ADD MSTORE PUSH2 0x345C DUP2 PUSH2 0x3087 JUMP JUMPDEST SWAP1 POP SWAP2 SWAP1 POP JUMP JUMPDEST PUSH1 0x0 PUSH1 0x20 DUP3 ADD SWAP1 POP DUP2 DUP2 SUB PUSH1 0x0 DUP4 ADD MSTORE PUSH2 0x347C DUP2 PUSH2 0x30AA JUMP JUMPDEST SWAP1 POP SWAP2 SWAP1 POP JUMP JUMPDEST PUSH1 0x0 PUSH1 0x20 DUP3 ADD SWAP1 POP DUP2 DUP2 SUB PUSH1 0x0 DUP4 ADD MSTORE PUSH2 0x349C DUP2 PUSH2 0x30CD JUMP JUMPDEST SWAP1 POP SWAP2 SWAP1 POP JUMP JUMPDEST PUSH1 0x0 PUSH1 0x20 DUP3 ADD SWAP1 POP DUP2 DUP2 SUB PUSH1 0x0 DUP4 ADD MSTORE PUSH2 0x34BC DUP2 PUSH2 0x30F0 JUMP JUMPDEST SWAP1 POP SWAP2 SWAP1 POP JUMP JUMPDEST PUSH1 0x0 PUSH1 0x20 DUP3 ADD SWAP1 POP DUP2 DUP2 SUB PUSH1 0x0 DUP4 ADD MSTORE PUSH2 0x34DC DUP2 PUSH2 0x3113 JUMP JUMPDEST SWAP1 POP SWAP2 SWAP1 POP JUMP JUMPDEST PUSH1 0x0 PUSH1 0x20 DUP3 ADD SWAP1 POP DUP2 DUP2 SUB PUSH1 0x0 DUP4 ADD MSTORE PUSH2 0x34FC DUP2 PUSH2 0x3136 JUMP JUMPDEST SWAP1 POP SWAP2 SWAP1 POP JUMP JUMPDEST PUSH1 0x0 PUSH1 0x20 DUP3 ADD SWAP1 POP DUP2 DUP2 SUB PUSH1 0x0 DUP4 ADD MSTORE PUSH2 0x351C DUP2 PUSH2 0x3159 JUMP JUMPDEST SWAP1 POP SWAP2 SWAP1 POP JUMP JUMPDEST PUSH1 0x0 PUSH1 0x20 DUP3 ADD SWAP1 POP DUP2 DUP2 SUB PUSH1 0x0 DUP4 ADD MSTORE PUSH2 0x353D DUP2 DUP5 PUSH2 0x317C JUMP JUMPDEST SWAP1 POP SWAP3 SWAP2 POP POP JUMP JUMPDEST PUSH1 0x0 PUSH1 0x20 DUP3 ADD SWAP1 POP PUSH2 0x355A PUSH1 0x0 DUP4 ADD DUP5 PUSH2 0x3227 JUMP JUMPDEST SWAP3 SWAP2 POP POP JUMP JUMPDEST PUSH1 0x0 PUSH1 0x40 DUP3 ADD SWAP1 POP PUSH2 0x3575 PUSH1 0x0 DUP4 ADD DUP6 PUSH2 0x3227 JUMP JUMPDEST PUSH2 0x3582 PUSH1 0x20 DUP4 ADD DUP5 PUSH2 0x3227 JUMP JUMPDEST SWAP4 SWAP3 POP POP POP JUMP JUMPDEST PUSH1 0x0 PUSH2 0x3593 PUSH2 0x35A4 JUMP JUMPDEST SWAP1 POP PUSH2 0x359F DUP3 DUP3 PUSH2 0x383B JUMP JUMPDEST SWAP2 SWAP1 POP JUMP JUMPDEST PUSH1 0x0 PUSH1 0x40 MLOAD SWAP1 POP SWAP1 JUMP JUMPDEST PUSH1 0x0 PUSH8 0xFFFFFFFFFFFFFFFF DUP3 GT ISZERO PUSH2 0x35C9 JUMPI PUSH2 0x35C8 PUSH2 0x3971 JUMP JUMPDEST JUMPDEST PUSH2 0x35D2 DUP3 PUSH2 0x39A0 JUMP JUMPDEST SWAP1 POP PUSH1 0x20 DUP2 ADD SWAP1 POP SWAP2 SWAP1 POP JUMP JUMPDEST PUSH1 0x0 DUP2 SWAP1 POP PUSH1 0x20 DUP3 ADD SWAP1 POP SWAP2 SWAP1 POP JUMP JUMPDEST PUSH1 0x0 DUP2 MLOAD SWAP1 POP SWAP2 SWAP1 POP JUMP JUMPDEST PUSH1 0x0 DUP2 MLOAD SWAP1 POP SWAP2 SWAP1 POP JUMP JUMPDEST PUSH1 0x0 PUSH1 0x20 DUP3 ADD SWAP1 POP SWAP2 SWAP1 POP JUMP JUMPDEST PUSH1 0x0 DUP3 DUP3 MSTORE PUSH1 0x20 DUP3 ADD SWAP1 POP SWAP3 SWAP2 POP POP JUMP JUMPDEST PUSH1 0x0 DUP3 DUP3 MSTORE PUSH1 0x20 DUP3 ADD SWAP1 POP SWAP3 SWAP2 POP POP JUMP JUMPDEST PUSH1 0x0 DUP3 DUP3 MSTORE PUSH1 0x20 DUP3 ADD SWAP1 POP SWAP3 SWAP2 POP POP JUMP JUMPDEST PUSH1 0x0 PUSH2 0x3650 DUP3 PUSH2 0x37AB JUMP JUMPDEST SWAP2 POP PUSH2 0x365B DUP4 PUSH2 0x37AB JUMP JUMPDEST SWAP3 POP DUP3 PUSH32 0xFFFFFFFFFFFFFFFFFFFFFFFFFFFFFFFFFFFFFFFFFFFFFFFFFFFFFFFFFFFFFFFF SUB DUP3 GT ISZERO PUSH2 0x3690 JUMPI PUSH2 0x368F PUSH2 0x38B5 JUMP JUMPDEST JUMPDEST DUP3 DUP3 ADD SWAP1 POP SWAP3 SWAP2 POP POP JUMP JUMPDEST PUSH1 0x0 PUSH2 0x36A6 DUP3 PUSH2 0x37AB JUMP JUMPDEST SWAP2 POP PUSH2 0x36B1 DUP4 PUSH2 0x37AB JUMP JUMPDEST SWAP3 POP DUP3 PUSH2 0x36C1 JUMPI PUSH2 0x36C0 PUSH2 0x38E4 JUMP JUMPDEST JUMPDEST DUP3 DUP3 DIV SWAP1 POP SWAP3 SWAP2 POP POP JUMP JUMPDEST PUSH1 0x0 PUSH2 0x36D7 DUP3 PUSH2 0x37AB JUMP JUMPDEST SWAP2 POP PUSH2 0x36E2 DUP4 PUSH2 0x37AB JUMP JUMPDEST SWAP3 POP DUP2 PUSH32 0xFFFFFFFFFFFFFFFFFFFFFFFFFFFFFFFFFFFFFFFFFFFFFFFFFFFFFFFFFFFFFFFF DIV DUP4 GT DUP3 ISZERO ISZERO AND ISZERO PUSH2 0x371B JUMPI PUSH2 0x371A PUSH2 0x38B5 JUMP JUMPDEST JUMPDEST DUP3 DUP3 MUL SWAP1 POP SWAP3 SWAP2 POP POP JUMP JUMPDEST PUSH1 0x0 PUSH2 0x3731 DUP3 PUSH2 0x37AB JUMP JUMPDEST SWAP2 POP PUSH2 0x373C DUP4 PUSH2 0x37AB JUMP JUMPDEST SWAP3 POP DUP3 DUP3 LT ISZERO PUSH2 0x374F JUMPI PUSH2 0x374E PUSH2 0x38B5 JUMP JUMPDEST JUMPDEST DUP3 DUP3 SUB SWAP1 POP SWAP3 SWAP2 POP POP JUMP JUMPDEST PUSH1 0x0 PUSH2 0x3765 DUP3 PUSH2 0x378B JUMP JUMPDEST SWAP1 POP SWAP2 SWAP1 POP JUMP JUMPDEST PUSH1 0x0 DUP2 ISZERO ISZERO SWAP1 POP SWAP2 SWAP1 POP JUMP JUMPDEST PUSH1 0x0 DUP2 SWAP1 POP PUSH2 0x3786 DUP3 PUSH2 0x3DC9 JUMP JUMPDEST SWAP2 SWAP1 POP JUMP JUMPDEST PUSH1 0x0 PUSH20 0xFFFFFFFFFFFFFFFFFFFFFFFFFFFFFFFFFFFFFFFF DUP3 AND SWAP1 POP SWAP2 SWAP1 POP JUMP JUMPDEST PUSH1 0x0 DUP2 SWAP1 POP SWAP2 SWAP1 POP JUMP JUMPDEST PUSH1 0x0 PUSH2 0x37C0 DUP3 PUSH2 0x3778 JUMP JUMPDEST SWAP1 POP SWAP2 SWAP1 POP JUMP JUMPDEST DUP3 DUP2 DUP4 CALLDATACOPY PUSH1 0x0 DUP4 DUP4 ADD MSTORE POP POP POP JUMP JUMPDEST PUSH1 0x0 JUMPDEST DUP4 DUP2 LT ISZERO PUSH2 0x37F4 JUMPI DUP1 DUP3 ADD MLOAD DUP2 DUP5 ADD MSTORE PUSH1 0x20 DUP2 ADD SWAP1 POP PUSH2 0x37D9 JUMP JUMPDEST DUP4 DUP2 GT ISZERO PUSH2 0x3803 JUMPI PUSH1 0x0 DUP5 DUP5 ADD MSTORE JUMPDEST POP POP POP POP JUMP JUMPDEST PUSH1 0x0 PUSH1 0x2 DUP3 DIV SWAP1 POP PUSH1 0x1 DUP3 AND DUP1 PUSH2 0x3821 JUMPI PUSH1 0x7F DUP3 AND SWAP2 POP JUMPDEST PUSH1 0x20 DUP3 LT DUP2 EQ ISZERO PUSH2 0x3835 JUMPI PUSH2 0x3834 PUSH2 0x3942 JUMP JUMPDEST JUMPDEST POP SWAP2 SWAP1 POP JUMP JUMPDEST PUSH2 0x3844 DUP3 PUSH2 0x39A0 JUMP JUMPDEST DUP2 ADD DUP2 DUP2 LT PUSH8 0xFFFFFFFFFFFFFFFF DUP3 GT OR ISZERO PUSH2 0x3863 JUMPI PUSH2 0x3862 PUSH2 0x3971 JUMP JUMPDEST JUMPDEST DUP1 PUSH1 0x40 MSTORE POP POP POP JUMP JUMPDEST PUSH1 0x0 PUSH2 0x3877 DUP3 PUSH2 0x37AB JUMP JUMPDEST SWAP2 POP PUSH32 0xFFFFFFFFFFFFFFFFFFFFFFFFFFFFFFFFFFFFFFFFFFFFFFFFFFFFFFFFFFFFFFFF DUP3 EQ ISZERO PUSH2 0x38AA JUMPI PUSH2 0x38A9 PUSH2 0x38B5 JUMP JUMPDEST JUMPDEST PUSH1 0x1 DUP3 ADD SWAP1 POP SWAP2 SWAP1 POP JUMP JUMPDEST PUSH32 0x4E487B7100000000000000000000000000000000000000000000000000000000 PUSH1 0x0 MSTORE PUSH1 0x11 PUSH1 0x4 MSTORE PUSH1 0x24 PUSH1 0x0 REVERT JUMPDEST PUSH32 0x4E487B7100000000000000000000000000000000000000000000000000000000 PUSH1 0x0 MSTORE PUSH1 0x12 PUSH1 0x4 MSTORE PUSH1 0x24 PUSH1 0x0 REVERT JUMPDEST PUSH32 0x4E487B7100000000000000000000000000000000000000000000000000000000 PUSH1 0x0 MSTORE PUSH1 0x21 PUSH1 0x4 MSTORE PUSH1 0x24 PUSH1 0x0 REVERT JUMPDEST PUSH32 0x4E487B7100000000000000000000000000000000000000000000000000000000 PUSH1 0x0 MSTORE PUSH1 0x22 PUSH1 0x4 MSTORE PUSH1 0x24 PUSH1 0x0 REVERT JUMPDEST PUSH32 0x4E487B7100000000000000000000000000000000000000000000000000000000 PUSH1 0x0 MSTORE PUSH1 0x41 PUSH1 0x4 MSTORE PUSH1 0x24 PUSH1 0x0 REVERT JUMPDEST PUSH1 0x0 PUSH1 0x1F NOT PUSH1 0x1F DUP4 ADD AND SWAP1 POP SWAP2 SWAP1 POP JUMP JUMPDEST PUSH32 0x6A6F62206E6F74206F70656E6564207965740000000000000000000000000000 PUSH1 0x0 DUP3 ADD MSTORE POP JUMP JUMPDEST PUSH32 0x6E6F742074686520636C69656E74206F662074686973206A6F62000000000000 PUSH1 0x0 DUP3 ADD MSTORE POP JUMP JUMPDEST PUSH32 0x6D696E696D756D206F662031302063686172616374657220746F2070726F6365 PUSH1 0x0 DUP3 ADD MSTORE PUSH32 0x6564000000000000000000000000000000000000000000000000000000000000 PUSH1 0x20 DUP3 ADD MSTORE POP JUMP JUMPDEST PUSH32 0x6E6F742074686520667265656C616E63657220666F7220746865206A6F620000 PUSH1 0x0 DUP3 ADD MSTORE POP JUMP JUMPDEST PUSH32 0x6A6F622068617320746F20626520646973707574656400000000000000000000 PUSH1 0x0 DUP3 ADD MSTORE POP JUMP JUMPDEST PUSH32 0x6A6F622068617320746F20626520636F6D706C65746564000000000000000000 PUSH1 0x0 DUP3 ADD MSTORE POP JUMP JUMPDEST PUSH32 0x657363726F7720696420646F6573206E6F742065786973740000000000000000 PUSH1 0x0 DUP3 ADD MSTORE POP JUMP JUMPDEST PUSH32 0x4A6F622068617320746F20626520696E2070726F677265737300000000000000 PUSH1 0x0 DUP3 ADD MSTORE POP JUMP JUMPDEST PUSH32 0x6665652072616E6765206D757374206265206265747765656E203020746F2031 PUSH1 0x0 DUP3 ADD MSTORE PUSH32 0x3025000000000000000000000000000000000000000000000000000000000000 PUSH1 0x20 DUP3 ADD MSTORE POP JUMP JUMPDEST PUSH32 0x636C69656E74206F7220667265656C616E636572206F6E6C7900000000000000 PUSH1 0x0 DUP3 ADD MSTORE POP JUMP JUMPDEST PUSH32 0x796F752063616E27742068617665203020616D6F756E74000000000000000000 PUSH1 0x0 DUP3 ADD MSTORE POP JUMP JUMPDEST PUSH32 0x616464726573732063616E27742062652061207A65726F206164647265737300 PUSH1 0x0 DUP3 ADD MSTORE POP JUMP JUMPDEST PUSH32 0x74686520636F6E74726163742069732070617573656400000000000000000000 PUSH1 0x0 DUP3 ADD MSTORE POP JUMP JUMPDEST PUSH32 0x4A6F62206D75737420626520696E2070726F6772657373206F7220636F6D706C PUSH1 0x0 DUP3 ADD MSTORE PUSH32 0x6574656400000000000000000000000000000000000000000000000000000000 PUSH1 0x20 DUP3 ADD MSTORE POP JUMP JUMPDEST PUSH32 0x6E6F206561726E696E6773207965740000000000000000000000000000000000 PUSH1 0x0 DUP3 ADD MSTORE POP JUMP JUMPDEST PUSH32 0x616464726573732063616E2774206265207468652064656661756C7420616464 PUSH1 0x0 DUP3 ADD MSTORE PUSH32 0x7265737300000000000000000000000000000000000000000000000000000000 PUSH1 0x20 DUP3 ADD MSTORE POP JUMP JUMPDEST PUSH32 0x6F6E6C79206F776E65722063616E2063616C6C207468697320636F6E74726163 PUSH1 0x0 DUP3 ADD MSTORE PUSH32 0x7400000000000000000000000000000000000000000000000000000000000000 PUSH1 0x20 DUP3 ADD MSTORE POP JUMP JUMPDEST PUSH32 0x6F6E6365206A6F622069732061636365707465642069742063616E2774206265 PUSH1 0x0 DUP3 ADD MSTORE PUSH32 0x2063616E63656C6C656400000000000000000000000000000000000000000000 PUSH1 0x20 DUP3 ADD MSTORE POP JUMP JUMPDEST PUSH32 0x667265656C616E6365722063616E27742062652074686520636C69656E740000 PUSH1 0x0 DUP3 ADD MSTORE POP JUMP JUMPDEST PUSH32 0x667265656C616E63657220686173206E6F2062616C616E636500000000000000 PUSH1 0x0 DUP3 ADD MSTORE POP JUMP JUMPDEST PUSH1 0x6 DUP2 LT PUSH2 0x3DDA JUMPI PUSH2 0x3DD9 PUSH2 0x3913 JUMP JUMPDEST JUMPDEST POP JUMP JUMPDEST PUSH2 0x3DE6 DUP2 PUSH2 0x375A JUMP JUMPDEST DUP2 EQ PUSH2 0x3DF1 JUMPI PUSH1 0x0 DUP1 REVERT JUMPDEST POP JUMP JUMPDEST PUSH2 0x3DFD DUP2 PUSH2 0x376C JUMP JUMPDEST DUP2 EQ PUSH2 0x3E08 JUMPI PUSH1 0x0 DUP1 REVERT JUMPDEST POP JUMP JUMPDEST PUSH2 0x3E14 DUP2 PUSH2 0x37AB JUMP JUMPDEST DUP2 EQ PUSH2 0x3E1F JUMPI PUSH1 0x0 DUP1 REVERT JUMPDEST POP JUMP INVALID LOG2 PUSH5 0x6970667358 0x22 SLT KECCAK256 0xEB BYTE 0xDA 0x5C LOG0 0x23 0xD 0xA7 0xF6 DUP3 SWAP4 0xA9 0xEB 0x4A BLOCKHASH CREATE2 LOG0 0xBA SWAP9 STATICCALL PUSH21 0xB8D7890E8D694167E438A864736F6C634300080300 CALLER "
				},
				"gasEstimates": {
					"creation": {
						"codeDepositCost": "3192000",
						"executionCost": "44403",
						"totalCost": "3236403"
					},
					"external": {
						"Pause()": "21973",
						"acceptEscrow(uint256)": "26718",
						"approveAndRelease(uint256)": "infinite",
						"cancelEscrow(uint256)": "infinite",
						"changeFee(uint256)": "infinite",
						"createEscrow(string,address)": "infinite",
						"dispute(uint256)": "28629",
						"getEscrow(uint256)": "infinite",
						"getMyClientEscrows()": "infinite",
						"getMyEarnings()": "2215",
						"getMyFreelancerEscrows()": "infinite",
						"resolveDispute(uint256,bool)": "infinite",
						"submitWork(uint256)": "26719",
						"transferOwnership(address)": "22312",
						"unPause()": "22038",
						"withdrawEarnings()": "infinite",
						"withdrawPlatformFee()": "infinite"
					}
				},
				"methodIdentifiers": {
					"Pause()": "6985a022",
					"acceptEscrow(uint256)": "ee28ea62",
					"approveAndRelease(uint256)": "dcb05611",
					"cancelEscrow(uint256)": "e0182436",
					"changeFee(uint256)": "6a1db1bf",
					"createEscrow(string,address)": "5c77298d",
					"dispute(uint256)": "86d6282c",
					"getEscrow(uint256)": "7d19e596",
					"getMyClientEscrows()": "0f3dcdf2",
					"getMyEarnings()": "22754d8b",
					"getMyFreelancerEscrows()": "e39c3367",
					"resolveDispute(uint256,bool)": "34b25ee2",
					"submitWork(uint256)": "c4c11523",
					"transferOwnership(address)": "f2fde38b",
					"unPause()": "f7b188a5",
					"withdrawEarnings()": "b73c6ce9",
					"withdrawPlatformFee()": "202cefd5"
				}
			},
			"storageLayout": {
				"storage": [
					{
						"astId": 3,
						"contract": "contract/firstWork.sol:escrow",
						"label": "owner",
						"offset": 0,
						"slot": "0",
						"type": "t_address"
					},
					{
						"astId": 51,
						"contract": "contract/firstWork.sol:escrow",
						"label": "isItPaused",
						"offset": 20,
						"slot": "0",
						"type": "t_bool"
					},
					{
						"astId": 90,
						"contract": "contract/firstWork.sol:escrow",
						"label": "platformFee",
						"offset": 0,
						"slot": "1",
						"type": "t_uint256"
					},
					{
						"astId": 92,
						"contract": "contract/firstWork.sol:escrow",
						"label": "platformEarnings",
						"offset": 0,
						"slot": "2",
						"type": "t_uint256"
					},
					{
						"astId": 94,
						"contract": "contract/firstWork.sol:escrow",
						"label": "escrowCounter",
						"offset": 0,
						"slot": "3",
						"type": "t_uint256"
					},
					{
						"astId": 122,
						"contract": "contract/firstWork.sol:escrow",
						"label": "Escrow",
						"offset": 0,
						"slot": "4",
						"type": "t_mapping(t_uint256,t_struct(data)117_storage)"
					},
					{
						"astId": 127,
						"contract": "contract/firstWork.sol:escrow",
						"label": "client",
						"offset": 0,
						"slot": "5",
						"type": "t_mapping(t_address,t_array(t_uint256)dyn_storage)"
					},
					{
						"astId": 132,
						"contract": "contract/firstWork.sol:escrow",
						"label": "freelancer",
						"offset": 0,
						"slot": "6",
						"type": "t_mapping(t_address,t_array(t_uint256)dyn_storage)"
					},
					{
						"astId": 136,
						"contract": "contract/firstWork.sol:escrow",
						"label": "earnings",
						"offset": 0,
						"slot": "7",
						"type": "t_mapping(t_address,t_uint256)"
					}
				],
				"types": {
					"t_address": {
						"encoding": "inplace",
						"label": "address",
						"numberOfBytes": "20"
					},
					"t_array(t_uint256)dyn_storage": {
						"base": "t_uint256",
						"encoding": "dynamic_array",
						"label": "uint256[]",
						"numberOfBytes": "32"
					},
					"t_bool": {
						"encoding": "inplace",
						"label": "bool",
						"numberOfBytes": "1"
					},
					"t_enum(Status)101": {
						"encoding": "inplace",
						"label": "enum escrow.Status",
						"numberOfBytes": "1"
					},
					"t_mapping(t_address,t_array(t_uint256)dyn_storage)": {
						"encoding": "mapping",
						"key": "t_address",
						"label": "mapping(address => uint256[])",
						"numberOfBytes": "32",
						"value": "t_array(t_uint256)dyn_storage"
					},
					"t_mapping(t_address,t_uint256)": {
						"encoding": "mapping",
						"key": "t_address",
						"label": "mapping(address => uint256)",
						"numberOfBytes": "32",
						"value": "t_uint256"
					},
					"t_mapping(t_uint256,t_struct(data)117_storage)": {
						"encoding": "mapping",
						"key": "t_uint256",
						"label": "mapping(uint256 => struct escrow.data)",
						"numberOfBytes": "32",
						"value": "t_struct(data)117_storage"
					},
					"t_string_storage": {
						"encoding": "bytes",
						"label": "string",
						"numberOfBytes": "32"
					},
					"t_struct(data)117_storage": {
						"encoding": "inplace",
						"label": "struct escrow.data",
						"members": [
							{
								"astId": 103,
								"contract": "contract/firstWork.sol:escrow",
								"label": "escrowId",
								"offset": 0,
								"slot": "0",
								"type": "t_uint256"
							},
							{
								"astId": 105,
								"contract": "contract/firstWork.sol:escrow",
								"label": "employer",
								"offset": 0,
								"slot": "1",
								"type": "t_address"
							},
							{
								"astId": 107,
								"contract": "contract/firstWork.sol:escrow",
								"label": "employee",
								"offset": 0,
								"slot": "2",
								"type": "t_address"
							},
							{
								"astId": 109,
								"contract": "contract/firstWork.sol:escrow",
								"label": "jobDesc",
								"offset": 0,
								"slot": "3",
								"type": "t_string_storage"
							},
							{
								"astId": 111,
								"contract": "contract/firstWork.sol:escrow",
								"label": "amount",
								"offset": 0,
								"slot": "4",
								"type": "t_uint256"
							},
							{
								"astId": 114,
								"contract": "contract/firstWork.sol:escrow",
								"label": "status",
								"offset": 0,
								"slot": "5",
								"type": "t_enum(Status)101"
							},
							{
								"astId": 116,
								"contract": "contract/firstWork.sol:escrow",
								"label": "timestamp",
								"offset": 0,
								"slot": "6",
								"type": "t_uint256"
							}
						],
						"numberOfBytes": "224"
					},
					"t_uint256": {
						"encoding": "inplace",
						"label": "uint256",
						"numberOfBytes": "32"
					}
				}
			},
			"userdoc": {
				"kind": "user",
				"methods": {},
				"version": 1
			}
		}
	}
}